{
	"contracts/MultiSigWallet.sol": {
		"MultiSigWallet": {
			"abi": [
				{
					"inputs": [
						{
							"internalType": "address[]",
							"name": "_signers",
							"type": "address[]"
						},
						{
							"internalType": "uint256",
							"name": "_requiredSignatures",
							"type": "uint256"
						},
						{
							"internalType": "address",
							"name": "_recoveryAddress",
							"type": "address"
						}
					],
					"stateMutability": "nonpayable",
					"type": "constructor"
				},
				{
					"anonymous": false,
					"inputs": [
						{
							"indexed": true,
							"internalType": "bytes32",
							"name": "id",
							"type": "bytes32"
						},
						{
							"indexed": true,
							"internalType": "address",
							"name": "signer",
							"type": "address"
						}
					],
					"name": "Approval",
					"type": "event"
				},
				{
					"anonymous": false,
					"inputs": [
						{
							"indexed": true,
							"internalType": "bytes32",
							"name": "id",
							"type": "bytes32"
						}
					],
					"name": "Cancellation",
					"type": "event"
				},
				{
					"anonymous": false,
					"inputs": [
						{
							"indexed": true,
							"internalType": "bytes32",
							"name": "id",
							"type": "bytes32"
						}
					],
					"name": "Execution",
					"type": "event"
				},
				{
					"anonymous": false,
					"inputs": [
						{
							"indexed": true,
							"internalType": "bytes32",
							"name": "id",
							"type": "bytes32"
						},
						{
							"indexed": true,
							"internalType": "address",
							"name": "destination",
							"type": "address"
						},
						{
							"indexed": false,
							"internalType": "uint256",
							"name": "value",
							"type": "uint256"
						},
						{
							"indexed": false,
							"internalType": "bytes",
							"name": "data",
							"type": "bytes"
						}
					],
					"name": "NewTransaction",
					"type": "event"
				},
				{
					"anonymous": false,
					"inputs": [
						{
							"indexed": true,
							"internalType": "address",
							"name": "previousOwner",
							"type": "address"
						},
						{
							"indexed": true,
							"internalType": "address",
							"name": "newOwner",
							"type": "address"
						}
					],
					"name": "OwnershipTransferred",
					"type": "event"
				},
				{
					"anonymous": false,
					"inputs": [
						{
							"indexed": true,
							"internalType": "address",
							"name": "signer",
							"type": "address"
						},
						{
							"indexed": true,
							"internalType": "bool",
							"name": "isSigner",
							"type": "bool"
						}
					],
					"name": "SignerUpdate",
					"type": "event"
				},
				{
					"inputs": [
						{
							"internalType": "address",
							"name": "signer",
							"type": "address"
						}
					],
					"name": "addSigner",
					"outputs": [],
					"stateMutability": "nonpayable",
					"type": "function"
				},
				{
					"inputs": [
						{
							"internalType": "bytes32",
							"name": "",
							"type": "bytes32"
						},
						{
							"internalType": "address",
							"name": "",
							"type": "address"
						}
					],
					"name": "approvals",
					"outputs": [
						{
							"internalType": "bool",
							"name": "",
							"type": "bool"
						}
					],
					"stateMutability": "view",
					"type": "function"
				},
				{
					"inputs": [
						{
							"internalType": "bytes32",
							"name": "id",
							"type": "bytes32"
						}
					],
					"name": "approveTransaction",
					"outputs": [],
					"stateMutability": "nonpayable",
					"type": "function"
				},
				{
					"inputs": [
						{
							"internalType": "bytes32",
							"name": "id",
							"type": "bytes32"
						}
					],
					"name": "cancelTransaction",
					"outputs": [],
					"stateMutability": "nonpayable",
					"type": "function"
				},
				{
					"inputs": [
						{
							"internalType": "address",
							"name": "destination",
							"type": "address"
						},
						{
							"internalType": "uint256",
							"name": "value",
							"type": "uint256"
						},
						{
							"internalType": "bytes",
							"name": "data",
							"type": "bytes"
						}
					],
					"name": "createTransaction",
					"outputs": [
						{
							"internalType": "bytes32",
							"name": "",
							"type": "bytes32"
						}
					],
					"stateMutability": "nonpayable",
					"type": "function"
				},
				{
					"inputs": [
						{
							"internalType": "bytes32",
							"name": "id",
							"type": "bytes32"
						}
					],
					"name": "executeTransaction",
					"outputs": [],
					"stateMutability": "nonpayable",
					"type": "function"
				},
				{
					"inputs": [
						{
							"internalType": "address",
							"name": "",
							"type": "address"
						}
					],
					"name": "isSigner",
					"outputs": [
						{
							"internalType": "bool",
							"name": "",
							"type": "bool"
						}
					],
					"stateMutability": "view",
					"type": "function"
				},
				{
					"inputs": [],
					"name": "owner",
					"outputs": [
						{
							"internalType": "address",
							"name": "",
							"type": "address"
						}
					],
					"stateMutability": "view",
					"type": "function"
				},
				{
					"inputs": [
						{
							"internalType": "address",
							"name": "newOwner",
							"type": "address"
						}
					],
					"name": "recoverWallet",
					"outputs": [],
					"stateMutability": "nonpayable",
					"type": "function"
				},
				{
					"inputs": [],
					"name": "recoveryAddress",
					"outputs": [
						{
							"internalType": "address",
							"name": "",
							"type": "address"
						}
					],
					"stateMutability": "view",
					"type": "function"
				},
				{
					"inputs": [
						{
							"internalType": "address",
							"name": "signer",
							"type": "address"
						}
					],
					"name": "removeSigner",
					"outputs": [],
					"stateMutability": "nonpayable",
					"type": "function"
				},
				{
					"inputs": [],
					"name": "requiredSignatures",
					"outputs": [
						{
							"internalType": "uint256",
							"name": "",
							"type": "uint256"
						}
					],
					"stateMutability": "view",
					"type": "function"
				},
				{
					"inputs": [
						{
							"internalType": "uint256",
							"name": "",
							"type": "uint256"
						}
					],
					"name": "signers",
					"outputs": [
						{
							"internalType": "address",
							"name": "",
							"type": "address"
						}
					],
					"stateMutability": "view",
					"type": "function"
				},
				{
					"inputs": [
						{
							"internalType": "uint256",
							"name": "",
							"type": "uint256"
						}
					],
					"name": "transactionList",
					"outputs": [
						{
							"internalType": "bytes32",
							"name": "",
							"type": "bytes32"
						}
					],
					"stateMutability": "view",
					"type": "function"
				},
				{
					"inputs": [
						{
							"internalType": "bytes32",
							"name": "",
							"type": "bytes32"
						}
					],
					"name": "transactions",
					"outputs": [
						{
							"internalType": "address",
							"name": "destination",
							"type": "address"
						},
						{
							"internalType": "uint256",
							"name": "value",
							"type": "uint256"
						},
						{
							"internalType": "bytes",
							"name": "data",
							"type": "bytes"
						},
						{
							"internalType": "bool",
							"name": "executed",
							"type": "bool"
						}
					],
					"stateMutability": "view",
					"type": "function"
				}
			],
			"devdoc": {
				"kind": "dev",
				"methods": {},
				"version": 1
			},
			"evm": {
				"assembly": "    /* \"contracts/MultiSigWallet.sol\":64:7185  contract MultiSigWallet {... */\n  mstore(0x40, 0x80)\n    /* \"contracts/MultiSigWallet.sol\":1881:2513  constructor(address[] memory _signers, uint _requiredSignatures, address _recoveryAddress) {... */\n  callvalue\n  dup1\n  iszero\n  tag_1\n  jumpi\n  0x00\n  dup1\n  revert\ntag_1:\n  pop\n  mload(0x40)\n  sub(codesize, bytecodeSize)\n  dup1\n  bytecodeSize\n  dup4\n  codecopy\n  dup2\n  dup2\n  add\n  0x40\n  mstore\n  dup2\n  add\n  swap1\n  tag_2\n  swap2\n  swap1\n  tag_3\n  jump\t// in\ntag_2:\n    /* \"contracts/MultiSigWallet.sol\":2008:2009  0 */\n  0x00\n    /* \"contracts/MultiSigWallet.sol\":1990:1998  _signers */\n  dup4\n    /* \"contracts/MultiSigWallet.sol\":1990:2005  _signers.length */\n  mload\n    /* \"contracts/MultiSigWallet.sol\":1990:2009  _signers.length > 0 */\n  gt\n    /* \"contracts/MultiSigWallet.sol\":1990:2036  _signers.length > 0 && _requiredSignatures > 0 */\n  dup1\n  iszero\n  tag_6\n  jumpi\n  pop\n    /* \"contracts/MultiSigWallet.sol\":2035:2036  0 */\n  0x00\n    /* \"contracts/MultiSigWallet.sol\":2013:2032  _requiredSignatures */\n  dup3\n    /* \"contracts/MultiSigWallet.sol\":2013:2036  _requiredSignatures > 0 */\n  gt\n    /* \"contracts/MultiSigWallet.sol\":1990:2036  _signers.length > 0 && _requiredSignatures > 0 */\ntag_6:\n    /* \"contracts/MultiSigWallet.sol\":1990:2078  _signers.length > 0 && _requiredSignatures > 0 && _requiredSignatures <= _signers.length */\n  dup1\n  iszero\n  tag_7\n  jumpi\n  pop\n    /* \"contracts/MultiSigWallet.sol\":2063:2071  _signers */\n  dup3\n    /* \"contracts/MultiSigWallet.sol\":2063:2078  _signers.length */\n  mload\n    /* \"contracts/MultiSigWallet.sol\":2040:2059  _requiredSignatures */\n  dup3\n    /* \"contracts/MultiSigWallet.sol\":2040:2078  _requiredSignatures <= _signers.length */\n  gt\n  iszero\n    /* \"contracts/MultiSigWallet.sol\":1990:2078  _signers.length > 0 && _requiredSignatures > 0 && _requiredSignatures <= _signers.length */\ntag_7:\n    /* \"contracts/MultiSigWallet.sol\":1982:2096  require(_signers.length > 0 && _requiredSignatures > 0 && _requiredSignatures <= _signers.length, \"Invalid input\") */\n  tag_8\n  jumpi\n  mload(0x40)\n  0x08c379a000000000000000000000000000000000000000000000000000000000\n  dup2\n  mstore\n  0x04\n  add\n  tag_9\n  swap1\n  tag_10\n  jump\t// in\ntag_9:\n  mload(0x40)\n  dup1\n  swap2\n  sub\n  swap1\n  revert\ntag_8:\n    /* \"contracts/MultiSigWallet.sol\":2115:2125  msg.sender */\n  caller\n    /* \"contracts/MultiSigWallet.sol\":2107:2112  owner */\n  0x00\n  dup1\n    /* \"contracts/MultiSigWallet.sol\":2107:2125  owner = msg.sender */\n  0x0100\n  exp\n  dup2\n  sload\n  dup2\n  0xffffffffffffffffffffffffffffffffffffffff\n  mul\n  not\n  and\n  swap1\n  dup4\n  0xffffffffffffffffffffffffffffffffffffffff\n  and\n  mul\n  or\n  swap1\n  sstore\n  pop\n    /* \"contracts/MultiSigWallet.sol\":2205:2211  uint i */\n  0x00\n    /* \"contracts/MultiSigWallet.sol\":2200:2412  for (uint i = 0; i < _signers.length; i++) {... */\ntag_11:\n    /* \"contracts/MultiSigWallet.sol\":2221:2229  _signers */\n  dup4\n    /* \"contracts/MultiSigWallet.sol\":2221:2236  _signers.length */\n  mload\n    /* \"contracts/MultiSigWallet.sol\":2217:2218  i */\n  dup2\n    /* \"contracts/MultiSigWallet.sol\":2217:2236  i < _signers.length */\n  lt\n    /* \"contracts/MultiSigWallet.sol\":2200:2412  for (uint i = 0; i < _signers.length; i++) {... */\n  iszero\n  tag_12\n  jumpi\n    /* \"contracts/MultiSigWallet.sol\":2257:2271  address signer */\n  0x00\n    /* \"contracts/MultiSigWallet.sol\":2274:2282  _signers */\n  dup5\n    /* \"contracts/MultiSigWallet.sol\":2283:2284  i */\n  dup3\n    /* \"contracts/MultiSigWallet.sol\":2274:2285  _signers[i] */\n  dup2\n  mload\n  dup2\n  lt\n  tag_14\n  jumpi\n  tag_15\n  tag_16\n  jump\t// in\ntag_15:\ntag_14:\n  0x20\n  mul\n  0x20\n  add\n  add\n  mload\n    /* \"contracts/MultiSigWallet.sol\":2257:2285  address signer = _signers[i] */\n  swap1\n  pop\n    /* \"contracts/MultiSigWallet.sol\":2299:2306  signers */\n  0x01\n    /* \"contracts/MultiSigWallet.sol\":2312:2318  signer */\n  dup2\n    /* \"contracts/MultiSigWallet.sol\":2299:2319  signers.push(signer) */\n  swap1\n  dup1\n  0x01\n  dup2\n  sload\n  add\n  dup1\n  dup3\n  sstore\n  dup1\n  swap2\n  pop\n  pop\n  0x01\n  swap1\n  sub\n  swap1\n  0x00\n  mstore\n  keccak256(0x00, 0x20)\n  add\n  0x00\n  swap1\n  swap2\n  swap1\n  swap2\n  swap1\n  swap2\n  0x0100\n  exp\n  dup2\n  sload\n  dup2\n  0xffffffffffffffffffffffffffffffffffffffff\n  mul\n  not\n  and\n  swap1\n  dup4\n  0xffffffffffffffffffffffffffffffffffffffff\n  and\n  mul\n  or\n  swap1\n  sstore\n  pop\n    /* \"contracts/MultiSigWallet.sol\":2352:2356  true */\n  0x01\n    /* \"contracts/MultiSigWallet.sol\":2333:2341  isSigner */\n  0x03\n    /* \"contracts/MultiSigWallet.sol\":2333:2349  isSigner[signer] */\n  0x00\n    /* \"contracts/MultiSigWallet.sol\":2342:2348  signer */\n  dup4\n    /* \"contracts/MultiSigWallet.sol\":2333:2349  isSigner[signer] */\n  0xffffffffffffffffffffffffffffffffffffffff\n  and\n  0xffffffffffffffffffffffffffffffffffffffff\n  and\n  dup2\n  mstore\n  0x20\n  add\n  swap1\n  dup2\n  mstore\n  0x20\n  add\n  0x00\n  keccak256\n  0x00\n    /* \"contracts/MultiSigWallet.sol\":2333:2356  isSigner[signer] = true */\n  0x0100\n  exp\n  dup2\n  sload\n  dup2\n  0xff\n  mul\n  not\n  and\n  swap1\n  dup4\n  iszero\n  iszero\n  mul\n  or\n  swap1\n  sstore\n  pop\n    /* \"contracts/MultiSigWallet.sol\":2396:2400  true */\n  0x01\n    /* \"contracts/MultiSigWallet.sol\":2375:2401  SignerUpdate(signer, true) */\n  iszero\n  iszero\n    /* \"contracts/MultiSigWallet.sol\":2388:2394  signer */\n  dup2\n    /* \"contracts/MultiSigWallet.sol\":2375:2401  SignerUpdate(signer, true) */\n  0xffffffffffffffffffffffffffffffffffffffff\n  and\n  0xc648f6265408cc54c0dc26d24ba51dfc9f35ce1a63baa2228f65d93aaf11cc67\n  mload(0x40)\n  mload(0x40)\n  dup1\n  swap2\n  sub\n  swap1\n  log3\n    /* \"contracts/MultiSigWallet.sol\":2243:2412  {... */\n  pop\n    /* \"contracts/MultiSigWallet.sol\":2238:2241  i++ */\n  dup1\n  dup1\n  tag_18\n  swap1\n  tag_19\n  jump\t// in\ntag_18:\n  swap2\n  pop\n  pop\n    /* \"contracts/MultiSigWallet.sol\":2200:2412  for (uint i = 0; i < _signers.length; i++) {... */\n  jump(tag_11)\ntag_12:\n  pop\n    /* \"contracts/MultiSigWallet.sol\":2443:2462  _requiredSignatures */\n  dup2\n    /* \"contracts/MultiSigWallet.sol\":2422:2440  requiredSignatures */\n  0x02\n    /* \"contracts/MultiSigWallet.sol\":2422:2462  requiredSignatures = _requiredSignatures */\n  dup2\n  swap1\n  sstore\n  pop\n    /* \"contracts/MultiSigWallet.sol\":2490:2506  _recoveryAddress */\n  dup1\n    /* \"contracts/MultiSigWallet.sol\":2472:2487  recoveryAddress */\n  0x07\n  0x00\n    /* \"contracts/MultiSigWallet.sol\":2472:2506  recoveryAddress = _recoveryAddress */\n  0x0100\n  exp\n  dup2\n  sload\n  dup2\n  0xffffffffffffffffffffffffffffffffffffffff\n  mul\n  not\n  and\n  swap1\n  dup4\n  0xffffffffffffffffffffffffffffffffffffffff\n  and\n  mul\n  or\n  swap1\n  sstore\n  pop\n    /* \"contracts/MultiSigWallet.sol\":1881:2513  constructor(address[] memory _signers, uint _requiredSignatures, address _recoveryAddress) {... */\n  pop\n  pop\n  pop\n    /* \"contracts/MultiSigWallet.sol\":64:7185  contract MultiSigWallet {... */\n  jump(tag_20)\n    /* \"#utility.yul\":24:768   */\ntag_22:\n    /* \"#utility.yul\":131:136   */\n  0x00\n    /* \"#utility.yul\":156:237   */\n  tag_24\n    /* \"#utility.yul\":172:236   */\n  tag_25\n    /* \"#utility.yul\":229:235   */\n  dup5\n    /* \"#utility.yul\":172:236   */\n  tag_26\n  jump\t// in\ntag_25:\n    /* \"#utility.yul\":156:237   */\n  tag_27\n  jump\t// in\ntag_24:\n    /* \"#utility.yul\":147:237   */\n  swap1\n  pop\n    /* \"#utility.yul\":257:262   */\n  dup1\n    /* \"#utility.yul\":286:292   */\n  dup4\n    /* \"#utility.yul\":279:284   */\n  dup3\n    /* \"#utility.yul\":272:293   */\n  mstore\n    /* \"#utility.yul\":320:324   */\n  0x20\n    /* \"#utility.yul\":313:318   */\n  dup3\n    /* \"#utility.yul\":309:325   */\n  add\n    /* \"#utility.yul\":302:325   */\n  swap1\n  pop\n    /* \"#utility.yul\":346:352   */\n  dup3\n    /* \"#utility.yul\":396:399   */\n  dup6\n    /* \"#utility.yul\":388:392   */\n  0x20\n    /* \"#utility.yul\":380:386   */\n  dup7\n    /* \"#utility.yul\":376:393   */\n  mul\n    /* \"#utility.yul\":371:374   */\n  dup3\n    /* \"#utility.yul\":367:394   */\n  add\n    /* \"#utility.yul\":364:400   */\n  gt\n    /* \"#utility.yul\":361:504   */\n  iszero\n  tag_28\n  jumpi\n    /* \"#utility.yul\":415:494   */\n  tag_29\n  tag_30\n  jump\t// in\ntag_29:\n    /* \"#utility.yul\":361:504   */\ntag_28:\n    /* \"#utility.yul\":528:529   */\n  0x00\n    /* \"#utility.yul\":513:762   */\ntag_31:\n    /* \"#utility.yul\":538:544   */\n  dup6\n    /* \"#utility.yul\":535:536   */\n  dup2\n    /* \"#utility.yul\":532:545   */\n  lt\n    /* \"#utility.yul\":513:762   */\n  iszero\n  tag_33\n  jumpi\n    /* \"#utility.yul\":606:609   */\n  dup2\n    /* \"#utility.yul\":635:683   */\n  tag_34\n    /* \"#utility.yul\":679:682   */\n  dup9\n    /* \"#utility.yul\":667:677   */\n  dup3\n    /* \"#utility.yul\":635:683   */\n  tag_35\n  jump\t// in\ntag_34:\n    /* \"#utility.yul\":630:633   */\n  dup5\n    /* \"#utility.yul\":623:684   */\n  mstore\n    /* \"#utility.yul\":713:717   */\n  0x20\n    /* \"#utility.yul\":708:711   */\n  dup5\n    /* \"#utility.yul\":704:718   */\n  add\n    /* \"#utility.yul\":697:718   */\n  swap4\n  pop\n    /* \"#utility.yul\":747:751   */\n  0x20\n    /* \"#utility.yul\":742:745   */\n  dup4\n    /* \"#utility.yul\":738:752   */\n  add\n    /* \"#utility.yul\":731:752   */\n  swap3\n  pop\n    /* \"#utility.yul\":573:762   */\n  pop\n    /* \"#utility.yul\":560:561   */\n  0x01\n    /* \"#utility.yul\":557:558   */\n  dup2\n    /* \"#utility.yul\":553:562   */\n  add\n    /* \"#utility.yul\":548:562   */\n  swap1\n  pop\n    /* \"#utility.yul\":513:762   */\n  jump(tag_31)\ntag_33:\n    /* \"#utility.yul\":517:531   */\n  pop\n    /* \"#utility.yul\":137:768   */\n  pop\n  pop\n    /* \"#utility.yul\":24:768   */\n  swap4\n  swap3\n  pop\n  pop\n  pop\n  jump\t// out\n    /* \"#utility.yul\":774:917   */\ntag_35:\n    /* \"#utility.yul\":831:836   */\n  0x00\n    /* \"#utility.yul\":862:868   */\n  dup2\n    /* \"#utility.yul\":856:869   */\n  mload\n    /* \"#utility.yul\":847:869   */\n  swap1\n  pop\n    /* \"#utility.yul\":878:911   */\n  tag_37\n    /* \"#utility.yul\":905:910   */\n  dup2\n    /* \"#utility.yul\":878:911   */\n  tag_38\n  jump\t// in\ntag_37:\n    /* \"#utility.yul\":774:917   */\n  swap3\n  swap2\n  pop\n  pop\n  jump\t// out\n    /* \"#utility.yul\":940:1325   */\ntag_39:\n    /* \"#utility.yul\":1022:1027   */\n  0x00\n    /* \"#utility.yul\":1071:1074   */\n  dup3\n    /* \"#utility.yul\":1064:1068   */\n  0x1f\n    /* \"#utility.yul\":1056:1062   */\n  dup4\n    /* \"#utility.yul\":1052:1069   */\n  add\n    /* \"#utility.yul\":1048:1075   */\n  slt\n    /* \"#utility.yul\":1038:1160   */\n  tag_41\n  jumpi\n    /* \"#utility.yul\":1079:1158   */\n  tag_42\n  tag_43\n  jump\t// in\ntag_42:\n    /* \"#utility.yul\":1038:1160   */\ntag_41:\n    /* \"#utility.yul\":1189:1195   */\n  dup2\n    /* \"#utility.yul\":1183:1196   */\n  mload\n    /* \"#utility.yul\":1214:1319   */\n  tag_44\n    /* \"#utility.yul\":1315:1318   */\n  dup5\n    /* \"#utility.yul\":1307:1313   */\n  dup3\n    /* \"#utility.yul\":1300:1304   */\n  0x20\n    /* \"#utility.yul\":1292:1298   */\n  dup7\n    /* \"#utility.yul\":1288:1305   */\n  add\n    /* \"#utility.yul\":1214:1319   */\n  tag_22\n  jump\t// in\ntag_44:\n    /* \"#utility.yul\":1205:1319   */\n  swap2\n  pop\n    /* \"#utility.yul\":1028:1325   */\n  pop\n    /* \"#utility.yul\":940:1325   */\n  swap3\n  swap2\n  pop\n  pop\n  jump\t// out\n    /* \"#utility.yul\":1331:1474   */\ntag_45:\n    /* \"#utility.yul\":1388:1393   */\n  0x00\n    /* \"#utility.yul\":1419:1425   */\n  dup2\n    /* \"#utility.yul\":1413:1426   */\n  mload\n    /* \"#utility.yul\":1404:1426   */\n  swap1\n  pop\n    /* \"#utility.yul\":1435:1468   */\n  tag_47\n    /* \"#utility.yul\":1462:1467   */\n  dup2\n    /* \"#utility.yul\":1435:1468   */\n  tag_48\n  jump\t// in\ntag_47:\n    /* \"#utility.yul\":1331:1474   */\n  swap3\n  swap2\n  pop\n  pop\n  jump\t// out\n    /* \"#utility.yul\":1480:2346   */\ntag_3:\n    /* \"#utility.yul\":1593:1599   */\n  0x00\n    /* \"#utility.yul\":1601:1607   */\n  dup1\n    /* \"#utility.yul\":1609:1615   */\n  0x00\n    /* \"#utility.yul\":1658:1660   */\n  0x60\n    /* \"#utility.yul\":1646:1655   */\n  dup5\n    /* \"#utility.yul\":1637:1644   */\n  dup7\n    /* \"#utility.yul\":1633:1656   */\n  sub\n    /* \"#utility.yul\":1629:1661   */\n  slt\n    /* \"#utility.yul\":1626:1745   */\n  iszero\n  tag_50\n  jumpi\n    /* \"#utility.yul\":1664:1743   */\n  tag_51\n  tag_52\n  jump\t// in\ntag_51:\n    /* \"#utility.yul\":1626:1745   */\ntag_50:\n    /* \"#utility.yul\":1805:1806   */\n  0x00\n    /* \"#utility.yul\":1794:1803   */\n  dup5\n    /* \"#utility.yul\":1790:1807   */\n  add\n    /* \"#utility.yul\":1784:1808   */\n  mload\n    /* \"#utility.yul\":1835:1853   */\n  0xffffffffffffffff\n    /* \"#utility.yul\":1827:1833   */\n  dup2\n    /* \"#utility.yul\":1824:1854   */\n  gt\n    /* \"#utility.yul\":1821:1938   */\n  iszero\n  tag_53\n  jumpi\n    /* \"#utility.yul\":1857:1936   */\n  tag_54\n  tag_55\n  jump\t// in\ntag_54:\n    /* \"#utility.yul\":1821:1938   */\ntag_53:\n    /* \"#utility.yul\":1962:2051   */\n  tag_56\n    /* \"#utility.yul\":2043:2050   */\n  dup7\n    /* \"#utility.yul\":2034:2040   */\n  dup3\n    /* \"#utility.yul\":2023:2032   */\n  dup8\n    /* \"#utility.yul\":2019:2041   */\n  add\n    /* \"#utility.yul\":1962:2051   */\n  tag_39\n  jump\t// in\ntag_56:\n    /* \"#utility.yul\":1952:2051   */\n  swap4\n  pop\n    /* \"#utility.yul\":1755:2061   */\n  pop\n    /* \"#utility.yul\":2100:2102   */\n  0x20\n    /* \"#utility.yul\":2126:2190   */\n  tag_57\n    /* \"#utility.yul\":2182:2189   */\n  dup7\n    /* \"#utility.yul\":2173:2179   */\n  dup3\n    /* \"#utility.yul\":2162:2171   */\n  dup8\n    /* \"#utility.yul\":2158:2180   */\n  add\n    /* \"#utility.yul\":2126:2190   */\n  tag_45\n  jump\t// in\ntag_57:\n    /* \"#utility.yul\":2116:2190   */\n  swap3\n  pop\n    /* \"#utility.yul\":2071:2200   */\n  pop\n    /* \"#utility.yul\":2239:2241   */\n  0x40\n    /* \"#utility.yul\":2265:2329   */\n  tag_58\n    /* \"#utility.yul\":2321:2328   */\n  dup7\n    /* \"#utility.yul\":2312:2318   */\n  dup3\n    /* \"#utility.yul\":2301:2310   */\n  dup8\n    /* \"#utility.yul\":2297:2319   */\n  add\n    /* \"#utility.yul\":2265:2329   */\n  tag_35\n  jump\t// in\ntag_58:\n    /* \"#utility.yul\":2255:2329   */\n  swap2\n  pop\n    /* \"#utility.yul\":2210:2339   */\n  pop\n    /* \"#utility.yul\":1480:2346   */\n  swap3\n  pop\n  swap3\n  pop\n  swap3\n  jump\t// out\n    /* \"#utility.yul\":2352:2718   */\ntag_59:\n    /* \"#utility.yul\":2494:2497   */\n  0x00\n    /* \"#utility.yul\":2515:2582   */\n  tag_61\n    /* \"#utility.yul\":2579:2581   */\n  0x0d\n    /* \"#utility.yul\":2574:2577   */\n  dup4\n    /* \"#utility.yul\":2515:2582   */\n  tag_62\n  jump\t// in\ntag_61:\n    /* \"#utility.yul\":2508:2582   */\n  swap2\n  pop\n    /* \"#utility.yul\":2591:2684   */\n  tag_63\n    /* \"#utility.yul\":2680:2683   */\n  dup3\n    /* \"#utility.yul\":2591:2684   */\n  tag_64\n  jump\t// in\ntag_63:\n    /* \"#utility.yul\":2709:2711   */\n  0x20\n    /* \"#utility.yul\":2704:2707   */\n  dup3\n    /* \"#utility.yul\":2700:2712   */\n  add\n    /* \"#utility.yul\":2693:2712   */\n  swap1\n  pop\n    /* \"#utility.yul\":2352:2718   */\n  swap2\n  swap1\n  pop\n  jump\t// out\n    /* \"#utility.yul\":2724:3143   */\ntag_10:\n    /* \"#utility.yul\":2890:2894   */\n  0x00\n    /* \"#utility.yul\":2928:2930   */\n  0x20\n    /* \"#utility.yul\":2917:2926   */\n  dup3\n    /* \"#utility.yul\":2913:2931   */\n  add\n    /* \"#utility.yul\":2905:2931   */\n  swap1\n  pop\n    /* \"#utility.yul\":2977:2986   */\n  dup2\n    /* \"#utility.yul\":2971:2975   */\n  dup2\n    /* \"#utility.yul\":2967:2987   */\n  sub\n    /* \"#utility.yul\":2963:2964   */\n  0x00\n    /* \"#utility.yul\":2952:2961   */\n  dup4\n    /* \"#utility.yul\":2948:2965   */\n  add\n    /* \"#utility.yul\":2941:2988   */\n  mstore\n    /* \"#utility.yul\":3005:3136   */\n  tag_66\n    /* \"#utility.yul\":3131:3135   */\n  dup2\n    /* \"#utility.yul\":3005:3136   */\n  tag_59\n  jump\t// in\ntag_66:\n    /* \"#utility.yul\":2997:3136   */\n  swap1\n  pop\n    /* \"#utility.yul\":2724:3143   */\n  swap2\n  swap1\n  pop\n  jump\t// out\n    /* \"#utility.yul\":3149:3278   */\ntag_27:\n    /* \"#utility.yul\":3183:3189   */\n  0x00\n    /* \"#utility.yul\":3210:3230   */\n  tag_68\n  tag_69\n  jump\t// in\ntag_68:\n    /* \"#utility.yul\":3200:3230   */\n  swap1\n  pop\n    /* \"#utility.yul\":3239:3272   */\n  tag_70\n    /* \"#utility.yul\":3267:3271   */\n  dup3\n    /* \"#utility.yul\":3259:3265   */\n  dup3\n    /* \"#utility.yul\":3239:3272   */\n  tag_71\n  jump\t// in\ntag_70:\n    /* \"#utility.yul\":3149:3278   */\n  swap2\n  swap1\n  pop\n  jump\t// out\n    /* \"#utility.yul\":3284:3359   */\ntag_69:\n    /* \"#utility.yul\":3317:3323   */\n  0x00\n    /* \"#utility.yul\":3350:3352   */\n  0x40\n    /* \"#utility.yul\":3344:3353   */\n  mload\n    /* \"#utility.yul\":3334:3353   */\n  swap1\n  pop\n    /* \"#utility.yul\":3284:3359   */\n  swap1\n  jump\t// out\n    /* \"#utility.yul\":3365:3676   */\ntag_26:\n    /* \"#utility.yul\":3442:3446   */\n  0x00\n    /* \"#utility.yul\":3532:3550   */\n  0xffffffffffffffff\n    /* \"#utility.yul\":3524:3530   */\n  dup3\n    /* \"#utility.yul\":3521:3551   */\n  gt\n    /* \"#utility.yul\":3518:3574   */\n  iszero\n  tag_74\n  jumpi\n    /* \"#utility.yul\":3554:3572   */\n  tag_75\n  tag_76\n  jump\t// in\ntag_75:\n    /* \"#utility.yul\":3518:3574   */\ntag_74:\n    /* \"#utility.yul\":3604:3608   */\n  0x20\n    /* \"#utility.yul\":3596:3602   */\n  dup3\n    /* \"#utility.yul\":3592:3609   */\n  mul\n    /* \"#utility.yul\":3584:3609   */\n  swap1\n  pop\n    /* \"#utility.yul\":3664:3668   */\n  0x20\n    /* \"#utility.yul\":3658:3662   */\n  dup2\n    /* \"#utility.yul\":3654:3669   */\n  add\n    /* \"#utility.yul\":3646:3669   */\n  swap1\n  pop\n    /* \"#utility.yul\":3365:3676   */\n  swap2\n  swap1\n  pop\n  jump\t// out\n    /* \"#utility.yul\":3682:3851   */\ntag_62:\n    /* \"#utility.yul\":3766:3777   */\n  0x00\n    /* \"#utility.yul\":3800:3806   */\n  dup3\n    /* \"#utility.yul\":3795:3798   */\n  dup3\n    /* \"#utility.yul\":3788:3807   */\n  mstore\n    /* \"#utility.yul\":3840:3844   */\n  0x20\n    /* \"#utility.yul\":3835:3838   */\n  dup3\n    /* \"#utility.yul\":3831:3845   */\n  add\n    /* \"#utility.yul\":3816:3845   */\n  swap1\n  pop\n    /* \"#utility.yul\":3682:3851   */\n  swap3\n  swap2\n  pop\n  pop\n  jump\t// out\n    /* \"#utility.yul\":3857:3953   */\ntag_78:\n    /* \"#utility.yul\":3894:3901   */\n  0x00\n    /* \"#utility.yul\":3923:3947   */\n  tag_80\n    /* \"#utility.yul\":3941:3946   */\n  dup3\n    /* \"#utility.yul\":3923:3947   */\n  tag_81\n  jump\t// in\ntag_80:\n    /* \"#utility.yul\":3912:3947   */\n  swap1\n  pop\n    /* \"#utility.yul\":3857:3953   */\n  swap2\n  swap1\n  pop\n  jump\t// out\n    /* \"#utility.yul\":3959:4085   */\ntag_81:\n    /* \"#utility.yul\":3996:4003   */\n  0x00\n    /* \"#utility.yul\":4036:4078   */\n  0xffffffffffffffffffffffffffffffffffffffff\n    /* \"#utility.yul\":4029:4034   */\n  dup3\n    /* \"#utility.yul\":4025:4079   */\n  and\n    /* \"#utility.yul\":4014:4079   */\n  swap1\n  pop\n    /* \"#utility.yul\":3959:4085   */\n  swap2\n  swap1\n  pop\n  jump\t// out\n    /* \"#utility.yul\":4091:4168   */\ntag_83:\n    /* \"#utility.yul\":4128:4135   */\n  0x00\n    /* \"#utility.yul\":4157:4162   */\n  dup2\n    /* \"#utility.yul\":4146:4162   */\n  swap1\n  pop\n    /* \"#utility.yul\":4091:4168   */\n  swap2\n  swap1\n  pop\n  jump\t// out\n    /* \"#utility.yul\":4174:4455   */\ntag_71:\n    /* \"#utility.yul\":4257:4284   */\n  tag_86\n    /* \"#utility.yul\":4279:4283   */\n  dup3\n    /* \"#utility.yul\":4257:4284   */\n  tag_87\n  jump\t// in\ntag_86:\n    /* \"#utility.yul\":4249:4255   */\n  dup2\n    /* \"#utility.yul\":4245:4285   */\n  add\n    /* \"#utility.yul\":4387:4393   */\n  dup2\n    /* \"#utility.yul\":4375:4385   */\n  dup2\n    /* \"#utility.yul\":4372:4394   */\n  lt\n    /* \"#utility.yul\":4351:4369   */\n  0xffffffffffffffff\n    /* \"#utility.yul\":4339:4349   */\n  dup3\n    /* \"#utility.yul\":4336:4370   */\n  gt\n    /* \"#utility.yul\":4333:4395   */\n  or\n    /* \"#utility.yul\":4330:4418   */\n  iszero\n  tag_88\n  jumpi\n    /* \"#utility.yul\":4398:4416   */\n  tag_89\n  tag_76\n  jump\t// in\ntag_89:\n    /* \"#utility.yul\":4330:4418   */\ntag_88:\n    /* \"#utility.yul\":4438:4448   */\n  dup1\n    /* \"#utility.yul\":4434:4436   */\n  0x40\n    /* \"#utility.yul\":4427:4449   */\n  mstore\n    /* \"#utility.yul\":4217:4455   */\n  pop\n    /* \"#utility.yul\":4174:4455   */\n  pop\n  pop\n  jump\t// out\n    /* \"#utility.yul\":4461:4694   */\ntag_19:\n    /* \"#utility.yul\":4500:4503   */\n  0x00\n    /* \"#utility.yul\":4523:4547   */\n  tag_91\n    /* \"#utility.yul\":4541:4546   */\n  dup3\n    /* \"#utility.yul\":4523:4547   */\n  tag_83\n  jump\t// in\ntag_91:\n    /* \"#utility.yul\":4514:4547   */\n  swap2\n  pop\n    /* \"#utility.yul\":4569:4635   */\n  0xffffffffffffffffffffffffffffffffffffffffffffffffffffffffffffffff\n    /* \"#utility.yul\":4562:4567   */\n  dup3\n    /* \"#utility.yul\":4559:4636   */\n  eq\n    /* \"#utility.yul\":4556:4659   */\n  iszero\n  tag_92\n  jumpi\n    /* \"#utility.yul\":4639:4657   */\n  tag_93\n  tag_94\n  jump\t// in\ntag_93:\n    /* \"#utility.yul\":4556:4659   */\ntag_92:\n    /* \"#utility.yul\":4686:4687   */\n  0x01\n    /* \"#utility.yul\":4679:4684   */\n  dup3\n    /* \"#utility.yul\":4675:4688   */\n  add\n    /* \"#utility.yul\":4668:4688   */\n  swap1\n  pop\n    /* \"#utility.yul\":4461:4694   */\n  swap2\n  swap1\n  pop\n  jump\t// out\n    /* \"#utility.yul\":4700:4880   */\ntag_94:\n    /* \"#utility.yul\":4748:4825   */\n  0x4e487b7100000000000000000000000000000000000000000000000000000000\n    /* \"#utility.yul\":4745:4746   */\n  0x00\n    /* \"#utility.yul\":4738:4826   */\n  mstore\n    /* \"#utility.yul\":4845:4849   */\n  0x11\n    /* \"#utility.yul\":4842:4843   */\n  0x04\n    /* \"#utility.yul\":4835:4850   */\n  mstore\n    /* \"#utility.yul\":4869:4873   */\n  0x24\n    /* \"#utility.yul\":4866:4867   */\n  0x00\n    /* \"#utility.yul\":4859:4874   */\n  revert\n    /* \"#utility.yul\":4886:5066   */\ntag_16:\n    /* \"#utility.yul\":4934:5011   */\n  0x4e487b7100000000000000000000000000000000000000000000000000000000\n    /* \"#utility.yul\":4931:4932   */\n  0x00\n    /* \"#utility.yul\":4924:5012   */\n  mstore\n    /* \"#utility.yul\":5031:5035   */\n  0x32\n    /* \"#utility.yul\":5028:5029   */\n  0x04\n    /* \"#utility.yul\":5021:5036   */\n  mstore\n    /* \"#utility.yul\":5055:5059   */\n  0x24\n    /* \"#utility.yul\":5052:5053   */\n  0x00\n    /* \"#utility.yul\":5045:5060   */\n  revert\n    /* \"#utility.yul\":5072:5252   */\ntag_76:\n    /* \"#utility.yul\":5120:5197   */\n  0x4e487b7100000000000000000000000000000000000000000000000000000000\n    /* \"#utility.yul\":5117:5118   */\n  0x00\n    /* \"#utility.yul\":5110:5198   */\n  mstore\n    /* \"#utility.yul\":5217:5221   */\n  0x41\n    /* \"#utility.yul\":5214:5215   */\n  0x04\n    /* \"#utility.yul\":5207:5222   */\n  mstore\n    /* \"#utility.yul\":5241:5245   */\n  0x24\n    /* \"#utility.yul\":5238:5239   */\n  0x00\n    /* \"#utility.yul\":5231:5246   */\n  revert\n    /* \"#utility.yul\":5258:5375   */\ntag_43:\n    /* \"#utility.yul\":5367:5368   */\n  0x00\n    /* \"#utility.yul\":5364:5365   */\n  dup1\n    /* \"#utility.yul\":5357:5369   */\n  revert\n    /* \"#utility.yul\":5381:5498   */\ntag_30:\n    /* \"#utility.yul\":5490:5491   */\n  0x00\n    /* \"#utility.yul\":5487:5488   */\n  dup1\n    /* \"#utility.yul\":5480:5492   */\n  revert\n    /* \"#utility.yul\":5504:5621   */\ntag_55:\n    /* \"#utility.yul\":5613:5614   */\n  0x00\n    /* \"#utility.yul\":5610:5611   */\n  dup1\n    /* \"#utility.yul\":5603:5615   */\n  revert\n    /* \"#utility.yul\":5627:5744   */\ntag_52:\n    /* \"#utility.yul\":5736:5737   */\n  0x00\n    /* \"#utility.yul\":5733:5734   */\n  dup1\n    /* \"#utility.yul\":5726:5738   */\n  revert\n    /* \"#utility.yul\":5750:5852   */\ntag_87:\n    /* \"#utility.yul\":5791:5797   */\n  0x00\n    /* \"#utility.yul\":5842:5844   */\n  0x1f\n    /* \"#utility.yul\":5838:5845   */\n  not\n    /* \"#utility.yul\":5833:5835   */\n  0x1f\n    /* \"#utility.yul\":5826:5831   */\n  dup4\n    /* \"#utility.yul\":5822:5836   */\n  add\n    /* \"#utility.yul\":5818:5846   */\n  and\n    /* \"#utility.yul\":5808:5846   */\n  swap1\n  pop\n    /* \"#utility.yul\":5750:5852   */\n  swap2\n  swap1\n  pop\n  jump\t// out\n    /* \"#utility.yul\":5858:6021   */\ntag_64:\n    /* \"#utility.yul\":5998:6013   */\n  0x496e76616c696420696e70757400000000000000000000000000000000000000\n    /* \"#utility.yul\":5994:5995   */\n  0x00\n    /* \"#utility.yul\":5986:5992   */\n  dup3\n    /* \"#utility.yul\":5982:5996   */\n  add\n    /* \"#utility.yul\":5975:6014   */\n  mstore\n    /* \"#utility.yul\":5858:6021   */\n  pop\n  jump\t// out\n    /* \"#utility.yul\":6027:6149   */\ntag_38:\n    /* \"#utility.yul\":6100:6124   */\n  tag_105\n    /* \"#utility.yul\":6118:6123   */\n  dup2\n    /* \"#utility.yul\":6100:6124   */\n  tag_78\n  jump\t// in\ntag_105:\n    /* \"#utility.yul\":6093:6098   */\n  dup2\n    /* \"#utility.yul\":6090:6125   */\n  eq\n    /* \"#utility.yul\":6080:6143   */\n  tag_106\n  jumpi\n    /* \"#utility.yul\":6139:6140   */\n  0x00\n    /* \"#utility.yul\":6136:6137   */\n  dup1\n    /* \"#utility.yul\":6129:6141   */\n  revert\n    /* \"#utility.yul\":6080:6143   */\ntag_106:\n    /* \"#utility.yul\":6027:6149   */\n  pop\n  jump\t// out\n    /* \"#utility.yul\":6155:6277   */\ntag_48:\n    /* \"#utility.yul\":6228:6252   */\n  tag_108\n    /* \"#utility.yul\":6246:6251   */\n  dup2\n    /* \"#utility.yul\":6228:6252   */\n  tag_83\n  jump\t// in\ntag_108:\n    /* \"#utility.yul\":6221:6226   */\n  dup2\n    /* \"#utility.yul\":6218:6253   */\n  eq\n    /* \"#utility.yul\":6208:6271   */\n  tag_109\n  jumpi\n    /* \"#utility.yul\":6267:6268   */\n  0x00\n    /* \"#utility.yul\":6264:6265   */\n  dup1\n    /* \"#utility.yul\":6257:6269   */\n  revert\n    /* \"#utility.yul\":6208:6271   */\ntag_109:\n    /* \"#utility.yul\":6155:6277   */\n  pop\n  jump\t// out\n    /* \"contracts/MultiSigWallet.sol\":64:7185  contract MultiSigWallet {... */\ntag_20:\n  dataSize(sub_0)\n  dup1\n  dataOffset(sub_0)\n  0x00\n  codecopy\n  0x00\n  return\nstop\n\nsub_0: assembly {\n        /* \"contracts/MultiSigWallet.sol\":64:7185  contract MultiSigWallet {... */\n      mstore(0x40, 0x80)\n      callvalue\n      dup1\n      iszero\n      tag_1\n      jumpi\n      0x00\n      dup1\n      revert\n    tag_1:\n      pop\n      jumpi(tag_2, lt(calldatasize, 0x04))\n      shr(0xe0, calldataload(0x00))\n      dup1\n      0x7df73e27\n      gt\n      tag_18\n      jumpi\n      dup1\n      0x8f671849\n      gt\n      tag_19\n      jumpi\n      dup1\n      0x8f671849\n      eq\n      tag_14\n      jumpi\n      dup1\n      0xa9496e75\n      eq\n      tag_15\n      jumpi\n      dup1\n      0xc69ed5f2\n      eq\n      tag_16\n      jumpi\n      dup1\n      0xeb12d61e\n      eq\n      tag_17\n      jumpi\n      jump(tag_2)\n    tag_19:\n      dup1\n      0x7df73e27\n      eq\n      tag_10\n      jumpi\n      dup1\n      0x8d068043\n      eq\n      tag_11\n      jumpi\n      dup1\n      0x8da5cb5b\n      eq\n      tag_12\n      jumpi\n      dup1\n      0x8f4fde9f\n      eq\n      tag_13\n      jumpi\n      jump(tag_2)\n    tag_18:\n      dup1\n      0x24f6c776\n      gt\n      tag_20\n      jumpi\n      dup1\n      0x24f6c776\n      eq\n      tag_6\n      jumpi\n      dup1\n      0x642f2eaf\n      eq\n      tag_7\n      jumpi\n      dup1\n      0x70ba3339\n      eq\n      tag_8\n      jumpi\n      dup1\n      0x710eb26c\n      eq\n      tag_9\n      jumpi\n      jump(tag_2)\n    tag_20:\n      dup1\n      0x04ef5b21\n      eq\n      tag_3\n      jumpi\n      dup1\n      0x0e316ab7\n      eq\n      tag_4\n      jumpi\n      dup1\n      0x2079fb9a\n      eq\n      tag_5\n      jumpi\n    tag_2:\n      0x00\n      dup1\n      revert\n        /* \"contracts/MultiSigWallet.sol\":642:674  bytes32[] public transactionList */\n    tag_3:\n      tag_21\n      0x04\n      dup1\n      calldatasize\n      sub\n      dup2\n      add\n      swap1\n      tag_22\n      swap2\n      swap1\n      tag_23\n      jump\t// in\n    tag_22:\n      tag_24\n      jump\t// in\n    tag_21:\n      mload(0x40)\n      tag_25\n      swap2\n      swap1\n      tag_26\n      jump\t// in\n    tag_25:\n      mload(0x40)\n      dup1\n      swap2\n      sub\n      swap1\n      return\n        /* \"contracts/MultiSigWallet.sol\":2826:3483  function removeSigner(address signer) public onlyOwner {... */\n    tag_4:\n      tag_27\n      0x04\n      dup1\n      calldatasize\n      sub\n      dup2\n      add\n      swap1\n      tag_28\n      swap2\n      swap1\n      tag_29\n      jump\t// in\n    tag_28:\n      tag_30\n      jump\t// in\n    tag_27:\n      stop\n        /* \"contracts/MultiSigWallet.sol\":120:144  address[] public signers */\n    tag_5:\n      tag_31\n      0x04\n      dup1\n      calldatasize\n      sub\n      dup2\n      add\n      swap1\n      tag_32\n      swap2\n      swap1\n      tag_23\n      jump\t// in\n    tag_32:\n      tag_33\n      jump\t// in\n    tag_31:\n      mload(0x40)\n      tag_34\n      swap2\n      swap1\n      tag_35\n      jump\t// in\n    tag_34:\n      mload(0x40)\n      dup1\n      swap2\n      sub\n      swap1\n      return\n        /* \"contracts/MultiSigWallet.sol\":512:575  mapping (bytes32 => mapping (address => bool)) public approvals */\n    tag_6:\n      tag_36\n      0x04\n      dup1\n      calldatasize\n      sub\n      dup2\n      add\n      swap1\n      tag_37\n      swap2\n      swap1\n      tag_38\n      jump\t// in\n    tag_37:\n      tag_39\n      jump\t// in\n    tag_36:\n      mload(0x40)\n      tag_40\n      swap2\n      swap1\n      tag_41\n      jump\t// in\n    tag_40:\n      mload(0x40)\n      dup1\n      swap2\n      sub\n      swap1\n      return\n        /* \"contracts/MultiSigWallet.sol\":400:452  mapping (bytes32 => Transaction) public transactions */\n    tag_7:\n      tag_42\n      0x04\n      dup1\n      calldatasize\n      sub\n      dup2\n      add\n      swap1\n      tag_43\n      swap2\n      swap1\n      tag_44\n      jump\t// in\n    tag_43:\n      tag_45\n      jump\t// in\n    tag_42:\n      mload(0x40)\n      tag_46\n      swap5\n      swap4\n      swap3\n      swap2\n      swap1\n      tag_47\n      jump\t// in\n    tag_46:\n      mload(0x40)\n      dup1\n      swap2\n      sub\n      swap1\n      return\n        /* \"contracts/MultiSigWallet.sol\":6044:6943  function cancelTransaction(bytes32 id) public onlySigner {... */\n    tag_8:\n      tag_48\n      0x04\n      dup1\n      calldatasize\n      sub\n      dup2\n      add\n      swap1\n      tag_49\n      swap2\n      swap1\n      tag_44\n      jump\t// in\n    tag_49:\n      tag_50\n      jump\t// in\n    tag_48:\n      stop\n        /* \"contracts/MultiSigWallet.sol\":729:759  address public recoveryAddress */\n    tag_9:\n      tag_51\n      tag_52\n      jump\t// in\n    tag_51:\n      mload(0x40)\n      tag_53\n      swap2\n      swap1\n      tag_35\n      jump\t// in\n    tag_53:\n      mload(0x40)\n      dup1\n      swap2\n      sub\n      swap1\n      return\n        /* \"contracts/MultiSigWallet.sol\":298:339  mapping (address => bool) public isSigner */\n    tag_10:\n      tag_54\n      0x04\n      dup1\n      calldatasize\n      sub\n      dup2\n      add\n      swap1\n      tag_55\n      swap2\n      swap1\n      tag_29\n      jump\t// in\n    tag_55:\n      tag_56\n      jump\t// in\n    tag_54:\n      mload(0x40)\n      tag_57\n      swap2\n      swap1\n      tag_41\n      jump\t// in\n    tag_57:\n      mload(0x40)\n      dup1\n      swap2\n      sub\n      swap1\n      return\n        /* \"contracts/MultiSigWallet.sol\":200:230  uint public requiredSignatures */\n    tag_11:\n      tag_58\n      tag_59\n      jump\t// in\n    tag_58:\n      mload(0x40)\n      tag_60\n      swap2\n      swap1\n      tag_61\n      jump\t// in\n    tag_60:\n      mload(0x40)\n      dup1\n      swap2\n      sub\n      swap1\n      return\n        /* \"contracts/MultiSigWallet.sol\":94:114  address public owner */\n    tag_12:\n      tag_62\n      tag_63\n      jump\t// in\n    tag_62:\n      mload(0x40)\n      tag_64\n      swap2\n      swap1\n      tag_35\n      jump\t// in\n    tag_64:\n      mload(0x40)\n      dup1\n      swap2\n      sub\n      swap1\n      return\n        /* \"contracts/MultiSigWallet.sol\":4185:4965  function approveTransaction(bytes32 id) public onlySigner {... */\n    tag_13:\n      tag_65\n      0x04\n      dup1\n      calldatasize\n      sub\n      dup2\n      add\n      swap1\n      tag_66\n      swap2\n      swap1\n      tag_44\n      jump\t// in\n    tag_66:\n      tag_67\n      jump\t// in\n    tag_65:\n      stop\n        /* \"contracts/MultiSigWallet.sol\":6949:7182  function recoverWallet(address newOwner) public {... */\n    tag_14:\n      tag_68\n      0x04\n      dup1\n      calldatasize\n      sub\n      dup2\n      add\n      swap1\n      tag_69\n      swap2\n      swap1\n      tag_29\n      jump\t// in\n    tag_69:\n      tag_70\n      jump\t// in\n    tag_68:\n      stop\n        /* \"contracts/MultiSigWallet.sol\":3535:4136  function createTransaction(address destination, uint value, bytes memory data) public onlySigner returns (bytes32) {... */\n    tag_15:\n      tag_71\n      0x04\n      dup1\n      calldatasize\n      sub\n      dup2\n      add\n      swap1\n      tag_72\n      swap2\n      swap1\n      tag_73\n      jump\t// in\n    tag_72:\n      tag_74\n      jump\t// in\n    tag_71:\n      mload(0x40)\n      tag_75\n      swap2\n      swap1\n      tag_26\n      jump\t// in\n    tag_75:\n      mload(0x40)\n      dup1\n      swap2\n      sub\n      swap1\n      return\n        /* \"contracts/MultiSigWallet.sol\":5014:5996  function executeTransaction(bytes32 id) public onlySigner {... */\n    tag_16:\n      tag_76\n      0x04\n      dup1\n      calldatasize\n      sub\n      dup2\n      add\n      swap1\n      tag_77\n      swap2\n      swap1\n      tag_44\n      jump\t// in\n    tag_77:\n      tag_78\n      jump\t// in\n    tag_76:\n      stop\n        /* \"contracts/MultiSigWallet.sol\":2553:2783  function addSigner(address signer) public onlyOwner {... */\n    tag_17:\n      tag_79\n      0x04\n      dup1\n      calldatasize\n      sub\n      dup2\n      add\n      swap1\n      tag_80\n      swap2\n      swap1\n      tag_29\n      jump\t// in\n    tag_80:\n      tag_81\n      jump\t// in\n    tag_79:\n      stop\n        /* \"contracts/MultiSigWallet.sol\":642:674  bytes32[] public transactionList */\n    tag_24:\n      0x06\n      dup2\n      dup2\n      sload\n      dup2\n      lt\n      tag_82\n      jumpi\n      0x00\n      dup1\n      revert\n    tag_82:\n      swap1\n      0x00\n      mstore\n      keccak256(0x00, 0x20)\n      add\n      0x00\n      swap2\n      pop\n      swap1\n      pop\n      sload\n      dup2\n      jump\t// out\n        /* \"contracts/MultiSigWallet.sol\":2826:3483  function removeSigner(address signer) public onlyOwner {... */\n    tag_30:\n        /* \"contracts/MultiSigWallet.sol\":1686:1691  owner */\n      0x00\n      dup1\n      sload\n      swap1\n      0x0100\n      exp\n      swap1\n      div\n      0xffffffffffffffffffffffffffffffffffffffff\n      and\n        /* \"contracts/MultiSigWallet.sol\":1672:1691  msg.sender == owner */\n      0xffffffffffffffffffffffffffffffffffffffff\n      and\n        /* \"contracts/MultiSigWallet.sol\":1672:1682  msg.sender */\n      caller\n        /* \"contracts/MultiSigWallet.sol\":1672:1691  msg.sender == owner */\n      0xffffffffffffffffffffffffffffffffffffffff\n      and\n      eq\n        /* \"contracts/MultiSigWallet.sol\":1664:1734  require(msg.sender == owner, \"Only the owner can perform this action\") */\n      tag_85\n      jumpi\n      mload(0x40)\n      0x08c379a000000000000000000000000000000000000000000000000000000000\n      dup2\n      mstore\n      0x04\n      add\n      tag_86\n      swap1\n      tag_87\n      jump\t// in\n    tag_86:\n      mload(0x40)\n      dup1\n      swap2\n      sub\n      swap1\n      revert\n    tag_85:\n        /* \"contracts/MultiSigWallet.sol\":2899:2907  isSigner */\n      0x03\n        /* \"contracts/MultiSigWallet.sol\":2899:2915  isSigner[signer] */\n      0x00\n        /* \"contracts/MultiSigWallet.sol\":2908:2914  signer */\n      dup3\n        /* \"contracts/MultiSigWallet.sol\":2899:2915  isSigner[signer] */\n      0xffffffffffffffffffffffffffffffffffffffff\n      and\n      0xffffffffffffffffffffffffffffffffffffffff\n      and\n      dup2\n      mstore\n      0x20\n      add\n      swap1\n      dup2\n      mstore\n      0x20\n      add\n      0x00\n      keccak256\n      0x00\n      swap1\n      sload\n      swap1\n      0x0100\n      exp\n      swap1\n      div\n      0xff\n      and\n        /* \"contracts/MultiSigWallet.sol\":2891:2943  require(isSigner[signer], \"Address is not a signer\") */\n      tag_89\n      jumpi\n      mload(0x40)\n      0x08c379a000000000000000000000000000000000000000000000000000000000\n      dup2\n      mstore\n      0x04\n      add\n      tag_90\n      swap1\n      tag_91\n      jump\t// in\n    tag_90:\n      mload(0x40)\n      dup1\n      swap2\n      sub\n      swap1\n      revert\n    tag_89:\n        /* \"contracts/MultiSigWallet.sol\":2978:2996  requiredSignatures */\n      sload(0x02)\n        /* \"contracts/MultiSigWallet.sol\":2961:2968  signers */\n      0x01\n        /* \"contracts/MultiSigWallet.sol\":2961:2975  signers.length */\n      dup1\n      sload\n      swap1\n      pop\n        /* \"contracts/MultiSigWallet.sol\":2961:2996  signers.length > requiredSignatures */\n      gt\n        /* \"contracts/MultiSigWallet.sol\":2953:3063  require(signers.length > requiredSignatures, \"Cannot remove signer, minimum required signers will not be met\") */\n      tag_92\n      jumpi\n      mload(0x40)\n      0x08c379a000000000000000000000000000000000000000000000000000000000\n      dup2\n      mstore\n      0x04\n      add\n      tag_93\n      swap1\n      tag_94\n      jump\t// in\n    tag_93:\n      mload(0x40)\n      dup1\n      swap2\n      sub\n      swap1\n      revert\n    tag_92:\n        /* \"contracts/MultiSigWallet.sol\":3171:3177  uint i */\n      0x00\n        /* \"contracts/MultiSigWallet.sol\":3166:3477  for (uint i = 0; i < signers.length; i++) {... */\n    tag_95:\n        /* \"contracts/MultiSigWallet.sol\":3187:3194  signers */\n      0x01\n        /* \"contracts/MultiSigWallet.sol\":3187:3201  signers.length */\n      dup1\n      sload\n      swap1\n      pop\n        /* \"contracts/MultiSigWallet.sol\":3183:3184  i */\n      dup2\n        /* \"contracts/MultiSigWallet.sol\":3183:3201  i < signers.length */\n      lt\n        /* \"contracts/MultiSigWallet.sol\":3166:3477  for (uint i = 0; i < signers.length; i++) {... */\n      iszero\n      tag_96\n      jumpi\n        /* \"contracts/MultiSigWallet.sol\":3240:3246  signer */\n      dup2\n        /* \"contracts/MultiSigWallet.sol\":3226:3246  signers[i] == signer */\n      0xffffffffffffffffffffffffffffffffffffffff\n      and\n        /* \"contracts/MultiSigWallet.sol\":3226:3233  signers */\n      0x01\n        /* \"contracts/MultiSigWallet.sol\":3234:3235  i */\n      dup3\n        /* \"contracts/MultiSigWallet.sol\":3226:3236  signers[i] */\n      dup2\n      sload\n      dup2\n      lt\n      tag_98\n      jumpi\n      tag_99\n      tag_100\n      jump\t// in\n    tag_99:\n    tag_98:\n      swap1\n      0x00\n      mstore\n      keccak256(0x00, 0x20)\n      add\n      0x00\n      swap1\n      sload\n      swap1\n      0x0100\n      exp\n      swap1\n      div\n      0xffffffffffffffffffffffffffffffffffffffff\n      and\n        /* \"contracts/MultiSigWallet.sol\":3226:3246  signers[i] == signer */\n      0xffffffffffffffffffffffffffffffffffffffff\n      and\n      eq\n        /* \"contracts/MultiSigWallet.sol\":3222:3467  if (signers[i] == signer) {... */\n      iszero\n      tag_102\n      jumpi\n        /* \"contracts/MultiSigWallet.sol\":3279:3286  signers */\n      0x01\n        /* \"contracts/MultiSigWallet.sol\":3304:3305  1 */\n      dup1\n        /* \"contracts/MultiSigWallet.sol\":3287:3294  signers */\n      dup1\n        /* \"contracts/MultiSigWallet.sol\":3287:3301  signers.length */\n      dup1\n      sload\n      swap1\n      pop\n        /* \"contracts/MultiSigWallet.sol\":3287:3305  signers.length - 1 */\n      tag_103\n      swap2\n      swap1\n      tag_104\n      jump\t// in\n    tag_103:\n        /* \"contracts/MultiSigWallet.sol\":3279:3306  signers[signers.length - 1] */\n      dup2\n      sload\n      dup2\n      lt\n      tag_105\n      jumpi\n      tag_106\n      tag_100\n      jump\t// in\n    tag_106:\n    tag_105:\n      swap1\n      0x00\n      mstore\n      keccak256(0x00, 0x20)\n      add\n      0x00\n      swap1\n      sload\n      swap1\n      0x0100\n      exp\n      swap1\n      div\n      0xffffffffffffffffffffffffffffffffffffffff\n      and\n        /* \"contracts/MultiSigWallet.sol\":3266:3273  signers */\n      0x01\n        /* \"contracts/MultiSigWallet.sol\":3274:3275  i */\n      dup3\n        /* \"contracts/MultiSigWallet.sol\":3266:3276  signers[i] */\n      dup2\n      sload\n      dup2\n      lt\n      tag_108\n      jumpi\n      tag_109\n      tag_100\n      jump\t// in\n    tag_109:\n    tag_108:\n      swap1\n      0x00\n      mstore\n      keccak256(0x00, 0x20)\n      add\n      0x00\n        /* \"contracts/MultiSigWallet.sol\":3266:3306  signers[i] = signers[signers.length - 1] */\n      0x0100\n      exp\n      dup2\n      sload\n      dup2\n      0xffffffffffffffffffffffffffffffffffffffff\n      mul\n      not\n      and\n      swap1\n      dup4\n      0xffffffffffffffffffffffffffffffffffffffff\n      and\n      mul\n      or\n      swap1\n      sstore\n      pop\n        /* \"contracts/MultiSigWallet.sol\":3324:3331  signers */\n      0x01\n        /* \"contracts/MultiSigWallet.sol\":3324:3337  signers.pop() */\n      dup1\n      sload\n      dup1\n      tag_111\n      jumpi\n      tag_112\n      tag_113\n      jump\t// in\n    tag_112:\n    tag_111:\n      0x01\n      swap1\n      sub\n      dup2\n      dup2\n      swap1\n      0x00\n      mstore\n      keccak256(0x00, 0x20)\n      add\n      exp(0x0100, 0x00)\n      dup2\n      sload\n      swap1\n      0xffffffffffffffffffffffffffffffffffffffff\n      mul\n      not\n      and\n      swap1\n      sstore\n      swap1\n      sstore\n        /* \"contracts/MultiSigWallet.sol\":3374:3379  false */\n      0x00\n        /* \"contracts/MultiSigWallet.sol\":3355:3363  isSigner */\n      0x03\n        /* \"contracts/MultiSigWallet.sol\":3355:3371  isSigner[signer] */\n      0x00\n        /* \"contracts/MultiSigWallet.sol\":3364:3370  signer */\n      dup5\n        /* \"contracts/MultiSigWallet.sol\":3355:3371  isSigner[signer] */\n      0xffffffffffffffffffffffffffffffffffffffff\n      and\n      0xffffffffffffffffffffffffffffffffffffffff\n      and\n      dup2\n      mstore\n      0x20\n      add\n      swap1\n      dup2\n      mstore\n      0x20\n      add\n      0x00\n      keccak256\n      0x00\n        /* \"contracts/MultiSigWallet.sol\":3355:3379  isSigner[signer] = false */\n      0x0100\n      exp\n      dup2\n      sload\n      dup2\n      0xff\n      mul\n      not\n      and\n      swap1\n      dup4\n      iszero\n      iszero\n      mul\n      or\n      swap1\n      sstore\n      pop\n        /* \"contracts/MultiSigWallet.sol\":3423:3428  false */\n      0x00\n        /* \"contracts/MultiSigWallet.sol\":3402:3429  SignerUpdate(signer, false) */\n      iszero\n      iszero\n        /* \"contracts/MultiSigWallet.sol\":3415:3421  signer */\n      dup3\n        /* \"contracts/MultiSigWallet.sol\":3402:3429  SignerUpdate(signer, false) */\n      0xffffffffffffffffffffffffffffffffffffffff\n      and\n      0xc648f6265408cc54c0dc26d24ba51dfc9f35ce1a63baa2228f65d93aaf11cc67\n      mload(0x40)\n      mload(0x40)\n      dup1\n      swap2\n      sub\n      swap1\n      log3\n        /* \"contracts/MultiSigWallet.sol\":3447:3452  break */\n      jump(tag_96)\n        /* \"contracts/MultiSigWallet.sol\":3222:3467  if (signers[i] == signer) {... */\n    tag_102:\n        /* \"contracts/MultiSigWallet.sol\":3203:3206  i++ */\n      dup1\n      dup1\n      tag_115\n      swap1\n      tag_116\n      jump\t// in\n    tag_115:\n      swap2\n      pop\n      pop\n        /* \"contracts/MultiSigWallet.sol\":3166:3477  for (uint i = 0; i < signers.length; i++) {... */\n      jump(tag_95)\n    tag_96:\n      pop\n        /* \"contracts/MultiSigWallet.sol\":2826:3483  function removeSigner(address signer) public onlyOwner {... */\n      pop\n      jump\t// out\n        /* \"contracts/MultiSigWallet.sol\":120:144  address[] public signers */\n    tag_33:\n      0x01\n      dup2\n      dup2\n      sload\n      dup2\n      lt\n      tag_117\n      jumpi\n      0x00\n      dup1\n      revert\n    tag_117:\n      swap1\n      0x00\n      mstore\n      keccak256(0x00, 0x20)\n      add\n      0x00\n      swap2\n      pop\n      sload\n      swap1\n      0x0100\n      exp\n      swap1\n      div\n      0xffffffffffffffffffffffffffffffffffffffff\n      and\n      dup2\n      jump\t// out\n        /* \"contracts/MultiSigWallet.sol\":512:575  mapping (bytes32 => mapping (address => bool)) public approvals */\n    tag_39:\n      mstore(0x20, 0x05)\n      dup2\n      0x00\n      mstore\n      mstore(0x20, keccak256(0x00, 0x40))\n      dup1\n      0x00\n      mstore\n      keccak256(0x00, 0x40)\n      0x00\n      swap2\n      pop\n      swap2\n      pop\n      swap1\n      sload\n      swap1\n      0x0100\n      exp\n      swap1\n      div\n      0xff\n      and\n      dup2\n      jump\t// out\n        /* \"contracts/MultiSigWallet.sol\":400:452  mapping (bytes32 => Transaction) public transactions */\n    tag_45:\n      mstore(0x20, 0x04)\n      dup1\n      0x00\n      mstore\n      keccak256(0x00, 0x40)\n      0x00\n      swap2\n      pop\n      swap1\n      pop\n      dup1\n      0x00\n      add\n      0x00\n      swap1\n      sload\n      swap1\n      0x0100\n      exp\n      swap1\n      div\n      0xffffffffffffffffffffffffffffffffffffffff\n      and\n      swap1\n      dup1\n      0x01\n      add\n      sload\n      swap1\n      dup1\n      0x02\n      add\n      dup1\n      sload\n      tag_119\n      swap1\n      tag_120\n      jump\t// in\n    tag_119:\n      dup1\n      0x1f\n      add\n      0x20\n      dup1\n      swap2\n      div\n      mul\n      0x20\n      add\n      mload(0x40)\n      swap1\n      dup2\n      add\n      0x40\n      mstore\n      dup1\n      swap3\n      swap2\n      swap1\n      dup2\n      dup2\n      mstore\n      0x20\n      add\n      dup3\n      dup1\n      sload\n      tag_121\n      swap1\n      tag_120\n      jump\t// in\n    tag_121:\n      dup1\n      iszero\n      tag_122\n      jumpi\n      dup1\n      0x1f\n      lt\n      tag_123\n      jumpi\n      0x0100\n      dup1\n      dup4\n      sload\n      div\n      mul\n      dup4\n      mstore\n      swap2\n      0x20\n      add\n      swap2\n      jump(tag_122)\n    tag_123:\n      dup3\n      add\n      swap2\n      swap1\n      0x00\n      mstore\n      keccak256(0x00, 0x20)\n      swap1\n    tag_124:\n      dup2\n      sload\n      dup2\n      mstore\n      swap1\n      0x01\n      add\n      swap1\n      0x20\n      add\n      dup1\n      dup4\n      gt\n      tag_124\n      jumpi\n      dup3\n      swap1\n      sub\n      0x1f\n      and\n      dup3\n      add\n      swap2\n    tag_122:\n      pop\n      pop\n      pop\n      pop\n      pop\n      swap1\n      dup1\n      0x03\n      add\n      0x00\n      swap1\n      sload\n      swap1\n      0x0100\n      exp\n      swap1\n      div\n      0xff\n      and\n      swap1\n      pop\n      dup5\n      jump\t// out\n        /* \"contracts/MultiSigWallet.sol\":6044:6943  function cancelTransaction(bytes32 id) public onlySigner {... */\n    tag_50:\n        /* \"contracts/MultiSigWallet.sol\":1796:1804  isSigner */\n      0x03\n        /* \"contracts/MultiSigWallet.sol\":1796:1816  isSigner[msg.sender] */\n      0x00\n        /* \"contracts/MultiSigWallet.sol\":1805:1815  msg.sender */\n      caller\n        /* \"contracts/MultiSigWallet.sol\":1796:1816  isSigner[msg.sender] */\n      0xffffffffffffffffffffffffffffffffffffffff\n      and\n      0xffffffffffffffffffffffffffffffffffffffff\n      and\n      dup2\n      mstore\n      0x20\n      add\n      swap1\n      dup2\n      mstore\n      0x20\n      add\n      0x00\n      keccak256\n      0x00\n      swap1\n      sload\n      swap1\n      0x0100\n      exp\n      swap1\n      div\n      0xff\n      and\n        /* \"contracts/MultiSigWallet.sol\":1788:1857  require(isSigner[msg.sender], \"Only signers can perform this action\") */\n      tag_126\n      jumpi\n      mload(0x40)\n      0x08c379a000000000000000000000000000000000000000000000000000000000\n      dup2\n      mstore\n      0x04\n      add\n      tag_127\n      swap1\n      tag_128\n      jump\t// in\n    tag_127:\n      mload(0x40)\n      dup1\n      swap2\n      sub\n      swap1\n      revert\n    tag_126:\n        /* \"contracts/MultiSigWallet.sol\":6159:6160  0 */\n      0x00\n        /* \"contracts/MultiSigWallet.sol\":6119:6161  transactions[id].destination != address(0) */\n      0xffffffffffffffffffffffffffffffffffffffff\n      and\n        /* \"contracts/MultiSigWallet.sol\":6119:6131  transactions */\n      0x04\n        /* \"contracts/MultiSigWallet.sol\":6119:6135  transactions[id] */\n      0x00\n        /* \"contracts/MultiSigWallet.sol\":6132:6134  id */\n      dup4\n        /* \"contracts/MultiSigWallet.sol\":6119:6135  transactions[id] */\n      dup2\n      mstore\n      0x20\n      add\n      swap1\n      dup2\n      mstore\n      0x20\n      add\n      0x00\n      keccak256\n        /* \"contracts/MultiSigWallet.sol\":6119:6147  transactions[id].destination */\n      0x00\n      add\n      0x00\n      swap1\n      sload\n      swap1\n      0x0100\n      exp\n      swap1\n      div\n      0xffffffffffffffffffffffffffffffffffffffff\n      and\n        /* \"contracts/MultiSigWallet.sol\":6119:6161  transactions[id].destination != address(0) */\n      0xffffffffffffffffffffffffffffffffffffffff\n      and\n      eq\n      iszero\n        /* \"contracts/MultiSigWallet.sol\":6111:6192  require(transactions[id].destination != address(0), \"Transaction does not exist\") */\n      tag_130\n      jumpi\n      mload(0x40)\n      0x08c379a000000000000000000000000000000000000000000000000000000000\n      dup2\n      mstore\n      0x04\n      add\n      tag_131\n      swap1\n      tag_132\n      jump\t// in\n    tag_131:\n      mload(0x40)\n      dup1\n      swap2\n      sub\n      swap1\n      revert\n    tag_130:\n        /* \"contracts/MultiSigWallet.sol\":6211:6223  transactions */\n      0x04\n        /* \"contracts/MultiSigWallet.sol\":6211:6227  transactions[id] */\n      0x00\n        /* \"contracts/MultiSigWallet.sol\":6224:6226  id */\n      dup3\n        /* \"contracts/MultiSigWallet.sol\":6211:6227  transactions[id] */\n      dup2\n      mstore\n      0x20\n      add\n      swap1\n      dup2\n      mstore\n      0x20\n      add\n      0x00\n      keccak256\n        /* \"contracts/MultiSigWallet.sol\":6211:6236  transactions[id].executed */\n      0x03\n      add\n      0x00\n      swap1\n      sload\n      swap1\n      0x0100\n      exp\n      swap1\n      div\n      0xff\n      and\n        /* \"contracts/MultiSigWallet.sol\":6210:6236  !transactions[id].executed */\n      iszero\n        /* \"contracts/MultiSigWallet.sol\":6202:6278  require(!transactions[id].executed, \"Transaction has already been executed\") */\n      tag_133\n      jumpi\n      mload(0x40)\n      0x08c379a000000000000000000000000000000000000000000000000000000000\n      dup2\n      mstore\n      0x04\n      add\n      tag_134\n      swap1\n      tag_135\n      jump\t// in\n    tag_134:\n      mload(0x40)\n      dup1\n      swap2\n      sub\n      swap1\n      revert\n    tag_133:\n        /* \"contracts/MultiSigWallet.sol\":6377:6383  uint i */\n      0x00\n        /* \"contracts/MultiSigWallet.sol\":6372:6676  for (uint i = 0; i < transactionList.length; i++) {... */\n    tag_136:\n        /* \"contracts/MultiSigWallet.sol\":6393:6408  transactionList */\n      0x06\n        /* \"contracts/MultiSigWallet.sol\":6393:6415  transactionList.length */\n      dup1\n      sload\n      swap1\n      pop\n        /* \"contracts/MultiSigWallet.sol\":6389:6390  i */\n      dup2\n        /* \"contracts/MultiSigWallet.sol\":6389:6415  i < transactionList.length */\n      lt\n        /* \"contracts/MultiSigWallet.sol\":6372:6676  for (uint i = 0; i < transactionList.length; i++) {... */\n      iszero\n      tag_137\n      jumpi\n        /* \"contracts/MultiSigWallet.sol\":6462:6464  id */\n      dup2\n        /* \"contracts/MultiSigWallet.sol\":6440:6455  transactionList */\n      0x06\n        /* \"contracts/MultiSigWallet.sol\":6456:6457  i */\n      dup3\n        /* \"contracts/MultiSigWallet.sol\":6440:6458  transactionList[i] */\n      dup2\n      sload\n      dup2\n      lt\n      tag_139\n      jumpi\n      tag_140\n      tag_100\n      jump\t// in\n    tag_140:\n    tag_139:\n      swap1\n      0x00\n      mstore\n      keccak256(0x00, 0x20)\n      add\n      sload\n        /* \"contracts/MultiSigWallet.sol\":6440:6464  transactionList[i] == id */\n      eq\n        /* \"contracts/MultiSigWallet.sol\":6436:6666  if (transactionList[i] == id) {... */\n      iszero\n      tag_142\n      jumpi\n        /* \"contracts/MultiSigWallet.sol\":6505:6520  transactionList */\n      0x06\n        /* \"contracts/MultiSigWallet.sol\":6546:6547  1 */\n      0x01\n        /* \"contracts/MultiSigWallet.sol\":6521:6536  transactionList */\n      0x06\n        /* \"contracts/MultiSigWallet.sol\":6521:6543  transactionList.length */\n      dup1\n      sload\n      swap1\n      pop\n        /* \"contracts/MultiSigWallet.sol\":6521:6547  transactionList.length - 1 */\n      tag_143\n      swap2\n      swap1\n      tag_104\n      jump\t// in\n    tag_143:\n        /* \"contracts/MultiSigWallet.sol\":6505:6548  transactionList[transactionList.length - 1] */\n      dup2\n      sload\n      dup2\n      lt\n      tag_144\n      jumpi\n      tag_145\n      tag_100\n      jump\t// in\n    tag_145:\n    tag_144:\n      swap1\n      0x00\n      mstore\n      keccak256(0x00, 0x20)\n      add\n      sload\n        /* \"contracts/MultiSigWallet.sol\":6484:6499  transactionList */\n      0x06\n        /* \"contracts/MultiSigWallet.sol\":6500:6501  i */\n      dup3\n        /* \"contracts/MultiSigWallet.sol\":6484:6502  transactionList[i] */\n      dup2\n      sload\n      dup2\n      lt\n      tag_147\n      jumpi\n      tag_148\n      tag_100\n      jump\t// in\n    tag_148:\n    tag_147:\n      swap1\n      0x00\n      mstore\n      keccak256(0x00, 0x20)\n      add\n        /* \"contracts/MultiSigWallet.sol\":6484:6548  transactionList[i] = transactionList[transactionList.length - 1] */\n      dup2\n      swap1\n      sstore\n      pop\n        /* \"contracts/MultiSigWallet.sol\":6566:6581  transactionList */\n      0x06\n        /* \"contracts/MultiSigWallet.sol\":6566:6587  transactionList.pop() */\n      dup1\n      sload\n      dup1\n      tag_150\n      jumpi\n      tag_151\n      tag_113\n      jump\t// in\n    tag_151:\n    tag_150:\n      0x01\n      swap1\n      sub\n      dup2\n      dup2\n      swap1\n      0x00\n      mstore\n      keccak256(0x00, 0x20)\n      add\n      0x00\n      swap1\n      sstore\n      swap1\n      sstore\n        /* \"contracts/MultiSigWallet.sol\":6612:6624  transactions */\n      0x04\n        /* \"contracts/MultiSigWallet.sol\":6612:6628  transactions[id] */\n      0x00\n        /* \"contracts/MultiSigWallet.sol\":6625:6627  id */\n      dup4\n        /* \"contracts/MultiSigWallet.sol\":6612:6628  transactions[id] */\n      dup2\n      mstore\n      0x20\n      add\n      swap1\n      dup2\n      mstore\n      0x20\n      add\n      0x00\n      keccak256\n      0x00\n        /* \"contracts/MultiSigWallet.sol\":6605:6628  delete transactions[id] */\n      dup1\n      dup3\n      add\n      exp(0x0100, 0x00)\n      dup2\n      sload\n      swap1\n      0xffffffffffffffffffffffffffffffffffffffff\n      mul\n      not\n      and\n      swap1\n      sstore\n      0x01\n      dup3\n      add\n      0x00\n      swap1\n      sstore\n      0x02\n      dup3\n      add\n      0x00\n      tag_153\n      swap2\n      swap1\n      tag_154\n      jump\t// in\n    tag_153:\n      0x03\n      dup3\n      add\n      exp(0x0100, 0x00)\n      dup2\n      sload\n      swap1\n      0xff\n      mul\n      not\n      and\n      swap1\n      sstore\n      pop\n      pop\n        /* \"contracts/MultiSigWallet.sol\":6646:6651  break */\n      jump(tag_137)\n        /* \"contracts/MultiSigWallet.sol\":6436:6666  if (transactionList[i] == id) {... */\n    tag_142:\n        /* \"contracts/MultiSigWallet.sol\":6417:6420  i++ */\n      dup1\n      dup1\n      tag_155\n      swap1\n      tag_116\n      jump\t// in\n    tag_155:\n      swap2\n      pop\n      pop\n        /* \"contracts/MultiSigWallet.sol\":6372:6676  for (uint i = 0; i < transactionList.length; i++) {... */\n      jump(tag_136)\n    tag_137:\n      pop\n        /* \"contracts/MultiSigWallet.sol\":6743:6749  uint i */\n      0x00\n        /* \"contracts/MultiSigWallet.sol\":6738:6838  for (uint i = 0; i < signers.length; i++) {... */\n    tag_156:\n        /* \"contracts/MultiSigWallet.sol\":6759:6766  signers */\n      0x01\n        /* \"contracts/MultiSigWallet.sol\":6759:6773  signers.length */\n      dup1\n      sload\n      swap1\n      pop\n        /* \"contracts/MultiSigWallet.sol\":6755:6756  i */\n      dup2\n        /* \"contracts/MultiSigWallet.sol\":6755:6773  i < signers.length */\n      lt\n        /* \"contracts/MultiSigWallet.sol\":6738:6838  for (uint i = 0; i < signers.length; i++) {... */\n      iszero\n      tag_157\n      jumpi\n        /* \"contracts/MultiSigWallet.sol\":6822:6827  false */\n      0x00\n        /* \"contracts/MultiSigWallet.sol\":6794:6803  approvals */\n      0x05\n        /* \"contracts/MultiSigWallet.sol\":6794:6807  approvals[id] */\n      0x00\n        /* \"contracts/MultiSigWallet.sol\":6804:6806  id */\n      dup5\n        /* \"contracts/MultiSigWallet.sol\":6794:6807  approvals[id] */\n      dup2\n      mstore\n      0x20\n      add\n      swap1\n      dup2\n      mstore\n      0x20\n      add\n      0x00\n      keccak256\n        /* \"contracts/MultiSigWallet.sol\":6794:6819  approvals[id][signers[i]] */\n      0x00\n        /* \"contracts/MultiSigWallet.sol\":6808:6815  signers */\n      0x01\n        /* \"contracts/MultiSigWallet.sol\":6816:6817  i */\n      dup5\n        /* \"contracts/MultiSigWallet.sol\":6808:6818  signers[i] */\n      dup2\n      sload\n      dup2\n      lt\n      tag_159\n      jumpi\n      tag_160\n      tag_100\n      jump\t// in\n    tag_160:\n    tag_159:\n      swap1\n      0x00\n      mstore\n      keccak256(0x00, 0x20)\n      add\n      0x00\n      swap1\n      sload\n      swap1\n      0x0100\n      exp\n      swap1\n      div\n      0xffffffffffffffffffffffffffffffffffffffff\n      and\n        /* \"contracts/MultiSigWallet.sol\":6794:6819  approvals[id][signers[i]] */\n      0xffffffffffffffffffffffffffffffffffffffff\n      and\n      0xffffffffffffffffffffffffffffffffffffffff\n      and\n      dup2\n      mstore\n      0x20\n      add\n      swap1\n      dup2\n      mstore\n      0x20\n      add\n      0x00\n      keccak256\n      0x00\n        /* \"contracts/MultiSigWallet.sol\":6794:6827  approvals[id][signers[i]] = false */\n      0x0100\n      exp\n      dup2\n      sload\n      dup2\n      0xff\n      mul\n      not\n      and\n      swap1\n      dup4\n      iszero\n      iszero\n      mul\n      or\n      swap1\n      sstore\n      pop\n        /* \"contracts/MultiSigWallet.sol\":6775:6778  i++ */\n      dup1\n      dup1\n      tag_162\n      swap1\n      tag_116\n      jump\t// in\n    tag_162:\n      swap2\n      pop\n      pop\n        /* \"contracts/MultiSigWallet.sol\":6738:6838  for (uint i = 0; i < signers.length; i++) {... */\n      jump(tag_156)\n    tag_157:\n      pop\n        /* \"contracts/MultiSigWallet.sol\":6866:6868  id */\n      dup1\n        /* \"contracts/MultiSigWallet.sol\":6853:6869  Cancellation(id) */\n      0xbca2885d81f38744d778177014656fadaf8db5de172de50e21d4ca0e1b844995\n      mload(0x40)\n      mload(0x40)\n      dup1\n      swap2\n      sub\n      swap1\n      log2\n        /* \"contracts/MultiSigWallet.sol\":6044:6943  function cancelTransaction(bytes32 id) public onlySigner {... */\n      pop\n      jump\t// out\n        /* \"contracts/MultiSigWallet.sol\":729:759  address public recoveryAddress */\n    tag_52:\n      0x07\n      0x00\n      swap1\n      sload\n      swap1\n      0x0100\n      exp\n      swap1\n      div\n      0xffffffffffffffffffffffffffffffffffffffff\n      and\n      dup2\n      jump\t// out\n        /* \"contracts/MultiSigWallet.sol\":298:339  mapping (address => bool) public isSigner */\n    tag_56:\n      mstore(0x20, 0x03)\n      dup1\n      0x00\n      mstore\n      keccak256(0x00, 0x40)\n      0x00\n      swap2\n      pop\n      sload\n      swap1\n      0x0100\n      exp\n      swap1\n      div\n      0xff\n      and\n      dup2\n      jump\t// out\n        /* \"contracts/MultiSigWallet.sol\":200:230  uint public requiredSignatures */\n    tag_59:\n      sload(0x02)\n      dup2\n      jump\t// out\n        /* \"contracts/MultiSigWallet.sol\":94:114  address public owner */\n    tag_63:\n      0x00\n      dup1\n      sload\n      swap1\n      0x0100\n      exp\n      swap1\n      div\n      0xffffffffffffffffffffffffffffffffffffffff\n      and\n      dup2\n      jump\t// out\n        /* \"contracts/MultiSigWallet.sol\":4185:4965  function approveTransaction(bytes32 id) public onlySigner {... */\n    tag_67:\n        /* \"contracts/MultiSigWallet.sol\":1796:1804  isSigner */\n      0x03\n        /* \"contracts/MultiSigWallet.sol\":1796:1816  isSigner[msg.sender] */\n      0x00\n        /* \"contracts/MultiSigWallet.sol\":1805:1815  msg.sender */\n      caller\n        /* \"contracts/MultiSigWallet.sol\":1796:1816  isSigner[msg.sender] */\n      0xffffffffffffffffffffffffffffffffffffffff\n      and\n      0xffffffffffffffffffffffffffffffffffffffff\n      and\n      dup2\n      mstore\n      0x20\n      add\n      swap1\n      dup2\n      mstore\n      0x20\n      add\n      0x00\n      keccak256\n      0x00\n      swap1\n      sload\n      swap1\n      0x0100\n      exp\n      swap1\n      div\n      0xff\n      and\n        /* \"contracts/MultiSigWallet.sol\":1788:1857  require(isSigner[msg.sender], \"Only signers can perform this action\") */\n      tag_164\n      jumpi\n      mload(0x40)\n      0x08c379a000000000000000000000000000000000000000000000000000000000\n      dup2\n      mstore\n      0x04\n      add\n      tag_165\n      swap1\n      tag_128\n      jump\t// in\n    tag_165:\n      mload(0x40)\n      dup1\n      swap2\n      sub\n      swap1\n      revert\n    tag_164:\n        /* \"contracts/MultiSigWallet.sol\":4301:4302  0 */\n      0x00\n        /* \"contracts/MultiSigWallet.sol\":4261:4303  transactions[id].destination != address(0) */\n      0xffffffffffffffffffffffffffffffffffffffff\n      and\n        /* \"contracts/MultiSigWallet.sol\":4261:4273  transactions */\n      0x04\n        /* \"contracts/MultiSigWallet.sol\":4261:4277  transactions[id] */\n      0x00\n        /* \"contracts/MultiSigWallet.sol\":4274:4276  id */\n      dup4\n        /* \"contracts/MultiSigWallet.sol\":4261:4277  transactions[id] */\n      dup2\n      mstore\n      0x20\n      add\n      swap1\n      dup2\n      mstore\n      0x20\n      add\n      0x00\n      keccak256\n        /* \"contracts/MultiSigWallet.sol\":4261:4289  transactions[id].destination */\n      0x00\n      add\n      0x00\n      swap1\n      sload\n      swap1\n      0x0100\n      exp\n      swap1\n      div\n      0xffffffffffffffffffffffffffffffffffffffff\n      and\n        /* \"contracts/MultiSigWallet.sol\":4261:4303  transactions[id].destination != address(0) */\n      0xffffffffffffffffffffffffffffffffffffffff\n      and\n      eq\n      iszero\n        /* \"contracts/MultiSigWallet.sol\":4253:4334  require(transactions[id].destination != address(0), \"Transaction does not exist\") */\n      tag_167\n      jumpi\n      mload(0x40)\n      0x08c379a000000000000000000000000000000000000000000000000000000000\n      dup2\n      mstore\n      0x04\n      add\n      tag_168\n      swap1\n      tag_132\n      jump\t// in\n    tag_168:\n      mload(0x40)\n      dup1\n      swap2\n      sub\n      swap1\n      revert\n    tag_167:\n        /* \"contracts/MultiSigWallet.sol\":4373:4377  true */\n      0x01\n        /* \"contracts/MultiSigWallet.sol\":4345:4354  approvals */\n      0x05\n        /* \"contracts/MultiSigWallet.sol\":4345:4358  approvals[id] */\n      0x00\n        /* \"contracts/MultiSigWallet.sol\":4355:4357  id */\n      dup4\n        /* \"contracts/MultiSigWallet.sol\":4345:4358  approvals[id] */\n      dup2\n      mstore\n      0x20\n      add\n      swap1\n      dup2\n      mstore\n      0x20\n      add\n      0x00\n      keccak256\n        /* \"contracts/MultiSigWallet.sol\":4345:4370  approvals[id][msg.sender] */\n      0x00\n        /* \"contracts/MultiSigWallet.sol\":4359:4369  msg.sender */\n      caller\n        /* \"contracts/MultiSigWallet.sol\":4345:4370  approvals[id][msg.sender] */\n      0xffffffffffffffffffffffffffffffffffffffff\n      and\n      0xffffffffffffffffffffffffffffffffffffffff\n      and\n      dup2\n      mstore\n      0x20\n      add\n      swap1\n      dup2\n      mstore\n      0x20\n      add\n      0x00\n      keccak256\n      0x00\n        /* \"contracts/MultiSigWallet.sol\":4345:4377  approvals[id][msg.sender] = true */\n      0x0100\n      exp\n      dup2\n      sload\n      dup2\n      0xff\n      mul\n      not\n      and\n      swap1\n      dup4\n      iszero\n      iszero\n      mul\n      or\n      swap1\n      sstore\n      pop\n        /* \"contracts/MultiSigWallet.sol\":4455:4465  msg.sender */\n      caller\n        /* \"contracts/MultiSigWallet.sol\":4442:4466  Approval(id, msg.sender) */\n      0xffffffffffffffffffffffffffffffffffffffff\n      and\n        /* \"contracts/MultiSigWallet.sol\":4451:4453  id */\n      dup2\n        /* \"contracts/MultiSigWallet.sol\":4442:4466  Approval(id, msg.sender) */\n      0xec6590fa5d86db2e9b3ced5caae4916c2547c5a4bef3cb4bdf11f1d1995a8ee4\n      mload(0x40)\n      mload(0x40)\n      dup1\n      swap2\n      sub\n      swap1\n      log3\n        /* \"contracts/MultiSigWallet.sol\":4615:4625  uint count */\n      0x00\n        /* \"contracts/MultiSigWallet.sol\":4644:4650  uint i */\n      dup1\n        /* \"contracts/MultiSigWallet.sol\":4639:4959  for (uint i = 0; i < signers.length; i++) {... */\n    tag_169:\n        /* \"contracts/MultiSigWallet.sol\":4660:4667  signers */\n      0x01\n        /* \"contracts/MultiSigWallet.sol\":4660:4674  signers.length */\n      dup1\n      sload\n      swap1\n      pop\n        /* \"contracts/MultiSigWallet.sol\":4656:4657  i */\n      dup2\n        /* \"contracts/MultiSigWallet.sol\":4656:4674  i < signers.length */\n      lt\n        /* \"contracts/MultiSigWallet.sol\":4639:4959  for (uint i = 0; i < signers.length; i++) {... */\n      iszero\n      tag_170\n      jumpi\n        /* \"contracts/MultiSigWallet.sol\":4699:4708  approvals */\n      0x05\n        /* \"contracts/MultiSigWallet.sol\":4699:4712  approvals[id] */\n      0x00\n        /* \"contracts/MultiSigWallet.sol\":4709:4711  id */\n      dup5\n        /* \"contracts/MultiSigWallet.sol\":4699:4712  approvals[id] */\n      dup2\n      mstore\n      0x20\n      add\n      swap1\n      dup2\n      mstore\n      0x20\n      add\n      0x00\n      keccak256\n        /* \"contracts/MultiSigWallet.sol\":4699:4724  approvals[id][signers[i]] */\n      0x00\n        /* \"contracts/MultiSigWallet.sol\":4713:4720  signers */\n      0x01\n        /* \"contracts/MultiSigWallet.sol\":4721:4722  i */\n      dup4\n        /* \"contracts/MultiSigWallet.sol\":4713:4723  signers[i] */\n      dup2\n      sload\n      dup2\n      lt\n      tag_172\n      jumpi\n      tag_173\n      tag_100\n      jump\t// in\n    tag_173:\n    tag_172:\n      swap1\n      0x00\n      mstore\n      keccak256(0x00, 0x20)\n      add\n      0x00\n      swap1\n      sload\n      swap1\n      0x0100\n      exp\n      swap1\n      div\n      0xffffffffffffffffffffffffffffffffffffffff\n      and\n        /* \"contracts/MultiSigWallet.sol\":4699:4724  approvals[id][signers[i]] */\n      0xffffffffffffffffffffffffffffffffffffffff\n      and\n      0xffffffffffffffffffffffffffffffffffffffff\n      and\n      dup2\n      mstore\n      0x20\n      add\n      swap1\n      dup2\n      mstore\n      0x20\n      add\n      0x00\n      keccak256\n      0x00\n      swap1\n      sload\n      swap1\n      0x0100\n      exp\n      swap1\n      div\n      0xff\n      and\n        /* \"contracts/MultiSigWallet.sol\":4695:4766  if (approvals[id][signers[i]]) {... */\n      iszero\n      tag_175\n      jumpi\n        /* \"contracts/MultiSigWallet.sol\":4744:4751  count++ */\n      dup2\n      dup1\n      tag_176\n      swap1\n      tag_116\n      jump\t// in\n    tag_176:\n      swap3\n      pop\n      pop\n        /* \"contracts/MultiSigWallet.sol\":4695:4766  if (approvals[id][signers[i]]) {... */\n    tag_175:\n        /* \"contracts/MultiSigWallet.sol\":4792:4810  requiredSignatures */\n      sload(0x02)\n        /* \"contracts/MultiSigWallet.sol\":4783:4788  count */\n      dup3\n        /* \"contracts/MultiSigWallet.sol\":4783:4810  count == requiredSignatures */\n      eq\n        /* \"contracts/MultiSigWallet.sol\":4779:4949  if (count == requiredSignatures) {... */\n      iszero\n      tag_177\n      jumpi\n        /* \"contracts/MultiSigWallet.sol\":4830:4852  executeTransaction(id) */\n      tag_178\n        /* \"contracts/MultiSigWallet.sol\":4849:4851  id */\n      dup4\n        /* \"contracts/MultiSigWallet.sol\":4830:4848  executeTransaction */\n      tag_78\n        /* \"contracts/MultiSigWallet.sol\":4830:4852  executeTransaction(id) */\n      jump\t// in\n    tag_178:\n        /* \"contracts/MultiSigWallet.sol\":4929:4934  break */\n      jump(tag_170)\n        /* \"contracts/MultiSigWallet.sol\":4779:4949  if (count == requiredSignatures) {... */\n    tag_177:\n        /* \"contracts/MultiSigWallet.sol\":4676:4679  i++ */\n      dup1\n      dup1\n      tag_179\n      swap1\n      tag_116\n      jump\t// in\n    tag_179:\n      swap2\n      pop\n      pop\n        /* \"contracts/MultiSigWallet.sol\":4639:4959  for (uint i = 0; i < signers.length; i++) {... */\n      jump(tag_169)\n    tag_170:\n      pop\n        /* \"contracts/MultiSigWallet.sol\":4243:4965  {... */\n      pop\n        /* \"contracts/MultiSigWallet.sol\":4185:4965  function approveTransaction(bytes32 id) public onlySigner {... */\n      pop\n      jump\t// out\n        /* \"contracts/MultiSigWallet.sol\":6949:7182  function recoverWallet(address newOwner) public {... */\n    tag_70:\n        /* \"contracts/MultiSigWallet.sol\":7029:7044  recoveryAddress */\n      0x07\n      0x00\n      swap1\n      sload\n      swap1\n      0x0100\n      exp\n      swap1\n      div\n      0xffffffffffffffffffffffffffffffffffffffff\n      and\n        /* \"contracts/MultiSigWallet.sol\":7015:7044  msg.sender == recoveryAddress */\n      0xffffffffffffffffffffffffffffffffffffffff\n      and\n        /* \"contracts/MultiSigWallet.sol\":7015:7025  msg.sender */\n      caller\n        /* \"contracts/MultiSigWallet.sol\":7015:7044  msg.sender == recoveryAddress */\n      0xffffffffffffffffffffffffffffffffffffffff\n      and\n      eq\n        /* \"contracts/MultiSigWallet.sol\":7007:7097  require(msg.sender == recoveryAddress, \"Only the recovery address can call this function\") */\n      tag_181\n      jumpi\n      mload(0x40)\n      0x08c379a000000000000000000000000000000000000000000000000000000000\n      dup2\n      mstore\n      0x04\n      add\n      tag_182\n      swap1\n      tag_183\n      jump\t// in\n    tag_182:\n      mload(0x40)\n      dup1\n      swap2\n      sub\n      swap1\n      revert\n    tag_181:\n        /* \"contracts/MultiSigWallet.sol\":7140:7148  newOwner */\n      dup1\n        /* \"contracts/MultiSigWallet.sol\":7112:7149  OwnershipTransferred(owner, newOwner) */\n      0xffffffffffffffffffffffffffffffffffffffff\n      and\n        /* \"contracts/MultiSigWallet.sol\":7133:7138  owner */\n      0x00\n      dup1\n      sload\n      swap1\n      0x0100\n      exp\n      swap1\n      div\n      0xffffffffffffffffffffffffffffffffffffffff\n      and\n        /* \"contracts/MultiSigWallet.sol\":7112:7149  OwnershipTransferred(owner, newOwner) */\n      0xffffffffffffffffffffffffffffffffffffffff\n      and\n      0x8be0079c531659141344cd1fd0a4f28419497f9722a3daafe3b4186f6b6457e0\n      mload(0x40)\n      mload(0x40)\n      dup1\n      swap2\n      sub\n      swap1\n      log3\n        /* \"contracts/MultiSigWallet.sol\":7167:7175  newOwner */\n      dup1\n        /* \"contracts/MultiSigWallet.sol\":7159:7164  owner */\n      0x00\n      dup1\n        /* \"contracts/MultiSigWallet.sol\":7159:7175  owner = newOwner */\n      0x0100\n      exp\n      dup2\n      sload\n      dup2\n      0xffffffffffffffffffffffffffffffffffffffff\n      mul\n      not\n      and\n      swap1\n      dup4\n      0xffffffffffffffffffffffffffffffffffffffff\n      and\n      mul\n      or\n      swap1\n      sstore\n      pop\n        /* \"contracts/MultiSigWallet.sol\":6949:7182  function recoverWallet(address newOwner) public {... */\n      pop\n      jump\t// out\n        /* \"contracts/MultiSigWallet.sol\":3535:4136  function createTransaction(address destination, uint value, bytes memory data) public onlySigner returns (bytes32) {... */\n    tag_74:\n        /* \"contracts/MultiSigWallet.sol\":3641:3648  bytes32 */\n      0x00\n        /* \"contracts/MultiSigWallet.sol\":1796:1804  isSigner */\n      0x03\n        /* \"contracts/MultiSigWallet.sol\":1796:1816  isSigner[msg.sender] */\n      0x00\n        /* \"contracts/MultiSigWallet.sol\":1805:1815  msg.sender */\n      caller\n        /* \"contracts/MultiSigWallet.sol\":1796:1816  isSigner[msg.sender] */\n      0xffffffffffffffffffffffffffffffffffffffff\n      and\n      0xffffffffffffffffffffffffffffffffffffffff\n      and\n      dup2\n      mstore\n      0x20\n      add\n      swap1\n      dup2\n      mstore\n      0x20\n      add\n      0x00\n      keccak256\n      0x00\n      swap1\n      sload\n      swap1\n      0x0100\n      exp\n      swap1\n      div\n      0xff\n      and\n        /* \"contracts/MultiSigWallet.sol\":1788:1857  require(isSigner[msg.sender], \"Only signers can perform this action\") */\n      tag_185\n      jumpi\n      mload(0x40)\n      0x08c379a000000000000000000000000000000000000000000000000000000000\n      dup2\n      mstore\n      0x04\n      add\n      tag_186\n      swap1\n      tag_128\n      jump\t// in\n    tag_186:\n      mload(0x40)\n      dup1\n      swap2\n      sub\n      swap1\n      revert\n    tag_185:\n        /* \"contracts/MultiSigWallet.sol\":3660:3670  bytes32 id */\n      0x00\n        /* \"contracts/MultiSigWallet.sol\":3700:3711  destination */\n      dup5\n        /* \"contracts/MultiSigWallet.sol\":3713:3718  value */\n      dup5\n        /* \"contracts/MultiSigWallet.sol\":3720:3724  data */\n      dup5\n        /* \"contracts/MultiSigWallet.sol\":3726:3741  block.timestamp */\n      timestamp\n        /* \"contracts/MultiSigWallet.sol\":3683:3742  abi.encodePacked(destination, value, data, block.timestamp) */\n      add(0x20, mload(0x40))\n      tag_188\n      swap5\n      swap4\n      swap3\n      swap2\n      swap1\n      tag_189\n      jump\t// in\n    tag_188:\n      mload(0x40)\n      0x20\n      dup2\n      dup4\n      sub\n      sub\n      dup2\n      mstore\n      swap1\n      0x40\n      mstore\n        /* \"contracts/MultiSigWallet.sol\":3673:3743  keccak256(abi.encodePacked(destination, value, data, block.timestamp)) */\n      dup1\n      mload\n      swap1\n      0x20\n      add\n      keccak256\n        /* \"contracts/MultiSigWallet.sol\":3660:3743  bytes32 id = keccak256(abi.encodePacked(destination, value, data, block.timestamp)) */\n      swap1\n      pop\n        /* \"contracts/MultiSigWallet.sol\":3816:3860  Transaction(destination, value, data, false) */\n      mload(0x40)\n      dup1\n      0x80\n      add\n      0x40\n      mstore\n      dup1\n        /* \"contracts/MultiSigWallet.sol\":3828:3839  destination */\n      dup7\n        /* \"contracts/MultiSigWallet.sol\":3816:3860  Transaction(destination, value, data, false) */\n      0xffffffffffffffffffffffffffffffffffffffff\n      and\n      dup2\n      mstore\n      0x20\n      add\n        /* \"contracts/MultiSigWallet.sol\":3841:3846  value */\n      dup6\n        /* \"contracts/MultiSigWallet.sol\":3816:3860  Transaction(destination, value, data, false) */\n      dup2\n      mstore\n      0x20\n      add\n        /* \"contracts/MultiSigWallet.sol\":3848:3852  data */\n      dup5\n        /* \"contracts/MultiSigWallet.sol\":3816:3860  Transaction(destination, value, data, false) */\n      dup2\n      mstore\n      0x20\n      add\n        /* \"contracts/MultiSigWallet.sol\":3854:3859  false */\n      0x00\n        /* \"contracts/MultiSigWallet.sol\":3816:3860  Transaction(destination, value, data, false) */\n      iszero\n      iszero\n      dup2\n      mstore\n      pop\n        /* \"contracts/MultiSigWallet.sol\":3797:3809  transactions */\n      0x04\n        /* \"contracts/MultiSigWallet.sol\":3797:3813  transactions[id] */\n      0x00\n        /* \"contracts/MultiSigWallet.sol\":3810:3812  id */\n      dup4\n        /* \"contracts/MultiSigWallet.sol\":3797:3813  transactions[id] */\n      dup2\n      mstore\n      0x20\n      add\n      swap1\n      dup2\n      mstore\n      0x20\n      add\n      0x00\n      keccak256\n        /* \"contracts/MultiSigWallet.sol\":3797:3860  transactions[id] = Transaction(destination, value, data, false) */\n      0x00\n      dup3\n      add\n      mload\n      dup2\n      0x00\n      add\n      exp(0x0100, 0x00)\n      dup2\n      sload\n      dup2\n      0xffffffffffffffffffffffffffffffffffffffff\n      mul\n      not\n      and\n      swap1\n      dup4\n      0xffffffffffffffffffffffffffffffffffffffff\n      and\n      mul\n      or\n      swap1\n      sstore\n      pop\n      0x20\n      dup3\n      add\n      mload\n      dup2\n      0x01\n      add\n      sstore\n      0x40\n      dup3\n      add\n      mload\n      dup2\n      0x02\n      add\n      swap1\n      dup1\n      mload\n      swap1\n      0x20\n      add\n      swap1\n      tag_190\n      swap3\n      swap2\n      swap1\n      tag_191\n      jump\t// in\n    tag_190:\n      pop\n      0x60\n      dup3\n      add\n      mload\n      dup2\n      0x03\n      add\n      exp(0x0100, 0x00)\n      dup2\n      sload\n      dup2\n      0xff\n      mul\n      not\n      and\n      swap1\n      dup4\n      iszero\n      iszero\n      mul\n      or\n      swap1\n      sstore\n      pop\n      swap1\n      pop\n      pop\n        /* \"contracts/MultiSigWallet.sol\":3910:3925  transactionList */\n      0x06\n        /* \"contracts/MultiSigWallet.sol\":3931:3933  id */\n      dup2\n        /* \"contracts/MultiSigWallet.sol\":3910:3934  transactionList.push(id) */\n      swap1\n      dup1\n      0x01\n      dup2\n      sload\n      add\n      dup1\n      dup3\n      sstore\n      dup1\n      swap2\n      pop\n      pop\n      0x01\n      swap1\n      sub\n      swap1\n      0x00\n      mstore\n      keccak256(0x00, 0x20)\n      add\n      0x00\n      swap1\n      swap2\n      swap1\n      swap2\n      swap1\n      swap2\n      pop\n      sstore\n        /* \"contracts/MultiSigWallet.sol\":4018:4029  destination */\n      dup5\n        /* \"contracts/MultiSigWallet.sol\":3999:4043  NewTransaction(id, destination, value, data) */\n      0xffffffffffffffffffffffffffffffffffffffff\n      and\n        /* \"contracts/MultiSigWallet.sol\":4014:4016  id */\n      dup2\n        /* \"contracts/MultiSigWallet.sol\":3999:4043  NewTransaction(id, destination, value, data) */\n      0xa9ae4899c6660aed54dd2cfe0668075633cc1f864b27d69284536bf59bae230c\n        /* \"contracts/MultiSigWallet.sol\":4031:4036  value */\n      dup7\n        /* \"contracts/MultiSigWallet.sol\":4038:4042  data */\n      dup7\n        /* \"contracts/MultiSigWallet.sol\":3999:4043  NewTransaction(id, destination, value, data) */\n      mload(0x40)\n      tag_193\n      swap3\n      swap2\n      swap1\n      tag_194\n      jump\t// in\n    tag_193:\n      mload(0x40)\n      dup1\n      swap2\n      sub\n      swap1\n      log3\n        /* \"contracts/MultiSigWallet.sol\":4127:4129  id */\n      dup1\n        /* \"contracts/MultiSigWallet.sol\":4120:4129  return id */\n      swap2\n      pop\n      pop\n        /* \"contracts/MultiSigWallet.sol\":3535:4136  function createTransaction(address destination, uint value, bytes memory data) public onlySigner returns (bytes32) {... */\n      swap4\n      swap3\n      pop\n      pop\n      pop\n      jump\t// out\n        /* \"contracts/MultiSigWallet.sol\":5014:5996  function executeTransaction(bytes32 id) public onlySigner {... */\n    tag_78:\n        /* \"contracts/MultiSigWallet.sol\":1796:1804  isSigner */\n      0x03\n        /* \"contracts/MultiSigWallet.sol\":1796:1816  isSigner[msg.sender] */\n      0x00\n        /* \"contracts/MultiSigWallet.sol\":1805:1815  msg.sender */\n      caller\n        /* \"contracts/MultiSigWallet.sol\":1796:1816  isSigner[msg.sender] */\n      0xffffffffffffffffffffffffffffffffffffffff\n      and\n      0xffffffffffffffffffffffffffffffffffffffff\n      and\n      dup2\n      mstore\n      0x20\n      add\n      swap1\n      dup2\n      mstore\n      0x20\n      add\n      0x00\n      keccak256\n      0x00\n      swap1\n      sload\n      swap1\n      0x0100\n      exp\n      swap1\n      div\n      0xff\n      and\n        /* \"contracts/MultiSigWallet.sol\":1788:1857  require(isSigner[msg.sender], \"Only signers can perform this action\") */\n      tag_196\n      jumpi\n      mload(0x40)\n      0x08c379a000000000000000000000000000000000000000000000000000000000\n      dup2\n      mstore\n      0x04\n      add\n      tag_197\n      swap1\n      tag_128\n      jump\t// in\n    tag_197:\n      mload(0x40)\n      dup1\n      swap2\n      sub\n      swap1\n      revert\n    tag_196:\n        /* \"contracts/MultiSigWallet.sol\":5130:5131  0 */\n      0x00\n        /* \"contracts/MultiSigWallet.sol\":5090:5132  transactions[id].destination != address(0) */\n      0xffffffffffffffffffffffffffffffffffffffff\n      and\n        /* \"contracts/MultiSigWallet.sol\":5090:5102  transactions */\n      0x04\n        /* \"contracts/MultiSigWallet.sol\":5090:5106  transactions[id] */\n      0x00\n        /* \"contracts/MultiSigWallet.sol\":5103:5105  id */\n      dup4\n        /* \"contracts/MultiSigWallet.sol\":5090:5106  transactions[id] */\n      dup2\n      mstore\n      0x20\n      add\n      swap1\n      dup2\n      mstore\n      0x20\n      add\n      0x00\n      keccak256\n        /* \"contracts/MultiSigWallet.sol\":5090:5118  transactions[id].destination */\n      0x00\n      add\n      0x00\n      swap1\n      sload\n      swap1\n      0x0100\n      exp\n      swap1\n      div\n      0xffffffffffffffffffffffffffffffffffffffff\n      and\n        /* \"contracts/MultiSigWallet.sol\":5090:5132  transactions[id].destination != address(0) */\n      0xffffffffffffffffffffffffffffffffffffffff\n      and\n      eq\n      iszero\n        /* \"contracts/MultiSigWallet.sol\":5082:5163  require(transactions[id].destination != address(0), \"Transaction does not exist\") */\n      tag_199\n      jumpi\n      mload(0x40)\n      0x08c379a000000000000000000000000000000000000000000000000000000000\n      dup2\n      mstore\n      0x04\n      add\n      tag_200\n      swap1\n      tag_132\n      jump\t// in\n    tag_200:\n      mload(0x40)\n      dup1\n      swap2\n      sub\n      swap1\n      revert\n    tag_199:\n        /* \"contracts/MultiSigWallet.sol\":5182:5194  transactions */\n      0x04\n        /* \"contracts/MultiSigWallet.sol\":5182:5198  transactions[id] */\n      0x00\n        /* \"contracts/MultiSigWallet.sol\":5195:5197  id */\n      dup3\n        /* \"contracts/MultiSigWallet.sol\":5182:5198  transactions[id] */\n      dup2\n      mstore\n      0x20\n      add\n      swap1\n      dup2\n      mstore\n      0x20\n      add\n      0x00\n      keccak256\n        /* \"contracts/MultiSigWallet.sol\":5182:5207  transactions[id].executed */\n      0x03\n      add\n      0x00\n      swap1\n      sload\n      swap1\n      0x0100\n      exp\n      swap1\n      div\n      0xff\n      and\n        /* \"contracts/MultiSigWallet.sol\":5181:5207  !transactions[id].executed */\n      iszero\n        /* \"contracts/MultiSigWallet.sol\":5173:5249  require(!transactions[id].executed, \"Transaction has already been executed\") */\n      tag_201\n      jumpi\n      mload(0x40)\n      0x08c379a000000000000000000000000000000000000000000000000000000000\n      dup2\n      mstore\n      0x04\n      add\n      tag_202\n      swap1\n      tag_135\n      jump\t// in\n    tag_202:\n      mload(0x40)\n      dup1\n      swap2\n      sub\n      swap1\n      revert\n    tag_201:\n        /* \"contracts/MultiSigWallet.sol\":5340:5350  uint count */\n      0x00\n        /* \"contracts/MultiSigWallet.sol\":5369:5375  uint i */\n      dup1\n        /* \"contracts/MultiSigWallet.sol\":5364:5990  for (uint i = 0; i < signers.length; i++) {... */\n    tag_203:\n        /* \"contracts/MultiSigWallet.sol\":5385:5392  signers */\n      0x01\n        /* \"contracts/MultiSigWallet.sol\":5385:5399  signers.length */\n      dup1\n      sload\n      swap1\n      pop\n        /* \"contracts/MultiSigWallet.sol\":5381:5382  i */\n      dup2\n        /* \"contracts/MultiSigWallet.sol\":5381:5399  i < signers.length */\n      lt\n        /* \"contracts/MultiSigWallet.sol\":5364:5990  for (uint i = 0; i < signers.length; i++) {... */\n      iszero\n      tag_204\n      jumpi\n        /* \"contracts/MultiSigWallet.sol\":5424:5433  approvals */\n      0x05\n        /* \"contracts/MultiSigWallet.sol\":5424:5437  approvals[id] */\n      0x00\n        /* \"contracts/MultiSigWallet.sol\":5434:5436  id */\n      dup5\n        /* \"contracts/MultiSigWallet.sol\":5424:5437  approvals[id] */\n      dup2\n      mstore\n      0x20\n      add\n      swap1\n      dup2\n      mstore\n      0x20\n      add\n      0x00\n      keccak256\n        /* \"contracts/MultiSigWallet.sol\":5424:5449  approvals[id][signers[i]] */\n      0x00\n        /* \"contracts/MultiSigWallet.sol\":5438:5445  signers */\n      0x01\n        /* \"contracts/MultiSigWallet.sol\":5446:5447  i */\n      dup4\n        /* \"contracts/MultiSigWallet.sol\":5438:5448  signers[i] */\n      dup2\n      sload\n      dup2\n      lt\n      tag_206\n      jumpi\n      tag_207\n      tag_100\n      jump\t// in\n    tag_207:\n    tag_206:\n      swap1\n      0x00\n      mstore\n      keccak256(0x00, 0x20)\n      add\n      0x00\n      swap1\n      sload\n      swap1\n      0x0100\n      exp\n      swap1\n      div\n      0xffffffffffffffffffffffffffffffffffffffff\n      and\n        /* \"contracts/MultiSigWallet.sol\":5424:5449  approvals[id][signers[i]] */\n      0xffffffffffffffffffffffffffffffffffffffff\n      and\n      0xffffffffffffffffffffffffffffffffffffffff\n      and\n      dup2\n      mstore\n      0x20\n      add\n      swap1\n      dup2\n      mstore\n      0x20\n      add\n      0x00\n      keccak256\n      0x00\n      swap1\n      sload\n      swap1\n      0x0100\n      exp\n      swap1\n      div\n      0xff\n      and\n        /* \"contracts/MultiSigWallet.sol\":5420:5491  if (approvals[id][signers[i]]) {... */\n      iszero\n      tag_209\n      jumpi\n        /* \"contracts/MultiSigWallet.sol\":5469:5476  count++ */\n      dup2\n      dup1\n      tag_210\n      swap1\n      tag_116\n      jump\t// in\n    tag_210:\n      swap3\n      pop\n      pop\n        /* \"contracts/MultiSigWallet.sol\":5420:5491  if (approvals[id][signers[i]]) {... */\n    tag_209:\n        /* \"contracts/MultiSigWallet.sol\":5517:5535  requiredSignatures */\n      sload(0x02)\n        /* \"contracts/MultiSigWallet.sol\":5508:5513  count */\n      dup3\n        /* \"contracts/MultiSigWallet.sol\":5508:5535  count == requiredSignatures */\n      eq\n        /* \"contracts/MultiSigWallet.sol\":5504:5980  if (count == requiredSignatures) {... */\n      iszero\n      tag_211\n      jumpi\n        /* \"contracts/MultiSigWallet.sol\":5583:5587  true */\n      0x01\n        /* \"contracts/MultiSigWallet.sol\":5555:5567  transactions */\n      0x04\n        /* \"contracts/MultiSigWallet.sol\":5555:5571  transactions[id] */\n      0x00\n        /* \"contracts/MultiSigWallet.sol\":5568:5570  id */\n      dup6\n        /* \"contracts/MultiSigWallet.sol\":5555:5571  transactions[id] */\n      dup2\n      mstore\n      0x20\n      add\n      swap1\n      dup2\n      mstore\n      0x20\n      add\n      0x00\n      keccak256\n        /* \"contracts/MultiSigWallet.sol\":5555:5580  transactions[id].executed */\n      0x03\n      add\n      0x00\n        /* \"contracts/MultiSigWallet.sol\":5555:5587  transactions[id].executed = true */\n      0x0100\n      exp\n      dup2\n      sload\n      dup2\n      0xff\n      mul\n      not\n      and\n      swap1\n      dup4\n      iszero\n      iszero\n      mul\n      or\n      swap1\n      sstore\n      pop\n        /* \"contracts/MultiSigWallet.sol\":5642:5654  bool success */\n      0x00\n        /* \"contracts/MultiSigWallet.sol\":5660:5672  transactions */\n      0x04\n        /* \"contracts/MultiSigWallet.sol\":5660:5676  transactions[id] */\n      0x00\n        /* \"contracts/MultiSigWallet.sol\":5673:5675  id */\n      dup6\n        /* \"contracts/MultiSigWallet.sol\":5660:5676  transactions[id] */\n      dup2\n      mstore\n      0x20\n      add\n      swap1\n      dup2\n      mstore\n      0x20\n      add\n      0x00\n      keccak256\n        /* \"contracts/MultiSigWallet.sol\":5660:5688  transactions[id].destination */\n      0x00\n      add\n      0x00\n      swap1\n      sload\n      swap1\n      0x0100\n      exp\n      swap1\n      div\n      0xffffffffffffffffffffffffffffffffffffffff\n      and\n        /* \"contracts/MultiSigWallet.sol\":5660:5693  transactions[id].destination.call */\n      0xffffffffffffffffffffffffffffffffffffffff\n      and\n        /* \"contracts/MultiSigWallet.sol\":5701:5713  transactions */\n      0x04\n        /* \"contracts/MultiSigWallet.sol\":5701:5717  transactions[id] */\n      0x00\n        /* \"contracts/MultiSigWallet.sol\":5714:5716  id */\n      dup7\n        /* \"contracts/MultiSigWallet.sol\":5701:5717  transactions[id] */\n      dup2\n      mstore\n      0x20\n      add\n      swap1\n      dup2\n      mstore\n      0x20\n      add\n      0x00\n      keccak256\n        /* \"contracts/MultiSigWallet.sol\":5701:5723  transactions[id].value */\n      0x01\n      add\n      sload\n        /* \"contracts/MultiSigWallet.sol\":5725:5737  transactions */\n      0x04\n        /* \"contracts/MultiSigWallet.sol\":5725:5741  transactions[id] */\n      0x00\n        /* \"contracts/MultiSigWallet.sol\":5738:5740  id */\n      dup8\n        /* \"contracts/MultiSigWallet.sol\":5725:5741  transactions[id] */\n      dup2\n      mstore\n      0x20\n      add\n      swap1\n      dup2\n      mstore\n      0x20\n      add\n      0x00\n      keccak256\n        /* \"contracts/MultiSigWallet.sol\":5725:5746  transactions[id].data */\n      0x02\n      add\n        /* \"contracts/MultiSigWallet.sol\":5660:5747  transactions[id].destination.call{value: transactions[id].value}(transactions[id].data) */\n      mload(0x40)\n      tag_212\n      swap2\n      swap1\n      tag_213\n      jump\t// in\n    tag_212:\n      0x00\n      mload(0x40)\n      dup1\n      dup4\n      sub\n      dup2\n      dup6\n      dup8\n      gas\n      call\n      swap3\n      pop\n      pop\n      pop\n      returndatasize\n      dup1\n      0x00\n      dup2\n      eq\n      tag_216\n      jumpi\n      mload(0x40)\n      swap2\n      pop\n      and(add(returndatasize, 0x3f), not(0x1f))\n      dup3\n      add\n      0x40\n      mstore\n      returndatasize\n      dup3\n      mstore\n      returndatasize\n      0x00\n      0x20\n      dup5\n      add\n      returndatacopy\n      jump(tag_215)\n    tag_216:\n      0x60\n      swap2\n      pop\n    tag_215:\n      pop\n        /* \"contracts/MultiSigWallet.sol\":5641:5747  (bool success, ) = transactions[id].destination.call{value: transactions[id].value}(transactions[id].data) */\n      pop\n      swap1\n      pop\n        /* \"contracts/MultiSigWallet.sol\":5800:5807  success */\n      dup1\n        /* \"contracts/MultiSigWallet.sol\":5792:5840  require(success, \"Transaction execution failed\") */\n      tag_217\n      jumpi\n      mload(0x40)\n      0x08c379a000000000000000000000000000000000000000000000000000000000\n      dup2\n      mstore\n      0x04\n      add\n      tag_218\n      swap1\n      tag_219\n      jump\t// in\n    tag_218:\n      mload(0x40)\n      dup1\n      swap2\n      sub\n      swap1\n      revert\n    tag_217:\n        /* \"contracts/MultiSigWallet.sol\":5873:5875  id */\n      dup4\n        /* \"contracts/MultiSigWallet.sol\":5863:5876  Execution(id) */\n      0x7e9e1cb65db4927b1815f498cbaa226a15c277816f7df407573682110522c9b1\n      mload(0x40)\n      mload(0x40)\n      dup1\n      swap2\n      sub\n      swap1\n      log2\n        /* \"contracts/MultiSigWallet.sol\":5960:5965  break */\n      pop\n      jump(tag_204)\n        /* \"contracts/MultiSigWallet.sol\":5504:5980  if (count == requiredSignatures) {... */\n    tag_211:\n        /* \"contracts/MultiSigWallet.sol\":5401:5404  i++ */\n      dup1\n      dup1\n      tag_220\n      swap1\n      tag_116\n      jump\t// in\n    tag_220:\n      swap2\n      pop\n      pop\n        /* \"contracts/MultiSigWallet.sol\":5364:5990  for (uint i = 0; i < signers.length; i++) {... */\n      jump(tag_203)\n    tag_204:\n      pop\n        /* \"contracts/MultiSigWallet.sol\":5072:5996  {... */\n      pop\n        /* \"contracts/MultiSigWallet.sol\":5014:5996  function executeTransaction(bytes32 id) public onlySigner {... */\n      pop\n      jump\t// out\n        /* \"contracts/MultiSigWallet.sol\":2553:2783  function addSigner(address signer) public onlyOwner {... */\n    tag_81:\n        /* \"contracts/MultiSigWallet.sol\":1686:1691  owner */\n      0x00\n      dup1\n      sload\n      swap1\n      0x0100\n      exp\n      swap1\n      div\n      0xffffffffffffffffffffffffffffffffffffffff\n      and\n        /* \"contracts/MultiSigWallet.sol\":1672:1691  msg.sender == owner */\n      0xffffffffffffffffffffffffffffffffffffffff\n      and\n        /* \"contracts/MultiSigWallet.sol\":1672:1682  msg.sender */\n      caller\n        /* \"contracts/MultiSigWallet.sol\":1672:1691  msg.sender == owner */\n      0xffffffffffffffffffffffffffffffffffffffff\n      and\n      eq\n        /* \"contracts/MultiSigWallet.sol\":1664:1734  require(msg.sender == owner, \"Only the owner can perform this action\") */\n      tag_222\n      jumpi\n      mload(0x40)\n      0x08c379a000000000000000000000000000000000000000000000000000000000\n      dup2\n      mstore\n      0x04\n      add\n      tag_223\n      swap1\n      tag_87\n      jump\t// in\n    tag_223:\n      mload(0x40)\n      dup1\n      swap2\n      sub\n      swap1\n      revert\n    tag_222:\n        /* \"contracts/MultiSigWallet.sol\":2624:2632  isSigner */\n      0x03\n        /* \"contracts/MultiSigWallet.sol\":2624:2640  isSigner[signer] */\n      0x00\n        /* \"contracts/MultiSigWallet.sol\":2633:2639  signer */\n      dup3\n        /* \"contracts/MultiSigWallet.sol\":2624:2640  isSigner[signer] */\n      0xffffffffffffffffffffffffffffffffffffffff\n      and\n      0xffffffffffffffffffffffffffffffffffffffff\n      and\n      dup2\n      mstore\n      0x20\n      add\n      swap1\n      dup2\n      mstore\n      0x20\n      add\n      0x00\n      keccak256\n      0x00\n      swap1\n      sload\n      swap1\n      0x0100\n      exp\n      swap1\n      div\n      0xff\n      and\n        /* \"contracts/MultiSigWallet.sol\":2623:2640  !isSigner[signer] */\n      iszero\n        /* \"contracts/MultiSigWallet.sol\":2615:2672  require(!isSigner[signer], \"Address is already a signer\") */\n      tag_225\n      jumpi\n      mload(0x40)\n      0x08c379a000000000000000000000000000000000000000000000000000000000\n      dup2\n      mstore\n      0x04\n      add\n      tag_226\n      swap1\n      tag_227\n      jump\t// in\n    tag_226:\n      mload(0x40)\n      dup1\n      swap2\n      sub\n      swap1\n      revert\n    tag_225:\n        /* \"contracts/MultiSigWallet.sol\":2682:2689  signers */\n      0x01\n        /* \"contracts/MultiSigWallet.sol\":2695:2701  signer */\n      dup2\n        /* \"contracts/MultiSigWallet.sol\":2682:2702  signers.push(signer) */\n      swap1\n      dup1\n      0x01\n      dup2\n      sload\n      add\n      dup1\n      dup3\n      sstore\n      dup1\n      swap2\n      pop\n      pop\n      0x01\n      swap1\n      sub\n      swap1\n      0x00\n      mstore\n      keccak256(0x00, 0x20)\n      add\n      0x00\n      swap1\n      swap2\n      swap1\n      swap2\n      swap1\n      swap2\n      0x0100\n      exp\n      dup2\n      sload\n      dup2\n      0xffffffffffffffffffffffffffffffffffffffff\n      mul\n      not\n      and\n      swap1\n      dup4\n      0xffffffffffffffffffffffffffffffffffffffff\n      and\n      mul\n      or\n      swap1\n      sstore\n      pop\n        /* \"contracts/MultiSigWallet.sol\":2731:2735  true */\n      0x01\n        /* \"contracts/MultiSigWallet.sol\":2712:2720  isSigner */\n      0x03\n        /* \"contracts/MultiSigWallet.sol\":2712:2728  isSigner[signer] */\n      0x00\n        /* \"contracts/MultiSigWallet.sol\":2721:2727  signer */\n      dup4\n        /* \"contracts/MultiSigWallet.sol\":2712:2728  isSigner[signer] */\n      0xffffffffffffffffffffffffffffffffffffffff\n      and\n      0xffffffffffffffffffffffffffffffffffffffff\n      and\n      dup2\n      mstore\n      0x20\n      add\n      swap1\n      dup2\n      mstore\n      0x20\n      add\n      0x00\n      keccak256\n      0x00\n        /* \"contracts/MultiSigWallet.sol\":2712:2735  isSigner[signer] = true */\n      0x0100\n      exp\n      dup2\n      sload\n      dup2\n      0xff\n      mul\n      not\n      and\n      swap1\n      dup4\n      iszero\n      iszero\n      mul\n      or\n      swap1\n      sstore\n      pop\n        /* \"contracts/MultiSigWallet.sol\":2771:2775  true */\n      0x01\n        /* \"contracts/MultiSigWallet.sol\":2750:2776  SignerUpdate(signer, true) */\n      iszero\n      iszero\n        /* \"contracts/MultiSigWallet.sol\":2763:2769  signer */\n      dup2\n        /* \"contracts/MultiSigWallet.sol\":2750:2776  SignerUpdate(signer, true) */\n      0xffffffffffffffffffffffffffffffffffffffff\n      and\n      0xc648f6265408cc54c0dc26d24ba51dfc9f35ce1a63baa2228f65d93aaf11cc67\n      mload(0x40)\n      mload(0x40)\n      dup1\n      swap2\n      sub\n      swap1\n      log3\n        /* \"contracts/MultiSigWallet.sol\":2553:2783  function addSigner(address signer) public onlyOwner {... */\n      pop\n      jump\t// out\n    tag_154:\n      pop\n      dup1\n      sload\n      tag_229\n      swap1\n      tag_120\n      jump\t// in\n    tag_229:\n      0x00\n      dup3\n      sstore\n      dup1\n      0x1f\n      lt\n      tag_231\n      jumpi\n      pop\n      jump(tag_230)\n    tag_231:\n      0x1f\n      add\n      0x20\n      swap1\n      div\n      swap1\n      0x00\n      mstore\n      keccak256(0x00, 0x20)\n      swap1\n      dup2\n      add\n      swap1\n      tag_232\n      swap2\n      swap1\n      tag_233\n      jump\t// in\n    tag_232:\n    tag_230:\n      pop\n      jump\t// out\n    tag_191:\n      dup3\n      dup1\n      sload\n      tag_234\n      swap1\n      tag_120\n      jump\t// in\n    tag_234:\n      swap1\n      0x00\n      mstore\n      keccak256(0x00, 0x20)\n      swap1\n      0x1f\n      add\n      0x20\n      swap1\n      div\n      dup2\n      add\n      swap3\n      dup3\n      tag_236\n      jumpi\n      0x00\n      dup6\n      sstore\n      jump(tag_235)\n    tag_236:\n      dup3\n      0x1f\n      lt\n      tag_237\n      jumpi\n      dup1\n      mload\n      not(0xff)\n      and\n      dup4\n      dup1\n      add\n      or\n      dup6\n      sstore\n      jump(tag_235)\n    tag_237:\n      dup3\n      dup1\n      add\n      0x01\n      add\n      dup6\n      sstore\n      dup3\n      iszero\n      tag_235\n      jumpi\n      swap2\n      dup3\n      add\n    tag_238:\n      dup3\n      dup2\n      gt\n      iszero\n      tag_239\n      jumpi\n      dup3\n      mload\n      dup3\n      sstore\n      swap2\n      0x20\n      add\n      swap2\n      swap1\n      0x01\n      add\n      swap1\n      jump(tag_238)\n    tag_239:\n    tag_235:\n      pop\n      swap1\n      pop\n      tag_240\n      swap2\n      swap1\n      tag_233\n      jump\t// in\n    tag_240:\n      pop\n      swap1\n      jump\t// out\n    tag_233:\n    tag_241:\n      dup1\n      dup3\n      gt\n      iszero\n      tag_242\n      jumpi\n      0x00\n      dup2\n      0x00\n      swap1\n      sstore\n      pop\n      0x01\n      add\n      jump(tag_241)\n    tag_242:\n      pop\n      swap1\n      jump\t// out\n        /* \"#utility.yul\":7:417   */\n    tag_244:\n        /* \"#utility.yul\":84:89   */\n      0x00\n        /* \"#utility.yul\":109:174   */\n      tag_246\n        /* \"#utility.yul\":125:173   */\n      tag_247\n        /* \"#utility.yul\":166:172   */\n      dup5\n        /* \"#utility.yul\":125:173   */\n      tag_248\n      jump\t// in\n    tag_247:\n        /* \"#utility.yul\":109:174   */\n      tag_249\n      jump\t// in\n    tag_246:\n        /* \"#utility.yul\":100:174   */\n      swap1\n      pop\n        /* \"#utility.yul\":197:203   */\n      dup3\n        /* \"#utility.yul\":190:195   */\n      dup2\n        /* \"#utility.yul\":183:204   */\n      mstore\n        /* \"#utility.yul\":235:239   */\n      0x20\n        /* \"#utility.yul\":228:233   */\n      dup2\n        /* \"#utility.yul\":224:240   */\n      add\n        /* \"#utility.yul\":273:276   */\n      dup5\n        /* \"#utility.yul\":264:270   */\n      dup5\n        /* \"#utility.yul\":259:262   */\n      dup5\n        /* \"#utility.yul\":255:271   */\n      add\n        /* \"#utility.yul\":252:277   */\n      gt\n        /* \"#utility.yul\":249:361   */\n      iszero\n      tag_250\n      jumpi\n        /* \"#utility.yul\":280:359   */\n      tag_251\n      tag_252\n      jump\t// in\n    tag_251:\n        /* \"#utility.yul\":249:361   */\n    tag_250:\n        /* \"#utility.yul\":370:411   */\n      tag_253\n        /* \"#utility.yul\":404:410   */\n      dup5\n        /* \"#utility.yul\":399:402   */\n      dup3\n        /* \"#utility.yul\":394:397   */\n      dup6\n        /* \"#utility.yul\":370:411   */\n      tag_254\n      jump\t// in\n    tag_253:\n        /* \"#utility.yul\":90:417   */\n      pop\n        /* \"#utility.yul\":7:417   */\n      swap4\n      swap3\n      pop\n      pop\n      pop\n      jump\t// out\n        /* \"#utility.yul\":423:562   */\n    tag_255:\n        /* \"#utility.yul\":469:474   */\n      0x00\n        /* \"#utility.yul\":507:513   */\n      dup2\n        /* \"#utility.yul\":494:514   */\n      calldataload\n        /* \"#utility.yul\":485:514   */\n      swap1\n      pop\n        /* \"#utility.yul\":523:556   */\n      tag_257\n        /* \"#utility.yul\":550:555   */\n      dup2\n        /* \"#utility.yul\":523:556   */\n      tag_258\n      jump\t// in\n    tag_257:\n        /* \"#utility.yul\":423:562   */\n      swap3\n      swap2\n      pop\n      pop\n      jump\t// out\n        /* \"#utility.yul\":568:707   */\n    tag_259:\n        /* \"#utility.yul\":614:619   */\n      0x00\n        /* \"#utility.yul\":652:658   */\n      dup2\n        /* \"#utility.yul\":639:659   */\n      calldataload\n        /* \"#utility.yul\":630:659   */\n      swap1\n      pop\n        /* \"#utility.yul\":668:701   */\n      tag_261\n        /* \"#utility.yul\":695:700   */\n      dup2\n        /* \"#utility.yul\":668:701   */\n      tag_262\n      jump\t// in\n    tag_261:\n        /* \"#utility.yul\":568:707   */\n      swap3\n      swap2\n      pop\n      pop\n      jump\t// out\n        /* \"#utility.yul\":726:1064   */\n    tag_263:\n        /* \"#utility.yul\":781:786   */\n      0x00\n        /* \"#utility.yul\":830:833   */\n      dup3\n        /* \"#utility.yul\":823:827   */\n      0x1f\n        /* \"#utility.yul\":815:821   */\n      dup4\n        /* \"#utility.yul\":811:828   */\n      add\n        /* \"#utility.yul\":807:834   */\n      slt\n        /* \"#utility.yul\":797:919   */\n      tag_265\n      jumpi\n        /* \"#utility.yul\":838:917   */\n      tag_266\n      tag_267\n      jump\t// in\n    tag_266:\n        /* \"#utility.yul\":797:919   */\n    tag_265:\n        /* \"#utility.yul\":955:961   */\n      dup2\n        /* \"#utility.yul\":942:962   */\n      calldataload\n        /* \"#utility.yul\":980:1058   */\n      tag_268\n        /* \"#utility.yul\":1054:1057   */\n      dup5\n        /* \"#utility.yul\":1046:1052   */\n      dup3\n        /* \"#utility.yul\":1039:1043   */\n      0x20\n        /* \"#utility.yul\":1031:1037   */\n      dup7\n        /* \"#utility.yul\":1027:1044   */\n      add\n        /* \"#utility.yul\":980:1058   */\n      tag_244\n      jump\t// in\n    tag_268:\n        /* \"#utility.yul\":971:1058   */\n      swap2\n      pop\n        /* \"#utility.yul\":787:1064   */\n      pop\n        /* \"#utility.yul\":726:1064   */\n      swap3\n      swap2\n      pop\n      pop\n      jump\t// out\n        /* \"#utility.yul\":1070:1209   */\n    tag_269:\n        /* \"#utility.yul\":1116:1121   */\n      0x00\n        /* \"#utility.yul\":1154:1160   */\n      dup2\n        /* \"#utility.yul\":1141:1161   */\n      calldataload\n        /* \"#utility.yul\":1132:1161   */\n      swap1\n      pop\n        /* \"#utility.yul\":1170:1203   */\n      tag_271\n        /* \"#utility.yul\":1197:1202   */\n      dup2\n        /* \"#utility.yul\":1170:1203   */\n      tag_272\n      jump\t// in\n    tag_271:\n        /* \"#utility.yul\":1070:1209   */\n      swap3\n      swap2\n      pop\n      pop\n      jump\t// out\n        /* \"#utility.yul\":1215:1544   */\n    tag_29:\n        /* \"#utility.yul\":1274:1280   */\n      0x00\n        /* \"#utility.yul\":1323:1325   */\n      0x20\n        /* \"#utility.yul\":1311:1320   */\n      dup3\n        /* \"#utility.yul\":1302:1309   */\n      dup5\n        /* \"#utility.yul\":1298:1321   */\n      sub\n        /* \"#utility.yul\":1294:1326   */\n      slt\n        /* \"#utility.yul\":1291:1410   */\n      iszero\n      tag_274\n      jumpi\n        /* \"#utility.yul\":1329:1408   */\n      tag_275\n      tag_276\n      jump\t// in\n    tag_275:\n        /* \"#utility.yul\":1291:1410   */\n    tag_274:\n        /* \"#utility.yul\":1449:1450   */\n      0x00\n        /* \"#utility.yul\":1474:1527   */\n      tag_277\n        /* \"#utility.yul\":1519:1526   */\n      dup5\n        /* \"#utility.yul\":1510:1516   */\n      dup3\n        /* \"#utility.yul\":1499:1508   */\n      dup6\n        /* \"#utility.yul\":1495:1517   */\n      add\n        /* \"#utility.yul\":1474:1527   */\n      tag_255\n      jump\t// in\n    tag_277:\n        /* \"#utility.yul\":1464:1527   */\n      swap2\n      pop\n        /* \"#utility.yul\":1420:1537   */\n      pop\n        /* \"#utility.yul\":1215:1544   */\n      swap3\n      swap2\n      pop\n      pop\n      jump\t// out\n        /* \"#utility.yul\":1550:2347   */\n    tag_73:\n        /* \"#utility.yul\":1636:1642   */\n      0x00\n        /* \"#utility.yul\":1644:1650   */\n      dup1\n        /* \"#utility.yul\":1652:1658   */\n      0x00\n        /* \"#utility.yul\":1701:1703   */\n      0x60\n        /* \"#utility.yul\":1689:1698   */\n      dup5\n        /* \"#utility.yul\":1680:1687   */\n      dup7\n        /* \"#utility.yul\":1676:1699   */\n      sub\n        /* \"#utility.yul\":1672:1704   */\n      slt\n        /* \"#utility.yul\":1669:1788   */\n      iszero\n      tag_279\n      jumpi\n        /* \"#utility.yul\":1707:1786   */\n      tag_280\n      tag_276\n      jump\t// in\n    tag_280:\n        /* \"#utility.yul\":1669:1788   */\n    tag_279:\n        /* \"#utility.yul\":1827:1828   */\n      0x00\n        /* \"#utility.yul\":1852:1905   */\n      tag_281\n        /* \"#utility.yul\":1897:1904   */\n      dup7\n        /* \"#utility.yul\":1888:1894   */\n      dup3\n        /* \"#utility.yul\":1877:1886   */\n      dup8\n        /* \"#utility.yul\":1873:1895   */\n      add\n        /* \"#utility.yul\":1852:1905   */\n      tag_255\n      jump\t// in\n    tag_281:\n        /* \"#utility.yul\":1842:1905   */\n      swap4\n      pop\n        /* \"#utility.yul\":1798:1915   */\n      pop\n        /* \"#utility.yul\":1954:1956   */\n      0x20\n        /* \"#utility.yul\":1980:2033   */\n      tag_282\n        /* \"#utility.yul\":2025:2032   */\n      dup7\n        /* \"#utility.yul\":2016:2022   */\n      dup3\n        /* \"#utility.yul\":2005:2014   */\n      dup8\n        /* \"#utility.yul\":2001:2023   */\n      add\n        /* \"#utility.yul\":1980:2033   */\n      tag_269\n      jump\t// in\n    tag_282:\n        /* \"#utility.yul\":1970:2033   */\n      swap3\n      pop\n        /* \"#utility.yul\":1925:2043   */\n      pop\n        /* \"#utility.yul\":2110:2112   */\n      0x40\n        /* \"#utility.yul\":2099:2108   */\n      dup5\n        /* \"#utility.yul\":2095:2113   */\n      add\n        /* \"#utility.yul\":2082:2114   */\n      calldataload\n        /* \"#utility.yul\":2141:2159   */\n      0xffffffffffffffff\n        /* \"#utility.yul\":2133:2139   */\n      dup2\n        /* \"#utility.yul\":2130:2160   */\n      gt\n        /* \"#utility.yul\":2127:2244   */\n      iszero\n      tag_283\n      jumpi\n        /* \"#utility.yul\":2163:2242   */\n      tag_284\n      tag_285\n      jump\t// in\n    tag_284:\n        /* \"#utility.yul\":2127:2244   */\n    tag_283:\n        /* \"#utility.yul\":2268:2330   */\n      tag_286\n        /* \"#utility.yul\":2322:2329   */\n      dup7\n        /* \"#utility.yul\":2313:2319   */\n      dup3\n        /* \"#utility.yul\":2302:2311   */\n      dup8\n        /* \"#utility.yul\":2298:2320   */\n      add\n        /* \"#utility.yul\":2268:2330   */\n      tag_263\n      jump\t// in\n    tag_286:\n        /* \"#utility.yul\":2258:2330   */\n      swap2\n      pop\n        /* \"#utility.yul\":2053:2340   */\n      pop\n        /* \"#utility.yul\":1550:2347   */\n      swap3\n      pop\n      swap3\n      pop\n      swap3\n      jump\t// out\n        /* \"#utility.yul\":2353:2682   */\n    tag_44:\n        /* \"#utility.yul\":2412:2418   */\n      0x00\n        /* \"#utility.yul\":2461:2463   */\n      0x20\n        /* \"#utility.yul\":2449:2458   */\n      dup3\n        /* \"#utility.yul\":2440:2447   */\n      dup5\n        /* \"#utility.yul\":2436:2459   */\n      sub\n        /* \"#utility.yul\":2432:2464   */\n      slt\n        /* \"#utility.yul\":2429:2548   */\n      iszero\n      tag_288\n      jumpi\n        /* \"#utility.yul\":2467:2546   */\n      tag_289\n      tag_276\n      jump\t// in\n    tag_289:\n        /* \"#utility.yul\":2429:2548   */\n    tag_288:\n        /* \"#utility.yul\":2587:2588   */\n      0x00\n        /* \"#utility.yul\":2612:2665   */\n      tag_290\n        /* \"#utility.yul\":2657:2664   */\n      dup5\n        /* \"#utility.yul\":2648:2654   */\n      dup3\n        /* \"#utility.yul\":2637:2646   */\n      dup6\n        /* \"#utility.yul\":2633:2655   */\n      add\n        /* \"#utility.yul\":2612:2665   */\n      tag_259\n      jump\t// in\n    tag_290:\n        /* \"#utility.yul\":2602:2665   */\n      swap2\n      pop\n        /* \"#utility.yul\":2558:2675   */\n      pop\n        /* \"#utility.yul\":2353:2682   */\n      swap3\n      swap2\n      pop\n      pop\n      jump\t// out\n        /* \"#utility.yul\":2688:3162   */\n    tag_38:\n        /* \"#utility.yul\":2756:2762   */\n      0x00\n        /* \"#utility.yul\":2764:2770   */\n      dup1\n        /* \"#utility.yul\":2813:2815   */\n      0x40\n        /* \"#utility.yul\":2801:2810   */\n      dup4\n        /* \"#utility.yul\":2792:2799   */\n      dup6\n        /* \"#utility.yul\":2788:2811   */\n      sub\n        /* \"#utility.yul\":2784:2816   */\n      slt\n        /* \"#utility.yul\":2781:2900   */\n      iszero\n      tag_292\n      jumpi\n        /* \"#utility.yul\":2819:2898   */\n      tag_293\n      tag_276\n      jump\t// in\n    tag_293:\n        /* \"#utility.yul\":2781:2900   */\n    tag_292:\n        /* \"#utility.yul\":2939:2940   */\n      0x00\n        /* \"#utility.yul\":2964:3017   */\n      tag_294\n        /* \"#utility.yul\":3009:3016   */\n      dup6\n        /* \"#utility.yul\":3000:3006   */\n      dup3\n        /* \"#utility.yul\":2989:2998   */\n      dup7\n        /* \"#utility.yul\":2985:3007   */\n      add\n        /* \"#utility.yul\":2964:3017   */\n      tag_259\n      jump\t// in\n    tag_294:\n        /* \"#utility.yul\":2954:3017   */\n      swap3\n      pop\n        /* \"#utility.yul\":2910:3027   */\n      pop\n        /* \"#utility.yul\":3066:3068   */\n      0x20\n        /* \"#utility.yul\":3092:3145   */\n      tag_295\n        /* \"#utility.yul\":3137:3144   */\n      dup6\n        /* \"#utility.yul\":3128:3134   */\n      dup3\n        /* \"#utility.yul\":3117:3126   */\n      dup7\n        /* \"#utility.yul\":3113:3135   */\n      add\n        /* \"#utility.yul\":3092:3145   */\n      tag_255\n      jump\t// in\n    tag_295:\n        /* \"#utility.yul\":3082:3145   */\n      swap2\n      pop\n        /* \"#utility.yul\":3037:3155   */\n      pop\n        /* \"#utility.yul\":2688:3162   */\n      swap3\n      pop\n      swap3\n      swap1\n      pop\n      jump\t// out\n        /* \"#utility.yul\":3168:3497   */\n    tag_23:\n        /* \"#utility.yul\":3227:3233   */\n      0x00\n        /* \"#utility.yul\":3276:3278   */\n      0x20\n        /* \"#utility.yul\":3264:3273   */\n      dup3\n        /* \"#utility.yul\":3255:3262   */\n      dup5\n        /* \"#utility.yul\":3251:3274   */\n      sub\n        /* \"#utility.yul\":3247:3279   */\n      slt\n        /* \"#utility.yul\":3244:3363   */\n      iszero\n      tag_297\n      jumpi\n        /* \"#utility.yul\":3282:3361   */\n      tag_298\n      tag_276\n      jump\t// in\n    tag_298:\n        /* \"#utility.yul\":3244:3363   */\n    tag_297:\n        /* \"#utility.yul\":3402:3403   */\n      0x00\n        /* \"#utility.yul\":3427:3480   */\n      tag_299\n        /* \"#utility.yul\":3472:3479   */\n      dup5\n        /* \"#utility.yul\":3463:3469   */\n      dup3\n        /* \"#utility.yul\":3452:3461   */\n      dup6\n        /* \"#utility.yul\":3448:3470   */\n      add\n        /* \"#utility.yul\":3427:3480   */\n      tag_269\n      jump\t// in\n    tag_299:\n        /* \"#utility.yul\":3417:3480   */\n      swap2\n      pop\n        /* \"#utility.yul\":3373:3490   */\n      pop\n        /* \"#utility.yul\":3168:3497   */\n      swap3\n      swap2\n      pop\n      pop\n      jump\t// out\n        /* \"#utility.yul\":3503:3621   */\n    tag_300:\n        /* \"#utility.yul\":3590:3614   */\n      tag_302\n        /* \"#utility.yul\":3608:3613   */\n      dup2\n        /* \"#utility.yul\":3590:3614   */\n      tag_303\n      jump\t// in\n    tag_302:\n        /* \"#utility.yul\":3585:3588   */\n      dup3\n        /* \"#utility.yul\":3578:3615   */\n      mstore\n        /* \"#utility.yul\":3503:3621   */\n      pop\n      pop\n      jump\t// out\n        /* \"#utility.yul\":3627:3784   */\n    tag_304:\n        /* \"#utility.yul\":3732:3777   */\n      tag_306\n        /* \"#utility.yul\":3752:3776   */\n      tag_307\n        /* \"#utility.yul\":3770:3775   */\n      dup3\n        /* \"#utility.yul\":3752:3776   */\n      tag_303\n      jump\t// in\n    tag_307:\n        /* \"#utility.yul\":3732:3777   */\n      tag_308\n      jump\t// in\n    tag_306:\n        /* \"#utility.yul\":3727:3730   */\n      dup3\n        /* \"#utility.yul\":3720:3778   */\n      mstore\n        /* \"#utility.yul\":3627:3784   */\n      pop\n      pop\n      jump\t// out\n        /* \"#utility.yul\":3790:3899   */\n    tag_309:\n        /* \"#utility.yul\":3871:3892   */\n      tag_311\n        /* \"#utility.yul\":3886:3891   */\n      dup2\n        /* \"#utility.yul\":3871:3892   */\n      tag_312\n      jump\t// in\n    tag_311:\n        /* \"#utility.yul\":3866:3869   */\n      dup3\n        /* \"#utility.yul\":3859:3893   */\n      mstore\n        /* \"#utility.yul\":3790:3899   */\n      pop\n      pop\n      jump\t// out\n        /* \"#utility.yul\":3905:4023   */\n    tag_313:\n        /* \"#utility.yul\":3992:4016   */\n      tag_315\n        /* \"#utility.yul\":4010:4015   */\n      dup2\n        /* \"#utility.yul\":3992:4016   */\n      tag_316\n      jump\t// in\n    tag_315:\n        /* \"#utility.yul\":3987:3990   */\n      dup3\n        /* \"#utility.yul\":3980:4017   */\n      mstore\n        /* \"#utility.yul\":3905:4023   */\n      pop\n      pop\n      jump\t// out\n        /* \"#utility.yul\":4029:4389   */\n    tag_317:\n        /* \"#utility.yul\":4115:4118   */\n      0x00\n        /* \"#utility.yul\":4143:4181   */\n      tag_319\n        /* \"#utility.yul\":4175:4180   */\n      dup3\n        /* \"#utility.yul\":4143:4181   */\n      tag_320\n      jump\t// in\n    tag_319:\n        /* \"#utility.yul\":4197:4267   */\n      tag_321\n        /* \"#utility.yul\":4260:4266   */\n      dup2\n        /* \"#utility.yul\":4255:4258   */\n      dup6\n        /* \"#utility.yul\":4197:4267   */\n      tag_322\n      jump\t// in\n    tag_321:\n        /* \"#utility.yul\":4190:4267   */\n      swap4\n      pop\n        /* \"#utility.yul\":4276:4328   */\n      tag_323\n        /* \"#utility.yul\":4321:4327   */\n      dup2\n        /* \"#utility.yul\":4316:4319   */\n      dup6\n        /* \"#utility.yul\":4309:4313   */\n      0x20\n        /* \"#utility.yul\":4302:4307   */\n      dup7\n        /* \"#utility.yul\":4298:4314   */\n      add\n        /* \"#utility.yul\":4276:4328   */\n      tag_324\n      jump\t// in\n    tag_323:\n        /* \"#utility.yul\":4353:4382   */\n      tag_325\n        /* \"#utility.yul\":4375:4381   */\n      dup2\n        /* \"#utility.yul\":4353:4382   */\n      tag_326\n      jump\t// in\n    tag_325:\n        /* \"#utility.yul\":4348:4351   */\n      dup5\n        /* \"#utility.yul\":4344:4383   */\n      add\n        /* \"#utility.yul\":4337:4383   */\n      swap2\n      pop\n        /* \"#utility.yul\":4119:4389   */\n      pop\n        /* \"#utility.yul\":4029:4389   */\n      swap3\n      swap2\n      pop\n      pop\n      jump\t// out\n        /* \"#utility.yul\":4395:4768   */\n    tag_327:\n        /* \"#utility.yul\":4499:4502   */\n      0x00\n        /* \"#utility.yul\":4527:4565   */\n      tag_329\n        /* \"#utility.yul\":4559:4564   */\n      dup3\n        /* \"#utility.yul\":4527:4565   */\n      tag_320\n      jump\t// in\n    tag_329:\n        /* \"#utility.yul\":4581:4669   */\n      tag_330\n        /* \"#utility.yul\":4662:4668   */\n      dup2\n        /* \"#utility.yul\":4657:4660   */\n      dup6\n        /* \"#utility.yul\":4581:4669   */\n      tag_331\n      jump\t// in\n    tag_330:\n        /* \"#utility.yul\":4574:4669   */\n      swap4\n      pop\n        /* \"#utility.yul\":4678:4730   */\n      tag_332\n        /* \"#utility.yul\":4723:4729   */\n      dup2\n        /* \"#utility.yul\":4718:4721   */\n      dup6\n        /* \"#utility.yul\":4711:4715   */\n      0x20\n        /* \"#utility.yul\":4704:4709   */\n      dup7\n        /* \"#utility.yul\":4700:4716   */\n      add\n        /* \"#utility.yul\":4678:4730   */\n      tag_324\n      jump\t// in\n    tag_332:\n        /* \"#utility.yul\":4755:4761   */\n      dup1\n        /* \"#utility.yul\":4750:4753   */\n      dup5\n        /* \"#utility.yul\":4746:4762   */\n      add\n        /* \"#utility.yul\":4739:4762   */\n      swap2\n      pop\n        /* \"#utility.yul\":4503:4768   */\n      pop\n        /* \"#utility.yul\":4395:4768   */\n      swap3\n      swap2\n      pop\n      pop\n      jump\t// out\n        /* \"#utility.yul\":4796:5637   */\n    tag_333:\n        /* \"#utility.yul\":4897:4900   */\n      0x00\n        /* \"#utility.yul\":4934:4939   */\n      dup2\n        /* \"#utility.yul\":4928:4940   */\n      sload\n        /* \"#utility.yul\":4963:4999   */\n      tag_335\n        /* \"#utility.yul\":4989:4998   */\n      dup2\n        /* \"#utility.yul\":4963:4999   */\n      tag_120\n      jump\t// in\n    tag_335:\n        /* \"#utility.yul\":5015:5103   */\n      tag_336\n        /* \"#utility.yul\":5096:5102   */\n      dup2\n        /* \"#utility.yul\":5091:5094   */\n      dup7\n        /* \"#utility.yul\":5015:5103   */\n      tag_331\n      jump\t// in\n    tag_336:\n        /* \"#utility.yul\":5008:5103   */\n      swap5\n      pop\n        /* \"#utility.yul\":5134:5135   */\n      0x01\n        /* \"#utility.yul\":5123:5132   */\n      dup3\n        /* \"#utility.yul\":5119:5136   */\n      and\n        /* \"#utility.yul\":5150:5151   */\n      0x00\n        /* \"#utility.yul\":5145:5282   */\n      dup2\n      eq\n      tag_338\n      jumpi\n        /* \"#utility.yul\":5296:5297   */\n      0x01\n        /* \"#utility.yul\":5291:5631   */\n      dup2\n      eq\n      tag_339\n      jumpi\n        /* \"#utility.yul\":5112:5631   */\n      jump(tag_337)\n        /* \"#utility.yul\":5145:5282   */\n    tag_338:\n        /* \"#utility.yul\":5229:5233   */\n      0xff\n        /* \"#utility.yul\":5225:5234   */\n      not\n        /* \"#utility.yul\":5214:5223   */\n      dup4\n        /* \"#utility.yul\":5210:5235   */\n      and\n        /* \"#utility.yul\":5205:5208   */\n      dup7\n        /* \"#utility.yul\":5198:5236   */\n      mstore\n        /* \"#utility.yul\":5265:5271   */\n      dup2\n        /* \"#utility.yul\":5260:5263   */\n      dup7\n        /* \"#utility.yul\":5256:5272   */\n      add\n        /* \"#utility.yul\":5249:5272   */\n      swap4\n      pop\n        /* \"#utility.yul\":5145:5282   */\n      jump(tag_337)\n        /* \"#utility.yul\":5291:5631   */\n    tag_339:\n        /* \"#utility.yul\":5358:5395   */\n      tag_340\n        /* \"#utility.yul\":5389:5394   */\n      dup6\n        /* \"#utility.yul\":5358:5395   */\n      tag_341\n      jump\t// in\n    tag_340:\n        /* \"#utility.yul\":5417:5418   */\n      0x00\n        /* \"#utility.yul\":5431:5585   */\n    tag_342:\n        /* \"#utility.yul\":5445:5451   */\n      dup4\n        /* \"#utility.yul\":5442:5443   */\n      dup2\n        /* \"#utility.yul\":5439:5452   */\n      lt\n        /* \"#utility.yul\":5431:5585   */\n      iszero\n      tag_344\n      jumpi\n        /* \"#utility.yul\":5519:5526   */\n      dup2\n        /* \"#utility.yul\":5513:5527   */\n      sload\n        /* \"#utility.yul\":5509:5510   */\n      dup2\n        /* \"#utility.yul\":5504:5507   */\n      dup10\n        /* \"#utility.yul\":5500:5511   */\n      add\n        /* \"#utility.yul\":5493:5528   */\n      mstore\n        /* \"#utility.yul\":5569:5570   */\n      0x01\n        /* \"#utility.yul\":5560:5567   */\n      dup3\n        /* \"#utility.yul\":5556:5571   */\n      add\n        /* \"#utility.yul\":5545:5571   */\n      swap2\n      pop\n        /* \"#utility.yul\":5467:5471   */\n      0x20\n        /* \"#utility.yul\":5464:5465   */\n      dup2\n        /* \"#utility.yul\":5460:5472   */\n      add\n        /* \"#utility.yul\":5455:5472   */\n      swap1\n      pop\n        /* \"#utility.yul\":5431:5585   */\n      jump(tag_342)\n    tag_344:\n        /* \"#utility.yul\":5614:5620   */\n      dup4\n        /* \"#utility.yul\":5609:5612   */\n      dup9\n        /* \"#utility.yul\":5605:5621   */\n      add\n        /* \"#utility.yul\":5598:5621   */\n      swap6\n      pop\n        /* \"#utility.yul\":5298:5631   */\n      pop\n      pop\n        /* \"#utility.yul\":5112:5631   */\n    tag_337:\n      pop\n        /* \"#utility.yul\":4901:5637   */\n      pop\n      pop\n        /* \"#utility.yul\":4796:5637   */\n      swap3\n      swap2\n      pop\n      pop\n      jump\t// out\n        /* \"#utility.yul\":5643:6009   */\n    tag_345:\n        /* \"#utility.yul\":5785:5788   */\n      0x00\n        /* \"#utility.yul\":5806:5873   */\n      tag_347\n        /* \"#utility.yul\":5870:5872   */\n      0x24\n        /* \"#utility.yul\":5865:5868   */\n      dup4\n        /* \"#utility.yul\":5806:5873   */\n      tag_348\n      jump\t// in\n    tag_347:\n        /* \"#utility.yul\":5799:5873   */\n      swap2\n      pop\n        /* \"#utility.yul\":5882:5975   */\n      tag_349\n        /* \"#utility.yul\":5971:5974   */\n      dup3\n        /* \"#utility.yul\":5882:5975   */\n      tag_350\n      jump\t// in\n    tag_349:\n        /* \"#utility.yul\":6000:6002   */\n      0x40\n        /* \"#utility.yul\":5995:5998   */\n      dup3\n        /* \"#utility.yul\":5991:6003   */\n      add\n        /* \"#utility.yul\":5984:6003   */\n      swap1\n      pop\n        /* \"#utility.yul\":5643:6009   */\n      swap2\n      swap1\n      pop\n      jump\t// out\n        /* \"#utility.yul\":6015:6381   */\n    tag_351:\n        /* \"#utility.yul\":6157:6160   */\n      0x00\n        /* \"#utility.yul\":6178:6245   */\n      tag_353\n        /* \"#utility.yul\":6242:6244   */\n      0x26\n        /* \"#utility.yul\":6237:6240   */\n      dup4\n        /* \"#utility.yul\":6178:6245   */\n      tag_348\n      jump\t// in\n    tag_353:\n        /* \"#utility.yul\":6171:6245   */\n      swap2\n      pop\n        /* \"#utility.yul\":6254:6347   */\n      tag_354\n        /* \"#utility.yul\":6343:6346   */\n      dup3\n        /* \"#utility.yul\":6254:6347   */\n      tag_355\n      jump\t// in\n    tag_354:\n        /* \"#utility.yul\":6372:6374   */\n      0x40\n        /* \"#utility.yul\":6367:6370   */\n      dup3\n        /* \"#utility.yul\":6363:6375   */\n      add\n        /* \"#utility.yul\":6356:6375   */\n      swap1\n      pop\n        /* \"#utility.yul\":6015:6381   */\n      swap2\n      swap1\n      pop\n      jump\t// out\n        /* \"#utility.yul\":6387:6753   */\n    tag_356:\n        /* \"#utility.yul\":6529:6532   */\n      0x00\n        /* \"#utility.yul\":6550:6617   */\n      tag_358\n        /* \"#utility.yul\":6614:6616   */\n      0x1b\n        /* \"#utility.yul\":6609:6612   */\n      dup4\n        /* \"#utility.yul\":6550:6617   */\n      tag_348\n      jump\t// in\n    tag_358:\n        /* \"#utility.yul\":6543:6617   */\n      swap2\n      pop\n        /* \"#utility.yul\":6626:6719   */\n      tag_359\n        /* \"#utility.yul\":6715:6718   */\n      dup3\n        /* \"#utility.yul\":6626:6719   */\n      tag_360\n      jump\t// in\n    tag_359:\n        /* \"#utility.yul\":6744:6746   */\n      0x20\n        /* \"#utility.yul\":6739:6742   */\n      dup3\n        /* \"#utility.yul\":6735:6747   */\n      add\n        /* \"#utility.yul\":6728:6747   */\n      swap1\n      pop\n        /* \"#utility.yul\":6387:6753   */\n      swap2\n      swap1\n      pop\n      jump\t// out\n        /* \"#utility.yul\":6759:7125   */\n    tag_361:\n        /* \"#utility.yul\":6901:6904   */\n      0x00\n        /* \"#utility.yul\":6922:6989   */\n      tag_363\n        /* \"#utility.yul\":6986:6988   */\n      0x1c\n        /* \"#utility.yul\":6981:6984   */\n      dup4\n        /* \"#utility.yul\":6922:6989   */\n      tag_348\n      jump\t// in\n    tag_363:\n        /* \"#utility.yul\":6915:6989   */\n      swap2\n      pop\n        /* \"#utility.yul\":6998:7091   */\n      tag_364\n        /* \"#utility.yul\":7087:7090   */\n      dup3\n        /* \"#utility.yul\":6998:7091   */\n      tag_365\n      jump\t// in\n    tag_364:\n        /* \"#utility.yul\":7116:7118   */\n      0x20\n        /* \"#utility.yul\":7111:7114   */\n      dup3\n        /* \"#utility.yul\":7107:7119   */\n      add\n        /* \"#utility.yul\":7100:7119   */\n      swap1\n      pop\n        /* \"#utility.yul\":6759:7125   */\n      swap2\n      swap1\n      pop\n      jump\t// out\n        /* \"#utility.yul\":7131:7497   */\n    tag_366:\n        /* \"#utility.yul\":7273:7276   */\n      0x00\n        /* \"#utility.yul\":7294:7361   */\n      tag_368\n        /* \"#utility.yul\":7358:7360   */\n      0x30\n        /* \"#utility.yul\":7353:7356   */\n      dup4\n        /* \"#utility.yul\":7294:7361   */\n      tag_348\n      jump\t// in\n    tag_368:\n        /* \"#utility.yul\":7287:7361   */\n      swap2\n      pop\n        /* \"#utility.yul\":7370:7463   */\n      tag_369\n        /* \"#utility.yul\":7459:7462   */\n      dup3\n        /* \"#utility.yul\":7370:7463   */\n      tag_370\n      jump\t// in\n    tag_369:\n        /* \"#utility.yul\":7488:7490   */\n      0x40\n        /* \"#utility.yul\":7483:7486   */\n      dup3\n        /* \"#utility.yul\":7479:7491   */\n      add\n        /* \"#utility.yul\":7472:7491   */\n      swap1\n      pop\n        /* \"#utility.yul\":7131:7497   */\n      swap2\n      swap1\n      pop\n      jump\t// out\n        /* \"#utility.yul\":7503:7869   */\n    tag_371:\n        /* \"#utility.yul\":7645:7648   */\n      0x00\n        /* \"#utility.yul\":7666:7733   */\n      tag_373\n        /* \"#utility.yul\":7730:7732   */\n      0x1a\n        /* \"#utility.yul\":7725:7728   */\n      dup4\n        /* \"#utility.yul\":7666:7733   */\n      tag_348\n      jump\t// in\n    tag_373:\n        /* \"#utility.yul\":7659:7733   */\n      swap2\n      pop\n        /* \"#utility.yul\":7742:7835   */\n      tag_374\n        /* \"#utility.yul\":7831:7834   */\n      dup3\n        /* \"#utility.yul\":7742:7835   */\n      tag_375\n      jump\t// in\n    tag_374:\n        /* \"#utility.yul\":7860:7862   */\n      0x20\n        /* \"#utility.yul\":7855:7858   */\n      dup3\n        /* \"#utility.yul\":7851:7863   */\n      add\n        /* \"#utility.yul\":7844:7863   */\n      swap1\n      pop\n        /* \"#utility.yul\":7503:7869   */\n      swap2\n      swap1\n      pop\n      jump\t// out\n        /* \"#utility.yul\":7875:8241   */\n    tag_376:\n        /* \"#utility.yul\":8017:8020   */\n      0x00\n        /* \"#utility.yul\":8038:8105   */\n      tag_378\n        /* \"#utility.yul\":8102:8104   */\n      0x25\n        /* \"#utility.yul\":8097:8100   */\n      dup4\n        /* \"#utility.yul\":8038:8105   */\n      tag_348\n      jump\t// in\n    tag_378:\n        /* \"#utility.yul\":8031:8105   */\n      swap2\n      pop\n        /* \"#utility.yul\":8114:8207   */\n      tag_379\n        /* \"#utility.yul\":8203:8206   */\n      dup3\n        /* \"#utility.yul\":8114:8207   */\n      tag_380\n      jump\t// in\n    tag_379:\n        /* \"#utility.yul\":8232:8234   */\n      0x40\n        /* \"#utility.yul\":8227:8230   */\n      dup3\n        /* \"#utility.yul\":8223:8235   */\n      add\n        /* \"#utility.yul\":8216:8235   */\n      swap1\n      pop\n        /* \"#utility.yul\":7875:8241   */\n      swap2\n      swap1\n      pop\n      jump\t// out\n        /* \"#utility.yul\":8247:8613   */\n    tag_381:\n        /* \"#utility.yul\":8389:8392   */\n      0x00\n        /* \"#utility.yul\":8410:8477   */\n      tag_383\n        /* \"#utility.yul\":8474:8476   */\n      0x17\n        /* \"#utility.yul\":8469:8472   */\n      dup4\n        /* \"#utility.yul\":8410:8477   */\n      tag_348\n      jump\t// in\n    tag_383:\n        /* \"#utility.yul\":8403:8477   */\n      swap2\n      pop\n        /* \"#utility.yul\":8486:8579   */\n      tag_384\n        /* \"#utility.yul\":8575:8578   */\n      dup3\n        /* \"#utility.yul\":8486:8579   */\n      tag_385\n      jump\t// in\n    tag_384:\n        /* \"#utility.yul\":8604:8606   */\n      0x20\n        /* \"#utility.yul\":8599:8602   */\n      dup3\n        /* \"#utility.yul\":8595:8607   */\n      add\n        /* \"#utility.yul\":8588:8607   */\n      swap1\n      pop\n        /* \"#utility.yul\":8247:8613   */\n      swap2\n      swap1\n      pop\n      jump\t// out\n        /* \"#utility.yul\":8619:8985   */\n    tag_386:\n        /* \"#utility.yul\":8761:8764   */\n      0x00\n        /* \"#utility.yul\":8782:8849   */\n      tag_388\n        /* \"#utility.yul\":8846:8848   */\n      0x3e\n        /* \"#utility.yul\":8841:8844   */\n      dup4\n        /* \"#utility.yul\":8782:8849   */\n      tag_348\n      jump\t// in\n    tag_388:\n        /* \"#utility.yul\":8775:8849   */\n      swap2\n      pop\n        /* \"#utility.yul\":8858:8951   */\n      tag_389\n        /* \"#utility.yul\":8947:8950   */\n      dup3\n        /* \"#utility.yul\":8858:8951   */\n      tag_390\n      jump\t// in\n    tag_389:\n        /* \"#utility.yul\":8976:8978   */\n      0x40\n        /* \"#utility.yul\":8971:8974   */\n      dup3\n        /* \"#utility.yul\":8967:8979   */\n      add\n        /* \"#utility.yul\":8960:8979   */\n      swap1\n      pop\n        /* \"#utility.yul\":8619:8985   */\n      swap2\n      swap1\n      pop\n      jump\t// out\n        /* \"#utility.yul\":8991:9109   */\n    tag_391:\n        /* \"#utility.yul\":9078:9102   */\n      tag_393\n        /* \"#utility.yul\":9096:9101   */\n      dup2\n        /* \"#utility.yul\":9078:9102   */\n      tag_394\n      jump\t// in\n    tag_393:\n        /* \"#utility.yul\":9073:9076   */\n      dup3\n        /* \"#utility.yul\":9066:9103   */\n      mstore\n        /* \"#utility.yul\":8991:9109   */\n      pop\n      pop\n      jump\t// out\n        /* \"#utility.yul\":9115:9272   */\n    tag_395:\n        /* \"#utility.yul\":9220:9265   */\n      tag_397\n        /* \"#utility.yul\":9240:9264   */\n      tag_398\n        /* \"#utility.yul\":9258:9263   */\n      dup3\n        /* \"#utility.yul\":9240:9264   */\n      tag_394\n      jump\t// in\n    tag_398:\n        /* \"#utility.yul\":9220:9265   */\n      tag_399\n      jump\t// in\n    tag_397:\n        /* \"#utility.yul\":9215:9218   */\n      dup3\n        /* \"#utility.yul\":9208:9266   */\n      mstore\n        /* \"#utility.yul\":9115:9272   */\n      pop\n      pop\n      jump\t// out\n        /* \"#utility.yul\":9278:9972   */\n    tag_189:\n        /* \"#utility.yul\":9492:9495   */\n      0x00\n        /* \"#utility.yul\":9507:9582   */\n      tag_401\n        /* \"#utility.yul\":9578:9581   */\n      dup3\n        /* \"#utility.yul\":9569:9575   */\n      dup8\n        /* \"#utility.yul\":9507:9582   */\n      tag_304\n      jump\t// in\n    tag_401:\n        /* \"#utility.yul\":9607:9609   */\n      0x14\n        /* \"#utility.yul\":9602:9605   */\n      dup3\n        /* \"#utility.yul\":9598:9610   */\n      add\n        /* \"#utility.yul\":9591:9610   */\n      swap2\n      pop\n        /* \"#utility.yul\":9620:9695   */\n      tag_402\n        /* \"#utility.yul\":9691:9694   */\n      dup3\n        /* \"#utility.yul\":9682:9688   */\n      dup7\n        /* \"#utility.yul\":9620:9695   */\n      tag_395\n      jump\t// in\n    tag_402:\n        /* \"#utility.yul\":9720:9722   */\n      0x20\n        /* \"#utility.yul\":9715:9718   */\n      dup3\n        /* \"#utility.yul\":9711:9723   */\n      add\n        /* \"#utility.yul\":9704:9723   */\n      swap2\n      pop\n        /* \"#utility.yul\":9740:9833   */\n      tag_403\n        /* \"#utility.yul\":9829:9832   */\n      dup3\n        /* \"#utility.yul\":9820:9826   */\n      dup6\n        /* \"#utility.yul\":9740:9833   */\n      tag_327\n      jump\t// in\n    tag_403:\n        /* \"#utility.yul\":9733:9833   */\n      swap2\n      pop\n        /* \"#utility.yul\":9843:9918   */\n      tag_404\n        /* \"#utility.yul\":9914:9917   */\n      dup3\n        /* \"#utility.yul\":9905:9911   */\n      dup5\n        /* \"#utility.yul\":9843:9918   */\n      tag_395\n      jump\t// in\n    tag_404:\n        /* \"#utility.yul\":9943:9945   */\n      0x20\n        /* \"#utility.yul\":9938:9941   */\n      dup3\n        /* \"#utility.yul\":9934:9946   */\n      add\n        /* \"#utility.yul\":9927:9946   */\n      swap2\n      pop\n        /* \"#utility.yul\":9963:9966   */\n      dup2\n        /* \"#utility.yul\":9956:9966   */\n      swap1\n      pop\n        /* \"#utility.yul\":9278:9972   */\n      swap6\n      swap5\n      pop\n      pop\n      pop\n      pop\n      pop\n      jump\t// out\n        /* \"#utility.yul\":9978:10243   */\n    tag_213:\n        /* \"#utility.yul\":10105:10108   */\n      0x00\n        /* \"#utility.yul\":10127:10217   */\n      tag_406\n        /* \"#utility.yul\":10213:10216   */\n      dup3\n        /* \"#utility.yul\":10204:10210   */\n      dup5\n        /* \"#utility.yul\":10127:10217   */\n      tag_333\n      jump\t// in\n    tag_406:\n        /* \"#utility.yul\":10120:10217   */\n      swap2\n      pop\n        /* \"#utility.yul\":10234:10237   */\n      dup2\n        /* \"#utility.yul\":10227:10237   */\n      swap1\n      pop\n        /* \"#utility.yul\":9978:10243   */\n      swap3\n      swap2\n      pop\n      pop\n      jump\t// out\n        /* \"#utility.yul\":10249:10471   */\n    tag_35:\n        /* \"#utility.yul\":10342:10346   */\n      0x00\n        /* \"#utility.yul\":10380:10382   */\n      0x20\n        /* \"#utility.yul\":10369:10378   */\n      dup3\n        /* \"#utility.yul\":10365:10383   */\n      add\n        /* \"#utility.yul\":10357:10383   */\n      swap1\n      pop\n        /* \"#utility.yul\":10393:10464   */\n      tag_408\n        /* \"#utility.yul\":10461:10462   */\n      0x00\n        /* \"#utility.yul\":10450:10459   */\n      dup4\n        /* \"#utility.yul\":10446:10463   */\n      add\n        /* \"#utility.yul\":10437:10443   */\n      dup5\n        /* \"#utility.yul\":10393:10464   */\n      tag_300\n      jump\t// in\n    tag_408:\n        /* \"#utility.yul\":10249:10471   */\n      swap3\n      swap2\n      pop\n      pop\n      jump\t// out\n        /* \"#utility.yul\":10477:11105   */\n    tag_47:\n        /* \"#utility.yul\":10666:10670   */\n      0x00\n        /* \"#utility.yul\":10704:10707   */\n      0x80\n        /* \"#utility.yul\":10693:10702   */\n      dup3\n        /* \"#utility.yul\":10689:10708   */\n      add\n        /* \"#utility.yul\":10681:10708   */\n      swap1\n      pop\n        /* \"#utility.yul\":10718:10789   */\n      tag_410\n        /* \"#utility.yul\":10786:10787   */\n      0x00\n        /* \"#utility.yul\":10775:10784   */\n      dup4\n        /* \"#utility.yul\":10771:10788   */\n      add\n        /* \"#utility.yul\":10762:10768   */\n      dup8\n        /* \"#utility.yul\":10718:10789   */\n      tag_300\n      jump\t// in\n    tag_410:\n        /* \"#utility.yul\":10799:10871   */\n      tag_411\n        /* \"#utility.yul\":10867:10869   */\n      0x20\n        /* \"#utility.yul\":10856:10865   */\n      dup4\n        /* \"#utility.yul\":10852:10870   */\n      add\n        /* \"#utility.yul\":10843:10849   */\n      dup7\n        /* \"#utility.yul\":10799:10871   */\n      tag_391\n      jump\t// in\n    tag_411:\n        /* \"#utility.yul\":10918:10927   */\n      dup2\n        /* \"#utility.yul\":10912:10916   */\n      dup2\n        /* \"#utility.yul\":10908:10928   */\n      sub\n        /* \"#utility.yul\":10903:10905   */\n      0x40\n        /* \"#utility.yul\":10892:10901   */\n      dup4\n        /* \"#utility.yul\":10888:10906   */\n      add\n        /* \"#utility.yul\":10881:10929   */\n      mstore\n        /* \"#utility.yul\":10946:11022   */\n      tag_412\n        /* \"#utility.yul\":11017:11021   */\n      dup2\n        /* \"#utility.yul\":11008:11014   */\n      dup6\n        /* \"#utility.yul\":10946:11022   */\n      tag_317\n      jump\t// in\n    tag_412:\n        /* \"#utility.yul\":10938:11022   */\n      swap1\n      pop\n        /* \"#utility.yul\":11032:11098   */\n      tag_413\n        /* \"#utility.yul\":11094:11096   */\n      0x60\n        /* \"#utility.yul\":11083:11092   */\n      dup4\n        /* \"#utility.yul\":11079:11097   */\n      add\n        /* \"#utility.yul\":11070:11076   */\n      dup5\n        /* \"#utility.yul\":11032:11098   */\n      tag_309\n      jump\t// in\n    tag_413:\n        /* \"#utility.yul\":10477:11105   */\n      swap6\n      swap5\n      pop\n      pop\n      pop\n      pop\n      pop\n      jump\t// out\n        /* \"#utility.yul\":11111:11321   */\n    tag_41:\n        /* \"#utility.yul\":11198:11202   */\n      0x00\n        /* \"#utility.yul\":11236:11238   */\n      0x20\n        /* \"#utility.yul\":11225:11234   */\n      dup3\n        /* \"#utility.yul\":11221:11239   */\n      add\n        /* \"#utility.yul\":11213:11239   */\n      swap1\n      pop\n        /* \"#utility.yul\":11249:11314   */\n      tag_415\n        /* \"#utility.yul\":11311:11312   */\n      0x00\n        /* \"#utility.yul\":11300:11309   */\n      dup4\n        /* \"#utility.yul\":11296:11313   */\n      add\n        /* \"#utility.yul\":11287:11293   */\n      dup5\n        /* \"#utility.yul\":11249:11314   */\n      tag_309\n      jump\t// in\n    tag_415:\n        /* \"#utility.yul\":11111:11321   */\n      swap3\n      swap2\n      pop\n      pop\n      jump\t// out\n        /* \"#utility.yul\":11327:11549   */\n    tag_26:\n        /* \"#utility.yul\":11420:11424   */\n      0x00\n        /* \"#utility.yul\":11458:11460   */\n      0x20\n        /* \"#utility.yul\":11447:11456   */\n      dup3\n        /* \"#utility.yul\":11443:11461   */\n      add\n        /* \"#utility.yul\":11435:11461   */\n      swap1\n      pop\n        /* \"#utility.yul\":11471:11542   */\n      tag_417\n        /* \"#utility.yul\":11539:11540   */\n      0x00\n        /* \"#utility.yul\":11528:11537   */\n      dup4\n        /* \"#utility.yul\":11524:11541   */\n      add\n        /* \"#utility.yul\":11515:11521   */\n      dup5\n        /* \"#utility.yul\":11471:11542   */\n      tag_313\n      jump\t// in\n    tag_417:\n        /* \"#utility.yul\":11327:11549   */\n      swap3\n      swap2\n      pop\n      pop\n      jump\t// out\n        /* \"#utility.yul\":11555:11974   */\n    tag_128:\n        /* \"#utility.yul\":11721:11725   */\n      0x00\n        /* \"#utility.yul\":11759:11761   */\n      0x20\n        /* \"#utility.yul\":11748:11757   */\n      dup3\n        /* \"#utility.yul\":11744:11762   */\n      add\n        /* \"#utility.yul\":11736:11762   */\n      swap1\n      pop\n        /* \"#utility.yul\":11808:11817   */\n      dup2\n        /* \"#utility.yul\":11802:11806   */\n      dup2\n        /* \"#utility.yul\":11798:11818   */\n      sub\n        /* \"#utility.yul\":11794:11795   */\n      0x00\n        /* \"#utility.yul\":11783:11792   */\n      dup4\n        /* \"#utility.yul\":11779:11796   */\n      add\n        /* \"#utility.yul\":11772:11819   */\n      mstore\n        /* \"#utility.yul\":11836:11967   */\n      tag_419\n        /* \"#utility.yul\":11962:11966   */\n      dup2\n        /* \"#utility.yul\":11836:11967   */\n      tag_345\n      jump\t// in\n    tag_419:\n        /* \"#utility.yul\":11828:11967   */\n      swap1\n      pop\n        /* \"#utility.yul\":11555:11974   */\n      swap2\n      swap1\n      pop\n      jump\t// out\n        /* \"#utility.yul\":11980:12399   */\n    tag_87:\n        /* \"#utility.yul\":12146:12150   */\n      0x00\n        /* \"#utility.yul\":12184:12186   */\n      0x20\n        /* \"#utility.yul\":12173:12182   */\n      dup3\n        /* \"#utility.yul\":12169:12187   */\n      add\n        /* \"#utility.yul\":12161:12187   */\n      swap1\n      pop\n        /* \"#utility.yul\":12233:12242   */\n      dup2\n        /* \"#utility.yul\":12227:12231   */\n      dup2\n        /* \"#utility.yul\":12223:12243   */\n      sub\n        /* \"#utility.yul\":12219:12220   */\n      0x00\n        /* \"#utility.yul\":12208:12217   */\n      dup4\n        /* \"#utility.yul\":12204:12221   */\n      add\n        /* \"#utility.yul\":12197:12244   */\n      mstore\n        /* \"#utility.yul\":12261:12392   */\n      tag_421\n        /* \"#utility.yul\":12387:12391   */\n      dup2\n        /* \"#utility.yul\":12261:12392   */\n      tag_351\n      jump\t// in\n    tag_421:\n        /* \"#utility.yul\":12253:12392   */\n      swap1\n      pop\n        /* \"#utility.yul\":11980:12399   */\n      swap2\n      swap1\n      pop\n      jump\t// out\n        /* \"#utility.yul\":12405:12824   */\n    tag_227:\n        /* \"#utility.yul\":12571:12575   */\n      0x00\n        /* \"#utility.yul\":12609:12611   */\n      0x20\n        /* \"#utility.yul\":12598:12607   */\n      dup3\n        /* \"#utility.yul\":12594:12612   */\n      add\n        /* \"#utility.yul\":12586:12612   */\n      swap1\n      pop\n        /* \"#utility.yul\":12658:12667   */\n      dup2\n        /* \"#utility.yul\":12652:12656   */\n      dup2\n        /* \"#utility.yul\":12648:12668   */\n      sub\n        /* \"#utility.yul\":12644:12645   */\n      0x00\n        /* \"#utility.yul\":12633:12642   */\n      dup4\n        /* \"#utility.yul\":12629:12646   */\n      add\n        /* \"#utility.yul\":12622:12669   */\n      mstore\n        /* \"#utility.yul\":12686:12817   */\n      tag_423\n        /* \"#utility.yul\":12812:12816   */\n      dup2\n        /* \"#utility.yul\":12686:12817   */\n      tag_356\n      jump\t// in\n    tag_423:\n        /* \"#utility.yul\":12678:12817   */\n      swap1\n      pop\n        /* \"#utility.yul\":12405:12824   */\n      swap2\n      swap1\n      pop\n      jump\t// out\n        /* \"#utility.yul\":12830:13249   */\n    tag_219:\n        /* \"#utility.yul\":12996:13000   */\n      0x00\n        /* \"#utility.yul\":13034:13036   */\n      0x20\n        /* \"#utility.yul\":13023:13032   */\n      dup3\n        /* \"#utility.yul\":13019:13037   */\n      add\n        /* \"#utility.yul\":13011:13037   */\n      swap1\n      pop\n        /* \"#utility.yul\":13083:13092   */\n      dup2\n        /* \"#utility.yul\":13077:13081   */\n      dup2\n        /* \"#utility.yul\":13073:13093   */\n      sub\n        /* \"#utility.yul\":13069:13070   */\n      0x00\n        /* \"#utility.yul\":13058:13067   */\n      dup4\n        /* \"#utility.yul\":13054:13071   */\n      add\n        /* \"#utility.yul\":13047:13094   */\n      mstore\n        /* \"#utility.yul\":13111:13242   */\n      tag_425\n        /* \"#utility.yul\":13237:13241   */\n      dup2\n        /* \"#utility.yul\":13111:13242   */\n      tag_361\n      jump\t// in\n    tag_425:\n        /* \"#utility.yul\":13103:13242   */\n      swap1\n      pop\n        /* \"#utility.yul\":12830:13249   */\n      swap2\n      swap1\n      pop\n      jump\t// out\n        /* \"#utility.yul\":13255:13674   */\n    tag_183:\n        /* \"#utility.yul\":13421:13425   */\n      0x00\n        /* \"#utility.yul\":13459:13461   */\n      0x20\n        /* \"#utility.yul\":13448:13457   */\n      dup3\n        /* \"#utility.yul\":13444:13462   */\n      add\n        /* \"#utility.yul\":13436:13462   */\n      swap1\n      pop\n        /* \"#utility.yul\":13508:13517   */\n      dup2\n        /* \"#utility.yul\":13502:13506   */\n      dup2\n        /* \"#utility.yul\":13498:13518   */\n      sub\n        /* \"#utility.yul\":13494:13495   */\n      0x00\n        /* \"#utility.yul\":13483:13492   */\n      dup4\n        /* \"#utility.yul\":13479:13496   */\n      add\n        /* \"#utility.yul\":13472:13519   */\n      mstore\n        /* \"#utility.yul\":13536:13667   */\n      tag_427\n        /* \"#utility.yul\":13662:13666   */\n      dup2\n        /* \"#utility.yul\":13536:13667   */\n      tag_366\n      jump\t// in\n    tag_427:\n        /* \"#utility.yul\":13528:13667   */\n      swap1\n      pop\n        /* \"#utility.yul\":13255:13674   */\n      swap2\n      swap1\n      pop\n      jump\t// out\n        /* \"#utility.yul\":13680:14099   */\n    tag_132:\n        /* \"#utility.yul\":13846:13850   */\n      0x00\n        /* \"#utility.yul\":13884:13886   */\n      0x20\n        /* \"#utility.yul\":13873:13882   */\n      dup3\n        /* \"#utility.yul\":13869:13887   */\n      add\n        /* \"#utility.yul\":13861:13887   */\n      swap1\n      pop\n        /* \"#utility.yul\":13933:13942   */\n      dup2\n        /* \"#utility.yul\":13927:13931   */\n      dup2\n        /* \"#utility.yul\":13923:13943   */\n      sub\n        /* \"#utility.yul\":13919:13920   */\n      0x00\n        /* \"#utility.yul\":13908:13917   */\n      dup4\n        /* \"#utility.yul\":13904:13921   */\n      add\n        /* \"#utility.yul\":13897:13944   */\n      mstore\n        /* \"#utility.yul\":13961:14092   */\n      tag_429\n        /* \"#utility.yul\":14087:14091   */\n      dup2\n        /* \"#utility.yul\":13961:14092   */\n      tag_371\n      jump\t// in\n    tag_429:\n        /* \"#utility.yul\":13953:14092   */\n      swap1\n      pop\n        /* \"#utility.yul\":13680:14099   */\n      swap2\n      swap1\n      pop\n      jump\t// out\n        /* \"#utility.yul\":14105:14524   */\n    tag_135:\n        /* \"#utility.yul\":14271:14275   */\n      0x00\n        /* \"#utility.yul\":14309:14311   */\n      0x20\n        /* \"#utility.yul\":14298:14307   */\n      dup3\n        /* \"#utility.yul\":14294:14312   */\n      add\n        /* \"#utility.yul\":14286:14312   */\n      swap1\n      pop\n        /* \"#utility.yul\":14358:14367   */\n      dup2\n        /* \"#utility.yul\":14352:14356   */\n      dup2\n        /* \"#utility.yul\":14348:14368   */\n      sub\n        /* \"#utility.yul\":14344:14345   */\n      0x00\n        /* \"#utility.yul\":14333:14342   */\n      dup4\n        /* \"#utility.yul\":14329:14346   */\n      add\n        /* \"#utility.yul\":14322:14369   */\n      mstore\n        /* \"#utility.yul\":14386:14517   */\n      tag_431\n        /* \"#utility.yul\":14512:14516   */\n      dup2\n        /* \"#utility.yul\":14386:14517   */\n      tag_376\n      jump\t// in\n    tag_431:\n        /* \"#utility.yul\":14378:14517   */\n      swap1\n      pop\n        /* \"#utility.yul\":14105:14524   */\n      swap2\n      swap1\n      pop\n      jump\t// out\n        /* \"#utility.yul\":14530:14949   */\n    tag_91:\n        /* \"#utility.yul\":14696:14700   */\n      0x00\n        /* \"#utility.yul\":14734:14736   */\n      0x20\n        /* \"#utility.yul\":14723:14732   */\n      dup3\n        /* \"#utility.yul\":14719:14737   */\n      add\n        /* \"#utility.yul\":14711:14737   */\n      swap1\n      pop\n        /* \"#utility.yul\":14783:14792   */\n      dup2\n        /* \"#utility.yul\":14777:14781   */\n      dup2\n        /* \"#utility.yul\":14773:14793   */\n      sub\n        /* \"#utility.yul\":14769:14770   */\n      0x00\n        /* \"#utility.yul\":14758:14767   */\n      dup4\n        /* \"#utility.yul\":14754:14771   */\n      add\n        /* \"#utility.yul\":14747:14794   */\n      mstore\n        /* \"#utility.yul\":14811:14942   */\n      tag_433\n        /* \"#utility.yul\":14937:14941   */\n      dup2\n        /* \"#utility.yul\":14811:14942   */\n      tag_381\n      jump\t// in\n    tag_433:\n        /* \"#utility.yul\":14803:14942   */\n      swap1\n      pop\n        /* \"#utility.yul\":14530:14949   */\n      swap2\n      swap1\n      pop\n      jump\t// out\n        /* \"#utility.yul\":14955:15374   */\n    tag_94:\n        /* \"#utility.yul\":15121:15125   */\n      0x00\n        /* \"#utility.yul\":15159:15161   */\n      0x20\n        /* \"#utility.yul\":15148:15157   */\n      dup3\n        /* \"#utility.yul\":15144:15162   */\n      add\n        /* \"#utility.yul\":15136:15162   */\n      swap1\n      pop\n        /* \"#utility.yul\":15208:15217   */\n      dup2\n        /* \"#utility.yul\":15202:15206   */\n      dup2\n        /* \"#utility.yul\":15198:15218   */\n      sub\n        /* \"#utility.yul\":15194:15195   */\n      0x00\n        /* \"#utility.yul\":15183:15192   */\n      dup4\n        /* \"#utility.yul\":15179:15196   */\n      add\n        /* \"#utility.yul\":15172:15219   */\n      mstore\n        /* \"#utility.yul\":15236:15367   */\n      tag_435\n        /* \"#utility.yul\":15362:15366   */\n      dup2\n        /* \"#utility.yul\":15236:15367   */\n      tag_386\n      jump\t// in\n    tag_435:\n        /* \"#utility.yul\":15228:15367   */\n      swap1\n      pop\n        /* \"#utility.yul\":14955:15374   */\n      swap2\n      swap1\n      pop\n      jump\t// out\n        /* \"#utility.yul\":15380:15602   */\n    tag_61:\n        /* \"#utility.yul\":15473:15477   */\n      0x00\n        /* \"#utility.yul\":15511:15513   */\n      0x20\n        /* \"#utility.yul\":15500:15509   */\n      dup3\n        /* \"#utility.yul\":15496:15514   */\n      add\n        /* \"#utility.yul\":15488:15514   */\n      swap1\n      pop\n        /* \"#utility.yul\":15524:15595   */\n      tag_437\n        /* \"#utility.yul\":15592:15593   */\n      0x00\n        /* \"#utility.yul\":15581:15590   */\n      dup4\n        /* \"#utility.yul\":15577:15594   */\n      add\n        /* \"#utility.yul\":15568:15574   */\n      dup5\n        /* \"#utility.yul\":15524:15595   */\n      tag_391\n      jump\t// in\n    tag_437:\n        /* \"#utility.yul\":15380:15602   */\n      swap3\n      swap2\n      pop\n      pop\n      jump\t// out\n        /* \"#utility.yul\":15608:16027   */\n    tag_194:\n        /* \"#utility.yul\":15747:15751   */\n      0x00\n        /* \"#utility.yul\":15785:15787   */\n      0x40\n        /* \"#utility.yul\":15774:15783   */\n      dup3\n        /* \"#utility.yul\":15770:15788   */\n      add\n        /* \"#utility.yul\":15762:15788   */\n      swap1\n      pop\n        /* \"#utility.yul\":15798:15869   */\n      tag_439\n        /* \"#utility.yul\":15866:15867   */\n      0x00\n        /* \"#utility.yul\":15855:15864   */\n      dup4\n        /* \"#utility.yul\":15851:15868   */\n      add\n        /* \"#utility.yul\":15842:15848   */\n      dup6\n        /* \"#utility.yul\":15798:15869   */\n      tag_391\n      jump\t// in\n    tag_439:\n        /* \"#utility.yul\":15916:15925   */\n      dup2\n        /* \"#utility.yul\":15910:15914   */\n      dup2\n        /* \"#utility.yul\":15906:15926   */\n      sub\n        /* \"#utility.yul\":15901:15903   */\n      0x20\n        /* \"#utility.yul\":15890:15899   */\n      dup4\n        /* \"#utility.yul\":15886:15904   */\n      add\n        /* \"#utility.yul\":15879:15927   */\n      mstore\n        /* \"#utility.yul\":15944:16020   */\n      tag_440\n        /* \"#utility.yul\":16015:16019   */\n      dup2\n        /* \"#utility.yul\":16006:16012   */\n      dup5\n        /* \"#utility.yul\":15944:16020   */\n      tag_317\n      jump\t// in\n    tag_440:\n        /* \"#utility.yul\":15936:16020   */\n      swap1\n      pop\n        /* \"#utility.yul\":15608:16027   */\n      swap4\n      swap3\n      pop\n      pop\n      pop\n      jump\t// out\n        /* \"#utility.yul\":16033:16162   */\n    tag_249:\n        /* \"#utility.yul\":16067:16073   */\n      0x00\n        /* \"#utility.yul\":16094:16114   */\n      tag_442\n      tag_443\n      jump\t// in\n    tag_442:\n        /* \"#utility.yul\":16084:16114   */\n      swap1\n      pop\n        /* \"#utility.yul\":16123:16156   */\n      tag_444\n        /* \"#utility.yul\":16151:16155   */\n      dup3\n        /* \"#utility.yul\":16143:16149   */\n      dup3\n        /* \"#utility.yul\":16123:16156   */\n      tag_445\n      jump\t// in\n    tag_444:\n        /* \"#utility.yul\":16033:16162   */\n      swap2\n      swap1\n      pop\n      jump\t// out\n        /* \"#utility.yul\":16168:16243   */\n    tag_443:\n        /* \"#utility.yul\":16201:16207   */\n      0x00\n        /* \"#utility.yul\":16234:16236   */\n      0x40\n        /* \"#utility.yul\":16228:16237   */\n      mload\n        /* \"#utility.yul\":16218:16237   */\n      swap1\n      pop\n        /* \"#utility.yul\":16168:16243   */\n      swap1\n      jump\t// out\n        /* \"#utility.yul\":16249:16556   */\n    tag_248:\n        /* \"#utility.yul\":16310:16314   */\n      0x00\n        /* \"#utility.yul\":16400:16418   */\n      0xffffffffffffffff\n        /* \"#utility.yul\":16392:16398   */\n      dup3\n        /* \"#utility.yul\":16389:16419   */\n      gt\n        /* \"#utility.yul\":16386:16442   */\n      iszero\n      tag_448\n      jumpi\n        /* \"#utility.yul\":16422:16440   */\n      tag_449\n      tag_450\n      jump\t// in\n    tag_449:\n        /* \"#utility.yul\":16386:16442   */\n    tag_448:\n        /* \"#utility.yul\":16460:16489   */\n      tag_451\n        /* \"#utility.yul\":16482:16488   */\n      dup3\n        /* \"#utility.yul\":16460:16489   */\n      tag_326\n      jump\t// in\n    tag_451:\n        /* \"#utility.yul\":16452:16489   */\n      swap1\n      pop\n        /* \"#utility.yul\":16544:16548   */\n      0x20\n        /* \"#utility.yul\":16538:16542   */\n      dup2\n        /* \"#utility.yul\":16534:16549   */\n      add\n        /* \"#utility.yul\":16526:16549   */\n      swap1\n      pop\n        /* \"#utility.yul\":16249:16556   */\n      swap2\n      swap1\n      pop\n      jump\t// out\n        /* \"#utility.yul\":16562:16702   */\n    tag_341:\n        /* \"#utility.yul\":16610:16614   */\n      0x00\n        /* \"#utility.yul\":16633:16636   */\n      dup2\n        /* \"#utility.yul\":16625:16636   */\n      swap1\n      pop\n        /* \"#utility.yul\":16656:16659   */\n      dup2\n        /* \"#utility.yul\":16653:16654   */\n      0x00\n        /* \"#utility.yul\":16646:16660   */\n      mstore\n        /* \"#utility.yul\":16690:16694   */\n      0x20\n        /* \"#utility.yul\":16687:16688   */\n      0x00\n        /* \"#utility.yul\":16677:16695   */\n      keccak256\n        /* \"#utility.yul\":16669:16695   */\n      swap1\n      pop\n        /* \"#utility.yul\":16562:16702   */\n      swap2\n      swap1\n      pop\n      jump\t// out\n        /* \"#utility.yul\":16708:16806   */\n    tag_320:\n        /* \"#utility.yul\":16759:16765   */\n      0x00\n        /* \"#utility.yul\":16793:16798   */\n      dup2\n        /* \"#utility.yul\":16787:16799   */\n      mload\n        /* \"#utility.yul\":16777:16799   */\n      swap1\n      pop\n        /* \"#utility.yul\":16708:16806   */\n      swap2\n      swap1\n      pop\n      jump\t// out\n        /* \"#utility.yul\":16812:16980   */\n    tag_322:\n        /* \"#utility.yul\":16895:16906   */\n      0x00\n        /* \"#utility.yul\":16929:16935   */\n      dup3\n        /* \"#utility.yul\":16924:16927   */\n      dup3\n        /* \"#utility.yul\":16917:16936   */\n      mstore\n        /* \"#utility.yul\":16969:16973   */\n      0x20\n        /* \"#utility.yul\":16964:16967   */\n      dup3\n        /* \"#utility.yul\":16960:16974   */\n      add\n        /* \"#utility.yul\":16945:16974   */\n      swap1\n      pop\n        /* \"#utility.yul\":16812:16980   */\n      swap3\n      swap2\n      pop\n      pop\n      jump\t// out\n        /* \"#utility.yul\":16986:17133   */\n    tag_331:\n        /* \"#utility.yul\":17087:17098   */\n      0x00\n        /* \"#utility.yul\":17124:17127   */\n      dup2\n        /* \"#utility.yul\":17109:17127   */\n      swap1\n      pop\n        /* \"#utility.yul\":16986:17133   */\n      swap3\n      swap2\n      pop\n      pop\n      jump\t// out\n        /* \"#utility.yul\":17139:17308   */\n    tag_348:\n        /* \"#utility.yul\":17223:17234   */\n      0x00\n        /* \"#utility.yul\":17257:17263   */\n      dup3\n        /* \"#utility.yul\":17252:17255   */\n      dup3\n        /* \"#utility.yul\":17245:17264   */\n      mstore\n        /* \"#utility.yul\":17297:17301   */\n      0x20\n        /* \"#utility.yul\":17292:17295   */\n      dup3\n        /* \"#utility.yul\":17288:17302   */\n      add\n        /* \"#utility.yul\":17273:17302   */\n      swap1\n      pop\n        /* \"#utility.yul\":17139:17308   */\n      swap3\n      swap2\n      pop\n      pop\n      jump\t// out\n        /* \"#utility.yul\":17314:17505   */\n    tag_104:\n        /* \"#utility.yul\":17354:17358   */\n      0x00\n        /* \"#utility.yul\":17374:17394   */\n      tag_458\n        /* \"#utility.yul\":17392:17393   */\n      dup3\n        /* \"#utility.yul\":17374:17394   */\n      tag_394\n      jump\t// in\n    tag_458:\n        /* \"#utility.yul\":17369:17394   */\n      swap2\n      pop\n        /* \"#utility.yul\":17408:17428   */\n      tag_459\n        /* \"#utility.yul\":17426:17427   */\n      dup4\n        /* \"#utility.yul\":17408:17428   */\n      tag_394\n      jump\t// in\n    tag_459:\n        /* \"#utility.yul\":17403:17428   */\n      swap3\n      pop\n        /* \"#utility.yul\":17447:17448   */\n      dup3\n        /* \"#utility.yul\":17444:17445   */\n      dup3\n        /* \"#utility.yul\":17441:17449   */\n      lt\n        /* \"#utility.yul\":17438:17472   */\n      iszero\n      tag_460\n      jumpi\n        /* \"#utility.yul\":17452:17470   */\n      tag_461\n      tag_462\n      jump\t// in\n    tag_461:\n        /* \"#utility.yul\":17438:17472   */\n    tag_460:\n        /* \"#utility.yul\":17497:17498   */\n      dup3\n        /* \"#utility.yul\":17494:17495   */\n      dup3\n        /* \"#utility.yul\":17490:17499   */\n      sub\n        /* \"#utility.yul\":17482:17499   */\n      swap1\n      pop\n        /* \"#utility.yul\":17314:17505   */\n      swap3\n      swap2\n      pop\n      pop\n      jump\t// out\n        /* \"#utility.yul\":17511:17607   */\n    tag_303:\n        /* \"#utility.yul\":17548:17555   */\n      0x00\n        /* \"#utility.yul\":17577:17601   */\n      tag_464\n        /* \"#utility.yul\":17595:17600   */\n      dup3\n        /* \"#utility.yul\":17577:17601   */\n      tag_465\n      jump\t// in\n    tag_464:\n        /* \"#utility.yul\":17566:17601   */\n      swap1\n      pop\n        /* \"#utility.yul\":17511:17607   */\n      swap2\n      swap1\n      pop\n      jump\t// out\n        /* \"#utility.yul\":17613:17703   */\n    tag_312:\n        /* \"#utility.yul\":17647:17654   */\n      0x00\n        /* \"#utility.yul\":17690:17695   */\n      dup2\n        /* \"#utility.yul\":17683:17696   */\n      iszero\n        /* \"#utility.yul\":17676:17697   */\n      iszero\n        /* \"#utility.yul\":17665:17697   */\n      swap1\n      pop\n        /* \"#utility.yul\":17613:17703   */\n      swap2\n      swap1\n      pop\n      jump\t// out\n        /* \"#utility.yul\":17709:17786   */\n    tag_316:\n        /* \"#utility.yul\":17746:17753   */\n      0x00\n        /* \"#utility.yul\":17775:17780   */\n      dup2\n        /* \"#utility.yul\":17764:17780   */\n      swap1\n      pop\n        /* \"#utility.yul\":17709:17786   */\n      swap2\n      swap1\n      pop\n      jump\t// out\n        /* \"#utility.yul\":17792:17918   */\n    tag_465:\n        /* \"#utility.yul\":17829:17836   */\n      0x00\n        /* \"#utility.yul\":17869:17911   */\n      0xffffffffffffffffffffffffffffffffffffffff\n        /* \"#utility.yul\":17862:17867   */\n      dup3\n        /* \"#utility.yul\":17858:17912   */\n      and\n        /* \"#utility.yul\":17847:17912   */\n      swap1\n      pop\n        /* \"#utility.yul\":17792:17918   */\n      swap2\n      swap1\n      pop\n      jump\t// out\n        /* \"#utility.yul\":17924:18001   */\n    tag_394:\n        /* \"#utility.yul\":17961:17968   */\n      0x00\n        /* \"#utility.yul\":17990:17995   */\n      dup2\n        /* \"#utility.yul\":17979:17995   */\n      swap1\n      pop\n        /* \"#utility.yul\":17924:18001   */\n      swap2\n      swap1\n      pop\n      jump\t// out\n        /* \"#utility.yul\":18007:18161   */\n    tag_254:\n        /* \"#utility.yul\":18091:18097   */\n      dup3\n        /* \"#utility.yul\":18086:18089   */\n      dup2\n        /* \"#utility.yul\":18081:18084   */\n      dup4\n        /* \"#utility.yul\":18068:18098   */\n      calldatacopy\n        /* \"#utility.yul\":18153:18154   */\n      0x00\n        /* \"#utility.yul\":18144:18150   */\n      dup4\n        /* \"#utility.yul\":18139:18142   */\n      dup4\n        /* \"#utility.yul\":18135:18151   */\n      add\n        /* \"#utility.yul\":18128:18155   */\n      mstore\n        /* \"#utility.yul\":18007:18161   */\n      pop\n      pop\n      pop\n      jump\t// out\n        /* \"#utility.yul\":18167:18474   */\n    tag_324:\n        /* \"#utility.yul\":18235:18236   */\n      0x00\n        /* \"#utility.yul\":18245:18358   */\n    tag_472:\n        /* \"#utility.yul\":18259:18265   */\n      dup4\n        /* \"#utility.yul\":18256:18257   */\n      dup2\n        /* \"#utility.yul\":18253:18266   */\n      lt\n        /* \"#utility.yul\":18245:18358   */\n      iszero\n      tag_474\n      jumpi\n        /* \"#utility.yul\":18344:18345   */\n      dup1\n        /* \"#utility.yul\":18339:18342   */\n      dup3\n        /* \"#utility.yul\":18335:18346   */\n      add\n        /* \"#utility.yul\":18329:18347   */\n      mload\n        /* \"#utility.yul\":18325:18326   */\n      dup2\n        /* \"#utility.yul\":18320:18323   */\n      dup5\n        /* \"#utility.yul\":18316:18327   */\n      add\n        /* \"#utility.yul\":18309:18348   */\n      mstore\n        /* \"#utility.yul\":18281:18283   */\n      0x20\n        /* \"#utility.yul\":18278:18279   */\n      dup2\n        /* \"#utility.yul\":18274:18284   */\n      add\n        /* \"#utility.yul\":18269:18284   */\n      swap1\n      pop\n        /* \"#utility.yul\":18245:18358   */\n      jump(tag_472)\n    tag_474:\n        /* \"#utility.yul\":18376:18382   */\n      dup4\n        /* \"#utility.yul\":18373:18374   */\n      dup2\n        /* \"#utility.yul\":18370:18383   */\n      gt\n        /* \"#utility.yul\":18367:18468   */\n      iszero\n      tag_475\n      jumpi\n        /* \"#utility.yul\":18456:18457   */\n      0x00\n        /* \"#utility.yul\":18447:18453   */\n      dup5\n        /* \"#utility.yul\":18442:18445   */\n      dup5\n        /* \"#utility.yul\":18438:18454   */\n      add\n        /* \"#utility.yul\":18431:18458   */\n      mstore\n        /* \"#utility.yul\":18367:18468   */\n    tag_475:\n        /* \"#utility.yul\":18216:18474   */\n      pop\n        /* \"#utility.yul\":18167:18474   */\n      pop\n      pop\n      pop\n      jump\t// out\n        /* \"#utility.yul\":18480:18800   */\n    tag_120:\n        /* \"#utility.yul\":18524:18530   */\n      0x00\n        /* \"#utility.yul\":18561:18562   */\n      0x02\n        /* \"#utility.yul\":18555:18559   */\n      dup3\n        /* \"#utility.yul\":18551:18563   */\n      div\n        /* \"#utility.yul\":18541:18563   */\n      swap1\n      pop\n        /* \"#utility.yul\":18608:18609   */\n      0x01\n        /* \"#utility.yul\":18602:18606   */\n      dup3\n        /* \"#utility.yul\":18598:18610   */\n      and\n        /* \"#utility.yul\":18629:18647   */\n      dup1\n        /* \"#utility.yul\":18619:18700   */\n      tag_477\n      jumpi\n        /* \"#utility.yul\":18685:18689   */\n      0x7f\n        /* \"#utility.yul\":18677:18683   */\n      dup3\n        /* \"#utility.yul\":18673:18690   */\n      and\n        /* \"#utility.yul\":18663:18690   */\n      swap2\n      pop\n        /* \"#utility.yul\":18619:18700   */\n    tag_477:\n        /* \"#utility.yul\":18747:18749   */\n      0x20\n        /* \"#utility.yul\":18739:18745   */\n      dup3\n        /* \"#utility.yul\":18736:18750   */\n      lt\n        /* \"#utility.yul\":18716:18734   */\n      dup2\n        /* \"#utility.yul\":18713:18751   */\n      eq\n        /* \"#utility.yul\":18710:18794   */\n      iszero\n      tag_478\n      jumpi\n        /* \"#utility.yul\":18766:18784   */\n      tag_479\n      tag_480\n      jump\t// in\n    tag_479:\n        /* \"#utility.yul\":18710:18794   */\n    tag_478:\n        /* \"#utility.yul\":18531:18800   */\n      pop\n        /* \"#utility.yul\":18480:18800   */\n      swap2\n      swap1\n      pop\n      jump\t// out\n        /* \"#utility.yul\":18806:19087   */\n    tag_445:\n        /* \"#utility.yul\":18889:18916   */\n      tag_482\n        /* \"#utility.yul\":18911:18915   */\n      dup3\n        /* \"#utility.yul\":18889:18916   */\n      tag_326\n      jump\t// in\n    tag_482:\n        /* \"#utility.yul\":18881:18887   */\n      dup2\n        /* \"#utility.yul\":18877:18917   */\n      add\n        /* \"#utility.yul\":19019:19025   */\n      dup2\n        /* \"#utility.yul\":19007:19017   */\n      dup2\n        /* \"#utility.yul\":19004:19026   */\n      lt\n        /* \"#utility.yul\":18983:19001   */\n      0xffffffffffffffff\n        /* \"#utility.yul\":18971:18981   */\n      dup3\n        /* \"#utility.yul\":18968:19002   */\n      gt\n        /* \"#utility.yul\":18965:19027   */\n      or\n        /* \"#utility.yul\":18962:19050   */\n      iszero\n      tag_483\n      jumpi\n        /* \"#utility.yul\":19030:19048   */\n      tag_484\n      tag_450\n      jump\t// in\n    tag_484:\n        /* \"#utility.yul\":18962:19050   */\n    tag_483:\n        /* \"#utility.yul\":19070:19080   */\n      dup1\n        /* \"#utility.yul\":19066:19068   */\n      0x40\n        /* \"#utility.yul\":19059:19081   */\n      mstore\n        /* \"#utility.yul\":18849:19087   */\n      pop\n        /* \"#utility.yul\":18806:19087   */\n      pop\n      pop\n      jump\t// out\n        /* \"#utility.yul\":19093:19326   */\n    tag_116:\n        /* \"#utility.yul\":19132:19135   */\n      0x00\n        /* \"#utility.yul\":19155:19179   */\n      tag_486\n        /* \"#utility.yul\":19173:19178   */\n      dup3\n        /* \"#utility.yul\":19155:19179   */\n      tag_394\n      jump\t// in\n    tag_486:\n        /* \"#utility.yul\":19146:19179   */\n      swap2\n      pop\n        /* \"#utility.yul\":19201:19267   */\n      0xffffffffffffffffffffffffffffffffffffffffffffffffffffffffffffffff\n        /* \"#utility.yul\":19194:19199   */\n      dup3\n        /* \"#utility.yul\":19191:19268   */\n      eq\n        /* \"#utility.yul\":19188:19291   */\n      iszero\n      tag_487\n      jumpi\n        /* \"#utility.yul\":19271:19289   */\n      tag_488\n      tag_462\n      jump\t// in\n    tag_488:\n        /* \"#utility.yul\":19188:19291   */\n    tag_487:\n        /* \"#utility.yul\":19318:19319   */\n      0x01\n        /* \"#utility.yul\":19311:19316   */\n      dup3\n        /* \"#utility.yul\":19307:19320   */\n      add\n        /* \"#utility.yul\":19300:19320   */\n      swap1\n      pop\n        /* \"#utility.yul\":19093:19326   */\n      swap2\n      swap1\n      pop\n      jump\t// out\n        /* \"#utility.yul\":19332:19432   */\n    tag_308:\n        /* \"#utility.yul\":19371:19378   */\n      0x00\n        /* \"#utility.yul\":19400:19426   */\n      tag_490\n        /* \"#utility.yul\":19420:19425   */\n      dup3\n        /* \"#utility.yul\":19400:19426   */\n      tag_491\n      jump\t// in\n    tag_490:\n        /* \"#utility.yul\":19389:19426   */\n      swap1\n      pop\n        /* \"#utility.yul\":19332:19432   */\n      swap2\n      swap1\n      pop\n      jump\t// out\n        /* \"#utility.yul\":19438:19532   */\n    tag_491:\n        /* \"#utility.yul\":19477:19484   */\n      0x00\n        /* \"#utility.yul\":19506:19526   */\n      tag_493\n        /* \"#utility.yul\":19520:19525   */\n      dup3\n        /* \"#utility.yul\":19506:19526   */\n      tag_494\n      jump\t// in\n    tag_493:\n        /* \"#utility.yul\":19495:19526   */\n      swap1\n      pop\n        /* \"#utility.yul\":19438:19532   */\n      swap2\n      swap1\n      pop\n      jump\t// out\n        /* \"#utility.yul\":19538:19617   */\n    tag_399:\n        /* \"#utility.yul\":19577:19584   */\n      0x00\n        /* \"#utility.yul\":19606:19611   */\n      dup2\n        /* \"#utility.yul\":19595:19611   */\n      swap1\n      pop\n        /* \"#utility.yul\":19538:19617   */\n      swap2\n      swap1\n      pop\n      jump\t// out\n        /* \"#utility.yul\":19623:19803   */\n    tag_462:\n        /* \"#utility.yul\":19671:19748   */\n      0x4e487b7100000000000000000000000000000000000000000000000000000000\n        /* \"#utility.yul\":19668:19669   */\n      0x00\n        /* \"#utility.yul\":19661:19749   */\n      mstore\n        /* \"#utility.yul\":19768:19772   */\n      0x11\n        /* \"#utility.yul\":19765:19766   */\n      0x04\n        /* \"#utility.yul\":19758:19773   */\n      mstore\n        /* \"#utility.yul\":19792:19796   */\n      0x24\n        /* \"#utility.yul\":19789:19790   */\n      0x00\n        /* \"#utility.yul\":19782:19797   */\n      revert\n        /* \"#utility.yul\":19809:19989   */\n    tag_480:\n        /* \"#utility.yul\":19857:19934   */\n      0x4e487b7100000000000000000000000000000000000000000000000000000000\n        /* \"#utility.yul\":19854:19855   */\n      0x00\n        /* \"#utility.yul\":19847:19935   */\n      mstore\n        /* \"#utility.yul\":19954:19958   */\n      0x22\n        /* \"#utility.yul\":19951:19952   */\n      0x04\n        /* \"#utility.yul\":19944:19959   */\n      mstore\n        /* \"#utility.yul\":19978:19982   */\n      0x24\n        /* \"#utility.yul\":19975:19976   */\n      0x00\n        /* \"#utility.yul\":19968:19983   */\n      revert\n        /* \"#utility.yul\":19995:20175   */\n    tag_113:\n        /* \"#utility.yul\":20043:20120   */\n      0x4e487b7100000000000000000000000000000000000000000000000000000000\n        /* \"#utility.yul\":20040:20041   */\n      0x00\n        /* \"#utility.yul\":20033:20121   */\n      mstore\n        /* \"#utility.yul\":20140:20144   */\n      0x31\n        /* \"#utility.yul\":20137:20138   */\n      0x04\n        /* \"#utility.yul\":20130:20145   */\n      mstore\n        /* \"#utility.yul\":20164:20168   */\n      0x24\n        /* \"#utility.yul\":20161:20162   */\n      0x00\n        /* \"#utility.yul\":20154:20169   */\n      revert\n        /* \"#utility.yul\":20181:20361   */\n    tag_100:\n        /* \"#utility.yul\":20229:20306   */\n      0x4e487b7100000000000000000000000000000000000000000000000000000000\n        /* \"#utility.yul\":20226:20227   */\n      0x00\n        /* \"#utility.yul\":20219:20307   */\n      mstore\n        /* \"#utility.yul\":20326:20330   */\n      0x32\n        /* \"#utility.yul\":20323:20324   */\n      0x04\n        /* \"#utility.yul\":20316:20331   */\n      mstore\n        /* \"#utility.yul\":20350:20354   */\n      0x24\n        /* \"#utility.yul\":20347:20348   */\n      0x00\n        /* \"#utility.yul\":20340:20355   */\n      revert\n        /* \"#utility.yul\":20367:20547   */\n    tag_450:\n        /* \"#utility.yul\":20415:20492   */\n      0x4e487b7100000000000000000000000000000000000000000000000000000000\n        /* \"#utility.yul\":20412:20413   */\n      0x00\n        /* \"#utility.yul\":20405:20493   */\n      mstore\n        /* \"#utility.yul\":20512:20516   */\n      0x41\n        /* \"#utility.yul\":20509:20510   */\n      0x04\n        /* \"#utility.yul\":20502:20517   */\n      mstore\n        /* \"#utility.yul\":20536:20540   */\n      0x24\n        /* \"#utility.yul\":20533:20534   */\n      0x00\n        /* \"#utility.yul\":20526:20541   */\n      revert\n        /* \"#utility.yul\":20553:20670   */\n    tag_267:\n        /* \"#utility.yul\":20662:20663   */\n      0x00\n        /* \"#utility.yul\":20659:20660   */\n      dup1\n        /* \"#utility.yul\":20652:20664   */\n      revert\n        /* \"#utility.yul\":20676:20793   */\n    tag_252:\n        /* \"#utility.yul\":20785:20786   */\n      0x00\n        /* \"#utility.yul\":20782:20783   */\n      dup1\n        /* \"#utility.yul\":20775:20787   */\n      revert\n        /* \"#utility.yul\":20799:20916   */\n    tag_285:\n        /* \"#utility.yul\":20908:20909   */\n      0x00\n        /* \"#utility.yul\":20905:20906   */\n      dup1\n        /* \"#utility.yul\":20898:20910   */\n      revert\n        /* \"#utility.yul\":20922:21039   */\n    tag_276:\n        /* \"#utility.yul\":21031:21032   */\n      0x00\n        /* \"#utility.yul\":21028:21029   */\n      dup1\n        /* \"#utility.yul\":21021:21033   */\n      revert\n        /* \"#utility.yul\":21045:21147   */\n    tag_326:\n        /* \"#utility.yul\":21086:21092   */\n      0x00\n        /* \"#utility.yul\":21137:21139   */\n      0x1f\n        /* \"#utility.yul\":21133:21140   */\n      not\n        /* \"#utility.yul\":21128:21130   */\n      0x1f\n        /* \"#utility.yul\":21121:21126   */\n      dup4\n        /* \"#utility.yul\":21117:21131   */\n      add\n        /* \"#utility.yul\":21113:21141   */\n      and\n        /* \"#utility.yul\":21103:21141   */\n      swap1\n      pop\n        /* \"#utility.yul\":21045:21147   */\n      swap2\n      swap1\n      pop\n      jump\t// out\n        /* \"#utility.yul\":21153:21247   */\n    tag_494:\n        /* \"#utility.yul\":21186:21194   */\n      0x00\n        /* \"#utility.yul\":21234:21239   */\n      dup2\n        /* \"#utility.yul\":21230:21232   */\n      0x60\n        /* \"#utility.yul\":21226:21240   */\n      shl\n        /* \"#utility.yul\":21205:21240   */\n      swap1\n      pop\n        /* \"#utility.yul\":21153:21247   */\n      swap2\n      swap1\n      pop\n      jump\t// out\n        /* \"#utility.yul\":21253:21476   */\n    tag_350:\n        /* \"#utility.yul\":21393:21427   */\n      0x4f6e6c79207369676e6572732063616e20706572666f726d2074686973206163\n        /* \"#utility.yul\":21389:21390   */\n      0x00\n        /* \"#utility.yul\":21381:21387   */\n      dup3\n        /* \"#utility.yul\":21377:21391   */\n      add\n        /* \"#utility.yul\":21370:21428   */\n      mstore\n        /* \"#utility.yul\":21462:21468   */\n      0x74696f6e00000000000000000000000000000000000000000000000000000000\n        /* \"#utility.yul\":21457:21459   */\n      0x20\n        /* \"#utility.yul\":21449:21455   */\n      dup3\n        /* \"#utility.yul\":21445:21460   */\n      add\n        /* \"#utility.yul\":21438:21469   */\n      mstore\n        /* \"#utility.yul\":21253:21476   */\n      pop\n      jump\t// out\n        /* \"#utility.yul\":21482:21707   */\n    tag_355:\n        /* \"#utility.yul\":21622:21656   */\n      0x4f6e6c7920746865206f776e65722063616e20706572666f726d207468697320\n        /* \"#utility.yul\":21618:21619   */\n      0x00\n        /* \"#utility.yul\":21610:21616   */\n      dup3\n        /* \"#utility.yul\":21606:21620   */\n      add\n        /* \"#utility.yul\":21599:21657   */\n      mstore\n        /* \"#utility.yul\":21691:21699   */\n      0x616374696f6e0000000000000000000000000000000000000000000000000000\n        /* \"#utility.yul\":21686:21688   */\n      0x20\n        /* \"#utility.yul\":21678:21684   */\n      dup3\n        /* \"#utility.yul\":21674:21689   */\n      add\n        /* \"#utility.yul\":21667:21700   */\n      mstore\n        /* \"#utility.yul\":21482:21707   */\n      pop\n      jump\t// out\n        /* \"#utility.yul\":21713:21890   */\n    tag_360:\n        /* \"#utility.yul\":21853:21882   */\n      0x4164647265737320697320616c72656164792061207369676e65720000000000\n        /* \"#utility.yul\":21849:21850   */\n      0x00\n        /* \"#utility.yul\":21841:21847   */\n      dup3\n        /* \"#utility.yul\":21837:21851   */\n      add\n        /* \"#utility.yul\":21830:21883   */\n      mstore\n        /* \"#utility.yul\":21713:21890   */\n      pop\n      jump\t// out\n        /* \"#utility.yul\":21896:22074   */\n    tag_365:\n        /* \"#utility.yul\":22036:22066   */\n      0x5472616e73616374696f6e20657865637574696f6e206661696c656400000000\n        /* \"#utility.yul\":22032:22033   */\n      0x00\n        /* \"#utility.yul\":22024:22030   */\n      dup3\n        /* \"#utility.yul\":22020:22034   */\n      add\n        /* \"#utility.yul\":22013:22067   */\n      mstore\n        /* \"#utility.yul\":21896:22074   */\n      pop\n      jump\t// out\n        /* \"#utility.yul\":22080:22315   */\n    tag_370:\n        /* \"#utility.yul\":22220:22254   */\n      0x4f6e6c7920746865207265636f7665727920616464726573732063616e206361\n        /* \"#utility.yul\":22216:22217   */\n      0x00\n        /* \"#utility.yul\":22208:22214   */\n      dup3\n        /* \"#utility.yul\":22204:22218   */\n      add\n        /* \"#utility.yul\":22197:22255   */\n      mstore\n        /* \"#utility.yul\":22289:22307   */\n      0x6c6c20746869732066756e6374696f6e00000000000000000000000000000000\n        /* \"#utility.yul\":22284:22286   */\n      0x20\n        /* \"#utility.yul\":22276:22282   */\n      dup3\n        /* \"#utility.yul\":22272:22287   */\n      add\n        /* \"#utility.yul\":22265:22308   */\n      mstore\n        /* \"#utility.yul\":22080:22315   */\n      pop\n      jump\t// out\n        /* \"#utility.yul\":22321:22497   */\n    tag_375:\n        /* \"#utility.yul\":22461:22489   */\n      0x5472616e73616374696f6e20646f6573206e6f74206578697374000000000000\n        /* \"#utility.yul\":22457:22458   */\n      0x00\n        /* \"#utility.yul\":22449:22455   */\n      dup3\n        /* \"#utility.yul\":22445:22459   */\n      add\n        /* \"#utility.yul\":22438:22490   */\n      mstore\n        /* \"#utility.yul\":22321:22497   */\n      pop\n      jump\t// out\n        /* \"#utility.yul\":22503:22727   */\n    tag_380:\n        /* \"#utility.yul\":22643:22677   */\n      0x5472616e73616374696f6e2068617320616c7265616479206265656e20657865\n        /* \"#utility.yul\":22639:22640   */\n      0x00\n        /* \"#utility.yul\":22631:22637   */\n      dup3\n        /* \"#utility.yul\":22627:22641   */\n      add\n        /* \"#utility.yul\":22620:22678   */\n      mstore\n        /* \"#utility.yul\":22712:22719   */\n      0x6375746564000000000000000000000000000000000000000000000000000000\n        /* \"#utility.yul\":22707:22709   */\n      0x20\n        /* \"#utility.yul\":22699:22705   */\n      dup3\n        /* \"#utility.yul\":22695:22710   */\n      add\n        /* \"#utility.yul\":22688:22720   */\n      mstore\n        /* \"#utility.yul\":22503:22727   */\n      pop\n      jump\t// out\n        /* \"#utility.yul\":22733:22906   */\n    tag_385:\n        /* \"#utility.yul\":22873:22898   */\n      0x41646472657373206973206e6f742061207369676e6572000000000000000000\n        /* \"#utility.yul\":22869:22870   */\n      0x00\n        /* \"#utility.yul\":22861:22867   */\n      dup3\n        /* \"#utility.yul\":22857:22871   */\n      add\n        /* \"#utility.yul\":22850:22899   */\n      mstore\n        /* \"#utility.yul\":22733:22906   */\n      pop\n      jump\t// out\n        /* \"#utility.yul\":22912:23161   */\n    tag_390:\n        /* \"#utility.yul\":23052:23086   */\n      0x43616e6e6f742072656d6f7665207369676e65722c206d696e696d756d207265\n        /* \"#utility.yul\":23048:23049   */\n      0x00\n        /* \"#utility.yul\":23040:23046   */\n      dup3\n        /* \"#utility.yul\":23036:23050   */\n      add\n        /* \"#utility.yul\":23029:23087   */\n      mstore\n        /* \"#utility.yul\":23121:23153   */\n      0x717569726564207369676e6572732077696c6c206e6f74206265206d65740000\n        /* \"#utility.yul\":23116:23118   */\n      0x20\n        /* \"#utility.yul\":23108:23114   */\n      dup3\n        /* \"#utility.yul\":23104:23119   */\n      add\n        /* \"#utility.yul\":23097:23154   */\n      mstore\n        /* \"#utility.yul\":22912:23161   */\n      pop\n      jump\t// out\n        /* \"#utility.yul\":23167:23289   */\n    tag_258:\n        /* \"#utility.yul\":23240:23264   */\n      tag_517\n        /* \"#utility.yul\":23258:23263   */\n      dup2\n        /* \"#utility.yul\":23240:23264   */\n      tag_303\n      jump\t// in\n    tag_517:\n        /* \"#utility.yul\":23233:23238   */\n      dup2\n        /* \"#utility.yul\":23230:23265   */\n      eq\n        /* \"#utility.yul\":23220:23283   */\n      tag_518\n      jumpi\n        /* \"#utility.yul\":23279:23280   */\n      0x00\n        /* \"#utility.yul\":23276:23277   */\n      dup1\n        /* \"#utility.yul\":23269:23281   */\n      revert\n        /* \"#utility.yul\":23220:23283   */\n    tag_518:\n        /* \"#utility.yul\":23167:23289   */\n      pop\n      jump\t// out\n        /* \"#utility.yul\":23295:23417   */\n    tag_262:\n        /* \"#utility.yul\":23368:23392   */\n      tag_520\n        /* \"#utility.yul\":23386:23391   */\n      dup2\n        /* \"#utility.yul\":23368:23392   */\n      tag_316\n      jump\t// in\n    tag_520:\n        /* \"#utility.yul\":23361:23366   */\n      dup2\n        /* \"#utility.yul\":23358:23393   */\n      eq\n        /* \"#utility.yul\":23348:23411   */\n      tag_521\n      jumpi\n        /* \"#utility.yul\":23407:23408   */\n      0x00\n        /* \"#utility.yul\":23404:23405   */\n      dup1\n        /* \"#utility.yul\":23397:23409   */\n      revert\n        /* \"#utility.yul\":23348:23411   */\n    tag_521:\n        /* \"#utility.yul\":23295:23417   */\n      pop\n      jump\t// out\n        /* \"#utility.yul\":23423:23545   */\n    tag_272:\n        /* \"#utility.yul\":23496:23520   */\n      tag_523\n        /* \"#utility.yul\":23514:23519   */\n      dup2\n        /* \"#utility.yul\":23496:23520   */\n      tag_394\n      jump\t// in\n    tag_523:\n        /* \"#utility.yul\":23489:23494   */\n      dup2\n        /* \"#utility.yul\":23486:23521   */\n      eq\n        /* \"#utility.yul\":23476:23539   */\n      tag_524\n      jumpi\n        /* \"#utility.yul\":23535:23536   */\n      0x00\n        /* \"#utility.yul\":23532:23533   */\n      dup1\n        /* \"#utility.yul\":23525:23537   */\n      revert\n        /* \"#utility.yul\":23476:23539   */\n    tag_524:\n        /* \"#utility.yul\":23423:23545   */\n      pop\n      jump\t// out\n\n    auxdata: 0xa2646970667358221220e216b445a582e09254f7832ded5db5cb1c8ba2284851fd846da5512ba40b4e4964736f6c63430008070033\n}\n",
				"bytecode": {
					"linkReferences": {},
					"object": "60806040523480156200001157600080fd5b5060405162002ccb38038062002ccb83398181016040528101906200003791906200034f565b60008351118015620000495750600082115b801562000057575082518211155b62000099576040517f08c379a00000000000000000000000000000000000000000000000000000000081526004016200009090620003f1565b60405180910390fd5b336000806101000a81548173ffffffffffffffffffffffffffffffffffffffff021916908373ffffffffffffffffffffffffffffffffffffffff16021790555060005b835181101562000221576000848281518110620000fe57620000fd6200056d565b5b602002602001015190506001819080600181540180825580915050600190039060005260206000200160009091909190916101000a81548173ffffffffffffffffffffffffffffffffffffffff021916908373ffffffffffffffffffffffffffffffffffffffff1602179055506001600360008373ffffffffffffffffffffffffffffffffffffffff1673ffffffffffffffffffffffffffffffffffffffff16815260200190815260200160002060006101000a81548160ff021916908315150217905550600115158173ffffffffffffffffffffffffffffffffffffffff167fc648f6265408cc54c0dc26d24ba51dfc9f35ce1a63baa2228f65d93aaf11cc6760405160405180910390a35080806200021890620004f0565b915050620000dc565b508160028190555080600760006101000a81548173ffffffffffffffffffffffffffffffffffffffff021916908373ffffffffffffffffffffffffffffffffffffffff1602179055505050506200064d565b60006200028a62000284846200043c565b62000413565b90508083825260208201905082856020860282011115620002b057620002af620005d0565b5b60005b85811015620002e45781620002c98882620002ee565b845260208401935060208301925050600181019050620002b3565b5050509392505050565b600081519050620002ff8162000619565b92915050565b600082601f8301126200031d576200031c620005cb565b5b81516200032f84826020860162000273565b91505092915050565b600081519050620003498162000633565b92915050565b6000806000606084860312156200036b576200036a620005da565b5b600084015167ffffffffffffffff8111156200038c576200038b620005d5565b5b6200039a8682870162000305565b9350506020620003ad8682870162000338565b9250506040620003c086828701620002ee565b9150509250925092565b6000620003d9600d836200046b565b9150620003e682620005f0565b602082019050919050565b600060208201905081810360008301526200040c81620003ca565b9050919050565b60006200041f62000432565b90506200042d8282620004ba565b919050565b6000604051905090565b600067ffffffffffffffff8211156200045a57620004596200059c565b5b602082029050602081019050919050565b600082825260208201905092915050565b6000620004898262000490565b9050919050565b600073ffffffffffffffffffffffffffffffffffffffff82169050919050565b6000819050919050565b620004c582620005df565b810181811067ffffffffffffffff82111715620004e757620004e66200059c565b5b80604052505050565b6000620004fd82620004b0565b91507fffffffffffffffffffffffffffffffffffffffffffffffffffffffffffffffff8214156200053357620005326200053e565b5b600182019050919050565b7f4e487b7100000000000000000000000000000000000000000000000000000000600052601160045260246000fd5b7f4e487b7100000000000000000000000000000000000000000000000000000000600052603260045260246000fd5b7f4e487b7100000000000000000000000000000000000000000000000000000000600052604160045260246000fd5b600080fd5b600080fd5b600080fd5b600080fd5b6000601f19601f8301169050919050565b7f496e76616c696420696e70757400000000000000000000000000000000000000600082015250565b62000624816200047c565b81146200063057600080fd5b50565b6200063e81620004b0565b81146200064a57600080fd5b50565b61266e806200065d6000396000f3fe608060405234801561001057600080fd5b50600436106100f55760003560e01c80637df73e27116100975780638f671849116100665780638f6718491461029b578063a9496e75146102b7578063c69ed5f2146102e7578063eb12d61e14610303576100f5565b80637df73e27146102135780638d068043146102435780638da5cb5b146102615780638f4fde9f1461027f576100f5565b806324f6c776116100d357806324f6c77614610176578063642f2eaf146101a657806370ba3339146101d9578063710eb26c146101f5576100f5565b806304ef5b21146100fa5780630e316ab71461012a5780632079fb9a14610146575b600080fd5b610114600480360381019061010f9190611b3e565b61031f565b6040516101219190611edc565b60405180910390f35b610144600480360381019061013f9190611a35565b610343565b005b610160600480360381019061015b9190611b3e565b6106d4565b60405161016d9190611e5a565b60405180910390f35b610190600480360381019061018b9190611afe565b610713565b60405161019d9190611ec1565b60405180910390f35b6101c060048036038101906101bb9190611ad1565b610742565b6040516101d09493929190611e75565b60405180910390f35b6101f360048036038101906101ee9190611ad1565b610827565b005b6101fd610bea565b60405161020a9190611e5a565b60405180910390f35b61022d60048036038101906102289190611a35565b610c10565b60405161023a9190611ec1565b60405180910390f35b61024b610c30565b6040516102589190612017565b60405180910390f35b610269610c36565b6040516102769190611e5a565b60405180910390f35b61029960048036038101906102949190611ad1565b610c5a565b005b6102b560048036038101906102b09190611a35565b610f2a565b005b6102d160048036038101906102cc9190611a62565b611077565b6040516102de9190611edc565b60405180910390f35b61030160048036038101906102fc9190611ad1565b611299565b005b61031d60048036038101906103189190611a35565b611683565b005b6006818154811061032f57600080fd5b906000526020600020016000915090505481565b60008054906101000a900473ffffffffffffffffffffffffffffffffffffffff1673ffffffffffffffffffffffffffffffffffffffff163373ffffffffffffffffffffffffffffffffffffffff16146103d1576040517f08c379a00000000000000000000000000000000000000000000000000000000081526004016103c890611f17565b60405180910390fd5b600360008273ffffffffffffffffffffffffffffffffffffffff1673ffffffffffffffffffffffffffffffffffffffff16815260200190815260200160002060009054906101000a900460ff1661045d576040517f08c379a000000000000000000000000000000000000000000000000000000000815260040161045490611fd7565b60405180910390fd5b600254600180549050116104a6576040517f08c379a000000000000000000000000000000000000000000000000000000000815260040161049d90611ff7565b60405180910390fd5b60005b6001805490508110156106d0578173ffffffffffffffffffffffffffffffffffffffff16600182815481106104e1576104e0612334565b5b9060005260206000200160009054906101000a900473ffffffffffffffffffffffffffffffffffffffff1673ffffffffffffffffffffffffffffffffffffffff1614156106bd57600180808054905061053a9190612105565b8154811061054b5761054a612334565b5b9060005260206000200160009054906101000a900473ffffffffffffffffffffffffffffffffffffffff166001828154811061058a57610589612334565b5b9060005260206000200160006101000a81548173ffffffffffffffffffffffffffffffffffffffff021916908373ffffffffffffffffffffffffffffffffffffffff16021790555060018054806105e4576105e3612305565b5b6001900381819060005260206000200160006101000a81549073ffffffffffffffffffffffffffffffffffffffff021916905590556000600360008473ffffffffffffffffffffffffffffffffffffffff1673ffffffffffffffffffffffffffffffffffffffff16815260200190815260200160002060006101000a81548160ff021916908315150217905550600015158273ffffffffffffffffffffffffffffffffffffffff167fc648f6265408cc54c0dc26d24ba51dfc9f35ce1a63baa2228f65d93aaf11cc6760405160405180910390a36106d0565b80806106c890612230565b9150506104a9565b5050565b600181815481106106e457600080fd5b906000526020600020016000915054906101000a900473ffffffffffffffffffffffffffffffffffffffff1681565b60056020528160005260406000206020528060005260406000206000915091509054906101000a900460ff1681565b60046020528060005260406000206000915090508060000160009054906101000a900473ffffffffffffffffffffffffffffffffffffffff1690806001015490806002018054610791906121cd565b80601f01602080910402602001604051908101604052809291908181526020018280546107bd906121cd565b801561080a5780601f106107df5761010080835404028352916020019161080a565b820191906000526020600020905b8154815290600101906020018083116107ed57829003601f168201915b5050505050908060030160009054906101000a900460ff16905084565b600360003373ffffffffffffffffffffffffffffffffffffffff1673ffffffffffffffffffffffffffffffffffffffff16815260200190815260200160002060009054906101000a900460ff166108b3576040517f08c379a00000000000000000000000000000000000000000000000000000000081526004016108aa90611ef7565b60405180910390fd5b600073ffffffffffffffffffffffffffffffffffffffff166004600083815260200190815260200160002060000160009054906101000a900473ffffffffffffffffffffffffffffffffffffffff1673ffffffffffffffffffffffffffffffffffffffff161415610959576040517f08c379a000000000000000000000000000000000000000000000000000000000815260040161095090611f97565b60405180910390fd5b6004600082815260200190815260200160002060030160009054906101000a900460ff16156109bd576040517f08c379a00000000000000000000000000000000000000000000000000000000081526004016109b490611fb7565b60405180910390fd5b60005b600680549050811015610aee5781600682815481106109e2576109e1612334565b5b90600052602060002001541415610adb5760066001600680549050610a079190612105565b81548110610a1857610a17612334565b5b906000526020600020015460068281548110610a3757610a36612334565b5b90600052602060002001819055506006805480610a5757610a56612305565b5b6001900381819060005260206000200160009055905560046000838152602001908152602001600020600080820160006101000a81549073ffffffffffffffffffffffffffffffffffffffff02191690556001820160009055600282016000610ac091906118a3565b6003820160006101000a81549060ff02191690555050610aee565b8080610ae690612230565b9150506109c0565b5060005b600180549050811015610bb957600060056000848152602001908152602001600020600060018481548110610b2a57610b29612334565b5b9060005260206000200160009054906101000a900473ffffffffffffffffffffffffffffffffffffffff1673ffffffffffffffffffffffffffffffffffffffff1673ffffffffffffffffffffffffffffffffffffffff16815260200190815260200160002060006101000a81548160ff0219169083151502179055508080610bb190612230565b915050610af2565b50807fbca2885d81f38744d778177014656fadaf8db5de172de50e21d4ca0e1b84499560405160405180910390a250565b600760009054906101000a900473ffffffffffffffffffffffffffffffffffffffff1681565b60036020528060005260406000206000915054906101000a900460ff1681565b60025481565b60008054906101000a900473ffffffffffffffffffffffffffffffffffffffff1681565b600360003373ffffffffffffffffffffffffffffffffffffffff1673ffffffffffffffffffffffffffffffffffffffff16815260200190815260200160002060009054906101000a900460ff16610ce6576040517f08c379a0000000000000000000000000000000000000000000000000000000008152600401610cdd90611ef7565b60405180910390fd5b600073ffffffffffffffffffffffffffffffffffffffff166004600083815260200190815260200160002060000160009054906101000a900473ffffffffffffffffffffffffffffffffffffffff1673ffffffffffffffffffffffffffffffffffffffff161415610d8c576040517f08c379a0000000000000000000000000000000000000000000000000000000008152600401610d8390611f97565b60405180910390fd5b60016005600083815260200190815260200160002060003373ffffffffffffffffffffffffffffffffffffffff1673ffffffffffffffffffffffffffffffffffffffff16815260200190815260200160002060006101000a81548160ff0219169083151502179055503373ffffffffffffffffffffffffffffffffffffffff16817fec6590fa5d86db2e9b3ced5caae4916c2547c5a4bef3cb4bdf11f1d1995a8ee460405160405180910390a36000805b600180549050811015610f255760056000848152602001908152602001600020600060018381548110610e7357610e72612334565b5b9060005260206000200160009054906101000a900473ffffffffffffffffffffffffffffffffffffffff1673ffffffffffffffffffffffffffffffffffffffff1673ffffffffffffffffffffffffffffffffffffffff16815260200190815260200160002060009054906101000a900460ff1615610efa578180610ef690612230565b9250505b600254821415610f1257610f0d83611299565b610f25565b8080610f1d90612230565b915050610e3d565b505050565b600760009054906101000a900473ffffffffffffffffffffffffffffffffffffffff1673ffffffffffffffffffffffffffffffffffffffff163373ffffffffffffffffffffffffffffffffffffffff1614610fba576040517f08c379a0000000000000000000000000000000000000000000000000000000008152600401610fb190611f77565b60405180910390fd5b8073ffffffffffffffffffffffffffffffffffffffff1660008054906101000a900473ffffffffffffffffffffffffffffffffffffffff1673ffffffffffffffffffffffffffffffffffffffff167f8be0079c531659141344cd1fd0a4f28419497f9722a3daafe3b4186f6b6457e060405160405180910390a3806000806101000a81548173ffffffffffffffffffffffffffffffffffffffff021916908373ffffffffffffffffffffffffffffffffffffffff16021790555050565b6000600360003373ffffffffffffffffffffffffffffffffffffffff1673ffffffffffffffffffffffffffffffffffffffff16815260200190815260200160002060009054906101000a900460ff16611105576040517f08c379a00000000000000000000000000000000000000000000000000000000081526004016110fc90611ef7565b60405180910390fd5b60008484844260405160200161111e9493929190611df9565b60405160208183030381529060405280519060200120905060405180608001604052808673ffffffffffffffffffffffffffffffffffffffff168152602001858152602001848152602001600015158152506004600083815260200190815260200160002060008201518160000160006101000a81548173ffffffffffffffffffffffffffffffffffffffff021916908373ffffffffffffffffffffffffffffffffffffffff1602179055506020820151816001015560408201518160020190805190602001906111f09291906118e3565b5060608201518160030160006101000a81548160ff02191690831515021790555090505060068190806001815401808255809150506001900390600052602060002001600090919091909150558473ffffffffffffffffffffffffffffffffffffffff16817fa9ae4899c6660aed54dd2cfe0668075633cc1f864b27d69284536bf59bae230c8686604051611286929190612032565b60405180910390a3809150509392505050565b600360003373ffffffffffffffffffffffffffffffffffffffff1673ffffffffffffffffffffffffffffffffffffffff16815260200190815260200160002060009054906101000a900460ff16611325576040517f08c379a000000000000000000000000000000000000000000000000000000000815260040161131c90611ef7565b60405180910390fd5b600073ffffffffffffffffffffffffffffffffffffffff166004600083815260200190815260200160002060000160009054906101000a900473ffffffffffffffffffffffffffffffffffffffff1673ffffffffffffffffffffffffffffffffffffffff1614156113cb576040517f08c379a00000000000000000000000000000000000000000000000000000000081526004016113c290611f97565b60405180910390fd5b6004600082815260200190815260200160002060030160009054906101000a900460ff161561142f576040517f08c379a000000000000000000000000000000000000000000000000000000000815260040161142690611fb7565b60405180910390fd5b6000805b60018054905081101561167e576005600084815260200190815260200160002060006001838154811061146957611468612334565b5b9060005260206000200160009054906101000a900473ffffffffffffffffffffffffffffffffffffffff1673ffffffffffffffffffffffffffffffffffffffff1673ffffffffffffffffffffffffffffffffffffffff16815260200190815260200160002060009054906101000a900460ff16156114f05781806114ec90612230565b9250505b60025482141561166b5760016004600085815260200190815260200160002060030160006101000a81548160ff02191690831515021790555060006004600085815260200190815260200160002060000160009054906101000a900473ffffffffffffffffffffffffffffffffffffffff1673ffffffffffffffffffffffffffffffffffffffff166004600086815260200190815260200160002060010154600460008781526020019081526020016000206002016040516115b29190611e43565b60006040518083038185875af1925050503d80600081146115ef576040519150601f19603f3d011682016040523d82523d6000602084013e6115f4565b606091505b5050905080611638576040517f08c379a000000000000000000000000000000000000000000000000000000000815260040161162f90611f57565b60405180910390fd5b837f7e9e1cb65db4927b1815f498cbaa226a15c277816f7df407573682110522c9b160405160405180910390a25061167e565b808061167690612230565b915050611433565b505050565b60008054906101000a900473ffffffffffffffffffffffffffffffffffffffff1673ffffffffffffffffffffffffffffffffffffffff163373ffffffffffffffffffffffffffffffffffffffff1614611711576040517f08c379a000000000000000000000000000000000000000000000000000000000815260040161170890611f17565b60405180910390fd5b600360008273ffffffffffffffffffffffffffffffffffffffff1673ffffffffffffffffffffffffffffffffffffffff16815260200190815260200160002060009054906101000a900460ff161561179e576040517f08c379a000000000000000000000000000000000000000000000000000000000815260040161179590611f37565b60405180910390fd5b6001819080600181540180825580915050600190039060005260206000200160009091909190916101000a81548173ffffffffffffffffffffffffffffffffffffffff021916908373ffffffffffffffffffffffffffffffffffffffff1602179055506001600360008373ffffffffffffffffffffffffffffffffffffffff1673ffffffffffffffffffffffffffffffffffffffff16815260200190815260200160002060006101000a81548160ff021916908315150217905550600115158173ffffffffffffffffffffffffffffffffffffffff167fc648f6265408cc54c0dc26d24ba51dfc9f35ce1a63baa2228f65d93aaf11cc6760405160405180910390a350565b5080546118af906121cd565b6000825580601f106118c157506118e0565b601f0160209004906000526020600020908101906118df9190611969565b5b50565b8280546118ef906121cd565b90600052602060002090601f0160209004810192826119115760008555611958565b82601f1061192a57805160ff1916838001178555611958565b82800160010185558215611958579182015b8281111561195757825182559160200191906001019061193c565b5b5090506119659190611969565b5090565b5b8082111561198257600081600090555060010161196a565b5090565b600061199961199484612087565b612062565b9050828152602081018484840111156119b5576119b4612397565b5b6119c084828561218b565b509392505050565b6000813590506119d7816125f3565b92915050565b6000813590506119ec8161260a565b92915050565b600082601f830112611a0757611a06612392565b5b8135611a17848260208601611986565b91505092915050565b600081359050611a2f81612621565b92915050565b600060208284031215611a4b57611a4a6123a1565b5b6000611a59848285016119c8565b91505092915050565b600080600060608486031215611a7b57611a7a6123a1565b5b6000611a89868287016119c8565b9350506020611a9a86828701611a20565b925050604084013567ffffffffffffffff811115611abb57611aba61239c565b5b611ac7868287016119f2565b9150509250925092565b600060208284031215611ae757611ae66123a1565b5b6000611af5848285016119dd565b91505092915050565b60008060408385031215611b1557611b146123a1565b5b6000611b23858286016119dd565b9250506020611b34858286016119c8565b9150509250929050565b600060208284031215611b5457611b536123a1565b5b6000611b6284828501611a20565b91505092915050565b611b7481612139565b82525050565b611b8b611b8682612139565b612279565b82525050565b611b9a8161214b565b82525050565b611ba981612157565b82525050565b6000611bba826120cd565b611bc481856120d8565b9350611bd481856020860161219a565b611bdd816123a6565b840191505092915050565b6000611bf3826120cd565b611bfd81856120e9565b9350611c0d81856020860161219a565b80840191505092915050565b60008154611c26816121cd565b611c3081866120e9565b94506001821660008114611c4b5760018114611c5c57611c8f565b60ff19831686528186019350611c8f565b611c65856120b8565b60005b83811015611c8757815481890152600182019150602081019050611c68565b838801955050505b50505092915050565b6000611ca56024836120f4565b9150611cb0826123c4565b604082019050919050565b6000611cc86026836120f4565b9150611cd382612413565b604082019050919050565b6000611ceb601b836120f4565b9150611cf682612462565b602082019050919050565b6000611d0e601c836120f4565b9150611d198261248b565b602082019050919050565b6000611d316030836120f4565b9150611d3c826124b4565b604082019050919050565b6000611d54601a836120f4565b9150611d5f82612503565b602082019050919050565b6000611d776025836120f4565b9150611d828261252c565b604082019050919050565b6000611d9a6017836120f4565b9150611da58261257b565b602082019050919050565b6000611dbd603e836120f4565b9150611dc8826125a4565b604082019050919050565b611ddc81612181565b82525050565b611df3611dee82612181565b61229d565b82525050565b6000611e058287611b7a565b601482019150611e158286611de2565b602082019150611e258285611be8565b9150611e318284611de2565b60208201915081905095945050505050565b6000611e4f8284611c19565b915081905092915050565b6000602082019050611e6f6000830184611b6b565b92915050565b6000608082019050611e8a6000830187611b6b565b611e976020830186611dd3565b8181036040830152611ea98185611baf565b9050611eb86060830184611b91565b95945050505050565b6000602082019050611ed66000830184611b91565b92915050565b6000602082019050611ef16000830184611ba0565b92915050565b60006020820190508181036000830152611f1081611c98565b9050919050565b60006020820190508181036000830152611f3081611cbb565b9050919050565b60006020820190508181036000830152611f5081611cde565b9050919050565b60006020820190508181036000830152611f7081611d01565b9050919050565b60006020820190508181036000830152611f9081611d24565b9050919050565b60006020820190508181036000830152611fb081611d47565b9050919050565b60006020820190508181036000830152611fd081611d6a565b9050919050565b60006020820190508181036000830152611ff081611d8d565b9050919050565b6000602082019050818103600083015261201081611db0565b9050919050565b600060208201905061202c6000830184611dd3565b92915050565b60006040820190506120476000830185611dd3565b81810360208301526120598184611baf565b90509392505050565b600061206c61207d565b905061207882826121ff565b919050565b6000604051905090565b600067ffffffffffffffff8211156120a2576120a1612363565b5b6120ab826123a6565b9050602081019050919050565b60008190508160005260206000209050919050565b600081519050919050565b600082825260208201905092915050565b600081905092915050565b600082825260208201905092915050565b600061211082612181565b915061211b83612181565b92508282101561212e5761212d6122a7565b5b828203905092915050565b600061214482612161565b9050919050565b60008115159050919050565b6000819050919050565b600073ffffffffffffffffffffffffffffffffffffffff82169050919050565b6000819050919050565b82818337600083830152505050565b60005b838110156121b857808201518184015260208101905061219d565b838111156121c7576000848401525b50505050565b600060028204905060018216806121e557607f821691505b602082108114156121f9576121f86122d6565b5b50919050565b612208826123a6565b810181811067ffffffffffffffff8211171561222757612226612363565b5b80604052505050565b600061223b82612181565b91507fffffffffffffffffffffffffffffffffffffffffffffffffffffffffffffffff82141561226e5761226d6122a7565b5b600182019050919050565b60006122848261228b565b9050919050565b6000612296826123b7565b9050919050565b6000819050919050565b7f4e487b7100000000000000000000000000000000000000000000000000000000600052601160045260246000fd5b7f4e487b7100000000000000000000000000000000000000000000000000000000600052602260045260246000fd5b7f4e487b7100000000000000000000000000000000000000000000000000000000600052603160045260246000fd5b7f4e487b7100000000000000000000000000000000000000000000000000000000600052603260045260246000fd5b7f4e487b7100000000000000000000000000000000000000000000000000000000600052604160045260246000fd5b600080fd5b600080fd5b600080fd5b600080fd5b6000601f19601f8301169050919050565b60008160601b9050919050565b7f4f6e6c79207369676e6572732063616e20706572666f726d207468697320616360008201527f74696f6e00000000000000000000000000000000000000000000000000000000602082015250565b7f4f6e6c7920746865206f776e65722063616e20706572666f726d20746869732060008201527f616374696f6e0000000000000000000000000000000000000000000000000000602082015250565b7f4164647265737320697320616c72656164792061207369676e65720000000000600082015250565b7f5472616e73616374696f6e20657865637574696f6e206661696c656400000000600082015250565b7f4f6e6c7920746865207265636f7665727920616464726573732063616e20636160008201527f6c6c20746869732066756e6374696f6e00000000000000000000000000000000602082015250565b7f5472616e73616374696f6e20646f6573206e6f74206578697374000000000000600082015250565b7f5472616e73616374696f6e2068617320616c7265616479206265656e2065786560008201527f6375746564000000000000000000000000000000000000000000000000000000602082015250565b7f41646472657373206973206e6f742061207369676e6572000000000000000000600082015250565b7f43616e6e6f742072656d6f7665207369676e65722c206d696e696d756d20726560008201527f717569726564207369676e6572732077696c6c206e6f74206265206d65740000602082015250565b6125fc81612139565b811461260757600080fd5b50565b61261381612157565b811461261e57600080fd5b50565b61262a81612181565b811461263557600080fd5b5056fea2646970667358221220e216b445a582e09254f7832ded5db5cb1c8ba2284851fd846da5512ba40b4e4964736f6c63430008070033",
					"opcodes": "PUSH1 0x80 PUSH1 0x40 MSTORE CALLVALUE DUP1 ISZERO PUSH3 0x11 JUMPI PUSH1 0x0 DUP1 REVERT JUMPDEST POP PUSH1 0x40 MLOAD PUSH3 0x2CCB CODESIZE SUB DUP1 PUSH3 0x2CCB DUP4 CODECOPY DUP2 DUP2 ADD PUSH1 0x40 MSTORE DUP2 ADD SWAP1 PUSH3 0x37 SWAP2 SWAP1 PUSH3 0x34F JUMP JUMPDEST PUSH1 0x0 DUP4 MLOAD GT DUP1 ISZERO PUSH3 0x49 JUMPI POP PUSH1 0x0 DUP3 GT JUMPDEST DUP1 ISZERO PUSH3 0x57 JUMPI POP DUP3 MLOAD DUP3 GT ISZERO JUMPDEST PUSH3 0x99 JUMPI PUSH1 0x40 MLOAD PUSH32 0x8C379A000000000000000000000000000000000000000000000000000000000 DUP2 MSTORE PUSH1 0x4 ADD PUSH3 0x90 SWAP1 PUSH3 0x3F1 JUMP JUMPDEST PUSH1 0x40 MLOAD DUP1 SWAP2 SUB SWAP1 REVERT JUMPDEST CALLER PUSH1 0x0 DUP1 PUSH2 0x100 EXP DUP2 SLOAD DUP2 PUSH20 0xFFFFFFFFFFFFFFFFFFFFFFFFFFFFFFFFFFFFFFFF MUL NOT AND SWAP1 DUP4 PUSH20 0xFFFFFFFFFFFFFFFFFFFFFFFFFFFFFFFFFFFFFFFF AND MUL OR SWAP1 SSTORE POP PUSH1 0x0 JUMPDEST DUP4 MLOAD DUP2 LT ISZERO PUSH3 0x221 JUMPI PUSH1 0x0 DUP5 DUP3 DUP2 MLOAD DUP2 LT PUSH3 0xFE JUMPI PUSH3 0xFD PUSH3 0x56D JUMP JUMPDEST JUMPDEST PUSH1 0x20 MUL PUSH1 0x20 ADD ADD MLOAD SWAP1 POP PUSH1 0x1 DUP2 SWAP1 DUP1 PUSH1 0x1 DUP2 SLOAD ADD DUP1 DUP3 SSTORE DUP1 SWAP2 POP POP PUSH1 0x1 SWAP1 SUB SWAP1 PUSH1 0x0 MSTORE PUSH1 0x20 PUSH1 0x0 KECCAK256 ADD PUSH1 0x0 SWAP1 SWAP2 SWAP1 SWAP2 SWAP1 SWAP2 PUSH2 0x100 EXP DUP2 SLOAD DUP2 PUSH20 0xFFFFFFFFFFFFFFFFFFFFFFFFFFFFFFFFFFFFFFFF MUL NOT AND SWAP1 DUP4 PUSH20 0xFFFFFFFFFFFFFFFFFFFFFFFFFFFFFFFFFFFFFFFF AND MUL OR SWAP1 SSTORE POP PUSH1 0x1 PUSH1 0x3 PUSH1 0x0 DUP4 PUSH20 0xFFFFFFFFFFFFFFFFFFFFFFFFFFFFFFFFFFFFFFFF AND PUSH20 0xFFFFFFFFFFFFFFFFFFFFFFFFFFFFFFFFFFFFFFFF AND DUP2 MSTORE PUSH1 0x20 ADD SWAP1 DUP2 MSTORE PUSH1 0x20 ADD PUSH1 0x0 KECCAK256 PUSH1 0x0 PUSH2 0x100 EXP DUP2 SLOAD DUP2 PUSH1 0xFF MUL NOT AND SWAP1 DUP4 ISZERO ISZERO MUL OR SWAP1 SSTORE POP PUSH1 0x1 ISZERO ISZERO DUP2 PUSH20 0xFFFFFFFFFFFFFFFFFFFFFFFFFFFFFFFFFFFFFFFF AND PUSH32 0xC648F6265408CC54C0DC26D24BA51DFC9F35CE1A63BAA2228F65D93AAF11CC67 PUSH1 0x40 MLOAD PUSH1 0x40 MLOAD DUP1 SWAP2 SUB SWAP1 LOG3 POP DUP1 DUP1 PUSH3 0x218 SWAP1 PUSH3 0x4F0 JUMP JUMPDEST SWAP2 POP POP PUSH3 0xDC JUMP JUMPDEST POP DUP2 PUSH1 0x2 DUP2 SWAP1 SSTORE POP DUP1 PUSH1 0x7 PUSH1 0x0 PUSH2 0x100 EXP DUP2 SLOAD DUP2 PUSH20 0xFFFFFFFFFFFFFFFFFFFFFFFFFFFFFFFFFFFFFFFF MUL NOT AND SWAP1 DUP4 PUSH20 0xFFFFFFFFFFFFFFFFFFFFFFFFFFFFFFFFFFFFFFFF AND MUL OR SWAP1 SSTORE POP POP POP POP PUSH3 0x64D JUMP JUMPDEST PUSH1 0x0 PUSH3 0x28A PUSH3 0x284 DUP5 PUSH3 0x43C JUMP JUMPDEST PUSH3 0x413 JUMP JUMPDEST SWAP1 POP DUP1 DUP4 DUP3 MSTORE PUSH1 0x20 DUP3 ADD SWAP1 POP DUP3 DUP6 PUSH1 0x20 DUP7 MUL DUP3 ADD GT ISZERO PUSH3 0x2B0 JUMPI PUSH3 0x2AF PUSH3 0x5D0 JUMP JUMPDEST JUMPDEST PUSH1 0x0 JUMPDEST DUP6 DUP2 LT ISZERO PUSH3 0x2E4 JUMPI DUP2 PUSH3 0x2C9 DUP9 DUP3 PUSH3 0x2EE JUMP JUMPDEST DUP5 MSTORE PUSH1 0x20 DUP5 ADD SWAP4 POP PUSH1 0x20 DUP4 ADD SWAP3 POP POP PUSH1 0x1 DUP2 ADD SWAP1 POP PUSH3 0x2B3 JUMP JUMPDEST POP POP POP SWAP4 SWAP3 POP POP POP JUMP JUMPDEST PUSH1 0x0 DUP2 MLOAD SWAP1 POP PUSH3 0x2FF DUP2 PUSH3 0x619 JUMP JUMPDEST SWAP3 SWAP2 POP POP JUMP JUMPDEST PUSH1 0x0 DUP3 PUSH1 0x1F DUP4 ADD SLT PUSH3 0x31D JUMPI PUSH3 0x31C PUSH3 0x5CB JUMP JUMPDEST JUMPDEST DUP2 MLOAD PUSH3 0x32F DUP5 DUP3 PUSH1 0x20 DUP7 ADD PUSH3 0x273 JUMP JUMPDEST SWAP2 POP POP SWAP3 SWAP2 POP POP JUMP JUMPDEST PUSH1 0x0 DUP2 MLOAD SWAP1 POP PUSH3 0x349 DUP2 PUSH3 0x633 JUMP JUMPDEST SWAP3 SWAP2 POP POP JUMP JUMPDEST PUSH1 0x0 DUP1 PUSH1 0x0 PUSH1 0x60 DUP5 DUP7 SUB SLT ISZERO PUSH3 0x36B JUMPI PUSH3 0x36A PUSH3 0x5DA JUMP JUMPDEST JUMPDEST PUSH1 0x0 DUP5 ADD MLOAD PUSH8 0xFFFFFFFFFFFFFFFF DUP2 GT ISZERO PUSH3 0x38C JUMPI PUSH3 0x38B PUSH3 0x5D5 JUMP JUMPDEST JUMPDEST PUSH3 0x39A DUP7 DUP3 DUP8 ADD PUSH3 0x305 JUMP JUMPDEST SWAP4 POP POP PUSH1 0x20 PUSH3 0x3AD DUP7 DUP3 DUP8 ADD PUSH3 0x338 JUMP JUMPDEST SWAP3 POP POP PUSH1 0x40 PUSH3 0x3C0 DUP7 DUP3 DUP8 ADD PUSH3 0x2EE JUMP JUMPDEST SWAP2 POP POP SWAP3 POP SWAP3 POP SWAP3 JUMP JUMPDEST PUSH1 0x0 PUSH3 0x3D9 PUSH1 0xD DUP4 PUSH3 0x46B JUMP JUMPDEST SWAP2 POP PUSH3 0x3E6 DUP3 PUSH3 0x5F0 JUMP JUMPDEST PUSH1 0x20 DUP3 ADD SWAP1 POP SWAP2 SWAP1 POP JUMP JUMPDEST PUSH1 0x0 PUSH1 0x20 DUP3 ADD SWAP1 POP DUP2 DUP2 SUB PUSH1 0x0 DUP4 ADD MSTORE PUSH3 0x40C DUP2 PUSH3 0x3CA JUMP JUMPDEST SWAP1 POP SWAP2 SWAP1 POP JUMP JUMPDEST PUSH1 0x0 PUSH3 0x41F PUSH3 0x432 JUMP JUMPDEST SWAP1 POP PUSH3 0x42D DUP3 DUP3 PUSH3 0x4BA JUMP JUMPDEST SWAP2 SWAP1 POP JUMP JUMPDEST PUSH1 0x0 PUSH1 0x40 MLOAD SWAP1 POP SWAP1 JUMP JUMPDEST PUSH1 0x0 PUSH8 0xFFFFFFFFFFFFFFFF DUP3 GT ISZERO PUSH3 0x45A JUMPI PUSH3 0x459 PUSH3 0x59C JUMP JUMPDEST JUMPDEST PUSH1 0x20 DUP3 MUL SWAP1 POP PUSH1 0x20 DUP2 ADD SWAP1 POP SWAP2 SWAP1 POP JUMP JUMPDEST PUSH1 0x0 DUP3 DUP3 MSTORE PUSH1 0x20 DUP3 ADD SWAP1 POP SWAP3 SWAP2 POP POP JUMP JUMPDEST PUSH1 0x0 PUSH3 0x489 DUP3 PUSH3 0x490 JUMP JUMPDEST SWAP1 POP SWAP2 SWAP1 POP JUMP JUMPDEST PUSH1 0x0 PUSH20 0xFFFFFFFFFFFFFFFFFFFFFFFFFFFFFFFFFFFFFFFF DUP3 AND SWAP1 POP SWAP2 SWAP1 POP JUMP JUMPDEST PUSH1 0x0 DUP2 SWAP1 POP SWAP2 SWAP1 POP JUMP JUMPDEST PUSH3 0x4C5 DUP3 PUSH3 0x5DF JUMP JUMPDEST DUP2 ADD DUP2 DUP2 LT PUSH8 0xFFFFFFFFFFFFFFFF DUP3 GT OR ISZERO PUSH3 0x4E7 JUMPI PUSH3 0x4E6 PUSH3 0x59C JUMP JUMPDEST JUMPDEST DUP1 PUSH1 0x40 MSTORE POP POP POP JUMP JUMPDEST PUSH1 0x0 PUSH3 0x4FD DUP3 PUSH3 0x4B0 JUMP JUMPDEST SWAP2 POP PUSH32 0xFFFFFFFFFFFFFFFFFFFFFFFFFFFFFFFFFFFFFFFFFFFFFFFFFFFFFFFFFFFFFFFF DUP3 EQ ISZERO PUSH3 0x533 JUMPI PUSH3 0x532 PUSH3 0x53E JUMP JUMPDEST JUMPDEST PUSH1 0x1 DUP3 ADD SWAP1 POP SWAP2 SWAP1 POP JUMP JUMPDEST PUSH32 0x4E487B7100000000000000000000000000000000000000000000000000000000 PUSH1 0x0 MSTORE PUSH1 0x11 PUSH1 0x4 MSTORE PUSH1 0x24 PUSH1 0x0 REVERT JUMPDEST PUSH32 0x4E487B7100000000000000000000000000000000000000000000000000000000 PUSH1 0x0 MSTORE PUSH1 0x32 PUSH1 0x4 MSTORE PUSH1 0x24 PUSH1 0x0 REVERT JUMPDEST PUSH32 0x4E487B7100000000000000000000000000000000000000000000000000000000 PUSH1 0x0 MSTORE PUSH1 0x41 PUSH1 0x4 MSTORE PUSH1 0x24 PUSH1 0x0 REVERT JUMPDEST PUSH1 0x0 DUP1 REVERT JUMPDEST PUSH1 0x0 DUP1 REVERT JUMPDEST PUSH1 0x0 DUP1 REVERT JUMPDEST PUSH1 0x0 DUP1 REVERT JUMPDEST PUSH1 0x0 PUSH1 0x1F NOT PUSH1 0x1F DUP4 ADD AND SWAP1 POP SWAP2 SWAP1 POP JUMP JUMPDEST PUSH32 0x496E76616C696420696E70757400000000000000000000000000000000000000 PUSH1 0x0 DUP3 ADD MSTORE POP JUMP JUMPDEST PUSH3 0x624 DUP2 PUSH3 0x47C JUMP JUMPDEST DUP2 EQ PUSH3 0x630 JUMPI PUSH1 0x0 DUP1 REVERT JUMPDEST POP JUMP JUMPDEST PUSH3 0x63E DUP2 PUSH3 0x4B0 JUMP JUMPDEST DUP2 EQ PUSH3 0x64A JUMPI PUSH1 0x0 DUP1 REVERT JUMPDEST POP JUMP JUMPDEST PUSH2 0x266E DUP1 PUSH3 0x65D PUSH1 0x0 CODECOPY PUSH1 0x0 RETURN INVALID PUSH1 0x80 PUSH1 0x40 MSTORE CALLVALUE DUP1 ISZERO PUSH2 0x10 JUMPI PUSH1 0x0 DUP1 REVERT JUMPDEST POP PUSH1 0x4 CALLDATASIZE LT PUSH2 0xF5 JUMPI PUSH1 0x0 CALLDATALOAD PUSH1 0xE0 SHR DUP1 PUSH4 0x7DF73E27 GT PUSH2 0x97 JUMPI DUP1 PUSH4 0x8F671849 GT PUSH2 0x66 JUMPI DUP1 PUSH4 0x8F671849 EQ PUSH2 0x29B JUMPI DUP1 PUSH4 0xA9496E75 EQ PUSH2 0x2B7 JUMPI DUP1 PUSH4 0xC69ED5F2 EQ PUSH2 0x2E7 JUMPI DUP1 PUSH4 0xEB12D61E EQ PUSH2 0x303 JUMPI PUSH2 0xF5 JUMP JUMPDEST DUP1 PUSH4 0x7DF73E27 EQ PUSH2 0x213 JUMPI DUP1 PUSH4 0x8D068043 EQ PUSH2 0x243 JUMPI DUP1 PUSH4 0x8DA5CB5B EQ PUSH2 0x261 JUMPI DUP1 PUSH4 0x8F4FDE9F EQ PUSH2 0x27F JUMPI PUSH2 0xF5 JUMP JUMPDEST DUP1 PUSH4 0x24F6C776 GT PUSH2 0xD3 JUMPI DUP1 PUSH4 0x24F6C776 EQ PUSH2 0x176 JUMPI DUP1 PUSH4 0x642F2EAF EQ PUSH2 0x1A6 JUMPI DUP1 PUSH4 0x70BA3339 EQ PUSH2 0x1D9 JUMPI DUP1 PUSH4 0x710EB26C EQ PUSH2 0x1F5 JUMPI PUSH2 0xF5 JUMP JUMPDEST DUP1 PUSH4 0x4EF5B21 EQ PUSH2 0xFA JUMPI DUP1 PUSH4 0xE316AB7 EQ PUSH2 0x12A JUMPI DUP1 PUSH4 0x2079FB9A EQ PUSH2 0x146 JUMPI JUMPDEST PUSH1 0x0 DUP1 REVERT JUMPDEST PUSH2 0x114 PUSH1 0x4 DUP1 CALLDATASIZE SUB DUP2 ADD SWAP1 PUSH2 0x10F SWAP2 SWAP1 PUSH2 0x1B3E JUMP JUMPDEST PUSH2 0x31F JUMP JUMPDEST PUSH1 0x40 MLOAD PUSH2 0x121 SWAP2 SWAP1 PUSH2 0x1EDC JUMP JUMPDEST PUSH1 0x40 MLOAD DUP1 SWAP2 SUB SWAP1 RETURN JUMPDEST PUSH2 0x144 PUSH1 0x4 DUP1 CALLDATASIZE SUB DUP2 ADD SWAP1 PUSH2 0x13F SWAP2 SWAP1 PUSH2 0x1A35 JUMP JUMPDEST PUSH2 0x343 JUMP JUMPDEST STOP JUMPDEST PUSH2 0x160 PUSH1 0x4 DUP1 CALLDATASIZE SUB DUP2 ADD SWAP1 PUSH2 0x15B SWAP2 SWAP1 PUSH2 0x1B3E JUMP JUMPDEST PUSH2 0x6D4 JUMP JUMPDEST PUSH1 0x40 MLOAD PUSH2 0x16D SWAP2 SWAP1 PUSH2 0x1E5A JUMP JUMPDEST PUSH1 0x40 MLOAD DUP1 SWAP2 SUB SWAP1 RETURN JUMPDEST PUSH2 0x190 PUSH1 0x4 DUP1 CALLDATASIZE SUB DUP2 ADD SWAP1 PUSH2 0x18B SWAP2 SWAP1 PUSH2 0x1AFE JUMP JUMPDEST PUSH2 0x713 JUMP JUMPDEST PUSH1 0x40 MLOAD PUSH2 0x19D SWAP2 SWAP1 PUSH2 0x1EC1 JUMP JUMPDEST PUSH1 0x40 MLOAD DUP1 SWAP2 SUB SWAP1 RETURN JUMPDEST PUSH2 0x1C0 PUSH1 0x4 DUP1 CALLDATASIZE SUB DUP2 ADD SWAP1 PUSH2 0x1BB SWAP2 SWAP1 PUSH2 0x1AD1 JUMP JUMPDEST PUSH2 0x742 JUMP JUMPDEST PUSH1 0x40 MLOAD PUSH2 0x1D0 SWAP5 SWAP4 SWAP3 SWAP2 SWAP1 PUSH2 0x1E75 JUMP JUMPDEST PUSH1 0x40 MLOAD DUP1 SWAP2 SUB SWAP1 RETURN JUMPDEST PUSH2 0x1F3 PUSH1 0x4 DUP1 CALLDATASIZE SUB DUP2 ADD SWAP1 PUSH2 0x1EE SWAP2 SWAP1 PUSH2 0x1AD1 JUMP JUMPDEST PUSH2 0x827 JUMP JUMPDEST STOP JUMPDEST PUSH2 0x1FD PUSH2 0xBEA JUMP JUMPDEST PUSH1 0x40 MLOAD PUSH2 0x20A SWAP2 SWAP1 PUSH2 0x1E5A JUMP JUMPDEST PUSH1 0x40 MLOAD DUP1 SWAP2 SUB SWAP1 RETURN JUMPDEST PUSH2 0x22D PUSH1 0x4 DUP1 CALLDATASIZE SUB DUP2 ADD SWAP1 PUSH2 0x228 SWAP2 SWAP1 PUSH2 0x1A35 JUMP JUMPDEST PUSH2 0xC10 JUMP JUMPDEST PUSH1 0x40 MLOAD PUSH2 0x23A SWAP2 SWAP1 PUSH2 0x1EC1 JUMP JUMPDEST PUSH1 0x40 MLOAD DUP1 SWAP2 SUB SWAP1 RETURN JUMPDEST PUSH2 0x24B PUSH2 0xC30 JUMP JUMPDEST PUSH1 0x40 MLOAD PUSH2 0x258 SWAP2 SWAP1 PUSH2 0x2017 JUMP JUMPDEST PUSH1 0x40 MLOAD DUP1 SWAP2 SUB SWAP1 RETURN JUMPDEST PUSH2 0x269 PUSH2 0xC36 JUMP JUMPDEST PUSH1 0x40 MLOAD PUSH2 0x276 SWAP2 SWAP1 PUSH2 0x1E5A JUMP JUMPDEST PUSH1 0x40 MLOAD DUP1 SWAP2 SUB SWAP1 RETURN JUMPDEST PUSH2 0x299 PUSH1 0x4 DUP1 CALLDATASIZE SUB DUP2 ADD SWAP1 PUSH2 0x294 SWAP2 SWAP1 PUSH2 0x1AD1 JUMP JUMPDEST PUSH2 0xC5A JUMP JUMPDEST STOP JUMPDEST PUSH2 0x2B5 PUSH1 0x4 DUP1 CALLDATASIZE SUB DUP2 ADD SWAP1 PUSH2 0x2B0 SWAP2 SWAP1 PUSH2 0x1A35 JUMP JUMPDEST PUSH2 0xF2A JUMP JUMPDEST STOP JUMPDEST PUSH2 0x2D1 PUSH1 0x4 DUP1 CALLDATASIZE SUB DUP2 ADD SWAP1 PUSH2 0x2CC SWAP2 SWAP1 PUSH2 0x1A62 JUMP JUMPDEST PUSH2 0x1077 JUMP JUMPDEST PUSH1 0x40 MLOAD PUSH2 0x2DE SWAP2 SWAP1 PUSH2 0x1EDC JUMP JUMPDEST PUSH1 0x40 MLOAD DUP1 SWAP2 SUB SWAP1 RETURN JUMPDEST PUSH2 0x301 PUSH1 0x4 DUP1 CALLDATASIZE SUB DUP2 ADD SWAP1 PUSH2 0x2FC SWAP2 SWAP1 PUSH2 0x1AD1 JUMP JUMPDEST PUSH2 0x1299 JUMP JUMPDEST STOP JUMPDEST PUSH2 0x31D PUSH1 0x4 DUP1 CALLDATASIZE SUB DUP2 ADD SWAP1 PUSH2 0x318 SWAP2 SWAP1 PUSH2 0x1A35 JUMP JUMPDEST PUSH2 0x1683 JUMP JUMPDEST STOP JUMPDEST PUSH1 0x6 DUP2 DUP2 SLOAD DUP2 LT PUSH2 0x32F JUMPI PUSH1 0x0 DUP1 REVERT JUMPDEST SWAP1 PUSH1 0x0 MSTORE PUSH1 0x20 PUSH1 0x0 KECCAK256 ADD PUSH1 0x0 SWAP2 POP SWAP1 POP SLOAD DUP2 JUMP JUMPDEST PUSH1 0x0 DUP1 SLOAD SWAP1 PUSH2 0x100 EXP SWAP1 DIV PUSH20 0xFFFFFFFFFFFFFFFFFFFFFFFFFFFFFFFFFFFFFFFF AND PUSH20 0xFFFFFFFFFFFFFFFFFFFFFFFFFFFFFFFFFFFFFFFF AND CALLER PUSH20 0xFFFFFFFFFFFFFFFFFFFFFFFFFFFFFFFFFFFFFFFF AND EQ PUSH2 0x3D1 JUMPI PUSH1 0x40 MLOAD PUSH32 0x8C379A000000000000000000000000000000000000000000000000000000000 DUP2 MSTORE PUSH1 0x4 ADD PUSH2 0x3C8 SWAP1 PUSH2 0x1F17 JUMP JUMPDEST PUSH1 0x40 MLOAD DUP1 SWAP2 SUB SWAP1 REVERT JUMPDEST PUSH1 0x3 PUSH1 0x0 DUP3 PUSH20 0xFFFFFFFFFFFFFFFFFFFFFFFFFFFFFFFFFFFFFFFF AND PUSH20 0xFFFFFFFFFFFFFFFFFFFFFFFFFFFFFFFFFFFFFFFF AND DUP2 MSTORE PUSH1 0x20 ADD SWAP1 DUP2 MSTORE PUSH1 0x20 ADD PUSH1 0x0 KECCAK256 PUSH1 0x0 SWAP1 SLOAD SWAP1 PUSH2 0x100 EXP SWAP1 DIV PUSH1 0xFF AND PUSH2 0x45D JUMPI PUSH1 0x40 MLOAD PUSH32 0x8C379A000000000000000000000000000000000000000000000000000000000 DUP2 MSTORE PUSH1 0x4 ADD PUSH2 0x454 SWAP1 PUSH2 0x1FD7 JUMP JUMPDEST PUSH1 0x40 MLOAD DUP1 SWAP2 SUB SWAP1 REVERT JUMPDEST PUSH1 0x2 SLOAD PUSH1 0x1 DUP1 SLOAD SWAP1 POP GT PUSH2 0x4A6 JUMPI PUSH1 0x40 MLOAD PUSH32 0x8C379A000000000000000000000000000000000000000000000000000000000 DUP2 MSTORE PUSH1 0x4 ADD PUSH2 0x49D SWAP1 PUSH2 0x1FF7 JUMP JUMPDEST PUSH1 0x40 MLOAD DUP1 SWAP2 SUB SWAP1 REVERT JUMPDEST PUSH1 0x0 JUMPDEST PUSH1 0x1 DUP1 SLOAD SWAP1 POP DUP2 LT ISZERO PUSH2 0x6D0 JUMPI DUP2 PUSH20 0xFFFFFFFFFFFFFFFFFFFFFFFFFFFFFFFFFFFFFFFF AND PUSH1 0x1 DUP3 DUP2 SLOAD DUP2 LT PUSH2 0x4E1 JUMPI PUSH2 0x4E0 PUSH2 0x2334 JUMP JUMPDEST JUMPDEST SWAP1 PUSH1 0x0 MSTORE PUSH1 0x20 PUSH1 0x0 KECCAK256 ADD PUSH1 0x0 SWAP1 SLOAD SWAP1 PUSH2 0x100 EXP SWAP1 DIV PUSH20 0xFFFFFFFFFFFFFFFFFFFFFFFFFFFFFFFFFFFFFFFF AND PUSH20 0xFFFFFFFFFFFFFFFFFFFFFFFFFFFFFFFFFFFFFFFF AND EQ ISZERO PUSH2 0x6BD JUMPI PUSH1 0x1 DUP1 DUP1 DUP1 SLOAD SWAP1 POP PUSH2 0x53A SWAP2 SWAP1 PUSH2 0x2105 JUMP JUMPDEST DUP2 SLOAD DUP2 LT PUSH2 0x54B JUMPI PUSH2 0x54A PUSH2 0x2334 JUMP JUMPDEST JUMPDEST SWAP1 PUSH1 0x0 MSTORE PUSH1 0x20 PUSH1 0x0 KECCAK256 ADD PUSH1 0x0 SWAP1 SLOAD SWAP1 PUSH2 0x100 EXP SWAP1 DIV PUSH20 0xFFFFFFFFFFFFFFFFFFFFFFFFFFFFFFFFFFFFFFFF AND PUSH1 0x1 DUP3 DUP2 SLOAD DUP2 LT PUSH2 0x58A JUMPI PUSH2 0x589 PUSH2 0x2334 JUMP JUMPDEST JUMPDEST SWAP1 PUSH1 0x0 MSTORE PUSH1 0x20 PUSH1 0x0 KECCAK256 ADD PUSH1 0x0 PUSH2 0x100 EXP DUP2 SLOAD DUP2 PUSH20 0xFFFFFFFFFFFFFFFFFFFFFFFFFFFFFFFFFFFFFFFF MUL NOT AND SWAP1 DUP4 PUSH20 0xFFFFFFFFFFFFFFFFFFFFFFFFFFFFFFFFFFFFFFFF AND MUL OR SWAP1 SSTORE POP PUSH1 0x1 DUP1 SLOAD DUP1 PUSH2 0x5E4 JUMPI PUSH2 0x5E3 PUSH2 0x2305 JUMP JUMPDEST JUMPDEST PUSH1 0x1 SWAP1 SUB DUP2 DUP2 SWAP1 PUSH1 0x0 MSTORE PUSH1 0x20 PUSH1 0x0 KECCAK256 ADD PUSH1 0x0 PUSH2 0x100 EXP DUP2 SLOAD SWAP1 PUSH20 0xFFFFFFFFFFFFFFFFFFFFFFFFFFFFFFFFFFFFFFFF MUL NOT AND SWAP1 SSTORE SWAP1 SSTORE PUSH1 0x0 PUSH1 0x3 PUSH1 0x0 DUP5 PUSH20 0xFFFFFFFFFFFFFFFFFFFFFFFFFFFFFFFFFFFFFFFF AND PUSH20 0xFFFFFFFFFFFFFFFFFFFFFFFFFFFFFFFFFFFFFFFF AND DUP2 MSTORE PUSH1 0x20 ADD SWAP1 DUP2 MSTORE PUSH1 0x20 ADD PUSH1 0x0 KECCAK256 PUSH1 0x0 PUSH2 0x100 EXP DUP2 SLOAD DUP2 PUSH1 0xFF MUL NOT AND SWAP1 DUP4 ISZERO ISZERO MUL OR SWAP1 SSTORE POP PUSH1 0x0 ISZERO ISZERO DUP3 PUSH20 0xFFFFFFFFFFFFFFFFFFFFFFFFFFFFFFFFFFFFFFFF AND PUSH32 0xC648F6265408CC54C0DC26D24BA51DFC9F35CE1A63BAA2228F65D93AAF11CC67 PUSH1 0x40 MLOAD PUSH1 0x40 MLOAD DUP1 SWAP2 SUB SWAP1 LOG3 PUSH2 0x6D0 JUMP JUMPDEST DUP1 DUP1 PUSH2 0x6C8 SWAP1 PUSH2 0x2230 JUMP JUMPDEST SWAP2 POP POP PUSH2 0x4A9 JUMP JUMPDEST POP POP JUMP JUMPDEST PUSH1 0x1 DUP2 DUP2 SLOAD DUP2 LT PUSH2 0x6E4 JUMPI PUSH1 0x0 DUP1 REVERT JUMPDEST SWAP1 PUSH1 0x0 MSTORE PUSH1 0x20 PUSH1 0x0 KECCAK256 ADD PUSH1 0x0 SWAP2 POP SLOAD SWAP1 PUSH2 0x100 EXP SWAP1 DIV PUSH20 0xFFFFFFFFFFFFFFFFFFFFFFFFFFFFFFFFFFFFFFFF AND DUP2 JUMP JUMPDEST PUSH1 0x5 PUSH1 0x20 MSTORE DUP2 PUSH1 0x0 MSTORE PUSH1 0x40 PUSH1 0x0 KECCAK256 PUSH1 0x20 MSTORE DUP1 PUSH1 0x0 MSTORE PUSH1 0x40 PUSH1 0x0 KECCAK256 PUSH1 0x0 SWAP2 POP SWAP2 POP SWAP1 SLOAD SWAP1 PUSH2 0x100 EXP SWAP1 DIV PUSH1 0xFF AND DUP2 JUMP JUMPDEST PUSH1 0x4 PUSH1 0x20 MSTORE DUP1 PUSH1 0x0 MSTORE PUSH1 0x40 PUSH1 0x0 KECCAK256 PUSH1 0x0 SWAP2 POP SWAP1 POP DUP1 PUSH1 0x0 ADD PUSH1 0x0 SWAP1 SLOAD SWAP1 PUSH2 0x100 EXP SWAP1 DIV PUSH20 0xFFFFFFFFFFFFFFFFFFFFFFFFFFFFFFFFFFFFFFFF AND SWAP1 DUP1 PUSH1 0x1 ADD SLOAD SWAP1 DUP1 PUSH1 0x2 ADD DUP1 SLOAD PUSH2 0x791 SWAP1 PUSH2 0x21CD JUMP JUMPDEST DUP1 PUSH1 0x1F ADD PUSH1 0x20 DUP1 SWAP2 DIV MUL PUSH1 0x20 ADD PUSH1 0x40 MLOAD SWAP1 DUP2 ADD PUSH1 0x40 MSTORE DUP1 SWAP3 SWAP2 SWAP1 DUP2 DUP2 MSTORE PUSH1 0x20 ADD DUP3 DUP1 SLOAD PUSH2 0x7BD SWAP1 PUSH2 0x21CD JUMP JUMPDEST DUP1 ISZERO PUSH2 0x80A JUMPI DUP1 PUSH1 0x1F LT PUSH2 0x7DF JUMPI PUSH2 0x100 DUP1 DUP4 SLOAD DIV MUL DUP4 MSTORE SWAP2 PUSH1 0x20 ADD SWAP2 PUSH2 0x80A JUMP JUMPDEST DUP3 ADD SWAP2 SWAP1 PUSH1 0x0 MSTORE PUSH1 0x20 PUSH1 0x0 KECCAK256 SWAP1 JUMPDEST DUP2 SLOAD DUP2 MSTORE SWAP1 PUSH1 0x1 ADD SWAP1 PUSH1 0x20 ADD DUP1 DUP4 GT PUSH2 0x7ED JUMPI DUP3 SWAP1 SUB PUSH1 0x1F AND DUP3 ADD SWAP2 JUMPDEST POP POP POP POP POP SWAP1 DUP1 PUSH1 0x3 ADD PUSH1 0x0 SWAP1 SLOAD SWAP1 PUSH2 0x100 EXP SWAP1 DIV PUSH1 0xFF AND SWAP1 POP DUP5 JUMP JUMPDEST PUSH1 0x3 PUSH1 0x0 CALLER PUSH20 0xFFFFFFFFFFFFFFFFFFFFFFFFFFFFFFFFFFFFFFFF AND PUSH20 0xFFFFFFFFFFFFFFFFFFFFFFFFFFFFFFFFFFFFFFFF AND DUP2 MSTORE PUSH1 0x20 ADD SWAP1 DUP2 MSTORE PUSH1 0x20 ADD PUSH1 0x0 KECCAK256 PUSH1 0x0 SWAP1 SLOAD SWAP1 PUSH2 0x100 EXP SWAP1 DIV PUSH1 0xFF AND PUSH2 0x8B3 JUMPI PUSH1 0x40 MLOAD PUSH32 0x8C379A000000000000000000000000000000000000000000000000000000000 DUP2 MSTORE PUSH1 0x4 ADD PUSH2 0x8AA SWAP1 PUSH2 0x1EF7 JUMP JUMPDEST PUSH1 0x40 MLOAD DUP1 SWAP2 SUB SWAP1 REVERT JUMPDEST PUSH1 0x0 PUSH20 0xFFFFFFFFFFFFFFFFFFFFFFFFFFFFFFFFFFFFFFFF AND PUSH1 0x4 PUSH1 0x0 DUP4 DUP2 MSTORE PUSH1 0x20 ADD SWAP1 DUP2 MSTORE PUSH1 0x20 ADD PUSH1 0x0 KECCAK256 PUSH1 0x0 ADD PUSH1 0x0 SWAP1 SLOAD SWAP1 PUSH2 0x100 EXP SWAP1 DIV PUSH20 0xFFFFFFFFFFFFFFFFFFFFFFFFFFFFFFFFFFFFFFFF AND PUSH20 0xFFFFFFFFFFFFFFFFFFFFFFFFFFFFFFFFFFFFFFFF AND EQ ISZERO PUSH2 0x959 JUMPI PUSH1 0x40 MLOAD PUSH32 0x8C379A000000000000000000000000000000000000000000000000000000000 DUP2 MSTORE PUSH1 0x4 ADD PUSH2 0x950 SWAP1 PUSH2 0x1F97 JUMP JUMPDEST PUSH1 0x40 MLOAD DUP1 SWAP2 SUB SWAP1 REVERT JUMPDEST PUSH1 0x4 PUSH1 0x0 DUP3 DUP2 MSTORE PUSH1 0x20 ADD SWAP1 DUP2 MSTORE PUSH1 0x20 ADD PUSH1 0x0 KECCAK256 PUSH1 0x3 ADD PUSH1 0x0 SWAP1 SLOAD SWAP1 PUSH2 0x100 EXP SWAP1 DIV PUSH1 0xFF AND ISZERO PUSH2 0x9BD JUMPI PUSH1 0x40 MLOAD PUSH32 0x8C379A000000000000000000000000000000000000000000000000000000000 DUP2 MSTORE PUSH1 0x4 ADD PUSH2 0x9B4 SWAP1 PUSH2 0x1FB7 JUMP JUMPDEST PUSH1 0x40 MLOAD DUP1 SWAP2 SUB SWAP1 REVERT JUMPDEST PUSH1 0x0 JUMPDEST PUSH1 0x6 DUP1 SLOAD SWAP1 POP DUP2 LT ISZERO PUSH2 0xAEE JUMPI DUP2 PUSH1 0x6 DUP3 DUP2 SLOAD DUP2 LT PUSH2 0x9E2 JUMPI PUSH2 0x9E1 PUSH2 0x2334 JUMP JUMPDEST JUMPDEST SWAP1 PUSH1 0x0 MSTORE PUSH1 0x20 PUSH1 0x0 KECCAK256 ADD SLOAD EQ ISZERO PUSH2 0xADB JUMPI PUSH1 0x6 PUSH1 0x1 PUSH1 0x6 DUP1 SLOAD SWAP1 POP PUSH2 0xA07 SWAP2 SWAP1 PUSH2 0x2105 JUMP JUMPDEST DUP2 SLOAD DUP2 LT PUSH2 0xA18 JUMPI PUSH2 0xA17 PUSH2 0x2334 JUMP JUMPDEST JUMPDEST SWAP1 PUSH1 0x0 MSTORE PUSH1 0x20 PUSH1 0x0 KECCAK256 ADD SLOAD PUSH1 0x6 DUP3 DUP2 SLOAD DUP2 LT PUSH2 0xA37 JUMPI PUSH2 0xA36 PUSH2 0x2334 JUMP JUMPDEST JUMPDEST SWAP1 PUSH1 0x0 MSTORE PUSH1 0x20 PUSH1 0x0 KECCAK256 ADD DUP2 SWAP1 SSTORE POP PUSH1 0x6 DUP1 SLOAD DUP1 PUSH2 0xA57 JUMPI PUSH2 0xA56 PUSH2 0x2305 JUMP JUMPDEST JUMPDEST PUSH1 0x1 SWAP1 SUB DUP2 DUP2 SWAP1 PUSH1 0x0 MSTORE PUSH1 0x20 PUSH1 0x0 KECCAK256 ADD PUSH1 0x0 SWAP1 SSTORE SWAP1 SSTORE PUSH1 0x4 PUSH1 0x0 DUP4 DUP2 MSTORE PUSH1 0x20 ADD SWAP1 DUP2 MSTORE PUSH1 0x20 ADD PUSH1 0x0 KECCAK256 PUSH1 0x0 DUP1 DUP3 ADD PUSH1 0x0 PUSH2 0x100 EXP DUP2 SLOAD SWAP1 PUSH20 0xFFFFFFFFFFFFFFFFFFFFFFFFFFFFFFFFFFFFFFFF MUL NOT AND SWAP1 SSTORE PUSH1 0x1 DUP3 ADD PUSH1 0x0 SWAP1 SSTORE PUSH1 0x2 DUP3 ADD PUSH1 0x0 PUSH2 0xAC0 SWAP2 SWAP1 PUSH2 0x18A3 JUMP JUMPDEST PUSH1 0x3 DUP3 ADD PUSH1 0x0 PUSH2 0x100 EXP DUP2 SLOAD SWAP1 PUSH1 0xFF MUL NOT AND SWAP1 SSTORE POP POP PUSH2 0xAEE JUMP JUMPDEST DUP1 DUP1 PUSH2 0xAE6 SWAP1 PUSH2 0x2230 JUMP JUMPDEST SWAP2 POP POP PUSH2 0x9C0 JUMP JUMPDEST POP PUSH1 0x0 JUMPDEST PUSH1 0x1 DUP1 SLOAD SWAP1 POP DUP2 LT ISZERO PUSH2 0xBB9 JUMPI PUSH1 0x0 PUSH1 0x5 PUSH1 0x0 DUP5 DUP2 MSTORE PUSH1 0x20 ADD SWAP1 DUP2 MSTORE PUSH1 0x20 ADD PUSH1 0x0 KECCAK256 PUSH1 0x0 PUSH1 0x1 DUP5 DUP2 SLOAD DUP2 LT PUSH2 0xB2A JUMPI PUSH2 0xB29 PUSH2 0x2334 JUMP JUMPDEST JUMPDEST SWAP1 PUSH1 0x0 MSTORE PUSH1 0x20 PUSH1 0x0 KECCAK256 ADD PUSH1 0x0 SWAP1 SLOAD SWAP1 PUSH2 0x100 EXP SWAP1 DIV PUSH20 0xFFFFFFFFFFFFFFFFFFFFFFFFFFFFFFFFFFFFFFFF AND PUSH20 0xFFFFFFFFFFFFFFFFFFFFFFFFFFFFFFFFFFFFFFFF AND PUSH20 0xFFFFFFFFFFFFFFFFFFFFFFFFFFFFFFFFFFFFFFFF AND DUP2 MSTORE PUSH1 0x20 ADD SWAP1 DUP2 MSTORE PUSH1 0x20 ADD PUSH1 0x0 KECCAK256 PUSH1 0x0 PUSH2 0x100 EXP DUP2 SLOAD DUP2 PUSH1 0xFF MUL NOT AND SWAP1 DUP4 ISZERO ISZERO MUL OR SWAP1 SSTORE POP DUP1 DUP1 PUSH2 0xBB1 SWAP1 PUSH2 0x2230 JUMP JUMPDEST SWAP2 POP POP PUSH2 0xAF2 JUMP JUMPDEST POP DUP1 PUSH32 0xBCA2885D81F38744D778177014656FADAF8DB5DE172DE50E21D4CA0E1B844995 PUSH1 0x40 MLOAD PUSH1 0x40 MLOAD DUP1 SWAP2 SUB SWAP1 LOG2 POP JUMP JUMPDEST PUSH1 0x7 PUSH1 0x0 SWAP1 SLOAD SWAP1 PUSH2 0x100 EXP SWAP1 DIV PUSH20 0xFFFFFFFFFFFFFFFFFFFFFFFFFFFFFFFFFFFFFFFF AND DUP2 JUMP JUMPDEST PUSH1 0x3 PUSH1 0x20 MSTORE DUP1 PUSH1 0x0 MSTORE PUSH1 0x40 PUSH1 0x0 KECCAK256 PUSH1 0x0 SWAP2 POP SLOAD SWAP1 PUSH2 0x100 EXP SWAP1 DIV PUSH1 0xFF AND DUP2 JUMP JUMPDEST PUSH1 0x2 SLOAD DUP2 JUMP JUMPDEST PUSH1 0x0 DUP1 SLOAD SWAP1 PUSH2 0x100 EXP SWAP1 DIV PUSH20 0xFFFFFFFFFFFFFFFFFFFFFFFFFFFFFFFFFFFFFFFF AND DUP2 JUMP JUMPDEST PUSH1 0x3 PUSH1 0x0 CALLER PUSH20 0xFFFFFFFFFFFFFFFFFFFFFFFFFFFFFFFFFFFFFFFF AND PUSH20 0xFFFFFFFFFFFFFFFFFFFFFFFFFFFFFFFFFFFFFFFF AND DUP2 MSTORE PUSH1 0x20 ADD SWAP1 DUP2 MSTORE PUSH1 0x20 ADD PUSH1 0x0 KECCAK256 PUSH1 0x0 SWAP1 SLOAD SWAP1 PUSH2 0x100 EXP SWAP1 DIV PUSH1 0xFF AND PUSH2 0xCE6 JUMPI PUSH1 0x40 MLOAD PUSH32 0x8C379A000000000000000000000000000000000000000000000000000000000 DUP2 MSTORE PUSH1 0x4 ADD PUSH2 0xCDD SWAP1 PUSH2 0x1EF7 JUMP JUMPDEST PUSH1 0x40 MLOAD DUP1 SWAP2 SUB SWAP1 REVERT JUMPDEST PUSH1 0x0 PUSH20 0xFFFFFFFFFFFFFFFFFFFFFFFFFFFFFFFFFFFFFFFF AND PUSH1 0x4 PUSH1 0x0 DUP4 DUP2 MSTORE PUSH1 0x20 ADD SWAP1 DUP2 MSTORE PUSH1 0x20 ADD PUSH1 0x0 KECCAK256 PUSH1 0x0 ADD PUSH1 0x0 SWAP1 SLOAD SWAP1 PUSH2 0x100 EXP SWAP1 DIV PUSH20 0xFFFFFFFFFFFFFFFFFFFFFFFFFFFFFFFFFFFFFFFF AND PUSH20 0xFFFFFFFFFFFFFFFFFFFFFFFFFFFFFFFFFFFFFFFF AND EQ ISZERO PUSH2 0xD8C JUMPI PUSH1 0x40 MLOAD PUSH32 0x8C379A000000000000000000000000000000000000000000000000000000000 DUP2 MSTORE PUSH1 0x4 ADD PUSH2 0xD83 SWAP1 PUSH2 0x1F97 JUMP JUMPDEST PUSH1 0x40 MLOAD DUP1 SWAP2 SUB SWAP1 REVERT JUMPDEST PUSH1 0x1 PUSH1 0x5 PUSH1 0x0 DUP4 DUP2 MSTORE PUSH1 0x20 ADD SWAP1 DUP2 MSTORE PUSH1 0x20 ADD PUSH1 0x0 KECCAK256 PUSH1 0x0 CALLER PUSH20 0xFFFFFFFFFFFFFFFFFFFFFFFFFFFFFFFFFFFFFFFF AND PUSH20 0xFFFFFFFFFFFFFFFFFFFFFFFFFFFFFFFFFFFFFFFF AND DUP2 MSTORE PUSH1 0x20 ADD SWAP1 DUP2 MSTORE PUSH1 0x20 ADD PUSH1 0x0 KECCAK256 PUSH1 0x0 PUSH2 0x100 EXP DUP2 SLOAD DUP2 PUSH1 0xFF MUL NOT AND SWAP1 DUP4 ISZERO ISZERO MUL OR SWAP1 SSTORE POP CALLER PUSH20 0xFFFFFFFFFFFFFFFFFFFFFFFFFFFFFFFFFFFFFFFF AND DUP2 PUSH32 0xEC6590FA5D86DB2E9B3CED5CAAE4916C2547C5A4BEF3CB4BDF11F1D1995A8EE4 PUSH1 0x40 MLOAD PUSH1 0x40 MLOAD DUP1 SWAP2 SUB SWAP1 LOG3 PUSH1 0x0 DUP1 JUMPDEST PUSH1 0x1 DUP1 SLOAD SWAP1 POP DUP2 LT ISZERO PUSH2 0xF25 JUMPI PUSH1 0x5 PUSH1 0x0 DUP5 DUP2 MSTORE PUSH1 0x20 ADD SWAP1 DUP2 MSTORE PUSH1 0x20 ADD PUSH1 0x0 KECCAK256 PUSH1 0x0 PUSH1 0x1 DUP4 DUP2 SLOAD DUP2 LT PUSH2 0xE73 JUMPI PUSH2 0xE72 PUSH2 0x2334 JUMP JUMPDEST JUMPDEST SWAP1 PUSH1 0x0 MSTORE PUSH1 0x20 PUSH1 0x0 KECCAK256 ADD PUSH1 0x0 SWAP1 SLOAD SWAP1 PUSH2 0x100 EXP SWAP1 DIV PUSH20 0xFFFFFFFFFFFFFFFFFFFFFFFFFFFFFFFFFFFFFFFF AND PUSH20 0xFFFFFFFFFFFFFFFFFFFFFFFFFFFFFFFFFFFFFFFF AND PUSH20 0xFFFFFFFFFFFFFFFFFFFFFFFFFFFFFFFFFFFFFFFF AND DUP2 MSTORE PUSH1 0x20 ADD SWAP1 DUP2 MSTORE PUSH1 0x20 ADD PUSH1 0x0 KECCAK256 PUSH1 0x0 SWAP1 SLOAD SWAP1 PUSH2 0x100 EXP SWAP1 DIV PUSH1 0xFF AND ISZERO PUSH2 0xEFA JUMPI DUP2 DUP1 PUSH2 0xEF6 SWAP1 PUSH2 0x2230 JUMP JUMPDEST SWAP3 POP POP JUMPDEST PUSH1 0x2 SLOAD DUP3 EQ ISZERO PUSH2 0xF12 JUMPI PUSH2 0xF0D DUP4 PUSH2 0x1299 JUMP JUMPDEST PUSH2 0xF25 JUMP JUMPDEST DUP1 DUP1 PUSH2 0xF1D SWAP1 PUSH2 0x2230 JUMP JUMPDEST SWAP2 POP POP PUSH2 0xE3D JUMP JUMPDEST POP POP POP JUMP JUMPDEST PUSH1 0x7 PUSH1 0x0 SWAP1 SLOAD SWAP1 PUSH2 0x100 EXP SWAP1 DIV PUSH20 0xFFFFFFFFFFFFFFFFFFFFFFFFFFFFFFFFFFFFFFFF AND PUSH20 0xFFFFFFFFFFFFFFFFFFFFFFFFFFFFFFFFFFFFFFFF AND CALLER PUSH20 0xFFFFFFFFFFFFFFFFFFFFFFFFFFFFFFFFFFFFFFFF AND EQ PUSH2 0xFBA JUMPI PUSH1 0x40 MLOAD PUSH32 0x8C379A000000000000000000000000000000000000000000000000000000000 DUP2 MSTORE PUSH1 0x4 ADD PUSH2 0xFB1 SWAP1 PUSH2 0x1F77 JUMP JUMPDEST PUSH1 0x40 MLOAD DUP1 SWAP2 SUB SWAP1 REVERT JUMPDEST DUP1 PUSH20 0xFFFFFFFFFFFFFFFFFFFFFFFFFFFFFFFFFFFFFFFF AND PUSH1 0x0 DUP1 SLOAD SWAP1 PUSH2 0x100 EXP SWAP1 DIV PUSH20 0xFFFFFFFFFFFFFFFFFFFFFFFFFFFFFFFFFFFFFFFF AND PUSH20 0xFFFFFFFFFFFFFFFFFFFFFFFFFFFFFFFFFFFFFFFF AND PUSH32 0x8BE0079C531659141344CD1FD0A4F28419497F9722A3DAAFE3B4186F6B6457E0 PUSH1 0x40 MLOAD PUSH1 0x40 MLOAD DUP1 SWAP2 SUB SWAP1 LOG3 DUP1 PUSH1 0x0 DUP1 PUSH2 0x100 EXP DUP2 SLOAD DUP2 PUSH20 0xFFFFFFFFFFFFFFFFFFFFFFFFFFFFFFFFFFFFFFFF MUL NOT AND SWAP1 DUP4 PUSH20 0xFFFFFFFFFFFFFFFFFFFFFFFFFFFFFFFFFFFFFFFF AND MUL OR SWAP1 SSTORE POP POP JUMP JUMPDEST PUSH1 0x0 PUSH1 0x3 PUSH1 0x0 CALLER PUSH20 0xFFFFFFFFFFFFFFFFFFFFFFFFFFFFFFFFFFFFFFFF AND PUSH20 0xFFFFFFFFFFFFFFFFFFFFFFFFFFFFFFFFFFFFFFFF AND DUP2 MSTORE PUSH1 0x20 ADD SWAP1 DUP2 MSTORE PUSH1 0x20 ADD PUSH1 0x0 KECCAK256 PUSH1 0x0 SWAP1 SLOAD SWAP1 PUSH2 0x100 EXP SWAP1 DIV PUSH1 0xFF AND PUSH2 0x1105 JUMPI PUSH1 0x40 MLOAD PUSH32 0x8C379A000000000000000000000000000000000000000000000000000000000 DUP2 MSTORE PUSH1 0x4 ADD PUSH2 0x10FC SWAP1 PUSH2 0x1EF7 JUMP JUMPDEST PUSH1 0x40 MLOAD DUP1 SWAP2 SUB SWAP1 REVERT JUMPDEST PUSH1 0x0 DUP5 DUP5 DUP5 TIMESTAMP PUSH1 0x40 MLOAD PUSH1 0x20 ADD PUSH2 0x111E SWAP5 SWAP4 SWAP3 SWAP2 SWAP1 PUSH2 0x1DF9 JUMP JUMPDEST PUSH1 0x40 MLOAD PUSH1 0x20 DUP2 DUP4 SUB SUB DUP2 MSTORE SWAP1 PUSH1 0x40 MSTORE DUP1 MLOAD SWAP1 PUSH1 0x20 ADD KECCAK256 SWAP1 POP PUSH1 0x40 MLOAD DUP1 PUSH1 0x80 ADD PUSH1 0x40 MSTORE DUP1 DUP7 PUSH20 0xFFFFFFFFFFFFFFFFFFFFFFFFFFFFFFFFFFFFFFFF AND DUP2 MSTORE PUSH1 0x20 ADD DUP6 DUP2 MSTORE PUSH1 0x20 ADD DUP5 DUP2 MSTORE PUSH1 0x20 ADD PUSH1 0x0 ISZERO ISZERO DUP2 MSTORE POP PUSH1 0x4 PUSH1 0x0 DUP4 DUP2 MSTORE PUSH1 0x20 ADD SWAP1 DUP2 MSTORE PUSH1 0x20 ADD PUSH1 0x0 KECCAK256 PUSH1 0x0 DUP3 ADD MLOAD DUP2 PUSH1 0x0 ADD PUSH1 0x0 PUSH2 0x100 EXP DUP2 SLOAD DUP2 PUSH20 0xFFFFFFFFFFFFFFFFFFFFFFFFFFFFFFFFFFFFFFFF MUL NOT AND SWAP1 DUP4 PUSH20 0xFFFFFFFFFFFFFFFFFFFFFFFFFFFFFFFFFFFFFFFF AND MUL OR SWAP1 SSTORE POP PUSH1 0x20 DUP3 ADD MLOAD DUP2 PUSH1 0x1 ADD SSTORE PUSH1 0x40 DUP3 ADD MLOAD DUP2 PUSH1 0x2 ADD SWAP1 DUP1 MLOAD SWAP1 PUSH1 0x20 ADD SWAP1 PUSH2 0x11F0 SWAP3 SWAP2 SWAP1 PUSH2 0x18E3 JUMP JUMPDEST POP PUSH1 0x60 DUP3 ADD MLOAD DUP2 PUSH1 0x3 ADD PUSH1 0x0 PUSH2 0x100 EXP DUP2 SLOAD DUP2 PUSH1 0xFF MUL NOT AND SWAP1 DUP4 ISZERO ISZERO MUL OR SWAP1 SSTORE POP SWAP1 POP POP PUSH1 0x6 DUP2 SWAP1 DUP1 PUSH1 0x1 DUP2 SLOAD ADD DUP1 DUP3 SSTORE DUP1 SWAP2 POP POP PUSH1 0x1 SWAP1 SUB SWAP1 PUSH1 0x0 MSTORE PUSH1 0x20 PUSH1 0x0 KECCAK256 ADD PUSH1 0x0 SWAP1 SWAP2 SWAP1 SWAP2 SWAP1 SWAP2 POP SSTORE DUP5 PUSH20 0xFFFFFFFFFFFFFFFFFFFFFFFFFFFFFFFFFFFFFFFF AND DUP2 PUSH32 0xA9AE4899C6660AED54DD2CFE0668075633CC1F864B27D69284536BF59BAE230C DUP7 DUP7 PUSH1 0x40 MLOAD PUSH2 0x1286 SWAP3 SWAP2 SWAP1 PUSH2 0x2032 JUMP JUMPDEST PUSH1 0x40 MLOAD DUP1 SWAP2 SUB SWAP1 LOG3 DUP1 SWAP2 POP POP SWAP4 SWAP3 POP POP POP JUMP JUMPDEST PUSH1 0x3 PUSH1 0x0 CALLER PUSH20 0xFFFFFFFFFFFFFFFFFFFFFFFFFFFFFFFFFFFFFFFF AND PUSH20 0xFFFFFFFFFFFFFFFFFFFFFFFFFFFFFFFFFFFFFFFF AND DUP2 MSTORE PUSH1 0x20 ADD SWAP1 DUP2 MSTORE PUSH1 0x20 ADD PUSH1 0x0 KECCAK256 PUSH1 0x0 SWAP1 SLOAD SWAP1 PUSH2 0x100 EXP SWAP1 DIV PUSH1 0xFF AND PUSH2 0x1325 JUMPI PUSH1 0x40 MLOAD PUSH32 0x8C379A000000000000000000000000000000000000000000000000000000000 DUP2 MSTORE PUSH1 0x4 ADD PUSH2 0x131C SWAP1 PUSH2 0x1EF7 JUMP JUMPDEST PUSH1 0x40 MLOAD DUP1 SWAP2 SUB SWAP1 REVERT JUMPDEST PUSH1 0x0 PUSH20 0xFFFFFFFFFFFFFFFFFFFFFFFFFFFFFFFFFFFFFFFF AND PUSH1 0x4 PUSH1 0x0 DUP4 DUP2 MSTORE PUSH1 0x20 ADD SWAP1 DUP2 MSTORE PUSH1 0x20 ADD PUSH1 0x0 KECCAK256 PUSH1 0x0 ADD PUSH1 0x0 SWAP1 SLOAD SWAP1 PUSH2 0x100 EXP SWAP1 DIV PUSH20 0xFFFFFFFFFFFFFFFFFFFFFFFFFFFFFFFFFFFFFFFF AND PUSH20 0xFFFFFFFFFFFFFFFFFFFFFFFFFFFFFFFFFFFFFFFF AND EQ ISZERO PUSH2 0x13CB JUMPI PUSH1 0x40 MLOAD PUSH32 0x8C379A000000000000000000000000000000000000000000000000000000000 DUP2 MSTORE PUSH1 0x4 ADD PUSH2 0x13C2 SWAP1 PUSH2 0x1F97 JUMP JUMPDEST PUSH1 0x40 MLOAD DUP1 SWAP2 SUB SWAP1 REVERT JUMPDEST PUSH1 0x4 PUSH1 0x0 DUP3 DUP2 MSTORE PUSH1 0x20 ADD SWAP1 DUP2 MSTORE PUSH1 0x20 ADD PUSH1 0x0 KECCAK256 PUSH1 0x3 ADD PUSH1 0x0 SWAP1 SLOAD SWAP1 PUSH2 0x100 EXP SWAP1 DIV PUSH1 0xFF AND ISZERO PUSH2 0x142F JUMPI PUSH1 0x40 MLOAD PUSH32 0x8C379A000000000000000000000000000000000000000000000000000000000 DUP2 MSTORE PUSH1 0x4 ADD PUSH2 0x1426 SWAP1 PUSH2 0x1FB7 JUMP JUMPDEST PUSH1 0x40 MLOAD DUP1 SWAP2 SUB SWAP1 REVERT JUMPDEST PUSH1 0x0 DUP1 JUMPDEST PUSH1 0x1 DUP1 SLOAD SWAP1 POP DUP2 LT ISZERO PUSH2 0x167E JUMPI PUSH1 0x5 PUSH1 0x0 DUP5 DUP2 MSTORE PUSH1 0x20 ADD SWAP1 DUP2 MSTORE PUSH1 0x20 ADD PUSH1 0x0 KECCAK256 PUSH1 0x0 PUSH1 0x1 DUP4 DUP2 SLOAD DUP2 LT PUSH2 0x1469 JUMPI PUSH2 0x1468 PUSH2 0x2334 JUMP JUMPDEST JUMPDEST SWAP1 PUSH1 0x0 MSTORE PUSH1 0x20 PUSH1 0x0 KECCAK256 ADD PUSH1 0x0 SWAP1 SLOAD SWAP1 PUSH2 0x100 EXP SWAP1 DIV PUSH20 0xFFFFFFFFFFFFFFFFFFFFFFFFFFFFFFFFFFFFFFFF AND PUSH20 0xFFFFFFFFFFFFFFFFFFFFFFFFFFFFFFFFFFFFFFFF AND PUSH20 0xFFFFFFFFFFFFFFFFFFFFFFFFFFFFFFFFFFFFFFFF AND DUP2 MSTORE PUSH1 0x20 ADD SWAP1 DUP2 MSTORE PUSH1 0x20 ADD PUSH1 0x0 KECCAK256 PUSH1 0x0 SWAP1 SLOAD SWAP1 PUSH2 0x100 EXP SWAP1 DIV PUSH1 0xFF AND ISZERO PUSH2 0x14F0 JUMPI DUP2 DUP1 PUSH2 0x14EC SWAP1 PUSH2 0x2230 JUMP JUMPDEST SWAP3 POP POP JUMPDEST PUSH1 0x2 SLOAD DUP3 EQ ISZERO PUSH2 0x166B JUMPI PUSH1 0x1 PUSH1 0x4 PUSH1 0x0 DUP6 DUP2 MSTORE PUSH1 0x20 ADD SWAP1 DUP2 MSTORE PUSH1 0x20 ADD PUSH1 0x0 KECCAK256 PUSH1 0x3 ADD PUSH1 0x0 PUSH2 0x100 EXP DUP2 SLOAD DUP2 PUSH1 0xFF MUL NOT AND SWAP1 DUP4 ISZERO ISZERO MUL OR SWAP1 SSTORE POP PUSH1 0x0 PUSH1 0x4 PUSH1 0x0 DUP6 DUP2 MSTORE PUSH1 0x20 ADD SWAP1 DUP2 MSTORE PUSH1 0x20 ADD PUSH1 0x0 KECCAK256 PUSH1 0x0 ADD PUSH1 0x0 SWAP1 SLOAD SWAP1 PUSH2 0x100 EXP SWAP1 DIV PUSH20 0xFFFFFFFFFFFFFFFFFFFFFFFFFFFFFFFFFFFFFFFF AND PUSH20 0xFFFFFFFFFFFFFFFFFFFFFFFFFFFFFFFFFFFFFFFF AND PUSH1 0x4 PUSH1 0x0 DUP7 DUP2 MSTORE PUSH1 0x20 ADD SWAP1 DUP2 MSTORE PUSH1 0x20 ADD PUSH1 0x0 KECCAK256 PUSH1 0x1 ADD SLOAD PUSH1 0x4 PUSH1 0x0 DUP8 DUP2 MSTORE PUSH1 0x20 ADD SWAP1 DUP2 MSTORE PUSH1 0x20 ADD PUSH1 0x0 KECCAK256 PUSH1 0x2 ADD PUSH1 0x40 MLOAD PUSH2 0x15B2 SWAP2 SWAP1 PUSH2 0x1E43 JUMP JUMPDEST PUSH1 0x0 PUSH1 0x40 MLOAD DUP1 DUP4 SUB DUP2 DUP6 DUP8 GAS CALL SWAP3 POP POP POP RETURNDATASIZE DUP1 PUSH1 0x0 DUP2 EQ PUSH2 0x15EF JUMPI PUSH1 0x40 MLOAD SWAP2 POP PUSH1 0x1F NOT PUSH1 0x3F RETURNDATASIZE ADD AND DUP3 ADD PUSH1 0x40 MSTORE RETURNDATASIZE DUP3 MSTORE RETURNDATASIZE PUSH1 0x0 PUSH1 0x20 DUP5 ADD RETURNDATACOPY PUSH2 0x15F4 JUMP JUMPDEST PUSH1 0x60 SWAP2 POP JUMPDEST POP POP SWAP1 POP DUP1 PUSH2 0x1638 JUMPI PUSH1 0x40 MLOAD PUSH32 0x8C379A000000000000000000000000000000000000000000000000000000000 DUP2 MSTORE PUSH1 0x4 ADD PUSH2 0x162F SWAP1 PUSH2 0x1F57 JUMP JUMPDEST PUSH1 0x40 MLOAD DUP1 SWAP2 SUB SWAP1 REVERT JUMPDEST DUP4 PUSH32 0x7E9E1CB65DB4927B1815F498CBAA226A15C277816F7DF407573682110522C9B1 PUSH1 0x40 MLOAD PUSH1 0x40 MLOAD DUP1 SWAP2 SUB SWAP1 LOG2 POP PUSH2 0x167E JUMP JUMPDEST DUP1 DUP1 PUSH2 0x1676 SWAP1 PUSH2 0x2230 JUMP JUMPDEST SWAP2 POP POP PUSH2 0x1433 JUMP JUMPDEST POP POP POP JUMP JUMPDEST PUSH1 0x0 DUP1 SLOAD SWAP1 PUSH2 0x100 EXP SWAP1 DIV PUSH20 0xFFFFFFFFFFFFFFFFFFFFFFFFFFFFFFFFFFFFFFFF AND PUSH20 0xFFFFFFFFFFFFFFFFFFFFFFFFFFFFFFFFFFFFFFFF AND CALLER PUSH20 0xFFFFFFFFFFFFFFFFFFFFFFFFFFFFFFFFFFFFFFFF AND EQ PUSH2 0x1711 JUMPI PUSH1 0x40 MLOAD PUSH32 0x8C379A000000000000000000000000000000000000000000000000000000000 DUP2 MSTORE PUSH1 0x4 ADD PUSH2 0x1708 SWAP1 PUSH2 0x1F17 JUMP JUMPDEST PUSH1 0x40 MLOAD DUP1 SWAP2 SUB SWAP1 REVERT JUMPDEST PUSH1 0x3 PUSH1 0x0 DUP3 PUSH20 0xFFFFFFFFFFFFFFFFFFFFFFFFFFFFFFFFFFFFFFFF AND PUSH20 0xFFFFFFFFFFFFFFFFFFFFFFFFFFFFFFFFFFFFFFFF AND DUP2 MSTORE PUSH1 0x20 ADD SWAP1 DUP2 MSTORE PUSH1 0x20 ADD PUSH1 0x0 KECCAK256 PUSH1 0x0 SWAP1 SLOAD SWAP1 PUSH2 0x100 EXP SWAP1 DIV PUSH1 0xFF AND ISZERO PUSH2 0x179E JUMPI PUSH1 0x40 MLOAD PUSH32 0x8C379A000000000000000000000000000000000000000000000000000000000 DUP2 MSTORE PUSH1 0x4 ADD PUSH2 0x1795 SWAP1 PUSH2 0x1F37 JUMP JUMPDEST PUSH1 0x40 MLOAD DUP1 SWAP2 SUB SWAP1 REVERT JUMPDEST PUSH1 0x1 DUP2 SWAP1 DUP1 PUSH1 0x1 DUP2 SLOAD ADD DUP1 DUP3 SSTORE DUP1 SWAP2 POP POP PUSH1 0x1 SWAP1 SUB SWAP1 PUSH1 0x0 MSTORE PUSH1 0x20 PUSH1 0x0 KECCAK256 ADD PUSH1 0x0 SWAP1 SWAP2 SWAP1 SWAP2 SWAP1 SWAP2 PUSH2 0x100 EXP DUP2 SLOAD DUP2 PUSH20 0xFFFFFFFFFFFFFFFFFFFFFFFFFFFFFFFFFFFFFFFF MUL NOT AND SWAP1 DUP4 PUSH20 0xFFFFFFFFFFFFFFFFFFFFFFFFFFFFFFFFFFFFFFFF AND MUL OR SWAP1 SSTORE POP PUSH1 0x1 PUSH1 0x3 PUSH1 0x0 DUP4 PUSH20 0xFFFFFFFFFFFFFFFFFFFFFFFFFFFFFFFFFFFFFFFF AND PUSH20 0xFFFFFFFFFFFFFFFFFFFFFFFFFFFFFFFFFFFFFFFF AND DUP2 MSTORE PUSH1 0x20 ADD SWAP1 DUP2 MSTORE PUSH1 0x20 ADD PUSH1 0x0 KECCAK256 PUSH1 0x0 PUSH2 0x100 EXP DUP2 SLOAD DUP2 PUSH1 0xFF MUL NOT AND SWAP1 DUP4 ISZERO ISZERO MUL OR SWAP1 SSTORE POP PUSH1 0x1 ISZERO ISZERO DUP2 PUSH20 0xFFFFFFFFFFFFFFFFFFFFFFFFFFFFFFFFFFFFFFFF AND PUSH32 0xC648F6265408CC54C0DC26D24BA51DFC9F35CE1A63BAA2228F65D93AAF11CC67 PUSH1 0x40 MLOAD PUSH1 0x40 MLOAD DUP1 SWAP2 SUB SWAP1 LOG3 POP JUMP JUMPDEST POP DUP1 SLOAD PUSH2 0x18AF SWAP1 PUSH2 0x21CD JUMP JUMPDEST PUSH1 0x0 DUP3 SSTORE DUP1 PUSH1 0x1F LT PUSH2 0x18C1 JUMPI POP PUSH2 0x18E0 JUMP JUMPDEST PUSH1 0x1F ADD PUSH1 0x20 SWAP1 DIV SWAP1 PUSH1 0x0 MSTORE PUSH1 0x20 PUSH1 0x0 KECCAK256 SWAP1 DUP2 ADD SWAP1 PUSH2 0x18DF SWAP2 SWAP1 PUSH2 0x1969 JUMP JUMPDEST JUMPDEST POP JUMP JUMPDEST DUP3 DUP1 SLOAD PUSH2 0x18EF SWAP1 PUSH2 0x21CD JUMP JUMPDEST SWAP1 PUSH1 0x0 MSTORE PUSH1 0x20 PUSH1 0x0 KECCAK256 SWAP1 PUSH1 0x1F ADD PUSH1 0x20 SWAP1 DIV DUP2 ADD SWAP3 DUP3 PUSH2 0x1911 JUMPI PUSH1 0x0 DUP6 SSTORE PUSH2 0x1958 JUMP JUMPDEST DUP3 PUSH1 0x1F LT PUSH2 0x192A JUMPI DUP1 MLOAD PUSH1 0xFF NOT AND DUP4 DUP1 ADD OR DUP6 SSTORE PUSH2 0x1958 JUMP JUMPDEST DUP3 DUP1 ADD PUSH1 0x1 ADD DUP6 SSTORE DUP3 ISZERO PUSH2 0x1958 JUMPI SWAP2 DUP3 ADD JUMPDEST DUP3 DUP2 GT ISZERO PUSH2 0x1957 JUMPI DUP3 MLOAD DUP3 SSTORE SWAP2 PUSH1 0x20 ADD SWAP2 SWAP1 PUSH1 0x1 ADD SWAP1 PUSH2 0x193C JUMP JUMPDEST JUMPDEST POP SWAP1 POP PUSH2 0x1965 SWAP2 SWAP1 PUSH2 0x1969 JUMP JUMPDEST POP SWAP1 JUMP JUMPDEST JUMPDEST DUP1 DUP3 GT ISZERO PUSH2 0x1982 JUMPI PUSH1 0x0 DUP2 PUSH1 0x0 SWAP1 SSTORE POP PUSH1 0x1 ADD PUSH2 0x196A JUMP JUMPDEST POP SWAP1 JUMP JUMPDEST PUSH1 0x0 PUSH2 0x1999 PUSH2 0x1994 DUP5 PUSH2 0x2087 JUMP JUMPDEST PUSH2 0x2062 JUMP JUMPDEST SWAP1 POP DUP3 DUP2 MSTORE PUSH1 0x20 DUP2 ADD DUP5 DUP5 DUP5 ADD GT ISZERO PUSH2 0x19B5 JUMPI PUSH2 0x19B4 PUSH2 0x2397 JUMP JUMPDEST JUMPDEST PUSH2 0x19C0 DUP5 DUP3 DUP6 PUSH2 0x218B JUMP JUMPDEST POP SWAP4 SWAP3 POP POP POP JUMP JUMPDEST PUSH1 0x0 DUP2 CALLDATALOAD SWAP1 POP PUSH2 0x19D7 DUP2 PUSH2 0x25F3 JUMP JUMPDEST SWAP3 SWAP2 POP POP JUMP JUMPDEST PUSH1 0x0 DUP2 CALLDATALOAD SWAP1 POP PUSH2 0x19EC DUP2 PUSH2 0x260A JUMP JUMPDEST SWAP3 SWAP2 POP POP JUMP JUMPDEST PUSH1 0x0 DUP3 PUSH1 0x1F DUP4 ADD SLT PUSH2 0x1A07 JUMPI PUSH2 0x1A06 PUSH2 0x2392 JUMP JUMPDEST JUMPDEST DUP2 CALLDATALOAD PUSH2 0x1A17 DUP5 DUP3 PUSH1 0x20 DUP7 ADD PUSH2 0x1986 JUMP JUMPDEST SWAP2 POP POP SWAP3 SWAP2 POP POP JUMP JUMPDEST PUSH1 0x0 DUP2 CALLDATALOAD SWAP1 POP PUSH2 0x1A2F DUP2 PUSH2 0x2621 JUMP JUMPDEST SWAP3 SWAP2 POP POP JUMP JUMPDEST PUSH1 0x0 PUSH1 0x20 DUP3 DUP5 SUB SLT ISZERO PUSH2 0x1A4B JUMPI PUSH2 0x1A4A PUSH2 0x23A1 JUMP JUMPDEST JUMPDEST PUSH1 0x0 PUSH2 0x1A59 DUP5 DUP3 DUP6 ADD PUSH2 0x19C8 JUMP JUMPDEST SWAP2 POP POP SWAP3 SWAP2 POP POP JUMP JUMPDEST PUSH1 0x0 DUP1 PUSH1 0x0 PUSH1 0x60 DUP5 DUP7 SUB SLT ISZERO PUSH2 0x1A7B JUMPI PUSH2 0x1A7A PUSH2 0x23A1 JUMP JUMPDEST JUMPDEST PUSH1 0x0 PUSH2 0x1A89 DUP7 DUP3 DUP8 ADD PUSH2 0x19C8 JUMP JUMPDEST SWAP4 POP POP PUSH1 0x20 PUSH2 0x1A9A DUP7 DUP3 DUP8 ADD PUSH2 0x1A20 JUMP JUMPDEST SWAP3 POP POP PUSH1 0x40 DUP5 ADD CALLDATALOAD PUSH8 0xFFFFFFFFFFFFFFFF DUP2 GT ISZERO PUSH2 0x1ABB JUMPI PUSH2 0x1ABA PUSH2 0x239C JUMP JUMPDEST JUMPDEST PUSH2 0x1AC7 DUP7 DUP3 DUP8 ADD PUSH2 0x19F2 JUMP JUMPDEST SWAP2 POP POP SWAP3 POP SWAP3 POP SWAP3 JUMP JUMPDEST PUSH1 0x0 PUSH1 0x20 DUP3 DUP5 SUB SLT ISZERO PUSH2 0x1AE7 JUMPI PUSH2 0x1AE6 PUSH2 0x23A1 JUMP JUMPDEST JUMPDEST PUSH1 0x0 PUSH2 0x1AF5 DUP5 DUP3 DUP6 ADD PUSH2 0x19DD JUMP JUMPDEST SWAP2 POP POP SWAP3 SWAP2 POP POP JUMP JUMPDEST PUSH1 0x0 DUP1 PUSH1 0x40 DUP4 DUP6 SUB SLT ISZERO PUSH2 0x1B15 JUMPI PUSH2 0x1B14 PUSH2 0x23A1 JUMP JUMPDEST JUMPDEST PUSH1 0x0 PUSH2 0x1B23 DUP6 DUP3 DUP7 ADD PUSH2 0x19DD JUMP JUMPDEST SWAP3 POP POP PUSH1 0x20 PUSH2 0x1B34 DUP6 DUP3 DUP7 ADD PUSH2 0x19C8 JUMP JUMPDEST SWAP2 POP POP SWAP3 POP SWAP3 SWAP1 POP JUMP JUMPDEST PUSH1 0x0 PUSH1 0x20 DUP3 DUP5 SUB SLT ISZERO PUSH2 0x1B54 JUMPI PUSH2 0x1B53 PUSH2 0x23A1 JUMP JUMPDEST JUMPDEST PUSH1 0x0 PUSH2 0x1B62 DUP5 DUP3 DUP6 ADD PUSH2 0x1A20 JUMP JUMPDEST SWAP2 POP POP SWAP3 SWAP2 POP POP JUMP JUMPDEST PUSH2 0x1B74 DUP2 PUSH2 0x2139 JUMP JUMPDEST DUP3 MSTORE POP POP JUMP JUMPDEST PUSH2 0x1B8B PUSH2 0x1B86 DUP3 PUSH2 0x2139 JUMP JUMPDEST PUSH2 0x2279 JUMP JUMPDEST DUP3 MSTORE POP POP JUMP JUMPDEST PUSH2 0x1B9A DUP2 PUSH2 0x214B JUMP JUMPDEST DUP3 MSTORE POP POP JUMP JUMPDEST PUSH2 0x1BA9 DUP2 PUSH2 0x2157 JUMP JUMPDEST DUP3 MSTORE POP POP JUMP JUMPDEST PUSH1 0x0 PUSH2 0x1BBA DUP3 PUSH2 0x20CD JUMP JUMPDEST PUSH2 0x1BC4 DUP2 DUP6 PUSH2 0x20D8 JUMP JUMPDEST SWAP4 POP PUSH2 0x1BD4 DUP2 DUP6 PUSH1 0x20 DUP7 ADD PUSH2 0x219A JUMP JUMPDEST PUSH2 0x1BDD DUP2 PUSH2 0x23A6 JUMP JUMPDEST DUP5 ADD SWAP2 POP POP SWAP3 SWAP2 POP POP JUMP JUMPDEST PUSH1 0x0 PUSH2 0x1BF3 DUP3 PUSH2 0x20CD JUMP JUMPDEST PUSH2 0x1BFD DUP2 DUP6 PUSH2 0x20E9 JUMP JUMPDEST SWAP4 POP PUSH2 0x1C0D DUP2 DUP6 PUSH1 0x20 DUP7 ADD PUSH2 0x219A JUMP JUMPDEST DUP1 DUP5 ADD SWAP2 POP POP SWAP3 SWAP2 POP POP JUMP JUMPDEST PUSH1 0x0 DUP2 SLOAD PUSH2 0x1C26 DUP2 PUSH2 0x21CD JUMP JUMPDEST PUSH2 0x1C30 DUP2 DUP7 PUSH2 0x20E9 JUMP JUMPDEST SWAP5 POP PUSH1 0x1 DUP3 AND PUSH1 0x0 DUP2 EQ PUSH2 0x1C4B JUMPI PUSH1 0x1 DUP2 EQ PUSH2 0x1C5C JUMPI PUSH2 0x1C8F JUMP JUMPDEST PUSH1 0xFF NOT DUP4 AND DUP7 MSTORE DUP2 DUP7 ADD SWAP4 POP PUSH2 0x1C8F JUMP JUMPDEST PUSH2 0x1C65 DUP6 PUSH2 0x20B8 JUMP JUMPDEST PUSH1 0x0 JUMPDEST DUP4 DUP2 LT ISZERO PUSH2 0x1C87 JUMPI DUP2 SLOAD DUP2 DUP10 ADD MSTORE PUSH1 0x1 DUP3 ADD SWAP2 POP PUSH1 0x20 DUP2 ADD SWAP1 POP PUSH2 0x1C68 JUMP JUMPDEST DUP4 DUP9 ADD SWAP6 POP POP POP JUMPDEST POP POP POP SWAP3 SWAP2 POP POP JUMP JUMPDEST PUSH1 0x0 PUSH2 0x1CA5 PUSH1 0x24 DUP4 PUSH2 0x20F4 JUMP JUMPDEST SWAP2 POP PUSH2 0x1CB0 DUP3 PUSH2 0x23C4 JUMP JUMPDEST PUSH1 0x40 DUP3 ADD SWAP1 POP SWAP2 SWAP1 POP JUMP JUMPDEST PUSH1 0x0 PUSH2 0x1CC8 PUSH1 0x26 DUP4 PUSH2 0x20F4 JUMP JUMPDEST SWAP2 POP PUSH2 0x1CD3 DUP3 PUSH2 0x2413 JUMP JUMPDEST PUSH1 0x40 DUP3 ADD SWAP1 POP SWAP2 SWAP1 POP JUMP JUMPDEST PUSH1 0x0 PUSH2 0x1CEB PUSH1 0x1B DUP4 PUSH2 0x20F4 JUMP JUMPDEST SWAP2 POP PUSH2 0x1CF6 DUP3 PUSH2 0x2462 JUMP JUMPDEST PUSH1 0x20 DUP3 ADD SWAP1 POP SWAP2 SWAP1 POP JUMP JUMPDEST PUSH1 0x0 PUSH2 0x1D0E PUSH1 0x1C DUP4 PUSH2 0x20F4 JUMP JUMPDEST SWAP2 POP PUSH2 0x1D19 DUP3 PUSH2 0x248B JUMP JUMPDEST PUSH1 0x20 DUP3 ADD SWAP1 POP SWAP2 SWAP1 POP JUMP JUMPDEST PUSH1 0x0 PUSH2 0x1D31 PUSH1 0x30 DUP4 PUSH2 0x20F4 JUMP JUMPDEST SWAP2 POP PUSH2 0x1D3C DUP3 PUSH2 0x24B4 JUMP JUMPDEST PUSH1 0x40 DUP3 ADD SWAP1 POP SWAP2 SWAP1 POP JUMP JUMPDEST PUSH1 0x0 PUSH2 0x1D54 PUSH1 0x1A DUP4 PUSH2 0x20F4 JUMP JUMPDEST SWAP2 POP PUSH2 0x1D5F DUP3 PUSH2 0x2503 JUMP JUMPDEST PUSH1 0x20 DUP3 ADD SWAP1 POP SWAP2 SWAP1 POP JUMP JUMPDEST PUSH1 0x0 PUSH2 0x1D77 PUSH1 0x25 DUP4 PUSH2 0x20F4 JUMP JUMPDEST SWAP2 POP PUSH2 0x1D82 DUP3 PUSH2 0x252C JUMP JUMPDEST PUSH1 0x40 DUP3 ADD SWAP1 POP SWAP2 SWAP1 POP JUMP JUMPDEST PUSH1 0x0 PUSH2 0x1D9A PUSH1 0x17 DUP4 PUSH2 0x20F4 JUMP JUMPDEST SWAP2 POP PUSH2 0x1DA5 DUP3 PUSH2 0x257B JUMP JUMPDEST PUSH1 0x20 DUP3 ADD SWAP1 POP SWAP2 SWAP1 POP JUMP JUMPDEST PUSH1 0x0 PUSH2 0x1DBD PUSH1 0x3E DUP4 PUSH2 0x20F4 JUMP JUMPDEST SWAP2 POP PUSH2 0x1DC8 DUP3 PUSH2 0x25A4 JUMP JUMPDEST PUSH1 0x40 DUP3 ADD SWAP1 POP SWAP2 SWAP1 POP JUMP JUMPDEST PUSH2 0x1DDC DUP2 PUSH2 0x2181 JUMP JUMPDEST DUP3 MSTORE POP POP JUMP JUMPDEST PUSH2 0x1DF3 PUSH2 0x1DEE DUP3 PUSH2 0x2181 JUMP JUMPDEST PUSH2 0x229D JUMP JUMPDEST DUP3 MSTORE POP POP JUMP JUMPDEST PUSH1 0x0 PUSH2 0x1E05 DUP3 DUP8 PUSH2 0x1B7A JUMP JUMPDEST PUSH1 0x14 DUP3 ADD SWAP2 POP PUSH2 0x1E15 DUP3 DUP7 PUSH2 0x1DE2 JUMP JUMPDEST PUSH1 0x20 DUP3 ADD SWAP2 POP PUSH2 0x1E25 DUP3 DUP6 PUSH2 0x1BE8 JUMP JUMPDEST SWAP2 POP PUSH2 0x1E31 DUP3 DUP5 PUSH2 0x1DE2 JUMP JUMPDEST PUSH1 0x20 DUP3 ADD SWAP2 POP DUP2 SWAP1 POP SWAP6 SWAP5 POP POP POP POP POP JUMP JUMPDEST PUSH1 0x0 PUSH2 0x1E4F DUP3 DUP5 PUSH2 0x1C19 JUMP JUMPDEST SWAP2 POP DUP2 SWAP1 POP SWAP3 SWAP2 POP POP JUMP JUMPDEST PUSH1 0x0 PUSH1 0x20 DUP3 ADD SWAP1 POP PUSH2 0x1E6F PUSH1 0x0 DUP4 ADD DUP5 PUSH2 0x1B6B JUMP JUMPDEST SWAP3 SWAP2 POP POP JUMP JUMPDEST PUSH1 0x0 PUSH1 0x80 DUP3 ADD SWAP1 POP PUSH2 0x1E8A PUSH1 0x0 DUP4 ADD DUP8 PUSH2 0x1B6B JUMP JUMPDEST PUSH2 0x1E97 PUSH1 0x20 DUP4 ADD DUP7 PUSH2 0x1DD3 JUMP JUMPDEST DUP2 DUP2 SUB PUSH1 0x40 DUP4 ADD MSTORE PUSH2 0x1EA9 DUP2 DUP6 PUSH2 0x1BAF JUMP JUMPDEST SWAP1 POP PUSH2 0x1EB8 PUSH1 0x60 DUP4 ADD DUP5 PUSH2 0x1B91 JUMP JUMPDEST SWAP6 SWAP5 POP POP POP POP POP JUMP JUMPDEST PUSH1 0x0 PUSH1 0x20 DUP3 ADD SWAP1 POP PUSH2 0x1ED6 PUSH1 0x0 DUP4 ADD DUP5 PUSH2 0x1B91 JUMP JUMPDEST SWAP3 SWAP2 POP POP JUMP JUMPDEST PUSH1 0x0 PUSH1 0x20 DUP3 ADD SWAP1 POP PUSH2 0x1EF1 PUSH1 0x0 DUP4 ADD DUP5 PUSH2 0x1BA0 JUMP JUMPDEST SWAP3 SWAP2 POP POP JUMP JUMPDEST PUSH1 0x0 PUSH1 0x20 DUP3 ADD SWAP1 POP DUP2 DUP2 SUB PUSH1 0x0 DUP4 ADD MSTORE PUSH2 0x1F10 DUP2 PUSH2 0x1C98 JUMP JUMPDEST SWAP1 POP SWAP2 SWAP1 POP JUMP JUMPDEST PUSH1 0x0 PUSH1 0x20 DUP3 ADD SWAP1 POP DUP2 DUP2 SUB PUSH1 0x0 DUP4 ADD MSTORE PUSH2 0x1F30 DUP2 PUSH2 0x1CBB JUMP JUMPDEST SWAP1 POP SWAP2 SWAP1 POP JUMP JUMPDEST PUSH1 0x0 PUSH1 0x20 DUP3 ADD SWAP1 POP DUP2 DUP2 SUB PUSH1 0x0 DUP4 ADD MSTORE PUSH2 0x1F50 DUP2 PUSH2 0x1CDE JUMP JUMPDEST SWAP1 POP SWAP2 SWAP1 POP JUMP JUMPDEST PUSH1 0x0 PUSH1 0x20 DUP3 ADD SWAP1 POP DUP2 DUP2 SUB PUSH1 0x0 DUP4 ADD MSTORE PUSH2 0x1F70 DUP2 PUSH2 0x1D01 JUMP JUMPDEST SWAP1 POP SWAP2 SWAP1 POP JUMP JUMPDEST PUSH1 0x0 PUSH1 0x20 DUP3 ADD SWAP1 POP DUP2 DUP2 SUB PUSH1 0x0 DUP4 ADD MSTORE PUSH2 0x1F90 DUP2 PUSH2 0x1D24 JUMP JUMPDEST SWAP1 POP SWAP2 SWAP1 POP JUMP JUMPDEST PUSH1 0x0 PUSH1 0x20 DUP3 ADD SWAP1 POP DUP2 DUP2 SUB PUSH1 0x0 DUP4 ADD MSTORE PUSH2 0x1FB0 DUP2 PUSH2 0x1D47 JUMP JUMPDEST SWAP1 POP SWAP2 SWAP1 POP JUMP JUMPDEST PUSH1 0x0 PUSH1 0x20 DUP3 ADD SWAP1 POP DUP2 DUP2 SUB PUSH1 0x0 DUP4 ADD MSTORE PUSH2 0x1FD0 DUP2 PUSH2 0x1D6A JUMP JUMPDEST SWAP1 POP SWAP2 SWAP1 POP JUMP JUMPDEST PUSH1 0x0 PUSH1 0x20 DUP3 ADD SWAP1 POP DUP2 DUP2 SUB PUSH1 0x0 DUP4 ADD MSTORE PUSH2 0x1FF0 DUP2 PUSH2 0x1D8D JUMP JUMPDEST SWAP1 POP SWAP2 SWAP1 POP JUMP JUMPDEST PUSH1 0x0 PUSH1 0x20 DUP3 ADD SWAP1 POP DUP2 DUP2 SUB PUSH1 0x0 DUP4 ADD MSTORE PUSH2 0x2010 DUP2 PUSH2 0x1DB0 JUMP JUMPDEST SWAP1 POP SWAP2 SWAP1 POP JUMP JUMPDEST PUSH1 0x0 PUSH1 0x20 DUP3 ADD SWAP1 POP PUSH2 0x202C PUSH1 0x0 DUP4 ADD DUP5 PUSH2 0x1DD3 JUMP JUMPDEST SWAP3 SWAP2 POP POP JUMP JUMPDEST PUSH1 0x0 PUSH1 0x40 DUP3 ADD SWAP1 POP PUSH2 0x2047 PUSH1 0x0 DUP4 ADD DUP6 PUSH2 0x1DD3 JUMP JUMPDEST DUP2 DUP2 SUB PUSH1 0x20 DUP4 ADD MSTORE PUSH2 0x2059 DUP2 DUP5 PUSH2 0x1BAF JUMP JUMPDEST SWAP1 POP SWAP4 SWAP3 POP POP POP JUMP JUMPDEST PUSH1 0x0 PUSH2 0x206C PUSH2 0x207D JUMP JUMPDEST SWAP1 POP PUSH2 0x2078 DUP3 DUP3 PUSH2 0x21FF JUMP JUMPDEST SWAP2 SWAP1 POP JUMP JUMPDEST PUSH1 0x0 PUSH1 0x40 MLOAD SWAP1 POP SWAP1 JUMP JUMPDEST PUSH1 0x0 PUSH8 0xFFFFFFFFFFFFFFFF DUP3 GT ISZERO PUSH2 0x20A2 JUMPI PUSH2 0x20A1 PUSH2 0x2363 JUMP JUMPDEST JUMPDEST PUSH2 0x20AB DUP3 PUSH2 0x23A6 JUMP JUMPDEST SWAP1 POP PUSH1 0x20 DUP2 ADD SWAP1 POP SWAP2 SWAP1 POP JUMP JUMPDEST PUSH1 0x0 DUP2 SWAP1 POP DUP2 PUSH1 0x0 MSTORE PUSH1 0x20 PUSH1 0x0 KECCAK256 SWAP1 POP SWAP2 SWAP1 POP JUMP JUMPDEST PUSH1 0x0 DUP2 MLOAD SWAP1 POP SWAP2 SWAP1 POP JUMP JUMPDEST PUSH1 0x0 DUP3 DUP3 MSTORE PUSH1 0x20 DUP3 ADD SWAP1 POP SWAP3 SWAP2 POP POP JUMP JUMPDEST PUSH1 0x0 DUP2 SWAP1 POP SWAP3 SWAP2 POP POP JUMP JUMPDEST PUSH1 0x0 DUP3 DUP3 MSTORE PUSH1 0x20 DUP3 ADD SWAP1 POP SWAP3 SWAP2 POP POP JUMP JUMPDEST PUSH1 0x0 PUSH2 0x2110 DUP3 PUSH2 0x2181 JUMP JUMPDEST SWAP2 POP PUSH2 0x211B DUP4 PUSH2 0x2181 JUMP JUMPDEST SWAP3 POP DUP3 DUP3 LT ISZERO PUSH2 0x212E JUMPI PUSH2 0x212D PUSH2 0x22A7 JUMP JUMPDEST JUMPDEST DUP3 DUP3 SUB SWAP1 POP SWAP3 SWAP2 POP POP JUMP JUMPDEST PUSH1 0x0 PUSH2 0x2144 DUP3 PUSH2 0x2161 JUMP JUMPDEST SWAP1 POP SWAP2 SWAP1 POP JUMP JUMPDEST PUSH1 0x0 DUP2 ISZERO ISZERO SWAP1 POP SWAP2 SWAP1 POP JUMP JUMPDEST PUSH1 0x0 DUP2 SWAP1 POP SWAP2 SWAP1 POP JUMP JUMPDEST PUSH1 0x0 PUSH20 0xFFFFFFFFFFFFFFFFFFFFFFFFFFFFFFFFFFFFFFFF DUP3 AND SWAP1 POP SWAP2 SWAP1 POP JUMP JUMPDEST PUSH1 0x0 DUP2 SWAP1 POP SWAP2 SWAP1 POP JUMP JUMPDEST DUP3 DUP2 DUP4 CALLDATACOPY PUSH1 0x0 DUP4 DUP4 ADD MSTORE POP POP POP JUMP JUMPDEST PUSH1 0x0 JUMPDEST DUP4 DUP2 LT ISZERO PUSH2 0x21B8 JUMPI DUP1 DUP3 ADD MLOAD DUP2 DUP5 ADD MSTORE PUSH1 0x20 DUP2 ADD SWAP1 POP PUSH2 0x219D JUMP JUMPDEST DUP4 DUP2 GT ISZERO PUSH2 0x21C7 JUMPI PUSH1 0x0 DUP5 DUP5 ADD MSTORE JUMPDEST POP POP POP POP JUMP JUMPDEST PUSH1 0x0 PUSH1 0x2 DUP3 DIV SWAP1 POP PUSH1 0x1 DUP3 AND DUP1 PUSH2 0x21E5 JUMPI PUSH1 0x7F DUP3 AND SWAP2 POP JUMPDEST PUSH1 0x20 DUP3 LT DUP2 EQ ISZERO PUSH2 0x21F9 JUMPI PUSH2 0x21F8 PUSH2 0x22D6 JUMP JUMPDEST JUMPDEST POP SWAP2 SWAP1 POP JUMP JUMPDEST PUSH2 0x2208 DUP3 PUSH2 0x23A6 JUMP JUMPDEST DUP2 ADD DUP2 DUP2 LT PUSH8 0xFFFFFFFFFFFFFFFF DUP3 GT OR ISZERO PUSH2 0x2227 JUMPI PUSH2 0x2226 PUSH2 0x2363 JUMP JUMPDEST JUMPDEST DUP1 PUSH1 0x40 MSTORE POP POP POP JUMP JUMPDEST PUSH1 0x0 PUSH2 0x223B DUP3 PUSH2 0x2181 JUMP JUMPDEST SWAP2 POP PUSH32 0xFFFFFFFFFFFFFFFFFFFFFFFFFFFFFFFFFFFFFFFFFFFFFFFFFFFFFFFFFFFFFFFF DUP3 EQ ISZERO PUSH2 0x226E JUMPI PUSH2 0x226D PUSH2 0x22A7 JUMP JUMPDEST JUMPDEST PUSH1 0x1 DUP3 ADD SWAP1 POP SWAP2 SWAP1 POP JUMP JUMPDEST PUSH1 0x0 PUSH2 0x2284 DUP3 PUSH2 0x228B JUMP JUMPDEST SWAP1 POP SWAP2 SWAP1 POP JUMP JUMPDEST PUSH1 0x0 PUSH2 0x2296 DUP3 PUSH2 0x23B7 JUMP JUMPDEST SWAP1 POP SWAP2 SWAP1 POP JUMP JUMPDEST PUSH1 0x0 DUP2 SWAP1 POP SWAP2 SWAP1 POP JUMP JUMPDEST PUSH32 0x4E487B7100000000000000000000000000000000000000000000000000000000 PUSH1 0x0 MSTORE PUSH1 0x11 PUSH1 0x4 MSTORE PUSH1 0x24 PUSH1 0x0 REVERT JUMPDEST PUSH32 0x4E487B7100000000000000000000000000000000000000000000000000000000 PUSH1 0x0 MSTORE PUSH1 0x22 PUSH1 0x4 MSTORE PUSH1 0x24 PUSH1 0x0 REVERT JUMPDEST PUSH32 0x4E487B7100000000000000000000000000000000000000000000000000000000 PUSH1 0x0 MSTORE PUSH1 0x31 PUSH1 0x4 MSTORE PUSH1 0x24 PUSH1 0x0 REVERT JUMPDEST PUSH32 0x4E487B7100000000000000000000000000000000000000000000000000000000 PUSH1 0x0 MSTORE PUSH1 0x32 PUSH1 0x4 MSTORE PUSH1 0x24 PUSH1 0x0 REVERT JUMPDEST PUSH32 0x4E487B7100000000000000000000000000000000000000000000000000000000 PUSH1 0x0 MSTORE PUSH1 0x41 PUSH1 0x4 MSTORE PUSH1 0x24 PUSH1 0x0 REVERT JUMPDEST PUSH1 0x0 DUP1 REVERT JUMPDEST PUSH1 0x0 DUP1 REVERT JUMPDEST PUSH1 0x0 DUP1 REVERT JUMPDEST PUSH1 0x0 DUP1 REVERT JUMPDEST PUSH1 0x0 PUSH1 0x1F NOT PUSH1 0x1F DUP4 ADD AND SWAP1 POP SWAP2 SWAP1 POP JUMP JUMPDEST PUSH1 0x0 DUP2 PUSH1 0x60 SHL SWAP1 POP SWAP2 SWAP1 POP JUMP JUMPDEST PUSH32 0x4F6E6C79207369676E6572732063616E20706572666F726D2074686973206163 PUSH1 0x0 DUP3 ADD MSTORE PUSH32 0x74696F6E00000000000000000000000000000000000000000000000000000000 PUSH1 0x20 DUP3 ADD MSTORE POP JUMP JUMPDEST PUSH32 0x4F6E6C7920746865206F776E65722063616E20706572666F726D207468697320 PUSH1 0x0 DUP3 ADD MSTORE PUSH32 0x616374696F6E0000000000000000000000000000000000000000000000000000 PUSH1 0x20 DUP3 ADD MSTORE POP JUMP JUMPDEST PUSH32 0x4164647265737320697320616C72656164792061207369676E65720000000000 PUSH1 0x0 DUP3 ADD MSTORE POP JUMP JUMPDEST PUSH32 0x5472616E73616374696F6E20657865637574696F6E206661696C656400000000 PUSH1 0x0 DUP3 ADD MSTORE POP JUMP JUMPDEST PUSH32 0x4F6E6C7920746865207265636F7665727920616464726573732063616E206361 PUSH1 0x0 DUP3 ADD MSTORE PUSH32 0x6C6C20746869732066756E6374696F6E00000000000000000000000000000000 PUSH1 0x20 DUP3 ADD MSTORE POP JUMP JUMPDEST PUSH32 0x5472616E73616374696F6E20646F6573206E6F74206578697374000000000000 PUSH1 0x0 DUP3 ADD MSTORE POP JUMP JUMPDEST PUSH32 0x5472616E73616374696F6E2068617320616C7265616479206265656E20657865 PUSH1 0x0 DUP3 ADD MSTORE PUSH32 0x6375746564000000000000000000000000000000000000000000000000000000 PUSH1 0x20 DUP3 ADD MSTORE POP JUMP JUMPDEST PUSH32 0x41646472657373206973206E6F742061207369676E6572000000000000000000 PUSH1 0x0 DUP3 ADD MSTORE POP JUMP JUMPDEST PUSH32 0x43616E6E6F742072656D6F7665207369676E65722C206D696E696D756D207265 PUSH1 0x0 DUP3 ADD MSTORE PUSH32 0x717569726564207369676E6572732077696C6C206E6F74206265206D65740000 PUSH1 0x20 DUP3 ADD MSTORE POP JUMP JUMPDEST PUSH2 0x25FC DUP2 PUSH2 0x2139 JUMP JUMPDEST DUP2 EQ PUSH2 0x2607 JUMPI PUSH1 0x0 DUP1 REVERT JUMPDEST POP JUMP JUMPDEST PUSH2 0x2613 DUP2 PUSH2 0x2157 JUMP JUMPDEST DUP2 EQ PUSH2 0x261E JUMPI PUSH1 0x0 DUP1 REVERT JUMPDEST POP JUMP JUMPDEST PUSH2 0x262A DUP2 PUSH2 0x2181 JUMP JUMPDEST DUP2 EQ PUSH2 0x2635 JUMPI PUSH1 0x0 DUP1 REVERT JUMPDEST POP JUMP INVALID LOG2 PUSH5 0x6970667358 0x22 SLT KECCAK256 0xE2 AND 0xB4 GASLIMIT 0xA5 DUP3 0xE0 SWAP3 SLOAD 0xF7 DUP4 0x2D 0xED 0x5D 0xB5 0xCB SHR DUP12 LOG2 0x28 BASEFEE MLOAD REVERT DUP5 PUSH14 0xA5512BA40B4E4964736F6C634300 ADDMOD SMOD STOP CALLER "
				},
				"gasEstimates": {
					"creation": {
						"codeDepositCost": "1967600",
						"executionCost": "infinite",
						"totalCost": "infinite"
					},
					"external": {
						"addSigner(address)": "79437",
						"approvals(bytes32,address)": "3110",
						"approveTransaction(bytes32)": "infinite",
						"cancelTransaction(bytes32)": "infinite",
						"createTransaction(address,uint256,bytes)": "infinite",
						"executeTransaction(bytes32)": "infinite",
						"isSigner(address)": "2868",
						"owner()": "2578",
						"recoverWallet(address)": "30592",
						"recoveryAddress()": "2603",
						"removeSigner(address)": "infinite",
						"requiredSignatures()": "2474",
						"signers(uint256)": "5024",
						"transactionList(uint256)": "4906",
						"transactions(bytes32)": "infinite"
					}
				},
				"methodIdentifiers": {
					"addSigner(address)": "eb12d61e",
					"approvals(bytes32,address)": "24f6c776",
					"approveTransaction(bytes32)": "8f4fde9f",
					"cancelTransaction(bytes32)": "70ba3339",
					"createTransaction(address,uint256,bytes)": "a9496e75",
					"executeTransaction(bytes32)": "c69ed5f2",
					"isSigner(address)": "7df73e27",
					"owner()": "8da5cb5b",
					"recoverWallet(address)": "8f671849",
					"recoveryAddress()": "710eb26c",
					"removeSigner(address)": "0e316ab7",
					"requiredSignatures()": "8d068043",
					"signers(uint256)": "2079fb9a",
					"transactionList(uint256)": "04ef5b21",
					"transactions(bytes32)": "642f2eaf"
				}
			},
			"storageLayout": {
				"storage": [
					{
						"astId": 3,
						"contract": "contracts/MultiSigWallet.sol:MultiSigWallet",
						"label": "owner",
						"offset": 0,
						"slot": "0",
						"type": "t_address"
					},
					{
						"astId": 6,
						"contract": "contracts/MultiSigWallet.sol:MultiSigWallet",
						"label": "signers",
						"offset": 0,
						"slot": "1",
						"type": "t_array(t_address)dyn_storage"
					},
					{
						"astId": 8,
						"contract": "contracts/MultiSigWallet.sol:MultiSigWallet",
						"label": "requiredSignatures",
						"offset": 0,
						"slot": "2",
						"type": "t_uint256"
					},
					{
						"astId": 12,
						"contract": "contracts/MultiSigWallet.sol:MultiSigWallet",
						"label": "isSigner",
						"offset": 0,
						"slot": "3",
						"type": "t_mapping(t_address,t_bool)"
					},
					{
						"astId": 17,
						"contract": "contracts/MultiSigWallet.sol:MultiSigWallet",
						"label": "transactions",
						"offset": 0,
						"slot": "4",
						"type": "t_mapping(t_bytes32,t_struct(Transaction)73_storage)"
					},
					{
						"astId": 23,
						"contract": "contracts/MultiSigWallet.sol:MultiSigWallet",
						"label": "approvals",
						"offset": 0,
						"slot": "5",
						"type": "t_mapping(t_bytes32,t_mapping(t_address,t_bool))"
					},
					{
						"astId": 26,
						"contract": "contracts/MultiSigWallet.sol:MultiSigWallet",
						"label": "transactionList",
						"offset": 0,
						"slot": "6",
						"type": "t_array(t_bytes32)dyn_storage"
					},
					{
						"astId": 28,
						"contract": "contracts/MultiSigWallet.sol:MultiSigWallet",
						"label": "recoveryAddress",
						"offset": 0,
						"slot": "7",
						"type": "t_address"
					}
				],
				"types": {
					"t_address": {
						"encoding": "inplace",
						"label": "address",
						"numberOfBytes": "20"
					},
					"t_array(t_address)dyn_storage": {
						"base": "t_address",
						"encoding": "dynamic_array",
						"label": "address[]",
						"numberOfBytes": "32"
					},
					"t_array(t_bytes32)dyn_storage": {
						"base": "t_bytes32",
						"encoding": "dynamic_array",
						"label": "bytes32[]",
						"numberOfBytes": "32"
					},
					"t_bool": {
						"encoding": "inplace",
						"label": "bool",
						"numberOfBytes": "1"
					},
					"t_bytes32": {
						"encoding": "inplace",
						"label": "bytes32",
						"numberOfBytes": "32"
					},
					"t_bytes_storage": {
						"encoding": "bytes",
						"label": "bytes",
						"numberOfBytes": "32"
					},
					"t_mapping(t_address,t_bool)": {
						"encoding": "mapping",
						"key": "t_address",
						"label": "mapping(address => bool)",
						"numberOfBytes": "32",
						"value": "t_bool"
					},
					"t_mapping(t_bytes32,t_mapping(t_address,t_bool))": {
						"encoding": "mapping",
						"key": "t_bytes32",
						"label": "mapping(bytes32 => mapping(address => bool))",
						"numberOfBytes": "32",
						"value": "t_mapping(t_address,t_bool)"
					},
					"t_mapping(t_bytes32,t_struct(Transaction)73_storage)": {
						"encoding": "mapping",
						"key": "t_bytes32",
						"label": "mapping(bytes32 => struct MultiSigWallet.Transaction)",
						"numberOfBytes": "32",
						"value": "t_struct(Transaction)73_storage"
					},
					"t_struct(Transaction)73_storage": {
						"encoding": "inplace",
						"label": "struct MultiSigWallet.Transaction",
						"members": [
							{
								"astId": 66,
								"contract": "contracts/MultiSigWallet.sol:MultiSigWallet",
								"label": "destination",
								"offset": 0,
								"slot": "0",
								"type": "t_address"
							},
							{
								"astId": 68,
								"contract": "contracts/MultiSigWallet.sol:MultiSigWallet",
								"label": "value",
								"offset": 0,
								"slot": "1",
								"type": "t_uint256"
							},
							{
								"astId": 70,
								"contract": "contracts/MultiSigWallet.sol:MultiSigWallet",
								"label": "data",
								"offset": 0,
								"slot": "2",
								"type": "t_bytes_storage"
							},
							{
								"astId": 72,
								"contract": "contracts/MultiSigWallet.sol:MultiSigWallet",
								"label": "executed",
								"offset": 0,
								"slot": "3",
								"type": "t_bool"
							}
						],
						"numberOfBytes": "128"
					},
					"t_uint256": {
						"encoding": "inplace",
						"label": "uint256",
						"numberOfBytes": "32"
					}
				}
			},
			"userdoc": {
				"kind": "user",
				"methods": {},
				"version": 1
			}
		}
	}
}