{
	"contracts/MultiSigWallet.sol": {
		"MultiSigWallet": {
			"abi": [
				{
					"inputs": [
						{
							"internalType": "address[]",
							"name": "_signers",
							"type": "address[]"
						},
						{
							"internalType": "uint256",
							"name": "_requiredSignatures",
							"type": "uint256"
						},
						{
							"internalType": "address",
							"name": "_recoveryAddress",
							"type": "address"
						}
					],
					"stateMutability": "nonpayable",
					"type": "constructor"
				},
				{
					"anonymous": false,
					"inputs": [
						{
							"indexed": true,
							"internalType": "bytes32",
							"name": "id",
							"type": "bytes32"
						},
						{
							"indexed": true,
							"internalType": "address",
							"name": "signer",
							"type": "address"
						}
					],
					"name": "Approval",
					"type": "event"
				},
				{
					"anonymous": false,
					"inputs": [
						{
							"indexed": true,
							"internalType": "bytes32",
							"name": "id",
							"type": "bytes32"
						}
					],
					"name": "Cancellation",
					"type": "event"
				},
				{
					"anonymous": false,
					"inputs": [
						{
							"indexed": true,
							"internalType": "bytes32",
							"name": "id",
							"type": "bytes32"
						}
					],
					"name": "Execution",
					"type": "event"
				},
				{
					"anonymous": false,
					"inputs": [
						{
							"indexed": true,
							"internalType": "bytes32",
							"name": "id",
							"type": "bytes32"
						},
						{
							"indexed": true,
							"internalType": "address",
							"name": "destination",
							"type": "address"
						},
						{
							"indexed": false,
							"internalType": "uint256",
							"name": "value",
							"type": "uint256"
						},
						{
							"indexed": false,
							"internalType": "bytes",
							"name": "data",
							"type": "bytes"
						}
					],
					"name": "NewTransaction",
					"type": "event"
				},
				{
					"anonymous": false,
					"inputs": [
						{
							"indexed": true,
							"internalType": "address",
							"name": "previousOwner",
							"type": "address"
						},
						{
							"indexed": true,
							"internalType": "address",
							"name": "newOwner",
							"type": "address"
						}
					],
					"name": "OwnershipTransferred",
					"type": "event"
				},
				{
					"anonymous": false,
					"inputs": [
						{
							"indexed": true,
							"internalType": "address",
							"name": "signer",
							"type": "address"
						},
						{
							"indexed": true,
							"internalType": "bool",
							"name": "isSigner",
							"type": "bool"
						}
					],
					"name": "SignerUpdate",
					"type": "event"
				},
				{
					"inputs": [
						{
							"internalType": "address",
							"name": "signer",
							"type": "address"
						}
					],
					"name": "addSigner",
					"outputs": [],
					"stateMutability": "nonpayable",
					"type": "function"
				},
				{
					"inputs": [
						{
							"internalType": "bytes32",
							"name": "",
							"type": "bytes32"
						},
						{
							"internalType": "address",
							"name": "",
							"type": "address"
						}
					],
					"name": "approvals",
					"outputs": [
						{
							"internalType": "bool",
							"name": "",
							"type": "bool"
						}
					],
					"stateMutability": "view",
					"type": "function"
				},
				{
					"inputs": [
						{
							"internalType": "bytes32",
							"name": "id",
							"type": "bytes32"
						}
					],
					"name": "approveTransaction",
					"outputs": [],
					"stateMutability": "nonpayable",
					"type": "function"
				},
				{
					"inputs": [
						{
							"internalType": "bytes32",
							"name": "id",
							"type": "bytes32"
						}
					],
					"name": "cancelTransaction",
					"outputs": [],
					"stateMutability": "nonpayable",
					"type": "function"
				},
				{
					"inputs": [
						{
							"internalType": "address",
							"name": "destination",
							"type": "address"
						},
						{
							"internalType": "uint256",
							"name": "value",
							"type": "uint256"
						},
						{
							"internalType": "bytes",
							"name": "data",
							"type": "bytes"
						}
					],
					"name": "createTransaction",
					"outputs": [
						{
							"internalType": "bytes32",
							"name": "",
							"type": "bytes32"
						}
					],
					"stateMutability": "nonpayable",
					"type": "function"
				},
				{
					"inputs": [
						{
							"internalType": "address",
							"name": "destination",
							"type": "address"
						},
						{
							"internalType": "uint256",
							"name": "value",
							"type": "uint256"
						},
						{
							"internalType": "bytes",
							"name": "data",
							"type": "bytes"
						}
					],
					"name": "createUniqueId",
					"outputs": [
						{
							"internalType": "bytes32",
							"name": "",
							"type": "bytes32"
						}
					],
					"stateMutability": "view",
					"type": "function"
				},
				{
					"inputs": [
						{
							"internalType": "bytes32",
							"name": "id",
							"type": "bytes32"
						}
					],
					"name": "executeTransaction",
					"outputs": [],
					"stateMutability": "nonpayable",
					"type": "function"
				},
				{
					"inputs": [
						{
							"internalType": "address",
							"name": "",
							"type": "address"
						}
					],
					"name": "isSigner",
					"outputs": [
						{
							"internalType": "bool",
							"name": "",
							"type": "bool"
						}
					],
					"stateMutability": "view",
					"type": "function"
				},
				{
					"inputs": [],
					"name": "owner",
					"outputs": [
						{
							"internalType": "address",
							"name": "",
							"type": "address"
						}
					],
					"stateMutability": "view",
					"type": "function"
				},
				{
					"inputs": [
						{
							"internalType": "address",
							"name": "newOwner",
							"type": "address"
						}
					],
					"name": "recoverWallet",
					"outputs": [],
					"stateMutability": "nonpayable",
					"type": "function"
				},
				{
					"inputs": [],
					"name": "recoveryAddress",
					"outputs": [
						{
							"internalType": "address",
							"name": "",
							"type": "address"
						}
					],
					"stateMutability": "view",
					"type": "function"
				},
				{
					"inputs": [
						{
							"internalType": "address",
							"name": "signer",
							"type": "address"
						}
					],
					"name": "removeSigner",
					"outputs": [],
					"stateMutability": "nonpayable",
					"type": "function"
				},
				{
					"inputs": [],
					"name": "requiredSignatures",
					"outputs": [
						{
							"internalType": "uint256",
							"name": "",
							"type": "uint256"
						}
					],
					"stateMutability": "view",
					"type": "function"
				},
				{
					"inputs": [
						{
							"internalType": "uint256",
							"name": "",
							"type": "uint256"
						}
					],
					"name": "signers",
					"outputs": [
						{
							"internalType": "address",
							"name": "",
							"type": "address"
						}
					],
					"stateMutability": "view",
					"type": "function"
				},
				{
					"inputs": [
						{
							"internalType": "uint256",
							"name": "",
							"type": "uint256"
						}
					],
					"name": "transactionList",
					"outputs": [
						{
							"internalType": "bytes32",
							"name": "",
							"type": "bytes32"
						}
					],
					"stateMutability": "view",
					"type": "function"
				},
				{
					"inputs": [
						{
							"internalType": "bytes32",
							"name": "",
							"type": "bytes32"
						}
					],
					"name": "transactions",
					"outputs": [
						{
							"internalType": "address",
							"name": "destination",
							"type": "address"
						},
						{
							"internalType": "uint256",
							"name": "value",
							"type": "uint256"
						},
						{
							"internalType": "bytes",
							"name": "data",
							"type": "bytes"
						},
						{
							"internalType": "bool",
							"name": "executed",
							"type": "bool"
						}
					],
					"stateMutability": "view",
					"type": "function"
				}
			],
			"devdoc": {
				"kind": "dev",
				"methods": {
					"addSigner(address)": {
						"details": "Only the contract owner can call this function.",
						"params": {
							"signer": "The address of the signer to be added."
						}
					},
					"approveTransaction(bytes32)": {
						"details": "Only signers can call this function.",
						"params": {
							"id": "The id of the transaction to approve."
						}
					},
					"cancelTransaction(bytes32)": {
						"details": "The transaction must exist and must not have already been executed. The function removes the transaction from the transaction list and deletes its details. It also deletes the approvals for the transaction. An event is emitted to notify that the transaction has been cancelled.",
						"params": {
							"id": "The ID of the transaction to be cancelled."
						}
					},
					"constructor": {
						"params": {
							"_recoveryAddress": "The address that can be used to recover the wallet in case of a lost or compromised account.",
							"_requiredSignatures": "The minimum number of signatures required to execute a transaction.",
							"_signers": "An array of addresses representing the initial signers of the wallet."
						}
					},
					"createTransaction(address,uint256,bytes)": {
						"details": "The function generates a unique ID for the transaction, stores the transaction details in the transactions mapping, adds the transaction ID to the transaction list, and emits an event to notify that a new transaction has been created.",
						"params": {
							"data": "Additional data to include with the transaction.",
							"destination": "The address of the destination for the transaction.",
							"value": "The amount of ether to send with the transaction."
						},
						"returns": {
							"_0": "The unique ID of the created transaction."
						}
					},
					"createUniqueId(address,uint256,bytes)": {
						"details": "This function uses the keccak256 hash function to generate a unique ID for a transaction. The ID is based on the destination address, the amount of Ether to send (in wei), the data to include in the transaction, and the current block timestamp.",
						"params": {
							"data": "The data to include in the transaction.",
							"destination": "The address of the destination contract.",
							"value": "The amount of Ether to send (in wei)."
						},
						"returns": {
							"_0": "A unique transaction ID as a bytes32 value."
						}
					},
					"executeTransaction(bytes32)": {
						"details": "The transaction must exist in the contract, and the function can only be called by a signer.",
						"params": {
							"id": "The ID of the transaction to be approved."
						}
					},
					"recoverWallet(address)": {
						"details": "Only the recovery address can call this function.",
						"params": {
							"newOwner": "The address that will become the new owner of the wallet."
						}
					},
					"removeSigner(address)": {
						"details": "Only the owner of the contract can call this function.",
						"params": {
							"signer": "The address of the signer to be removed."
						}
					}
				},
				"version": 1
			},
			"evm": {
				"assembly": "    /* \"contracts/MultiSigWallet.sol\":64:10910  contract MultiSigWallet {... */\n  mstore(0x40, 0x80)\n    /* \"contracts/MultiSigWallet.sol\":2680:3312  constructor(address[] memory _signers, uint _requiredSignatures, address _recoveryAddress) {... */\n  callvalue\n  dup1\n  iszero\n  tag_1\n  jumpi\n  0x00\n  dup1\n  revert\ntag_1:\n  pop\n  mload(0x40)\n  sub(codesize, bytecodeSize)\n  dup1\n  bytecodeSize\n  dup4\n  codecopy\n  dup2\n  dup2\n  add\n  0x40\n  mstore\n  dup2\n  add\n  swap1\n  tag_2\n  swap2\n  swap1\n  tag_3\n  jump\t// in\ntag_2:\n    /* \"contracts/MultiSigWallet.sol\":2807:2808  0 */\n  0x00\n    /* \"contracts/MultiSigWallet.sol\":2789:2797  _signers */\n  dup4\n    /* \"contracts/MultiSigWallet.sol\":2789:2804  _signers.length */\n  mload\n    /* \"contracts/MultiSigWallet.sol\":2789:2808  _signers.length > 0 */\n  gt\n    /* \"contracts/MultiSigWallet.sol\":2789:2835  _signers.length > 0 && _requiredSignatures > 0 */\n  dup1\n  iszero\n  tag_6\n  jumpi\n  pop\n    /* \"contracts/MultiSigWallet.sol\":2834:2835  0 */\n  0x00\n    /* \"contracts/MultiSigWallet.sol\":2812:2831  _requiredSignatures */\n  dup3\n    /* \"contracts/MultiSigWallet.sol\":2812:2835  _requiredSignatures > 0 */\n  gt\n    /* \"contracts/MultiSigWallet.sol\":2789:2835  _signers.length > 0 && _requiredSignatures > 0 */\ntag_6:\n    /* \"contracts/MultiSigWallet.sol\":2789:2877  _signers.length > 0 && _requiredSignatures > 0 && _requiredSignatures <= _signers.length */\n  dup1\n  iszero\n  tag_7\n  jumpi\n  pop\n    /* \"contracts/MultiSigWallet.sol\":2862:2870  _signers */\n  dup3\n    /* \"contracts/MultiSigWallet.sol\":2862:2877  _signers.length */\n  mload\n    /* \"contracts/MultiSigWallet.sol\":2839:2858  _requiredSignatures */\n  dup3\n    /* \"contracts/MultiSigWallet.sol\":2839:2877  _requiredSignatures <= _signers.length */\n  gt\n  iszero\n    /* \"contracts/MultiSigWallet.sol\":2789:2877  _signers.length > 0 && _requiredSignatures > 0 && _requiredSignatures <= _signers.length */\ntag_7:\n    /* \"contracts/MultiSigWallet.sol\":2781:2895  require(_signers.length > 0 && _requiredSignatures > 0 && _requiredSignatures <= _signers.length, \"Invalid input\") */\n  tag_8\n  jumpi\n  mload(0x40)\n  0x08c379a000000000000000000000000000000000000000000000000000000000\n  dup2\n  mstore\n  0x04\n  add\n  tag_9\n  swap1\n  tag_10\n  jump\t// in\ntag_9:\n  mload(0x40)\n  dup1\n  swap2\n  sub\n  swap1\n  revert\ntag_8:\n    /* \"contracts/MultiSigWallet.sol\":2914:2924  msg.sender */\n  caller\n    /* \"contracts/MultiSigWallet.sol\":2906:2911  owner */\n  0x00\n  dup1\n    /* \"contracts/MultiSigWallet.sol\":2906:2924  owner = msg.sender */\n  0x0100\n  exp\n  dup2\n  sload\n  dup2\n  0xffffffffffffffffffffffffffffffffffffffff\n  mul\n  not\n  and\n  swap1\n  dup4\n  0xffffffffffffffffffffffffffffffffffffffff\n  and\n  mul\n  or\n  swap1\n  sstore\n  pop\n    /* \"contracts/MultiSigWallet.sol\":3004:3010  uint i */\n  0x00\n    /* \"contracts/MultiSigWallet.sol\":2999:3211  for (uint i = 0; i < _signers.length; i++) {... */\ntag_11:\n    /* \"contracts/MultiSigWallet.sol\":3020:3028  _signers */\n  dup4\n    /* \"contracts/MultiSigWallet.sol\":3020:3035  _signers.length */\n  mload\n    /* \"contracts/MultiSigWallet.sol\":3016:3017  i */\n  dup2\n    /* \"contracts/MultiSigWallet.sol\":3016:3035  i < _signers.length */\n  lt\n    /* \"contracts/MultiSigWallet.sol\":2999:3211  for (uint i = 0; i < _signers.length; i++) {... */\n  iszero\n  tag_12\n  jumpi\n    /* \"contracts/MultiSigWallet.sol\":3056:3070  address signer */\n  0x00\n    /* \"contracts/MultiSigWallet.sol\":3073:3081  _signers */\n  dup5\n    /* \"contracts/MultiSigWallet.sol\":3082:3083  i */\n  dup3\n    /* \"contracts/MultiSigWallet.sol\":3073:3084  _signers[i] */\n  dup2\n  mload\n  dup2\n  lt\n  tag_14\n  jumpi\n  tag_15\n  tag_16\n  jump\t// in\ntag_15:\ntag_14:\n  0x20\n  mul\n  0x20\n  add\n  add\n  mload\n    /* \"contracts/MultiSigWallet.sol\":3056:3084  address signer = _signers[i] */\n  swap1\n  pop\n    /* \"contracts/MultiSigWallet.sol\":3098:3105  signers */\n  0x01\n    /* \"contracts/MultiSigWallet.sol\":3111:3117  signer */\n  dup2\n    /* \"contracts/MultiSigWallet.sol\":3098:3118  signers.push(signer) */\n  swap1\n  dup1\n  0x01\n  dup2\n  sload\n  add\n  dup1\n  dup3\n  sstore\n  dup1\n  swap2\n  pop\n  pop\n  0x01\n  swap1\n  sub\n  swap1\n  0x00\n  mstore\n  keccak256(0x00, 0x20)\n  add\n  0x00\n  swap1\n  swap2\n  swap1\n  swap2\n  swap1\n  swap2\n  0x0100\n  exp\n  dup2\n  sload\n  dup2\n  0xffffffffffffffffffffffffffffffffffffffff\n  mul\n  not\n  and\n  swap1\n  dup4\n  0xffffffffffffffffffffffffffffffffffffffff\n  and\n  mul\n  or\n  swap1\n  sstore\n  pop\n    /* \"contracts/MultiSigWallet.sol\":3151:3155  true */\n  0x01\n    /* \"contracts/MultiSigWallet.sol\":3132:3140  isSigner */\n  0x03\n    /* \"contracts/MultiSigWallet.sol\":3132:3148  isSigner[signer] */\n  0x00\n    /* \"contracts/MultiSigWallet.sol\":3141:3147  signer */\n  dup4\n    /* \"contracts/MultiSigWallet.sol\":3132:3148  isSigner[signer] */\n  0xffffffffffffffffffffffffffffffffffffffff\n  and\n  0xffffffffffffffffffffffffffffffffffffffff\n  and\n  dup2\n  mstore\n  0x20\n  add\n  swap1\n  dup2\n  mstore\n  0x20\n  add\n  0x00\n  keccak256\n  0x00\n    /* \"contracts/MultiSigWallet.sol\":3132:3155  isSigner[signer] = true */\n  0x0100\n  exp\n  dup2\n  sload\n  dup2\n  0xff\n  mul\n  not\n  and\n  swap1\n  dup4\n  iszero\n  iszero\n  mul\n  or\n  swap1\n  sstore\n  pop\n    /* \"contracts/MultiSigWallet.sol\":3195:3199  true */\n  0x01\n    /* \"contracts/MultiSigWallet.sol\":3174:3200  SignerUpdate(signer, true) */\n  iszero\n  iszero\n    /* \"contracts/MultiSigWallet.sol\":3187:3193  signer */\n  dup2\n    /* \"contracts/MultiSigWallet.sol\":3174:3200  SignerUpdate(signer, true) */\n  0xffffffffffffffffffffffffffffffffffffffff\n  and\n  0xc648f6265408cc54c0dc26d24ba51dfc9f35ce1a63baa2228f65d93aaf11cc67\n  mload(0x40)\n  mload(0x40)\n  dup1\n  swap2\n  sub\n  swap1\n  log3\n    /* \"contracts/MultiSigWallet.sol\":3042:3211  {... */\n  pop\n    /* \"contracts/MultiSigWallet.sol\":3037:3040  i++ */\n  dup1\n  dup1\n  tag_18\n  swap1\n  tag_19\n  jump\t// in\ntag_18:\n  swap2\n  pop\n  pop\n    /* \"contracts/MultiSigWallet.sol\":2999:3211  for (uint i = 0; i < _signers.length; i++) {... */\n  jump(tag_11)\ntag_12:\n  pop\n    /* \"contracts/MultiSigWallet.sol\":3242:3261  _requiredSignatures */\n  dup2\n    /* \"contracts/MultiSigWallet.sol\":3221:3239  requiredSignatures */\n  0x02\n    /* \"contracts/MultiSigWallet.sol\":3221:3261  requiredSignatures = _requiredSignatures */\n  dup2\n  swap1\n  sstore\n  pop\n    /* \"contracts/MultiSigWallet.sol\":3289:3305  _recoveryAddress */\n  dup1\n    /* \"contracts/MultiSigWallet.sol\":3271:3286  recoveryAddress */\n  0x07\n  0x00\n    /* \"contracts/MultiSigWallet.sol\":3271:3305  recoveryAddress = _recoveryAddress */\n  0x0100\n  exp\n  dup2\n  sload\n  dup2\n  0xffffffffffffffffffffffffffffffffffffffff\n  mul\n  not\n  and\n  swap1\n  dup4\n  0xffffffffffffffffffffffffffffffffffffffff\n  and\n  mul\n  or\n  swap1\n  sstore\n  pop\n    /* \"contracts/MultiSigWallet.sol\":2680:3312  constructor(address[] memory _signers, uint _requiredSignatures, address _recoveryAddress) {... */\n  pop\n  pop\n  pop\n    /* \"contracts/MultiSigWallet.sol\":64:10910  contract MultiSigWallet {... */\n  jump(tag_20)\n    /* \"#utility.yul\":24:768   */\ntag_22:\n    /* \"#utility.yul\":131:136   */\n  0x00\n    /* \"#utility.yul\":156:237   */\n  tag_24\n    /* \"#utility.yul\":172:236   */\n  tag_25\n    /* \"#utility.yul\":229:235   */\n  dup5\n    /* \"#utility.yul\":172:236   */\n  tag_26\n  jump\t// in\ntag_25:\n    /* \"#utility.yul\":156:237   */\n  tag_27\n  jump\t// in\ntag_24:\n    /* \"#utility.yul\":147:237   */\n  swap1\n  pop\n    /* \"#utility.yul\":257:262   */\n  dup1\n    /* \"#utility.yul\":286:292   */\n  dup4\n    /* \"#utility.yul\":279:284   */\n  dup3\n    /* \"#utility.yul\":272:293   */\n  mstore\n    /* \"#utility.yul\":320:324   */\n  0x20\n    /* \"#utility.yul\":313:318   */\n  dup3\n    /* \"#utility.yul\":309:325   */\n  add\n    /* \"#utility.yul\":302:325   */\n  swap1\n  pop\n    /* \"#utility.yul\":346:352   */\n  dup3\n    /* \"#utility.yul\":396:399   */\n  dup6\n    /* \"#utility.yul\":388:392   */\n  0x20\n    /* \"#utility.yul\":380:386   */\n  dup7\n    /* \"#utility.yul\":376:393   */\n  mul\n    /* \"#utility.yul\":371:374   */\n  dup3\n    /* \"#utility.yul\":367:394   */\n  add\n    /* \"#utility.yul\":364:400   */\n  gt\n    /* \"#utility.yul\":361:504   */\n  iszero\n  tag_28\n  jumpi\n    /* \"#utility.yul\":415:494   */\n  tag_29\n  tag_30\n  jump\t// in\ntag_29:\n    /* \"#utility.yul\":361:504   */\ntag_28:\n    /* \"#utility.yul\":528:529   */\n  0x00\n    /* \"#utility.yul\":513:762   */\ntag_31:\n    /* \"#utility.yul\":538:544   */\n  dup6\n    /* \"#utility.yul\":535:536   */\n  dup2\n    /* \"#utility.yul\":532:545   */\n  lt\n    /* \"#utility.yul\":513:762   */\n  iszero\n  tag_33\n  jumpi\n    /* \"#utility.yul\":606:609   */\n  dup2\n    /* \"#utility.yul\":635:683   */\n  tag_34\n    /* \"#utility.yul\":679:682   */\n  dup9\n    /* \"#utility.yul\":667:677   */\n  dup3\n    /* \"#utility.yul\":635:683   */\n  tag_35\n  jump\t// in\ntag_34:\n    /* \"#utility.yul\":630:633   */\n  dup5\n    /* \"#utility.yul\":623:684   */\n  mstore\n    /* \"#utility.yul\":713:717   */\n  0x20\n    /* \"#utility.yul\":708:711   */\n  dup5\n    /* \"#utility.yul\":704:718   */\n  add\n    /* \"#utility.yul\":697:718   */\n  swap4\n  pop\n    /* \"#utility.yul\":747:751   */\n  0x20\n    /* \"#utility.yul\":742:745   */\n  dup4\n    /* \"#utility.yul\":738:752   */\n  add\n    /* \"#utility.yul\":731:752   */\n  swap3\n  pop\n    /* \"#utility.yul\":573:762   */\n  pop\n    /* \"#utility.yul\":560:561   */\n  0x01\n    /* \"#utility.yul\":557:558   */\n  dup2\n    /* \"#utility.yul\":553:562   */\n  add\n    /* \"#utility.yul\":548:562   */\n  swap1\n  pop\n    /* \"#utility.yul\":513:762   */\n  jump(tag_31)\ntag_33:\n    /* \"#utility.yul\":517:531   */\n  pop\n    /* \"#utility.yul\":137:768   */\n  pop\n  pop\n    /* \"#utility.yul\":24:768   */\n  swap4\n  swap3\n  pop\n  pop\n  pop\n  jump\t// out\n    /* \"#utility.yul\":774:917   */\ntag_35:\n    /* \"#utility.yul\":831:836   */\n  0x00\n    /* \"#utility.yul\":862:868   */\n  dup2\n    /* \"#utility.yul\":856:869   */\n  mload\n    /* \"#utility.yul\":847:869   */\n  swap1\n  pop\n    /* \"#utility.yul\":878:911   */\n  tag_37\n    /* \"#utility.yul\":905:910   */\n  dup2\n    /* \"#utility.yul\":878:911   */\n  tag_38\n  jump\t// in\ntag_37:\n    /* \"#utility.yul\":774:917   */\n  swap3\n  swap2\n  pop\n  pop\n  jump\t// out\n    /* \"#utility.yul\":940:1325   */\ntag_39:\n    /* \"#utility.yul\":1022:1027   */\n  0x00\n    /* \"#utility.yul\":1071:1074   */\n  dup3\n    /* \"#utility.yul\":1064:1068   */\n  0x1f\n    /* \"#utility.yul\":1056:1062   */\n  dup4\n    /* \"#utility.yul\":1052:1069   */\n  add\n    /* \"#utility.yul\":1048:1075   */\n  slt\n    /* \"#utility.yul\":1038:1160   */\n  tag_41\n  jumpi\n    /* \"#utility.yul\":1079:1158   */\n  tag_42\n  tag_43\n  jump\t// in\ntag_42:\n    /* \"#utility.yul\":1038:1160   */\ntag_41:\n    /* \"#utility.yul\":1189:1195   */\n  dup2\n    /* \"#utility.yul\":1183:1196   */\n  mload\n    /* \"#utility.yul\":1214:1319   */\n  tag_44\n    /* \"#utility.yul\":1315:1318   */\n  dup5\n    /* \"#utility.yul\":1307:1313   */\n  dup3\n    /* \"#utility.yul\":1300:1304   */\n  0x20\n    /* \"#utility.yul\":1292:1298   */\n  dup7\n    /* \"#utility.yul\":1288:1305   */\n  add\n    /* \"#utility.yul\":1214:1319   */\n  tag_22\n  jump\t// in\ntag_44:\n    /* \"#utility.yul\":1205:1319   */\n  swap2\n  pop\n    /* \"#utility.yul\":1028:1325   */\n  pop\n    /* \"#utility.yul\":940:1325   */\n  swap3\n  swap2\n  pop\n  pop\n  jump\t// out\n    /* \"#utility.yul\":1331:1474   */\ntag_45:\n    /* \"#utility.yul\":1388:1393   */\n  0x00\n    /* \"#utility.yul\":1419:1425   */\n  dup2\n    /* \"#utility.yul\":1413:1426   */\n  mload\n    /* \"#utility.yul\":1404:1426   */\n  swap1\n  pop\n    /* \"#utility.yul\":1435:1468   */\n  tag_47\n    /* \"#utility.yul\":1462:1467   */\n  dup2\n    /* \"#utility.yul\":1435:1468   */\n  tag_48\n  jump\t// in\ntag_47:\n    /* \"#utility.yul\":1331:1474   */\n  swap3\n  swap2\n  pop\n  pop\n  jump\t// out\n    /* \"#utility.yul\":1480:2346   */\ntag_3:\n    /* \"#utility.yul\":1593:1599   */\n  0x00\n    /* \"#utility.yul\":1601:1607   */\n  dup1\n    /* \"#utility.yul\":1609:1615   */\n  0x00\n    /* \"#utility.yul\":1658:1660   */\n  0x60\n    /* \"#utility.yul\":1646:1655   */\n  dup5\n    /* \"#utility.yul\":1637:1644   */\n  dup7\n    /* \"#utility.yul\":1633:1656   */\n  sub\n    /* \"#utility.yul\":1629:1661   */\n  slt\n    /* \"#utility.yul\":1626:1745   */\n  iszero\n  tag_50\n  jumpi\n    /* \"#utility.yul\":1664:1743   */\n  tag_51\n  tag_52\n  jump\t// in\ntag_51:\n    /* \"#utility.yul\":1626:1745   */\ntag_50:\n    /* \"#utility.yul\":1805:1806   */\n  0x00\n    /* \"#utility.yul\":1794:1803   */\n  dup5\n    /* \"#utility.yul\":1790:1807   */\n  add\n    /* \"#utility.yul\":1784:1808   */\n  mload\n    /* \"#utility.yul\":1835:1853   */\n  0xffffffffffffffff\n    /* \"#utility.yul\":1827:1833   */\n  dup2\n    /* \"#utility.yul\":1824:1854   */\n  gt\n    /* \"#utility.yul\":1821:1938   */\n  iszero\n  tag_53\n  jumpi\n    /* \"#utility.yul\":1857:1936   */\n  tag_54\n  tag_55\n  jump\t// in\ntag_54:\n    /* \"#utility.yul\":1821:1938   */\ntag_53:\n    /* \"#utility.yul\":1962:2051   */\n  tag_56\n    /* \"#utility.yul\":2043:2050   */\n  dup7\n    /* \"#utility.yul\":2034:2040   */\n  dup3\n    /* \"#utility.yul\":2023:2032   */\n  dup8\n    /* \"#utility.yul\":2019:2041   */\n  add\n    /* \"#utility.yul\":1962:2051   */\n  tag_39\n  jump\t// in\ntag_56:\n    /* \"#utility.yul\":1952:2051   */\n  swap4\n  pop\n    /* \"#utility.yul\":1755:2061   */\n  pop\n    /* \"#utility.yul\":2100:2102   */\n  0x20\n    /* \"#utility.yul\":2126:2190   */\n  tag_57\n    /* \"#utility.yul\":2182:2189   */\n  dup7\n    /* \"#utility.yul\":2173:2179   */\n  dup3\n    /* \"#utility.yul\":2162:2171   */\n  dup8\n    /* \"#utility.yul\":2158:2180   */\n  add\n    /* \"#utility.yul\":2126:2190   */\n  tag_45\n  jump\t// in\ntag_57:\n    /* \"#utility.yul\":2116:2190   */\n  swap3\n  pop\n    /* \"#utility.yul\":2071:2200   */\n  pop\n    /* \"#utility.yul\":2239:2241   */\n  0x40\n    /* \"#utility.yul\":2265:2329   */\n  tag_58\n    /* \"#utility.yul\":2321:2328   */\n  dup7\n    /* \"#utility.yul\":2312:2318   */\n  dup3\n    /* \"#utility.yul\":2301:2310   */\n  dup8\n    /* \"#utility.yul\":2297:2319   */\n  add\n    /* \"#utility.yul\":2265:2329   */\n  tag_35\n  jump\t// in\ntag_58:\n    /* \"#utility.yul\":2255:2329   */\n  swap2\n  pop\n    /* \"#utility.yul\":2210:2339   */\n  pop\n    /* \"#utility.yul\":1480:2346   */\n  swap3\n  pop\n  swap3\n  pop\n  swap3\n  jump\t// out\n    /* \"#utility.yul\":2352:2718   */\ntag_59:\n    /* \"#utility.yul\":2494:2497   */\n  0x00\n    /* \"#utility.yul\":2515:2582   */\n  tag_61\n    /* \"#utility.yul\":2579:2581   */\n  0x0d\n    /* \"#utility.yul\":2574:2577   */\n  dup4\n    /* \"#utility.yul\":2515:2582   */\n  tag_62\n  jump\t// in\ntag_61:\n    /* \"#utility.yul\":2508:2582   */\n  swap2\n  pop\n    /* \"#utility.yul\":2591:2684   */\n  tag_63\n    /* \"#utility.yul\":2680:2683   */\n  dup3\n    /* \"#utility.yul\":2591:2684   */\n  tag_64\n  jump\t// in\ntag_63:\n    /* \"#utility.yul\":2709:2711   */\n  0x20\n    /* \"#utility.yul\":2704:2707   */\n  dup3\n    /* \"#utility.yul\":2700:2712   */\n  add\n    /* \"#utility.yul\":2693:2712   */\n  swap1\n  pop\n    /* \"#utility.yul\":2352:2718   */\n  swap2\n  swap1\n  pop\n  jump\t// out\n    /* \"#utility.yul\":2724:3143   */\ntag_10:\n    /* \"#utility.yul\":2890:2894   */\n  0x00\n    /* \"#utility.yul\":2928:2930   */\n  0x20\n    /* \"#utility.yul\":2917:2926   */\n  dup3\n    /* \"#utility.yul\":2913:2931   */\n  add\n    /* \"#utility.yul\":2905:2931   */\n  swap1\n  pop\n    /* \"#utility.yul\":2977:2986   */\n  dup2\n    /* \"#utility.yul\":2971:2975   */\n  dup2\n    /* \"#utility.yul\":2967:2987   */\n  sub\n    /* \"#utility.yul\":2963:2964   */\n  0x00\n    /* \"#utility.yul\":2952:2961   */\n  dup4\n    /* \"#utility.yul\":2948:2965   */\n  add\n    /* \"#utility.yul\":2941:2988   */\n  mstore\n    /* \"#utility.yul\":3005:3136   */\n  tag_66\n    /* \"#utility.yul\":3131:3135   */\n  dup2\n    /* \"#utility.yul\":3005:3136   */\n  tag_59\n  jump\t// in\ntag_66:\n    /* \"#utility.yul\":2997:3136   */\n  swap1\n  pop\n    /* \"#utility.yul\":2724:3143   */\n  swap2\n  swap1\n  pop\n  jump\t// out\n    /* \"#utility.yul\":3149:3278   */\ntag_27:\n    /* \"#utility.yul\":3183:3189   */\n  0x00\n    /* \"#utility.yul\":3210:3230   */\n  tag_68\n  tag_69\n  jump\t// in\ntag_68:\n    /* \"#utility.yul\":3200:3230   */\n  swap1\n  pop\n    /* \"#utility.yul\":3239:3272   */\n  tag_70\n    /* \"#utility.yul\":3267:3271   */\n  dup3\n    /* \"#utility.yul\":3259:3265   */\n  dup3\n    /* \"#utility.yul\":3239:3272   */\n  tag_71\n  jump\t// in\ntag_70:\n    /* \"#utility.yul\":3149:3278   */\n  swap2\n  swap1\n  pop\n  jump\t// out\n    /* \"#utility.yul\":3284:3359   */\ntag_69:\n    /* \"#utility.yul\":3317:3323   */\n  0x00\n    /* \"#utility.yul\":3350:3352   */\n  0x40\n    /* \"#utility.yul\":3344:3353   */\n  mload\n    /* \"#utility.yul\":3334:3353   */\n  swap1\n  pop\n    /* \"#utility.yul\":3284:3359   */\n  swap1\n  jump\t// out\n    /* \"#utility.yul\":3365:3676   */\ntag_26:\n    /* \"#utility.yul\":3442:3446   */\n  0x00\n    /* \"#utility.yul\":3532:3550   */\n  0xffffffffffffffff\n    /* \"#utility.yul\":3524:3530   */\n  dup3\n    /* \"#utility.yul\":3521:3551   */\n  gt\n    /* \"#utility.yul\":3518:3574   */\n  iszero\n  tag_74\n  jumpi\n    /* \"#utility.yul\":3554:3572   */\n  tag_75\n  tag_76\n  jump\t// in\ntag_75:\n    /* \"#utility.yul\":3518:3574   */\ntag_74:\n    /* \"#utility.yul\":3604:3608   */\n  0x20\n    /* \"#utility.yul\":3596:3602   */\n  dup3\n    /* \"#utility.yul\":3592:3609   */\n  mul\n    /* \"#utility.yul\":3584:3609   */\n  swap1\n  pop\n    /* \"#utility.yul\":3664:3668   */\n  0x20\n    /* \"#utility.yul\":3658:3662   */\n  dup2\n    /* \"#utility.yul\":3654:3669   */\n  add\n    /* \"#utility.yul\":3646:3669   */\n  swap1\n  pop\n    /* \"#utility.yul\":3365:3676   */\n  swap2\n  swap1\n  pop\n  jump\t// out\n    /* \"#utility.yul\":3682:3851   */\ntag_62:\n    /* \"#utility.yul\":3766:3777   */\n  0x00\n    /* \"#utility.yul\":3800:3806   */\n  dup3\n    /* \"#utility.yul\":3795:3798   */\n  dup3\n    /* \"#utility.yul\":3788:3807   */\n  mstore\n    /* \"#utility.yul\":3840:3844   */\n  0x20\n    /* \"#utility.yul\":3835:3838   */\n  dup3\n    /* \"#utility.yul\":3831:3845   */\n  add\n    /* \"#utility.yul\":3816:3845   */\n  swap1\n  pop\n    /* \"#utility.yul\":3682:3851   */\n  swap3\n  swap2\n  pop\n  pop\n  jump\t// out\n    /* \"#utility.yul\":3857:3953   */\ntag_78:\n    /* \"#utility.yul\":3894:3901   */\n  0x00\n    /* \"#utility.yul\":3923:3947   */\n  tag_80\n    /* \"#utility.yul\":3941:3946   */\n  dup3\n    /* \"#utility.yul\":3923:3947   */\n  tag_81\n  jump\t// in\ntag_80:\n    /* \"#utility.yul\":3912:3947   */\n  swap1\n  pop\n    /* \"#utility.yul\":3857:3953   */\n  swap2\n  swap1\n  pop\n  jump\t// out\n    /* \"#utility.yul\":3959:4085   */\ntag_81:\n    /* \"#utility.yul\":3996:4003   */\n  0x00\n    /* \"#utility.yul\":4036:4078   */\n  0xffffffffffffffffffffffffffffffffffffffff\n    /* \"#utility.yul\":4029:4034   */\n  dup3\n    /* \"#utility.yul\":4025:4079   */\n  and\n    /* \"#utility.yul\":4014:4079   */\n  swap1\n  pop\n    /* \"#utility.yul\":3959:4085   */\n  swap2\n  swap1\n  pop\n  jump\t// out\n    /* \"#utility.yul\":4091:4168   */\ntag_83:\n    /* \"#utility.yul\":4128:4135   */\n  0x00\n    /* \"#utility.yul\":4157:4162   */\n  dup2\n    /* \"#utility.yul\":4146:4162   */\n  swap1\n  pop\n    /* \"#utility.yul\":4091:4168   */\n  swap2\n  swap1\n  pop\n  jump\t// out\n    /* \"#utility.yul\":4174:4455   */\ntag_71:\n    /* \"#utility.yul\":4257:4284   */\n  tag_86\n    /* \"#utility.yul\":4279:4283   */\n  dup3\n    /* \"#utility.yul\":4257:4284   */\n  tag_87\n  jump\t// in\ntag_86:\n    /* \"#utility.yul\":4249:4255   */\n  dup2\n    /* \"#utility.yul\":4245:4285   */\n  add\n    /* \"#utility.yul\":4387:4393   */\n  dup2\n    /* \"#utility.yul\":4375:4385   */\n  dup2\n    /* \"#utility.yul\":4372:4394   */\n  lt\n    /* \"#utility.yul\":4351:4369   */\n  0xffffffffffffffff\n    /* \"#utility.yul\":4339:4349   */\n  dup3\n    /* \"#utility.yul\":4336:4370   */\n  gt\n    /* \"#utility.yul\":4333:4395   */\n  or\n    /* \"#utility.yul\":4330:4418   */\n  iszero\n  tag_88\n  jumpi\n    /* \"#utility.yul\":4398:4416   */\n  tag_89\n  tag_76\n  jump\t// in\ntag_89:\n    /* \"#utility.yul\":4330:4418   */\ntag_88:\n    /* \"#utility.yul\":4438:4448   */\n  dup1\n    /* \"#utility.yul\":4434:4436   */\n  0x40\n    /* \"#utility.yul\":4427:4449   */\n  mstore\n    /* \"#utility.yul\":4217:4455   */\n  pop\n    /* \"#utility.yul\":4174:4455   */\n  pop\n  pop\n  jump\t// out\n    /* \"#utility.yul\":4461:4694   */\ntag_19:\n    /* \"#utility.yul\":4500:4503   */\n  0x00\n    /* \"#utility.yul\":4523:4547   */\n  tag_91\n    /* \"#utility.yul\":4541:4546   */\n  dup3\n    /* \"#utility.yul\":4523:4547   */\n  tag_83\n  jump\t// in\ntag_91:\n    /* \"#utility.yul\":4514:4547   */\n  swap2\n  pop\n    /* \"#utility.yul\":4569:4635   */\n  0xffffffffffffffffffffffffffffffffffffffffffffffffffffffffffffffff\n    /* \"#utility.yul\":4562:4567   */\n  dup3\n    /* \"#utility.yul\":4559:4636   */\n  eq\n    /* \"#utility.yul\":4556:4659   */\n  iszero\n  tag_92\n  jumpi\n    /* \"#utility.yul\":4639:4657   */\n  tag_93\n  tag_94\n  jump\t// in\ntag_93:\n    /* \"#utility.yul\":4556:4659   */\ntag_92:\n    /* \"#utility.yul\":4686:4687   */\n  0x01\n    /* \"#utility.yul\":4679:4684   */\n  dup3\n    /* \"#utility.yul\":4675:4688   */\n  add\n    /* \"#utility.yul\":4668:4688   */\n  swap1\n  pop\n    /* \"#utility.yul\":4461:4694   */\n  swap2\n  swap1\n  pop\n  jump\t// out\n    /* \"#utility.yul\":4700:4880   */\ntag_94:\n    /* \"#utility.yul\":4748:4825   */\n  0x4e487b7100000000000000000000000000000000000000000000000000000000\n    /* \"#utility.yul\":4745:4746   */\n  0x00\n    /* \"#utility.yul\":4738:4826   */\n  mstore\n    /* \"#utility.yul\":4845:4849   */\n  0x11\n    /* \"#utility.yul\":4842:4843   */\n  0x04\n    /* \"#utility.yul\":4835:4850   */\n  mstore\n    /* \"#utility.yul\":4869:4873   */\n  0x24\n    /* \"#utility.yul\":4866:4867   */\n  0x00\n    /* \"#utility.yul\":4859:4874   */\n  revert\n    /* \"#utility.yul\":4886:5066   */\ntag_16:\n    /* \"#utility.yul\":4934:5011   */\n  0x4e487b7100000000000000000000000000000000000000000000000000000000\n    /* \"#utility.yul\":4931:4932   */\n  0x00\n    /* \"#utility.yul\":4924:5012   */\n  mstore\n    /* \"#utility.yul\":5031:5035   */\n  0x32\n    /* \"#utility.yul\":5028:5029   */\n  0x04\n    /* \"#utility.yul\":5021:5036   */\n  mstore\n    /* \"#utility.yul\":5055:5059   */\n  0x24\n    /* \"#utility.yul\":5052:5053   */\n  0x00\n    /* \"#utility.yul\":5045:5060   */\n  revert\n    /* \"#utility.yul\":5072:5252   */\ntag_76:\n    /* \"#utility.yul\":5120:5197   */\n  0x4e487b7100000000000000000000000000000000000000000000000000000000\n    /* \"#utility.yul\":5117:5118   */\n  0x00\n    /* \"#utility.yul\":5110:5198   */\n  mstore\n    /* \"#utility.yul\":5217:5221   */\n  0x41\n    /* \"#utility.yul\":5214:5215   */\n  0x04\n    /* \"#utility.yul\":5207:5222   */\n  mstore\n    /* \"#utility.yul\":5241:5245   */\n  0x24\n    /* \"#utility.yul\":5238:5239   */\n  0x00\n    /* \"#utility.yul\":5231:5246   */\n  revert\n    /* \"#utility.yul\":5258:5375   */\ntag_43:\n    /* \"#utility.yul\":5367:5368   */\n  0x00\n    /* \"#utility.yul\":5364:5365   */\n  dup1\n    /* \"#utility.yul\":5357:5369   */\n  revert\n    /* \"#utility.yul\":5381:5498   */\ntag_30:\n    /* \"#utility.yul\":5490:5491   */\n  0x00\n    /* \"#utility.yul\":5487:5488   */\n  dup1\n    /* \"#utility.yul\":5480:5492   */\n  revert\n    /* \"#utility.yul\":5504:5621   */\ntag_55:\n    /* \"#utility.yul\":5613:5614   */\n  0x00\n    /* \"#utility.yul\":5610:5611   */\n  dup1\n    /* \"#utility.yul\":5603:5615   */\n  revert\n    /* \"#utility.yul\":5627:5744   */\ntag_52:\n    /* \"#utility.yul\":5736:5737   */\n  0x00\n    /* \"#utility.yul\":5733:5734   */\n  dup1\n    /* \"#utility.yul\":5726:5738   */\n  revert\n    /* \"#utility.yul\":5750:5852   */\ntag_87:\n    /* \"#utility.yul\":5791:5797   */\n  0x00\n    /* \"#utility.yul\":5842:5844   */\n  0x1f\n    /* \"#utility.yul\":5838:5845   */\n  not\n    /* \"#utility.yul\":5833:5835   */\n  0x1f\n    /* \"#utility.yul\":5826:5831   */\n  dup4\n    /* \"#utility.yul\":5822:5836   */\n  add\n    /* \"#utility.yul\":5818:5846   */\n  and\n    /* \"#utility.yul\":5808:5846   */\n  swap1\n  pop\n    /* \"#utility.yul\":5750:5852   */\n  swap2\n  swap1\n  pop\n  jump\t// out\n    /* \"#utility.yul\":5858:6021   */\ntag_64:\n    /* \"#utility.yul\":5998:6013   */\n  0x496e76616c696420696e70757400000000000000000000000000000000000000\n    /* \"#utility.yul\":5994:5995   */\n  0x00\n    /* \"#utility.yul\":5986:5992   */\n  dup3\n    /* \"#utility.yul\":5982:5996   */\n  add\n    /* \"#utility.yul\":5975:6014   */\n  mstore\n    /* \"#utility.yul\":5858:6021   */\n  pop\n  jump\t// out\n    /* \"#utility.yul\":6027:6149   */\ntag_38:\n    /* \"#utility.yul\":6100:6124   */\n  tag_105\n    /* \"#utility.yul\":6118:6123   */\n  dup2\n    /* \"#utility.yul\":6100:6124   */\n  tag_78\n  jump\t// in\ntag_105:\n    /* \"#utility.yul\":6093:6098   */\n  dup2\n    /* \"#utility.yul\":6090:6125   */\n  eq\n    /* \"#utility.yul\":6080:6143   */\n  tag_106\n  jumpi\n    /* \"#utility.yul\":6139:6140   */\n  0x00\n    /* \"#utility.yul\":6136:6137   */\n  dup1\n    /* \"#utility.yul\":6129:6141   */\n  revert\n    /* \"#utility.yul\":6080:6143   */\ntag_106:\n    /* \"#utility.yul\":6027:6149   */\n  pop\n  jump\t// out\n    /* \"#utility.yul\":6155:6277   */\ntag_48:\n    /* \"#utility.yul\":6228:6252   */\n  tag_108\n    /* \"#utility.yul\":6246:6251   */\n  dup2\n    /* \"#utility.yul\":6228:6252   */\n  tag_83\n  jump\t// in\ntag_108:\n    /* \"#utility.yul\":6221:6226   */\n  dup2\n    /* \"#utility.yul\":6218:6253   */\n  eq\n    /* \"#utility.yul\":6208:6271   */\n  tag_109\n  jumpi\n    /* \"#utility.yul\":6267:6268   */\n  0x00\n    /* \"#utility.yul\":6264:6265   */\n  dup1\n    /* \"#utility.yul\":6257:6269   */\n  revert\n    /* \"#utility.yul\":6208:6271   */\ntag_109:\n    /* \"#utility.yul\":6155:6277   */\n  pop\n  jump\t// out\n    /* \"contracts/MultiSigWallet.sol\":64:10910  contract MultiSigWallet {... */\ntag_20:\n  dataSize(sub_0)\n  dup1\n  dataOffset(sub_0)\n  0x00\n  codecopy\n  0x00\n  return\nstop\n\nsub_0: assembly {\n        /* \"contracts/MultiSigWallet.sol\":64:10910  contract MultiSigWallet {... */\n      mstore(0x40, 0x80)\n      callvalue\n      dup1\n      iszero\n      tag_1\n      jumpi\n      0x00\n      dup1\n      revert\n    tag_1:\n      pop\n      jumpi(tag_2, lt(calldatasize, 0x04))\n      shr(0xe0, calldataload(0x00))\n      dup1\n      0x8d068043\n      gt\n      tag_19\n      jumpi\n      dup1\n      0xa9496e75\n      gt\n      tag_20\n      jumpi\n      dup1\n      0xa9496e75\n      eq\n      tag_15\n      jumpi\n      dup1\n      0xc69ed5f2\n      eq\n      tag_16\n      jumpi\n      dup1\n      0xcc526c45\n      eq\n      tag_17\n      jumpi\n      dup1\n      0xeb12d61e\n      eq\n      tag_18\n      jumpi\n      jump(tag_2)\n    tag_20:\n      dup1\n      0x8d068043\n      eq\n      tag_11\n      jumpi\n      dup1\n      0x8da5cb5b\n      eq\n      tag_12\n      jumpi\n      dup1\n      0x8f4fde9f\n      eq\n      tag_13\n      jumpi\n      dup1\n      0x8f671849\n      eq\n      tag_14\n      jumpi\n      jump(tag_2)\n    tag_19:\n      dup1\n      0x642f2eaf\n      gt\n      tag_21\n      jumpi\n      dup1\n      0x642f2eaf\n      eq\n      tag_7\n      jumpi\n      dup1\n      0x70ba3339\n      eq\n      tag_8\n      jumpi\n      dup1\n      0x710eb26c\n      eq\n      tag_9\n      jumpi\n      dup1\n      0x7df73e27\n      eq\n      tag_10\n      jumpi\n      jump(tag_2)\n    tag_21:\n      dup1\n      0x04ef5b21\n      eq\n      tag_3\n      jumpi\n      dup1\n      0x0e316ab7\n      eq\n      tag_4\n      jumpi\n      dup1\n      0x2079fb9a\n      eq\n      tag_5\n      jumpi\n      dup1\n      0x24f6c776\n      eq\n      tag_6\n      jumpi\n    tag_2:\n      0x00\n      dup1\n      revert\n        /* \"contracts/MultiSigWallet.sol\":711:743  bytes32[] public transactionList */\n    tag_3:\n      tag_22\n      0x04\n      dup1\n      calldatasize\n      sub\n      dup2\n      add\n      swap1\n      tag_23\n      swap2\n      swap1\n      tag_24\n      jump\t// in\n    tag_23:\n      tag_25\n      jump\t// in\n    tag_22:\n      mload(0x40)\n      tag_26\n      swap2\n      swap1\n      tag_27\n      jump\t// in\n    tag_26:\n      mload(0x40)\n      dup1\n      swap2\n      sub\n      swap1\n      return\n        /* \"contracts/MultiSigWallet.sol\":3955:4616  function removeSigner(address signer) public onlyOwner {... */\n    tag_4:\n      tag_28\n      0x04\n      dup1\n      calldatasize\n      sub\n      dup2\n      add\n      swap1\n      tag_29\n      swap2\n      swap1\n      tag_30\n      jump\t// in\n    tag_29:\n      tag_31\n      jump\t// in\n    tag_28:\n      stop\n        /* \"contracts/MultiSigWallet.sol\":189:213  address[] public signers */\n    tag_5:\n      tag_32\n      0x04\n      dup1\n      calldatasize\n      sub\n      dup2\n      add\n      swap1\n      tag_33\n      swap2\n      swap1\n      tag_24\n      jump\t// in\n    tag_33:\n      tag_34\n      jump\t// in\n    tag_32:\n      mload(0x40)\n      tag_35\n      swap2\n      swap1\n      tag_36\n      jump\t// in\n    tag_35:\n      mload(0x40)\n      dup1\n      swap2\n      sub\n      swap1\n      return\n        /* \"contracts/MultiSigWallet.sol\":581:644  mapping (bytes32 => mapping (address => bool)) public approvals */\n    tag_6:\n      tag_37\n      0x04\n      dup1\n      calldatasize\n      sub\n      dup2\n      add\n      swap1\n      tag_38\n      swap2\n      swap1\n      tag_39\n      jump\t// in\n    tag_38:\n      tag_40\n      jump\t// in\n    tag_37:\n      mload(0x40)\n      tag_41\n      swap2\n      swap1\n      tag_42\n      jump\t// in\n    tag_41:\n      mload(0x40)\n      dup1\n      swap2\n      sub\n      swap1\n      return\n        /* \"contracts/MultiSigWallet.sol\":469:521  mapping (bytes32 => Transaction) public transactions */\n    tag_7:\n      tag_43\n      0x04\n      dup1\n      calldatasize\n      sub\n      dup2\n      add\n      swap1\n      tag_44\n      swap2\n      swap1\n      tag_45\n      jump\t// in\n    tag_44:\n      tag_46\n      jump\t// in\n    tag_43:\n      mload(0x40)\n      tag_47\n      swap5\n      swap4\n      swap3\n      swap2\n      swap1\n      tag_48\n      jump\t// in\n    tag_47:\n      mload(0x40)\n      dup1\n      swap2\n      sub\n      swap1\n      return\n        /* \"contracts/MultiSigWallet.sol\":9437:10336  function cancelTransaction(bytes32 id) public onlySigner {... */\n    tag_8:\n      tag_49\n      0x04\n      dup1\n      calldatasize\n      sub\n      dup2\n      add\n      swap1\n      tag_50\n      swap2\n      swap1\n      tag_45\n      jump\t// in\n    tag_50:\n      tag_51\n      jump\t// in\n    tag_49:\n      stop\n        /* \"contracts/MultiSigWallet.sol\":798:828  address public recoveryAddress */\n    tag_9:\n      tag_52\n      tag_53\n      jump\t// in\n    tag_52:\n      mload(0x40)\n      tag_54\n      swap2\n      swap1\n      tag_36\n      jump\t// in\n    tag_54:\n      mload(0x40)\n      dup1\n      swap2\n      sub\n      swap1\n      return\n        /* \"contracts/MultiSigWallet.sol\":367:408  mapping (address => bool) public isSigner */\n    tag_10:\n      tag_55\n      0x04\n      dup1\n      calldatasize\n      sub\n      dup2\n      add\n      swap1\n      tag_56\n      swap2\n      swap1\n      tag_30\n      jump\t// in\n    tag_56:\n      tag_57\n      jump\t// in\n    tag_55:\n      mload(0x40)\n      tag_58\n      swap2\n      swap1\n      tag_42\n      jump\t// in\n    tag_58:\n      mload(0x40)\n      dup1\n      swap2\n      sub\n      swap1\n      return\n        /* \"contracts/MultiSigWallet.sol\":269:299  uint public requiredSignatures */\n    tag_11:\n      tag_59\n      tag_60\n      jump\t// in\n    tag_59:\n      mload(0x40)\n      tag_61\n      swap2\n      swap1\n      tag_62\n      jump\t// in\n    tag_61:\n      mload(0x40)\n      dup1\n      swap2\n      sub\n      swap1\n      return\n        /* \"contracts/MultiSigWallet.sol\":94:114  address public owner */\n    tag_12:\n      tag_63\n      tag_64\n      jump\t// in\n    tag_63:\n      mload(0x40)\n      tag_65\n      swap2\n      swap1\n      tag_36\n      jump\t// in\n    tag_65:\n      mload(0x40)\n      dup1\n      swap2\n      sub\n      swap1\n      return\n        /* \"contracts/MultiSigWallet.sol\":6887:7667  function approveTransaction(bytes32 id) public onlySigner {... */\n    tag_13:\n      tag_66\n      0x04\n      dup1\n      calldatasize\n      sub\n      dup2\n      add\n      swap1\n      tag_67\n      swap2\n      swap1\n      tag_45\n      jump\t// in\n    tag_67:\n      tag_68\n      jump\t// in\n    tag_66:\n      stop\n        /* \"contracts/MultiSigWallet.sol\":10575:10907  function recoverWallet(address newOwner) public {... */\n    tag_14:\n      tag_69\n      0x04\n      dup1\n      calldatasize\n      sub\n      dup2\n      add\n      swap1\n      tag_70\n      swap2\n      swap1\n      tag_30\n      jump\t// in\n    tag_70:\n      tag_71\n      jump\t// in\n    tag_69:\n      stop\n        /* \"contracts/MultiSigWallet.sol\":5260:5787  function createTransaction(address destination, uint value, bytes memory data) public onlySigner returns (bytes32) {... */\n    tag_15:\n      tag_72\n      0x04\n      dup1\n      calldatasize\n      sub\n      dup2\n      add\n      swap1\n      tag_73\n      swap2\n      swap1\n      tag_74\n      jump\t// in\n    tag_73:\n      tag_75\n      jump\t// in\n    tag_72:\n      mload(0x40)\n      tag_76\n      swap2\n      swap1\n      tag_27\n      jump\t// in\n    tag_76:\n      mload(0x40)\n      dup1\n      swap2\n      sub\n      swap1\n      return\n        /* \"contracts/MultiSigWallet.sol\":7915:8996  function executeTransaction(bytes32 id) public onlySigner {... */\n    tag_16:\n      tag_77\n      0x04\n      dup1\n      calldatasize\n      sub\n      dup2\n      add\n      swap1\n      tag_78\n      swap2\n      swap1\n      tag_45\n      jump\t// in\n    tag_78:\n      tag_79\n      jump\t// in\n    tag_77:\n      stop\n        /* \"contracts/MultiSigWallet.sol\":6370:6697  function createUniqueId(address destination, uint256 value, bytes memory data) public view returns (bytes32) {... */\n    tag_17:\n      tag_80\n      0x04\n      dup1\n      calldatasize\n      sub\n      dup2\n      add\n      swap1\n      tag_81\n      swap2\n      swap1\n      tag_74\n      jump\t// in\n    tag_81:\n      tag_82\n      jump\t// in\n    tag_80:\n      mload(0x40)\n      tag_83\n      swap2\n      swap1\n      tag_27\n      jump\t// in\n    tag_83:\n      mload(0x40)\n      dup1\n      swap2\n      sub\n      swap1\n      return\n        /* \"contracts/MultiSigWallet.sol\":3520:3750  function addSigner(address signer) public onlyOwner {... */\n    tag_18:\n      tag_84\n      0x04\n      dup1\n      calldatasize\n      sub\n      dup2\n      add\n      swap1\n      tag_85\n      swap2\n      swap1\n      tag_30\n      jump\t// in\n    tag_85:\n      tag_86\n      jump\t// in\n    tag_84:\n      stop\n        /* \"contracts/MultiSigWallet.sol\":711:743  bytes32[] public transactionList */\n    tag_25:\n      0x06\n      dup2\n      dup2\n      sload\n      dup2\n      lt\n      tag_87\n      jumpi\n      0x00\n      dup1\n      revert\n    tag_87:\n      swap1\n      0x00\n      mstore\n      keccak256(0x00, 0x20)\n      add\n      0x00\n      swap2\n      pop\n      swap1\n      pop\n      sload\n      dup2\n      jump\t// out\n        /* \"contracts/MultiSigWallet.sol\":3955:4616  function removeSigner(address signer) public onlyOwner {... */\n    tag_31:\n        /* \"contracts/MultiSigWallet.sol\":1929:1934  owner */\n      0x00\n      dup1\n      sload\n      swap1\n      0x0100\n      exp\n      swap1\n      div\n      0xffffffffffffffffffffffffffffffffffffffff\n      and\n        /* \"contracts/MultiSigWallet.sol\":1915:1934  msg.sender == owner */\n      0xffffffffffffffffffffffffffffffffffffffff\n      and\n        /* \"contracts/MultiSigWallet.sol\":1915:1925  msg.sender */\n      caller\n        /* \"contracts/MultiSigWallet.sol\":1915:1934  msg.sender == owner */\n      0xffffffffffffffffffffffffffffffffffffffff\n      and\n      eq\n        /* \"contracts/MultiSigWallet.sol\":1907:1977  require(msg.sender == owner, \"Only the owner can perform this action\") */\n      tag_90\n      jumpi\n      mload(0x40)\n      0x08c379a000000000000000000000000000000000000000000000000000000000\n      dup2\n      mstore\n      0x04\n      add\n      tag_91\n      swap1\n      tag_92\n      jump\t// in\n    tag_91:\n      mload(0x40)\n      dup1\n      swap2\n      sub\n      swap1\n      revert\n    tag_90:\n        /* \"contracts/MultiSigWallet.sol\":4028:4036  isSigner */\n      0x03\n        /* \"contracts/MultiSigWallet.sol\":4028:4044  isSigner[signer] */\n      0x00\n        /* \"contracts/MultiSigWallet.sol\":4037:4043  signer */\n      dup3\n        /* \"contracts/MultiSigWallet.sol\":4028:4044  isSigner[signer] */\n      0xffffffffffffffffffffffffffffffffffffffff\n      and\n      0xffffffffffffffffffffffffffffffffffffffff\n      and\n      dup2\n      mstore\n      0x20\n      add\n      swap1\n      dup2\n      mstore\n      0x20\n      add\n      0x00\n      keccak256\n      0x00\n      swap1\n      sload\n      swap1\n      0x0100\n      exp\n      swap1\n      div\n      0xff\n      and\n        /* \"contracts/MultiSigWallet.sol\":4020:4076  require(isSigner[signer], \"The address is not a signer\") */\n      tag_94\n      jumpi\n      mload(0x40)\n      0x08c379a000000000000000000000000000000000000000000000000000000000\n      dup2\n      mstore\n      0x04\n      add\n      tag_95\n      swap1\n      tag_96\n      jump\t// in\n    tag_95:\n      mload(0x40)\n      dup1\n      swap2\n      sub\n      swap1\n      revert\n    tag_94:\n        /* \"contracts/MultiSigWallet.sol\":4111:4129  requiredSignatures */\n      sload(0x02)\n        /* \"contracts/MultiSigWallet.sol\":4094:4101  signers */\n      0x01\n        /* \"contracts/MultiSigWallet.sol\":4094:4108  signers.length */\n      dup1\n      sload\n      swap1\n      pop\n        /* \"contracts/MultiSigWallet.sol\":4094:4129  signers.length > requiredSignatures */\n      gt\n        /* \"contracts/MultiSigWallet.sol\":4086:4196  require(signers.length > requiredSignatures, \"Cannot remove signer, minimum required signers will not be met\") */\n      tag_97\n      jumpi\n      mload(0x40)\n      0x08c379a000000000000000000000000000000000000000000000000000000000\n      dup2\n      mstore\n      0x04\n      add\n      tag_98\n      swap1\n      tag_99\n      jump\t// in\n    tag_98:\n      mload(0x40)\n      dup1\n      swap2\n      sub\n      swap1\n      revert\n    tag_97:\n        /* \"contracts/MultiSigWallet.sol\":4304:4310  uint i */\n      0x00\n        /* \"contracts/MultiSigWallet.sol\":4299:4610  for (uint i = 0; i < signers.length; i++) {... */\n    tag_100:\n        /* \"contracts/MultiSigWallet.sol\":4320:4327  signers */\n      0x01\n        /* \"contracts/MultiSigWallet.sol\":4320:4334  signers.length */\n      dup1\n      sload\n      swap1\n      pop\n        /* \"contracts/MultiSigWallet.sol\":4316:4317  i */\n      dup2\n        /* \"contracts/MultiSigWallet.sol\":4316:4334  i < signers.length */\n      lt\n        /* \"contracts/MultiSigWallet.sol\":4299:4610  for (uint i = 0; i < signers.length; i++) {... */\n      iszero\n      tag_101\n      jumpi\n        /* \"contracts/MultiSigWallet.sol\":4373:4379  signer */\n      dup2\n        /* \"contracts/MultiSigWallet.sol\":4359:4379  signers[i] == signer */\n      0xffffffffffffffffffffffffffffffffffffffff\n      and\n        /* \"contracts/MultiSigWallet.sol\":4359:4366  signers */\n      0x01\n        /* \"contracts/MultiSigWallet.sol\":4367:4368  i */\n      dup3\n        /* \"contracts/MultiSigWallet.sol\":4359:4369  signers[i] */\n      dup2\n      sload\n      dup2\n      lt\n      tag_103\n      jumpi\n      tag_104\n      tag_105\n      jump\t// in\n    tag_104:\n    tag_103:\n      swap1\n      0x00\n      mstore\n      keccak256(0x00, 0x20)\n      add\n      0x00\n      swap1\n      sload\n      swap1\n      0x0100\n      exp\n      swap1\n      div\n      0xffffffffffffffffffffffffffffffffffffffff\n      and\n        /* \"contracts/MultiSigWallet.sol\":4359:4379  signers[i] == signer */\n      0xffffffffffffffffffffffffffffffffffffffff\n      and\n      eq\n        /* \"contracts/MultiSigWallet.sol\":4355:4600  if (signers[i] == signer) {... */\n      iszero\n      tag_107\n      jumpi\n        /* \"contracts/MultiSigWallet.sol\":4412:4419  signers */\n      0x01\n        /* \"contracts/MultiSigWallet.sol\":4437:4438  1 */\n      dup1\n        /* \"contracts/MultiSigWallet.sol\":4420:4427  signers */\n      dup1\n        /* \"contracts/MultiSigWallet.sol\":4420:4434  signers.length */\n      dup1\n      sload\n      swap1\n      pop\n        /* \"contracts/MultiSigWallet.sol\":4420:4438  signers.length - 1 */\n      tag_108\n      swap2\n      swap1\n      tag_109\n      jump\t// in\n    tag_108:\n        /* \"contracts/MultiSigWallet.sol\":4412:4439  signers[signers.length - 1] */\n      dup2\n      sload\n      dup2\n      lt\n      tag_110\n      jumpi\n      tag_111\n      tag_105\n      jump\t// in\n    tag_111:\n    tag_110:\n      swap1\n      0x00\n      mstore\n      keccak256(0x00, 0x20)\n      add\n      0x00\n      swap1\n      sload\n      swap1\n      0x0100\n      exp\n      swap1\n      div\n      0xffffffffffffffffffffffffffffffffffffffff\n      and\n        /* \"contracts/MultiSigWallet.sol\":4399:4406  signers */\n      0x01\n        /* \"contracts/MultiSigWallet.sol\":4407:4408  i */\n      dup3\n        /* \"contracts/MultiSigWallet.sol\":4399:4409  signers[i] */\n      dup2\n      sload\n      dup2\n      lt\n      tag_113\n      jumpi\n      tag_114\n      tag_105\n      jump\t// in\n    tag_114:\n    tag_113:\n      swap1\n      0x00\n      mstore\n      keccak256(0x00, 0x20)\n      add\n      0x00\n        /* \"contracts/MultiSigWallet.sol\":4399:4439  signers[i] = signers[signers.length - 1] */\n      0x0100\n      exp\n      dup2\n      sload\n      dup2\n      0xffffffffffffffffffffffffffffffffffffffff\n      mul\n      not\n      and\n      swap1\n      dup4\n      0xffffffffffffffffffffffffffffffffffffffff\n      and\n      mul\n      or\n      swap1\n      sstore\n      pop\n        /* \"contracts/MultiSigWallet.sol\":4457:4464  signers */\n      0x01\n        /* \"contracts/MultiSigWallet.sol\":4457:4470  signers.pop() */\n      dup1\n      sload\n      dup1\n      tag_116\n      jumpi\n      tag_117\n      tag_118\n      jump\t// in\n    tag_117:\n    tag_116:\n      0x01\n      swap1\n      sub\n      dup2\n      dup2\n      swap1\n      0x00\n      mstore\n      keccak256(0x00, 0x20)\n      add\n      exp(0x0100, 0x00)\n      dup2\n      sload\n      swap1\n      0xffffffffffffffffffffffffffffffffffffffff\n      mul\n      not\n      and\n      swap1\n      sstore\n      swap1\n      sstore\n        /* \"contracts/MultiSigWallet.sol\":4507:4512  false */\n      0x00\n        /* \"contracts/MultiSigWallet.sol\":4488:4496  isSigner */\n      0x03\n        /* \"contracts/MultiSigWallet.sol\":4488:4504  isSigner[signer] */\n      0x00\n        /* \"contracts/MultiSigWallet.sol\":4497:4503  signer */\n      dup5\n        /* \"contracts/MultiSigWallet.sol\":4488:4504  isSigner[signer] */\n      0xffffffffffffffffffffffffffffffffffffffff\n      and\n      0xffffffffffffffffffffffffffffffffffffffff\n      and\n      dup2\n      mstore\n      0x20\n      add\n      swap1\n      dup2\n      mstore\n      0x20\n      add\n      0x00\n      keccak256\n      0x00\n        /* \"contracts/MultiSigWallet.sol\":4488:4512  isSigner[signer] = false */\n      0x0100\n      exp\n      dup2\n      sload\n      dup2\n      0xff\n      mul\n      not\n      and\n      swap1\n      dup4\n      iszero\n      iszero\n      mul\n      or\n      swap1\n      sstore\n      pop\n        /* \"contracts/MultiSigWallet.sol\":4556:4561  false */\n      0x00\n        /* \"contracts/MultiSigWallet.sol\":4535:4562  SignerUpdate(signer, false) */\n      iszero\n      iszero\n        /* \"contracts/MultiSigWallet.sol\":4548:4554  signer */\n      dup3\n        /* \"contracts/MultiSigWallet.sol\":4535:4562  SignerUpdate(signer, false) */\n      0xffffffffffffffffffffffffffffffffffffffff\n      and\n      0xc648f6265408cc54c0dc26d24ba51dfc9f35ce1a63baa2228f65d93aaf11cc67\n      mload(0x40)\n      mload(0x40)\n      dup1\n      swap2\n      sub\n      swap1\n      log3\n        /* \"contracts/MultiSigWallet.sol\":4580:4585  break */\n      jump(tag_101)\n        /* \"contracts/MultiSigWallet.sol\":4355:4600  if (signers[i] == signer) {... */\n    tag_107:\n        /* \"contracts/MultiSigWallet.sol\":4336:4339  i++ */\n      dup1\n      dup1\n      tag_120\n      swap1\n      tag_121\n      jump\t// in\n    tag_120:\n      swap2\n      pop\n      pop\n        /* \"contracts/MultiSigWallet.sol\":4299:4610  for (uint i = 0; i < signers.length; i++) {... */\n      jump(tag_100)\n    tag_101:\n      pop\n        /* \"contracts/MultiSigWallet.sol\":3955:4616  function removeSigner(address signer) public onlyOwner {... */\n      pop\n      jump\t// out\n        /* \"contracts/MultiSigWallet.sol\":189:213  address[] public signers */\n    tag_34:\n      0x01\n      dup2\n      dup2\n      sload\n      dup2\n      lt\n      tag_122\n      jumpi\n      0x00\n      dup1\n      revert\n    tag_122:\n      swap1\n      0x00\n      mstore\n      keccak256(0x00, 0x20)\n      add\n      0x00\n      swap2\n      pop\n      sload\n      swap1\n      0x0100\n      exp\n      swap1\n      div\n      0xffffffffffffffffffffffffffffffffffffffff\n      and\n      dup2\n      jump\t// out\n        /* \"contracts/MultiSigWallet.sol\":581:644  mapping (bytes32 => mapping (address => bool)) public approvals */\n    tag_40:\n      mstore(0x20, 0x05)\n      dup2\n      0x00\n      mstore\n      mstore(0x20, keccak256(0x00, 0x40))\n      dup1\n      0x00\n      mstore\n      keccak256(0x00, 0x40)\n      0x00\n      swap2\n      pop\n      swap2\n      pop\n      swap1\n      sload\n      swap1\n      0x0100\n      exp\n      swap1\n      div\n      0xff\n      and\n      dup2\n      jump\t// out\n        /* \"contracts/MultiSigWallet.sol\":469:521  mapping (bytes32 => Transaction) public transactions */\n    tag_46:\n      mstore(0x20, 0x04)\n      dup1\n      0x00\n      mstore\n      keccak256(0x00, 0x40)\n      0x00\n      swap2\n      pop\n      swap1\n      pop\n      dup1\n      0x00\n      add\n      0x00\n      swap1\n      sload\n      swap1\n      0x0100\n      exp\n      swap1\n      div\n      0xffffffffffffffffffffffffffffffffffffffff\n      and\n      swap1\n      dup1\n      0x01\n      add\n      sload\n      swap1\n      dup1\n      0x02\n      add\n      dup1\n      sload\n      tag_124\n      swap1\n      tag_125\n      jump\t// in\n    tag_124:\n      dup1\n      0x1f\n      add\n      0x20\n      dup1\n      swap2\n      div\n      mul\n      0x20\n      add\n      mload(0x40)\n      swap1\n      dup2\n      add\n      0x40\n      mstore\n      dup1\n      swap3\n      swap2\n      swap1\n      dup2\n      dup2\n      mstore\n      0x20\n      add\n      dup3\n      dup1\n      sload\n      tag_126\n      swap1\n      tag_125\n      jump\t// in\n    tag_126:\n      dup1\n      iszero\n      tag_127\n      jumpi\n      dup1\n      0x1f\n      lt\n      tag_128\n      jumpi\n      0x0100\n      dup1\n      dup4\n      sload\n      div\n      mul\n      dup4\n      mstore\n      swap2\n      0x20\n      add\n      swap2\n      jump(tag_127)\n    tag_128:\n      dup3\n      add\n      swap2\n      swap1\n      0x00\n      mstore\n      keccak256(0x00, 0x20)\n      swap1\n    tag_129:\n      dup2\n      sload\n      dup2\n      mstore\n      swap1\n      0x01\n      add\n      swap1\n      0x20\n      add\n      dup1\n      dup4\n      gt\n      tag_129\n      jumpi\n      dup3\n      swap1\n      sub\n      0x1f\n      and\n      dup3\n      add\n      swap2\n    tag_127:\n      pop\n      pop\n      pop\n      pop\n      pop\n      swap1\n      dup1\n      0x03\n      add\n      0x00\n      swap1\n      sload\n      swap1\n      0x0100\n      exp\n      swap1\n      div\n      0xff\n      and\n      swap1\n      pop\n      dup5\n      jump\t// out\n        /* \"contracts/MultiSigWallet.sol\":9437:10336  function cancelTransaction(bytes32 id) public onlySigner {... */\n    tag_51:\n        /* \"contracts/MultiSigWallet.sol\":2146:2154  isSigner */\n      0x03\n        /* \"contracts/MultiSigWallet.sol\":2146:2166  isSigner[msg.sender] */\n      0x00\n        /* \"contracts/MultiSigWallet.sol\":2155:2165  msg.sender */\n      caller\n        /* \"contracts/MultiSigWallet.sol\":2146:2166  isSigner[msg.sender] */\n      0xffffffffffffffffffffffffffffffffffffffff\n      and\n      0xffffffffffffffffffffffffffffffffffffffff\n      and\n      dup2\n      mstore\n      0x20\n      add\n      swap1\n      dup2\n      mstore\n      0x20\n      add\n      0x00\n      keccak256\n      0x00\n      swap1\n      sload\n      swap1\n      0x0100\n      exp\n      swap1\n      div\n      0xff\n      and\n        /* \"contracts/MultiSigWallet.sol\":2138:2207  require(isSigner[msg.sender], \"Only signers can perform this action\") */\n      tag_131\n      jumpi\n      mload(0x40)\n      0x08c379a000000000000000000000000000000000000000000000000000000000\n      dup2\n      mstore\n      0x04\n      add\n      tag_132\n      swap1\n      tag_133\n      jump\t// in\n    tag_132:\n      mload(0x40)\n      dup1\n      swap2\n      sub\n      swap1\n      revert\n    tag_131:\n        /* \"contracts/MultiSigWallet.sol\":9552:9553  0 */\n      0x00\n        /* \"contracts/MultiSigWallet.sol\":9512:9554  transactions[id].destination != address(0) */\n      0xffffffffffffffffffffffffffffffffffffffff\n      and\n        /* \"contracts/MultiSigWallet.sol\":9512:9524  transactions */\n      0x04\n        /* \"contracts/MultiSigWallet.sol\":9512:9528  transactions[id] */\n      0x00\n        /* \"contracts/MultiSigWallet.sol\":9525:9527  id */\n      dup4\n        /* \"contracts/MultiSigWallet.sol\":9512:9528  transactions[id] */\n      dup2\n      mstore\n      0x20\n      add\n      swap1\n      dup2\n      mstore\n      0x20\n      add\n      0x00\n      keccak256\n        /* \"contracts/MultiSigWallet.sol\":9512:9540  transactions[id].destination */\n      0x00\n      add\n      0x00\n      swap1\n      sload\n      swap1\n      0x0100\n      exp\n      swap1\n      div\n      0xffffffffffffffffffffffffffffffffffffffff\n      and\n        /* \"contracts/MultiSigWallet.sol\":9512:9554  transactions[id].destination != address(0) */\n      0xffffffffffffffffffffffffffffffffffffffff\n      and\n      eq\n      iszero\n        /* \"contracts/MultiSigWallet.sol\":9504:9585  require(transactions[id].destination != address(0), \"Transaction does not exist\") */\n      tag_135\n      jumpi\n      mload(0x40)\n      0x08c379a000000000000000000000000000000000000000000000000000000000\n      dup2\n      mstore\n      0x04\n      add\n      tag_136\n      swap1\n      tag_137\n      jump\t// in\n    tag_136:\n      mload(0x40)\n      dup1\n      swap2\n      sub\n      swap1\n      revert\n    tag_135:\n        /* \"contracts/MultiSigWallet.sol\":9604:9616  transactions */\n      0x04\n        /* \"contracts/MultiSigWallet.sol\":9604:9620  transactions[id] */\n      0x00\n        /* \"contracts/MultiSigWallet.sol\":9617:9619  id */\n      dup3\n        /* \"contracts/MultiSigWallet.sol\":9604:9620  transactions[id] */\n      dup2\n      mstore\n      0x20\n      add\n      swap1\n      dup2\n      mstore\n      0x20\n      add\n      0x00\n      keccak256\n        /* \"contracts/MultiSigWallet.sol\":9604:9629  transactions[id].executed */\n      0x03\n      add\n      0x00\n      swap1\n      sload\n      swap1\n      0x0100\n      exp\n      swap1\n      div\n      0xff\n      and\n        /* \"contracts/MultiSigWallet.sol\":9603:9629  !transactions[id].executed */\n      iszero\n        /* \"contracts/MultiSigWallet.sol\":9595:9671  require(!transactions[id].executed, \"Transaction has already been executed\") */\n      tag_138\n      jumpi\n      mload(0x40)\n      0x08c379a000000000000000000000000000000000000000000000000000000000\n      dup2\n      mstore\n      0x04\n      add\n      tag_139\n      swap1\n      tag_140\n      jump\t// in\n    tag_139:\n      mload(0x40)\n      dup1\n      swap2\n      sub\n      swap1\n      revert\n    tag_138:\n        /* \"contracts/MultiSigWallet.sol\":9770:9776  uint i */\n      0x00\n        /* \"contracts/MultiSigWallet.sol\":9765:10069  for (uint i = 0; i < transactionList.length; i++) {... */\n    tag_141:\n        /* \"contracts/MultiSigWallet.sol\":9786:9801  transactionList */\n      0x06\n        /* \"contracts/MultiSigWallet.sol\":9786:9808  transactionList.length */\n      dup1\n      sload\n      swap1\n      pop\n        /* \"contracts/MultiSigWallet.sol\":9782:9783  i */\n      dup2\n        /* \"contracts/MultiSigWallet.sol\":9782:9808  i < transactionList.length */\n      lt\n        /* \"contracts/MultiSigWallet.sol\":9765:10069  for (uint i = 0; i < transactionList.length; i++) {... */\n      iszero\n      tag_142\n      jumpi\n        /* \"contracts/MultiSigWallet.sol\":9855:9857  id */\n      dup2\n        /* \"contracts/MultiSigWallet.sol\":9833:9848  transactionList */\n      0x06\n        /* \"contracts/MultiSigWallet.sol\":9849:9850  i */\n      dup3\n        /* \"contracts/MultiSigWallet.sol\":9833:9851  transactionList[i] */\n      dup2\n      sload\n      dup2\n      lt\n      tag_144\n      jumpi\n      tag_145\n      tag_105\n      jump\t// in\n    tag_145:\n    tag_144:\n      swap1\n      0x00\n      mstore\n      keccak256(0x00, 0x20)\n      add\n      sload\n        /* \"contracts/MultiSigWallet.sol\":9833:9857  transactionList[i] == id */\n      eq\n        /* \"contracts/MultiSigWallet.sol\":9829:10059  if (transactionList[i] == id) {... */\n      iszero\n      tag_147\n      jumpi\n        /* \"contracts/MultiSigWallet.sol\":9898:9913  transactionList */\n      0x06\n        /* \"contracts/MultiSigWallet.sol\":9939:9940  1 */\n      0x01\n        /* \"contracts/MultiSigWallet.sol\":9914:9929  transactionList */\n      0x06\n        /* \"contracts/MultiSigWallet.sol\":9914:9936  transactionList.length */\n      dup1\n      sload\n      swap1\n      pop\n        /* \"contracts/MultiSigWallet.sol\":9914:9940  transactionList.length - 1 */\n      tag_148\n      swap2\n      swap1\n      tag_109\n      jump\t// in\n    tag_148:\n        /* \"contracts/MultiSigWallet.sol\":9898:9941  transactionList[transactionList.length - 1] */\n      dup2\n      sload\n      dup2\n      lt\n      tag_149\n      jumpi\n      tag_150\n      tag_105\n      jump\t// in\n    tag_150:\n    tag_149:\n      swap1\n      0x00\n      mstore\n      keccak256(0x00, 0x20)\n      add\n      sload\n        /* \"contracts/MultiSigWallet.sol\":9877:9892  transactionList */\n      0x06\n        /* \"contracts/MultiSigWallet.sol\":9893:9894  i */\n      dup3\n        /* \"contracts/MultiSigWallet.sol\":9877:9895  transactionList[i] */\n      dup2\n      sload\n      dup2\n      lt\n      tag_152\n      jumpi\n      tag_153\n      tag_105\n      jump\t// in\n    tag_153:\n    tag_152:\n      swap1\n      0x00\n      mstore\n      keccak256(0x00, 0x20)\n      add\n        /* \"contracts/MultiSigWallet.sol\":9877:9941  transactionList[i] = transactionList[transactionList.length - 1] */\n      dup2\n      swap1\n      sstore\n      pop\n        /* \"contracts/MultiSigWallet.sol\":9959:9974  transactionList */\n      0x06\n        /* \"contracts/MultiSigWallet.sol\":9959:9980  transactionList.pop() */\n      dup1\n      sload\n      dup1\n      tag_155\n      jumpi\n      tag_156\n      tag_118\n      jump\t// in\n    tag_156:\n    tag_155:\n      0x01\n      swap1\n      sub\n      dup2\n      dup2\n      swap1\n      0x00\n      mstore\n      keccak256(0x00, 0x20)\n      add\n      0x00\n      swap1\n      sstore\n      swap1\n      sstore\n        /* \"contracts/MultiSigWallet.sol\":10005:10017  transactions */\n      0x04\n        /* \"contracts/MultiSigWallet.sol\":10005:10021  transactions[id] */\n      0x00\n        /* \"contracts/MultiSigWallet.sol\":10018:10020  id */\n      dup4\n        /* \"contracts/MultiSigWallet.sol\":10005:10021  transactions[id] */\n      dup2\n      mstore\n      0x20\n      add\n      swap1\n      dup2\n      mstore\n      0x20\n      add\n      0x00\n      keccak256\n      0x00\n        /* \"contracts/MultiSigWallet.sol\":9998:10021  delete transactions[id] */\n      dup1\n      dup3\n      add\n      exp(0x0100, 0x00)\n      dup2\n      sload\n      swap1\n      0xffffffffffffffffffffffffffffffffffffffff\n      mul\n      not\n      and\n      swap1\n      sstore\n      0x01\n      dup3\n      add\n      0x00\n      swap1\n      sstore\n      0x02\n      dup3\n      add\n      0x00\n      tag_158\n      swap2\n      swap1\n      tag_159\n      jump\t// in\n    tag_158:\n      0x03\n      dup3\n      add\n      exp(0x0100, 0x00)\n      dup2\n      sload\n      swap1\n      0xff\n      mul\n      not\n      and\n      swap1\n      sstore\n      pop\n      pop\n        /* \"contracts/MultiSigWallet.sol\":10039:10044  break */\n      jump(tag_142)\n        /* \"contracts/MultiSigWallet.sol\":9829:10059  if (transactionList[i] == id) {... */\n    tag_147:\n        /* \"contracts/MultiSigWallet.sol\":9810:9813  i++ */\n      dup1\n      dup1\n      tag_160\n      swap1\n      tag_121\n      jump\t// in\n    tag_160:\n      swap2\n      pop\n      pop\n        /* \"contracts/MultiSigWallet.sol\":9765:10069  for (uint i = 0; i < transactionList.length; i++) {... */\n      jump(tag_141)\n    tag_142:\n      pop\n        /* \"contracts/MultiSigWallet.sol\":10136:10142  uint i */\n      0x00\n        /* \"contracts/MultiSigWallet.sol\":10131:10231  for (uint i = 0; i < signers.length; i++) {... */\n    tag_161:\n        /* \"contracts/MultiSigWallet.sol\":10152:10159  signers */\n      0x01\n        /* \"contracts/MultiSigWallet.sol\":10152:10166  signers.length */\n      dup1\n      sload\n      swap1\n      pop\n        /* \"contracts/MultiSigWallet.sol\":10148:10149  i */\n      dup2\n        /* \"contracts/MultiSigWallet.sol\":10148:10166  i < signers.length */\n      lt\n        /* \"contracts/MultiSigWallet.sol\":10131:10231  for (uint i = 0; i < signers.length; i++) {... */\n      iszero\n      tag_162\n      jumpi\n        /* \"contracts/MultiSigWallet.sol\":10215:10220  false */\n      0x00\n        /* \"contracts/MultiSigWallet.sol\":10187:10196  approvals */\n      0x05\n        /* \"contracts/MultiSigWallet.sol\":10187:10200  approvals[id] */\n      0x00\n        /* \"contracts/MultiSigWallet.sol\":10197:10199  id */\n      dup5\n        /* \"contracts/MultiSigWallet.sol\":10187:10200  approvals[id] */\n      dup2\n      mstore\n      0x20\n      add\n      swap1\n      dup2\n      mstore\n      0x20\n      add\n      0x00\n      keccak256\n        /* \"contracts/MultiSigWallet.sol\":10187:10212  approvals[id][signers[i]] */\n      0x00\n        /* \"contracts/MultiSigWallet.sol\":10201:10208  signers */\n      0x01\n        /* \"contracts/MultiSigWallet.sol\":10209:10210  i */\n      dup5\n        /* \"contracts/MultiSigWallet.sol\":10201:10211  signers[i] */\n      dup2\n      sload\n      dup2\n      lt\n      tag_164\n      jumpi\n      tag_165\n      tag_105\n      jump\t// in\n    tag_165:\n    tag_164:\n      swap1\n      0x00\n      mstore\n      keccak256(0x00, 0x20)\n      add\n      0x00\n      swap1\n      sload\n      swap1\n      0x0100\n      exp\n      swap1\n      div\n      0xffffffffffffffffffffffffffffffffffffffff\n      and\n        /* \"contracts/MultiSigWallet.sol\":10187:10212  approvals[id][signers[i]] */\n      0xffffffffffffffffffffffffffffffffffffffff\n      and\n      0xffffffffffffffffffffffffffffffffffffffff\n      and\n      dup2\n      mstore\n      0x20\n      add\n      swap1\n      dup2\n      mstore\n      0x20\n      add\n      0x00\n      keccak256\n      0x00\n        /* \"contracts/MultiSigWallet.sol\":10187:10220  approvals[id][signers[i]] = false */\n      0x0100\n      exp\n      dup2\n      sload\n      dup2\n      0xff\n      mul\n      not\n      and\n      swap1\n      dup4\n      iszero\n      iszero\n      mul\n      or\n      swap1\n      sstore\n      pop\n        /* \"contracts/MultiSigWallet.sol\":10168:10171  i++ */\n      dup1\n      dup1\n      tag_167\n      swap1\n      tag_121\n      jump\t// in\n    tag_167:\n      swap2\n      pop\n      pop\n        /* \"contracts/MultiSigWallet.sol\":10131:10231  for (uint i = 0; i < signers.length; i++) {... */\n      jump(tag_161)\n    tag_162:\n      pop\n        /* \"contracts/MultiSigWallet.sol\":10259:10261  id */\n      dup1\n        /* \"contracts/MultiSigWallet.sol\":10246:10262  Cancellation(id) */\n      0xbca2885d81f38744d778177014656fadaf8db5de172de50e21d4ca0e1b844995\n      mload(0x40)\n      mload(0x40)\n      dup1\n      swap2\n      sub\n      swap1\n      log2\n        /* \"contracts/MultiSigWallet.sol\":9437:10336  function cancelTransaction(bytes32 id) public onlySigner {... */\n      pop\n      jump\t// out\n        /* \"contracts/MultiSigWallet.sol\":798:828  address public recoveryAddress */\n    tag_53:\n      0x07\n      0x00\n      swap1\n      sload\n      swap1\n      0x0100\n      exp\n      swap1\n      div\n      0xffffffffffffffffffffffffffffffffffffffff\n      and\n      dup2\n      jump\t// out\n        /* \"contracts/MultiSigWallet.sol\":367:408  mapping (address => bool) public isSigner */\n    tag_57:\n      mstore(0x20, 0x03)\n      dup1\n      0x00\n      mstore\n      keccak256(0x00, 0x40)\n      0x00\n      swap2\n      pop\n      sload\n      swap1\n      0x0100\n      exp\n      swap1\n      div\n      0xff\n      and\n      dup2\n      jump\t// out\n        /* \"contracts/MultiSigWallet.sol\":269:299  uint public requiredSignatures */\n    tag_60:\n      sload(0x02)\n      dup2\n      jump\t// out\n        /* \"contracts/MultiSigWallet.sol\":94:114  address public owner */\n    tag_64:\n      0x00\n      dup1\n      sload\n      swap1\n      0x0100\n      exp\n      swap1\n      div\n      0xffffffffffffffffffffffffffffffffffffffff\n      and\n      dup2\n      jump\t// out\n        /* \"contracts/MultiSigWallet.sol\":6887:7667  function approveTransaction(bytes32 id) public onlySigner {... */\n    tag_68:\n        /* \"contracts/MultiSigWallet.sol\":2146:2154  isSigner */\n      0x03\n        /* \"contracts/MultiSigWallet.sol\":2146:2166  isSigner[msg.sender] */\n      0x00\n        /* \"contracts/MultiSigWallet.sol\":2155:2165  msg.sender */\n      caller\n        /* \"contracts/MultiSigWallet.sol\":2146:2166  isSigner[msg.sender] */\n      0xffffffffffffffffffffffffffffffffffffffff\n      and\n      0xffffffffffffffffffffffffffffffffffffffff\n      and\n      dup2\n      mstore\n      0x20\n      add\n      swap1\n      dup2\n      mstore\n      0x20\n      add\n      0x00\n      keccak256\n      0x00\n      swap1\n      sload\n      swap1\n      0x0100\n      exp\n      swap1\n      div\n      0xff\n      and\n        /* \"contracts/MultiSigWallet.sol\":2138:2207  require(isSigner[msg.sender], \"Only signers can perform this action\") */\n      tag_169\n      jumpi\n      mload(0x40)\n      0x08c379a000000000000000000000000000000000000000000000000000000000\n      dup2\n      mstore\n      0x04\n      add\n      tag_170\n      swap1\n      tag_133\n      jump\t// in\n    tag_170:\n      mload(0x40)\n      dup1\n      swap2\n      sub\n      swap1\n      revert\n    tag_169:\n        /* \"contracts/MultiSigWallet.sol\":7003:7004  0 */\n      0x00\n        /* \"contracts/MultiSigWallet.sol\":6963:7005  transactions[id].destination != address(0) */\n      0xffffffffffffffffffffffffffffffffffffffff\n      and\n        /* \"contracts/MultiSigWallet.sol\":6963:6975  transactions */\n      0x04\n        /* \"contracts/MultiSigWallet.sol\":6963:6979  transactions[id] */\n      0x00\n        /* \"contracts/MultiSigWallet.sol\":6976:6978  id */\n      dup4\n        /* \"contracts/MultiSigWallet.sol\":6963:6979  transactions[id] */\n      dup2\n      mstore\n      0x20\n      add\n      swap1\n      dup2\n      mstore\n      0x20\n      add\n      0x00\n      keccak256\n        /* \"contracts/MultiSigWallet.sol\":6963:6991  transactions[id].destination */\n      0x00\n      add\n      0x00\n      swap1\n      sload\n      swap1\n      0x0100\n      exp\n      swap1\n      div\n      0xffffffffffffffffffffffffffffffffffffffff\n      and\n        /* \"contracts/MultiSigWallet.sol\":6963:7005  transactions[id].destination != address(0) */\n      0xffffffffffffffffffffffffffffffffffffffff\n      and\n      eq\n      iszero\n        /* \"contracts/MultiSigWallet.sol\":6955:7036  require(transactions[id].destination != address(0), \"Transaction does not exist\") */\n      tag_172\n      jumpi\n      mload(0x40)\n      0x08c379a000000000000000000000000000000000000000000000000000000000\n      dup2\n      mstore\n      0x04\n      add\n      tag_173\n      swap1\n      tag_137\n      jump\t// in\n    tag_173:\n      mload(0x40)\n      dup1\n      swap2\n      sub\n      swap1\n      revert\n    tag_172:\n        /* \"contracts/MultiSigWallet.sol\":7075:7079  true */\n      0x01\n        /* \"contracts/MultiSigWallet.sol\":7047:7056  approvals */\n      0x05\n        /* \"contracts/MultiSigWallet.sol\":7047:7060  approvals[id] */\n      0x00\n        /* \"contracts/MultiSigWallet.sol\":7057:7059  id */\n      dup4\n        /* \"contracts/MultiSigWallet.sol\":7047:7060  approvals[id] */\n      dup2\n      mstore\n      0x20\n      add\n      swap1\n      dup2\n      mstore\n      0x20\n      add\n      0x00\n      keccak256\n        /* \"contracts/MultiSigWallet.sol\":7047:7072  approvals[id][msg.sender] */\n      0x00\n        /* \"contracts/MultiSigWallet.sol\":7061:7071  msg.sender */\n      caller\n        /* \"contracts/MultiSigWallet.sol\":7047:7072  approvals[id][msg.sender] */\n      0xffffffffffffffffffffffffffffffffffffffff\n      and\n      0xffffffffffffffffffffffffffffffffffffffff\n      and\n      dup2\n      mstore\n      0x20\n      add\n      swap1\n      dup2\n      mstore\n      0x20\n      add\n      0x00\n      keccak256\n      0x00\n        /* \"contracts/MultiSigWallet.sol\":7047:7079  approvals[id][msg.sender] = true */\n      0x0100\n      exp\n      dup2\n      sload\n      dup2\n      0xff\n      mul\n      not\n      and\n      swap1\n      dup4\n      iszero\n      iszero\n      mul\n      or\n      swap1\n      sstore\n      pop\n        /* \"contracts/MultiSigWallet.sol\":7157:7167  msg.sender */\n      caller\n        /* \"contracts/MultiSigWallet.sol\":7144:7168  Approval(id, msg.sender) */\n      0xffffffffffffffffffffffffffffffffffffffff\n      and\n        /* \"contracts/MultiSigWallet.sol\":7153:7155  id */\n      dup2\n        /* \"contracts/MultiSigWallet.sol\":7144:7168  Approval(id, msg.sender) */\n      0xec6590fa5d86db2e9b3ced5caae4916c2547c5a4bef3cb4bdf11f1d1995a8ee4\n      mload(0x40)\n      mload(0x40)\n      dup1\n      swap2\n      sub\n      swap1\n      log3\n        /* \"contracts/MultiSigWallet.sol\":7317:7327  uint count */\n      0x00\n        /* \"contracts/MultiSigWallet.sol\":7346:7352  uint i */\n      dup1\n        /* \"contracts/MultiSigWallet.sol\":7341:7661  for (uint i = 0; i < signers.length; i++) {... */\n    tag_174:\n        /* \"contracts/MultiSigWallet.sol\":7362:7369  signers */\n      0x01\n        /* \"contracts/MultiSigWallet.sol\":7362:7376  signers.length */\n      dup1\n      sload\n      swap1\n      pop\n        /* \"contracts/MultiSigWallet.sol\":7358:7359  i */\n      dup2\n        /* \"contracts/MultiSigWallet.sol\":7358:7376  i < signers.length */\n      lt\n        /* \"contracts/MultiSigWallet.sol\":7341:7661  for (uint i = 0; i < signers.length; i++) {... */\n      iszero\n      tag_175\n      jumpi\n        /* \"contracts/MultiSigWallet.sol\":7401:7410  approvals */\n      0x05\n        /* \"contracts/MultiSigWallet.sol\":7401:7414  approvals[id] */\n      0x00\n        /* \"contracts/MultiSigWallet.sol\":7411:7413  id */\n      dup5\n        /* \"contracts/MultiSigWallet.sol\":7401:7414  approvals[id] */\n      dup2\n      mstore\n      0x20\n      add\n      swap1\n      dup2\n      mstore\n      0x20\n      add\n      0x00\n      keccak256\n        /* \"contracts/MultiSigWallet.sol\":7401:7426  approvals[id][signers[i]] */\n      0x00\n        /* \"contracts/MultiSigWallet.sol\":7415:7422  signers */\n      0x01\n        /* \"contracts/MultiSigWallet.sol\":7423:7424  i */\n      dup4\n        /* \"contracts/MultiSigWallet.sol\":7415:7425  signers[i] */\n      dup2\n      sload\n      dup2\n      lt\n      tag_177\n      jumpi\n      tag_178\n      tag_105\n      jump\t// in\n    tag_178:\n    tag_177:\n      swap1\n      0x00\n      mstore\n      keccak256(0x00, 0x20)\n      add\n      0x00\n      swap1\n      sload\n      swap1\n      0x0100\n      exp\n      swap1\n      div\n      0xffffffffffffffffffffffffffffffffffffffff\n      and\n        /* \"contracts/MultiSigWallet.sol\":7401:7426  approvals[id][signers[i]] */\n      0xffffffffffffffffffffffffffffffffffffffff\n      and\n      0xffffffffffffffffffffffffffffffffffffffff\n      and\n      dup2\n      mstore\n      0x20\n      add\n      swap1\n      dup2\n      mstore\n      0x20\n      add\n      0x00\n      keccak256\n      0x00\n      swap1\n      sload\n      swap1\n      0x0100\n      exp\n      swap1\n      div\n      0xff\n      and\n        /* \"contracts/MultiSigWallet.sol\":7397:7468  if (approvals[id][signers[i]]) {... */\n      iszero\n      tag_180\n      jumpi\n        /* \"contracts/MultiSigWallet.sol\":7446:7453  count++ */\n      dup2\n      dup1\n      tag_181\n      swap1\n      tag_121\n      jump\t// in\n    tag_181:\n      swap3\n      pop\n      pop\n        /* \"contracts/MultiSigWallet.sol\":7397:7468  if (approvals[id][signers[i]]) {... */\n    tag_180:\n        /* \"contracts/MultiSigWallet.sol\":7494:7512  requiredSignatures */\n      sload(0x02)\n        /* \"contracts/MultiSigWallet.sol\":7485:7490  count */\n      dup3\n        /* \"contracts/MultiSigWallet.sol\":7485:7512  count == requiredSignatures */\n      eq\n        /* \"contracts/MultiSigWallet.sol\":7481:7651  if (count == requiredSignatures) {... */\n      iszero\n      tag_182\n      jumpi\n        /* \"contracts/MultiSigWallet.sol\":7532:7554  executeTransaction(id) */\n      tag_183\n        /* \"contracts/MultiSigWallet.sol\":7551:7553  id */\n      dup4\n        /* \"contracts/MultiSigWallet.sol\":7532:7550  executeTransaction */\n      tag_79\n        /* \"contracts/MultiSigWallet.sol\":7532:7554  executeTransaction(id) */\n      jump\t// in\n    tag_183:\n        /* \"contracts/MultiSigWallet.sol\":7631:7636  break */\n      jump(tag_175)\n        /* \"contracts/MultiSigWallet.sol\":7481:7651  if (count == requiredSignatures) {... */\n    tag_182:\n        /* \"contracts/MultiSigWallet.sol\":7378:7381  i++ */\n      dup1\n      dup1\n      tag_184\n      swap1\n      tag_121\n      jump\t// in\n    tag_184:\n      swap2\n      pop\n      pop\n        /* \"contracts/MultiSigWallet.sol\":7341:7661  for (uint i = 0; i < signers.length; i++) {... */\n      jump(tag_174)\n    tag_175:\n      pop\n        /* \"contracts/MultiSigWallet.sol\":6945:7667  {... */\n      pop\n        /* \"contracts/MultiSigWallet.sol\":6887:7667  function approveTransaction(bytes32 id) public onlySigner {... */\n      pop\n      jump\t// out\n        /* \"contracts/MultiSigWallet.sol\":10575:10907  function recoverWallet(address newOwner) public {... */\n    tag_71:\n        /* \"contracts/MultiSigWallet.sol\":10655:10670  recoveryAddress */\n      0x07\n      0x00\n      swap1\n      sload\n      swap1\n      0x0100\n      exp\n      swap1\n      div\n      0xffffffffffffffffffffffffffffffffffffffff\n      and\n        /* \"contracts/MultiSigWallet.sol\":10641:10670  msg.sender == recoveryAddress */\n      0xffffffffffffffffffffffffffffffffffffffff\n      and\n        /* \"contracts/MultiSigWallet.sol\":10641:10651  msg.sender */\n      caller\n        /* \"contracts/MultiSigWallet.sol\":10641:10670  msg.sender == recoveryAddress */\n      0xffffffffffffffffffffffffffffffffffffffff\n      and\n      eq\n        /* \"contracts/MultiSigWallet.sol\":10633:10723  require(msg.sender == recoveryAddress, \"Only the recovery address can call this function\") */\n      tag_186\n      jumpi\n      mload(0x40)\n      0x08c379a000000000000000000000000000000000000000000000000000000000\n      dup2\n      mstore\n      0x04\n      add\n      tag_187\n      swap1\n      tag_188\n      jump\t// in\n    tag_187:\n      mload(0x40)\n      dup1\n      swap2\n      sub\n      swap1\n      revert\n    tag_186:\n        /* \"contracts/MultiSigWallet.sol\":10753:10768  recoveryAddress */\n      0x07\n      0x00\n      swap1\n      sload\n      swap1\n      0x0100\n      exp\n      swap1\n      div\n      0xffffffffffffffffffffffffffffffffffffffff\n      and\n        /* \"contracts/MultiSigWallet.sol\":10741:10768  newOwner != recoveryAddress */\n      0xffffffffffffffffffffffffffffffffffffffff\n      and\n        /* \"contracts/MultiSigWallet.sol\":10741:10749  newOwner */\n      dup2\n        /* \"contracts/MultiSigWallet.sol\":10741:10768  newOwner != recoveryAddress */\n      0xffffffffffffffffffffffffffffffffffffffff\n      and\n      eq\n      iszero\n        /* \"contracts/MultiSigWallet.sol\":10733:10822  require(newOwner != recoveryAddress, \"New recovery address should not match current one\") */\n      tag_189\n      jumpi\n      mload(0x40)\n      0x08c379a000000000000000000000000000000000000000000000000000000000\n      dup2\n      mstore\n      0x04\n      add\n      tag_190\n      swap1\n      tag_191\n      jump\t// in\n    tag_190:\n      mload(0x40)\n      dup1\n      swap2\n      sub\n      swap1\n      revert\n    tag_189:\n        /* \"contracts/MultiSigWallet.sol\":10865:10873  newOwner */\n      dup1\n        /* \"contracts/MultiSigWallet.sol\":10837:10874  OwnershipTransferred(owner, newOwner) */\n      0xffffffffffffffffffffffffffffffffffffffff\n      and\n        /* \"contracts/MultiSigWallet.sol\":10858:10863  owner */\n      0x00\n      dup1\n      sload\n      swap1\n      0x0100\n      exp\n      swap1\n      div\n      0xffffffffffffffffffffffffffffffffffffffff\n      and\n        /* \"contracts/MultiSigWallet.sol\":10837:10874  OwnershipTransferred(owner, newOwner) */\n      0xffffffffffffffffffffffffffffffffffffffff\n      and\n      0x8be0079c531659141344cd1fd0a4f28419497f9722a3daafe3b4186f6b6457e0\n      mload(0x40)\n      mload(0x40)\n      dup1\n      swap2\n      sub\n      swap1\n      log3\n        /* \"contracts/MultiSigWallet.sol\":10892:10900  newOwner */\n      dup1\n        /* \"contracts/MultiSigWallet.sol\":10884:10889  owner */\n      0x00\n      dup1\n        /* \"contracts/MultiSigWallet.sol\":10884:10900  owner = newOwner */\n      0x0100\n      exp\n      dup2\n      sload\n      dup2\n      0xffffffffffffffffffffffffffffffffffffffff\n      mul\n      not\n      and\n      swap1\n      dup4\n      0xffffffffffffffffffffffffffffffffffffffff\n      and\n      mul\n      or\n      swap1\n      sstore\n      pop\n        /* \"contracts/MultiSigWallet.sol\":10575:10907  function recoverWallet(address newOwner) public {... */\n      pop\n      jump\t// out\n        /* \"contracts/MultiSigWallet.sol\":5260:5787  function createTransaction(address destination, uint value, bytes memory data) public onlySigner returns (bytes32) {... */\n    tag_75:\n        /* \"contracts/MultiSigWallet.sol\":5366:5373  bytes32 */\n      0x00\n        /* \"contracts/MultiSigWallet.sol\":2146:2154  isSigner */\n      0x03\n        /* \"contracts/MultiSigWallet.sol\":2146:2166  isSigner[msg.sender] */\n      0x00\n        /* \"contracts/MultiSigWallet.sol\":2155:2165  msg.sender */\n      caller\n        /* \"contracts/MultiSigWallet.sol\":2146:2166  isSigner[msg.sender] */\n      0xffffffffffffffffffffffffffffffffffffffff\n      and\n      0xffffffffffffffffffffffffffffffffffffffff\n      and\n      dup2\n      mstore\n      0x20\n      add\n      swap1\n      dup2\n      mstore\n      0x20\n      add\n      0x00\n      keccak256\n      0x00\n      swap1\n      sload\n      swap1\n      0x0100\n      exp\n      swap1\n      div\n      0xff\n      and\n        /* \"contracts/MultiSigWallet.sol\":2138:2207  require(isSigner[msg.sender], \"Only signers can perform this action\") */\n      tag_193\n      jumpi\n      mload(0x40)\n      0x08c379a000000000000000000000000000000000000000000000000000000000\n      dup2\n      mstore\n      0x04\n      add\n      tag_194\n      swap1\n      tag_133\n      jump\t// in\n    tag_194:\n      mload(0x40)\n      dup1\n      swap2\n      sub\n      swap1\n      revert\n    tag_193:\n        /* \"contracts/MultiSigWallet.sol\":5385:5395  bytes32 id */\n      0x00\n        /* \"contracts/MultiSigWallet.sol\":5398:5438  createUniqueId(destination, value, data) */\n      tag_196\n        /* \"contracts/MultiSigWallet.sol\":5413:5424  destination */\n      dup6\n        /* \"contracts/MultiSigWallet.sol\":5426:5431  value */\n      dup6\n        /* \"contracts/MultiSigWallet.sol\":5433:5437  data */\n      dup6\n        /* \"contracts/MultiSigWallet.sol\":5398:5412  createUniqueId */\n      tag_82\n        /* \"contracts/MultiSigWallet.sol\":5398:5438  createUniqueId(destination, value, data) */\n      jump\t// in\n    tag_196:\n        /* \"contracts/MultiSigWallet.sol\":5385:5438  bytes32 id = createUniqueId(destination, value, data) */\n      swap1\n      pop\n        /* \"contracts/MultiSigWallet.sol\":5467:5511  Transaction(destination, value, data, false) */\n      mload(0x40)\n      dup1\n      0x80\n      add\n      0x40\n      mstore\n      dup1\n        /* \"contracts/MultiSigWallet.sol\":5479:5490  destination */\n      dup7\n        /* \"contracts/MultiSigWallet.sol\":5467:5511  Transaction(destination, value, data, false) */\n      0xffffffffffffffffffffffffffffffffffffffff\n      and\n      dup2\n      mstore\n      0x20\n      add\n        /* \"contracts/MultiSigWallet.sol\":5492:5497  value */\n      dup6\n        /* \"contracts/MultiSigWallet.sol\":5467:5511  Transaction(destination, value, data, false) */\n      dup2\n      mstore\n      0x20\n      add\n        /* \"contracts/MultiSigWallet.sol\":5499:5503  data */\n      dup5\n        /* \"contracts/MultiSigWallet.sol\":5467:5511  Transaction(destination, value, data, false) */\n      dup2\n      mstore\n      0x20\n      add\n        /* \"contracts/MultiSigWallet.sol\":5505:5510  false */\n      0x00\n        /* \"contracts/MultiSigWallet.sol\":5467:5511  Transaction(destination, value, data, false) */\n      iszero\n      iszero\n      dup2\n      mstore\n      pop\n        /* \"contracts/MultiSigWallet.sol\":5448:5460  transactions */\n      0x04\n        /* \"contracts/MultiSigWallet.sol\":5448:5464  transactions[id] */\n      0x00\n        /* \"contracts/MultiSigWallet.sol\":5461:5463  id */\n      dup4\n        /* \"contracts/MultiSigWallet.sol\":5448:5464  transactions[id] */\n      dup2\n      mstore\n      0x20\n      add\n      swap1\n      dup2\n      mstore\n      0x20\n      add\n      0x00\n      keccak256\n        /* \"contracts/MultiSigWallet.sol\":5448:5511  transactions[id] = Transaction(destination, value, data, false) */\n      0x00\n      dup3\n      add\n      mload\n      dup2\n      0x00\n      add\n      exp(0x0100, 0x00)\n      dup2\n      sload\n      dup2\n      0xffffffffffffffffffffffffffffffffffffffff\n      mul\n      not\n      and\n      swap1\n      dup4\n      0xffffffffffffffffffffffffffffffffffffffff\n      and\n      mul\n      or\n      swap1\n      sstore\n      pop\n      0x20\n      dup3\n      add\n      mload\n      dup2\n      0x01\n      add\n      sstore\n      0x40\n      dup3\n      add\n      mload\n      dup2\n      0x02\n      add\n      swap1\n      dup1\n      mload\n      swap1\n      0x20\n      add\n      swap1\n      tag_197\n      swap3\n      swap2\n      swap1\n      tag_198\n      jump\t// in\n    tag_197:\n      pop\n      0x60\n      dup3\n      add\n      mload\n      dup2\n      0x03\n      add\n      exp(0x0100, 0x00)\n      dup2\n      sload\n      dup2\n      0xff\n      mul\n      not\n      and\n      swap1\n      dup4\n      iszero\n      iszero\n      mul\n      or\n      swap1\n      sstore\n      pop\n      swap1\n      pop\n      pop\n        /* \"contracts/MultiSigWallet.sol\":5561:5576  transactionList */\n      0x06\n        /* \"contracts/MultiSigWallet.sol\":5582:5584  id */\n      dup2\n        /* \"contracts/MultiSigWallet.sol\":5561:5585  transactionList.push(id) */\n      swap1\n      dup1\n      0x01\n      dup2\n      sload\n      add\n      dup1\n      dup3\n      sstore\n      dup1\n      swap2\n      pop\n      pop\n      0x01\n      swap1\n      sub\n      swap1\n      0x00\n      mstore\n      keccak256(0x00, 0x20)\n      add\n      0x00\n      swap1\n      swap2\n      swap1\n      swap2\n      swap1\n      swap2\n      pop\n      sstore\n        /* \"contracts/MultiSigWallet.sol\":5669:5680  destination */\n      dup5\n        /* \"contracts/MultiSigWallet.sol\":5650:5694  NewTransaction(id, destination, value, data) */\n      0xffffffffffffffffffffffffffffffffffffffff\n      and\n        /* \"contracts/MultiSigWallet.sol\":5665:5667  id */\n      dup2\n        /* \"contracts/MultiSigWallet.sol\":5650:5694  NewTransaction(id, destination, value, data) */\n      0xa9ae4899c6660aed54dd2cfe0668075633cc1f864b27d69284536bf59bae230c\n        /* \"contracts/MultiSigWallet.sol\":5682:5687  value */\n      dup7\n        /* \"contracts/MultiSigWallet.sol\":5689:5693  data */\n      dup7\n        /* \"contracts/MultiSigWallet.sol\":5650:5694  NewTransaction(id, destination, value, data) */\n      mload(0x40)\n      tag_200\n      swap3\n      swap2\n      swap1\n      tag_201\n      jump\t// in\n    tag_200:\n      mload(0x40)\n      dup1\n      swap2\n      sub\n      swap1\n      log3\n        /* \"contracts/MultiSigWallet.sol\":5778:5780  id */\n      dup1\n        /* \"contracts/MultiSigWallet.sol\":5771:5780  return id */\n      swap2\n      pop\n      pop\n        /* \"contracts/MultiSigWallet.sol\":5260:5787  function createTransaction(address destination, uint value, bytes memory data) public onlySigner returns (bytes32) {... */\n      swap4\n      swap3\n      pop\n      pop\n      pop\n      jump\t// out\n        /* \"contracts/MultiSigWallet.sol\":7915:8996  function executeTransaction(bytes32 id) public onlySigner {... */\n    tag_79:\n        /* \"contracts/MultiSigWallet.sol\":2146:2154  isSigner */\n      0x03\n        /* \"contracts/MultiSigWallet.sol\":2146:2166  isSigner[msg.sender] */\n      0x00\n        /* \"contracts/MultiSigWallet.sol\":2155:2165  msg.sender */\n      caller\n        /* \"contracts/MultiSigWallet.sol\":2146:2166  isSigner[msg.sender] */\n      0xffffffffffffffffffffffffffffffffffffffff\n      and\n      0xffffffffffffffffffffffffffffffffffffffff\n      and\n      dup2\n      mstore\n      0x20\n      add\n      swap1\n      dup2\n      mstore\n      0x20\n      add\n      0x00\n      keccak256\n      0x00\n      swap1\n      sload\n      swap1\n      0x0100\n      exp\n      swap1\n      div\n      0xff\n      and\n        /* \"contracts/MultiSigWallet.sol\":2138:2207  require(isSigner[msg.sender], \"Only signers can perform this action\") */\n      tag_203\n      jumpi\n      mload(0x40)\n      0x08c379a000000000000000000000000000000000000000000000000000000000\n      dup2\n      mstore\n      0x04\n      add\n      tag_204\n      swap1\n      tag_133\n      jump\t// in\n    tag_204:\n      mload(0x40)\n      dup1\n      swap2\n      sub\n      swap1\n      revert\n    tag_203:\n        /* \"contracts/MultiSigWallet.sol\":8031:8032  0 */\n      0x00\n        /* \"contracts/MultiSigWallet.sol\":7991:8033  transactions[id].destination != address(0) */\n      0xffffffffffffffffffffffffffffffffffffffff\n      and\n        /* \"contracts/MultiSigWallet.sol\":7991:8003  transactions */\n      0x04\n        /* \"contracts/MultiSigWallet.sol\":7991:8007  transactions[id] */\n      0x00\n        /* \"contracts/MultiSigWallet.sol\":8004:8006  id */\n      dup4\n        /* \"contracts/MultiSigWallet.sol\":7991:8007  transactions[id] */\n      dup2\n      mstore\n      0x20\n      add\n      swap1\n      dup2\n      mstore\n      0x20\n      add\n      0x00\n      keccak256\n        /* \"contracts/MultiSigWallet.sol\":7991:8019  transactions[id].destination */\n      0x00\n      add\n      0x00\n      swap1\n      sload\n      swap1\n      0x0100\n      exp\n      swap1\n      div\n      0xffffffffffffffffffffffffffffffffffffffff\n      and\n        /* \"contracts/MultiSigWallet.sol\":7991:8033  transactions[id].destination != address(0) */\n      0xffffffffffffffffffffffffffffffffffffffff\n      and\n      eq\n      iszero\n        /* \"contracts/MultiSigWallet.sol\":7983:8064  require(transactions[id].destination != address(0), \"Transaction does not exist\") */\n      tag_206\n      jumpi\n      mload(0x40)\n      0x08c379a000000000000000000000000000000000000000000000000000000000\n      dup2\n      mstore\n      0x04\n      add\n      tag_207\n      swap1\n      tag_137\n      jump\t// in\n    tag_207:\n      mload(0x40)\n      dup1\n      swap2\n      sub\n      swap1\n      revert\n    tag_206:\n        /* \"contracts/MultiSigWallet.sol\":8083:8095  transactions */\n      0x04\n        /* \"contracts/MultiSigWallet.sol\":8083:8099  transactions[id] */\n      0x00\n        /* \"contracts/MultiSigWallet.sol\":8096:8098  id */\n      dup3\n        /* \"contracts/MultiSigWallet.sol\":8083:8099  transactions[id] */\n      dup2\n      mstore\n      0x20\n      add\n      swap1\n      dup2\n      mstore\n      0x20\n      add\n      0x00\n      keccak256\n        /* \"contracts/MultiSigWallet.sol\":8083:8108  transactions[id].executed */\n      0x03\n      add\n      0x00\n      swap1\n      sload\n      swap1\n      0x0100\n      exp\n      swap1\n      div\n      0xff\n      and\n        /* \"contracts/MultiSigWallet.sol\":8082:8108  !transactions[id].executed */\n      iszero\n        /* \"contracts/MultiSigWallet.sol\":8074:8150  require(!transactions[id].executed, \"Transaction has already been executed\") */\n      tag_208\n      jumpi\n      mload(0x40)\n      0x08c379a000000000000000000000000000000000000000000000000000000000\n      dup2\n      mstore\n      0x04\n      add\n      tag_209\n      swap1\n      tag_140\n      jump\t// in\n    tag_209:\n      mload(0x40)\n      dup1\n      swap2\n      sub\n      swap1\n      revert\n    tag_208:\n        /* \"contracts/MultiSigWallet.sol\":8241:8251  uint count */\n      0x00\n        /* \"contracts/MultiSigWallet.sol\":8270:8276  uint i */\n      dup1\n        /* \"contracts/MultiSigWallet.sol\":8265:8891  for (uint i = 0; i < signers.length; i++) {... */\n    tag_210:\n        /* \"contracts/MultiSigWallet.sol\":8286:8293  signers */\n      0x01\n        /* \"contracts/MultiSigWallet.sol\":8286:8300  signers.length */\n      dup1\n      sload\n      swap1\n      pop\n        /* \"contracts/MultiSigWallet.sol\":8282:8283  i */\n      dup2\n        /* \"contracts/MultiSigWallet.sol\":8282:8300  i < signers.length */\n      lt\n        /* \"contracts/MultiSigWallet.sol\":8265:8891  for (uint i = 0; i < signers.length; i++) {... */\n      iszero\n      tag_211\n      jumpi\n        /* \"contracts/MultiSigWallet.sol\":8325:8334  approvals */\n      0x05\n        /* \"contracts/MultiSigWallet.sol\":8325:8338  approvals[id] */\n      0x00\n        /* \"contracts/MultiSigWallet.sol\":8335:8337  id */\n      dup5\n        /* \"contracts/MultiSigWallet.sol\":8325:8338  approvals[id] */\n      dup2\n      mstore\n      0x20\n      add\n      swap1\n      dup2\n      mstore\n      0x20\n      add\n      0x00\n      keccak256\n        /* \"contracts/MultiSigWallet.sol\":8325:8350  approvals[id][signers[i]] */\n      0x00\n        /* \"contracts/MultiSigWallet.sol\":8339:8346  signers */\n      0x01\n        /* \"contracts/MultiSigWallet.sol\":8347:8348  i */\n      dup4\n        /* \"contracts/MultiSigWallet.sol\":8339:8349  signers[i] */\n      dup2\n      sload\n      dup2\n      lt\n      tag_213\n      jumpi\n      tag_214\n      tag_105\n      jump\t// in\n    tag_214:\n    tag_213:\n      swap1\n      0x00\n      mstore\n      keccak256(0x00, 0x20)\n      add\n      0x00\n      swap1\n      sload\n      swap1\n      0x0100\n      exp\n      swap1\n      div\n      0xffffffffffffffffffffffffffffffffffffffff\n      and\n        /* \"contracts/MultiSigWallet.sol\":8325:8350  approvals[id][signers[i]] */\n      0xffffffffffffffffffffffffffffffffffffffff\n      and\n      0xffffffffffffffffffffffffffffffffffffffff\n      and\n      dup2\n      mstore\n      0x20\n      add\n      swap1\n      dup2\n      mstore\n      0x20\n      add\n      0x00\n      keccak256\n      0x00\n      swap1\n      sload\n      swap1\n      0x0100\n      exp\n      swap1\n      div\n      0xff\n      and\n        /* \"contracts/MultiSigWallet.sol\":8321:8392  if (approvals[id][signers[i]]) {... */\n      iszero\n      tag_216\n      jumpi\n        /* \"contracts/MultiSigWallet.sol\":8370:8377  count++ */\n      dup2\n      dup1\n      tag_217\n      swap1\n      tag_121\n      jump\t// in\n    tag_217:\n      swap3\n      pop\n      pop\n        /* \"contracts/MultiSigWallet.sol\":8321:8392  if (approvals[id][signers[i]]) {... */\n    tag_216:\n        /* \"contracts/MultiSigWallet.sol\":8418:8436  requiredSignatures */\n      sload(0x02)\n        /* \"contracts/MultiSigWallet.sol\":8409:8414  count */\n      dup3\n        /* \"contracts/MultiSigWallet.sol\":8409:8436  count == requiredSignatures */\n      eq\n        /* \"contracts/MultiSigWallet.sol\":8405:8881  if (count == requiredSignatures) {... */\n      iszero\n      tag_218\n      jumpi\n        /* \"contracts/MultiSigWallet.sol\":8484:8488  true */\n      0x01\n        /* \"contracts/MultiSigWallet.sol\":8456:8468  transactions */\n      0x04\n        /* \"contracts/MultiSigWallet.sol\":8456:8472  transactions[id] */\n      0x00\n        /* \"contracts/MultiSigWallet.sol\":8469:8471  id */\n      dup6\n        /* \"contracts/MultiSigWallet.sol\":8456:8472  transactions[id] */\n      dup2\n      mstore\n      0x20\n      add\n      swap1\n      dup2\n      mstore\n      0x20\n      add\n      0x00\n      keccak256\n        /* \"contracts/MultiSigWallet.sol\":8456:8481  transactions[id].executed */\n      0x03\n      add\n      0x00\n        /* \"contracts/MultiSigWallet.sol\":8456:8488  transactions[id].executed = true */\n      0x0100\n      exp\n      dup2\n      sload\n      dup2\n      0xff\n      mul\n      not\n      and\n      swap1\n      dup4\n      iszero\n      iszero\n      mul\n      or\n      swap1\n      sstore\n      pop\n        /* \"contracts/MultiSigWallet.sol\":8543:8555  bool success */\n      0x00\n        /* \"contracts/MultiSigWallet.sol\":8561:8573  transactions */\n      0x04\n        /* \"contracts/MultiSigWallet.sol\":8561:8577  transactions[id] */\n      0x00\n        /* \"contracts/MultiSigWallet.sol\":8574:8576  id */\n      dup6\n        /* \"contracts/MultiSigWallet.sol\":8561:8577  transactions[id] */\n      dup2\n      mstore\n      0x20\n      add\n      swap1\n      dup2\n      mstore\n      0x20\n      add\n      0x00\n      keccak256\n        /* \"contracts/MultiSigWallet.sol\":8561:8589  transactions[id].destination */\n      0x00\n      add\n      0x00\n      swap1\n      sload\n      swap1\n      0x0100\n      exp\n      swap1\n      div\n      0xffffffffffffffffffffffffffffffffffffffff\n      and\n        /* \"contracts/MultiSigWallet.sol\":8561:8594  transactions[id].destination.call */\n      0xffffffffffffffffffffffffffffffffffffffff\n      and\n        /* \"contracts/MultiSigWallet.sol\":8602:8614  transactions */\n      0x04\n        /* \"contracts/MultiSigWallet.sol\":8602:8618  transactions[id] */\n      0x00\n        /* \"contracts/MultiSigWallet.sol\":8615:8617  id */\n      dup7\n        /* \"contracts/MultiSigWallet.sol\":8602:8618  transactions[id] */\n      dup2\n      mstore\n      0x20\n      add\n      swap1\n      dup2\n      mstore\n      0x20\n      add\n      0x00\n      keccak256\n        /* \"contracts/MultiSigWallet.sol\":8602:8624  transactions[id].value */\n      0x01\n      add\n      sload\n        /* \"contracts/MultiSigWallet.sol\":8626:8638  transactions */\n      0x04\n        /* \"contracts/MultiSigWallet.sol\":8626:8642  transactions[id] */\n      0x00\n        /* \"contracts/MultiSigWallet.sol\":8639:8641  id */\n      dup8\n        /* \"contracts/MultiSigWallet.sol\":8626:8642  transactions[id] */\n      dup2\n      mstore\n      0x20\n      add\n      swap1\n      dup2\n      mstore\n      0x20\n      add\n      0x00\n      keccak256\n        /* \"contracts/MultiSigWallet.sol\":8626:8647  transactions[id].data */\n      0x02\n      add\n        /* \"contracts/MultiSigWallet.sol\":8561:8648  transactions[id].destination.call{value: transactions[id].value}(transactions[id].data) */\n      mload(0x40)\n      tag_219\n      swap2\n      swap1\n      tag_220\n      jump\t// in\n    tag_219:\n      0x00\n      mload(0x40)\n      dup1\n      dup4\n      sub\n      dup2\n      dup6\n      dup8\n      gas\n      call\n      swap3\n      pop\n      pop\n      pop\n      returndatasize\n      dup1\n      0x00\n      dup2\n      eq\n      tag_223\n      jumpi\n      mload(0x40)\n      swap2\n      pop\n      and(add(returndatasize, 0x3f), not(0x1f))\n      dup3\n      add\n      0x40\n      mstore\n      returndatasize\n      dup3\n      mstore\n      returndatasize\n      0x00\n      0x20\n      dup5\n      add\n      returndatacopy\n      jump(tag_222)\n    tag_223:\n      0x60\n      swap2\n      pop\n    tag_222:\n      pop\n        /* \"contracts/MultiSigWallet.sol\":8542:8648  (bool success, ) = transactions[id].destination.call{value: transactions[id].value}(transactions[id].data) */\n      pop\n      swap1\n      pop\n        /* \"contracts/MultiSigWallet.sol\":8701:8708  success */\n      dup1\n        /* \"contracts/MultiSigWallet.sol\":8693:8741  require(success, \"Transaction execution failed\") */\n      tag_224\n      jumpi\n      mload(0x40)\n      0x08c379a000000000000000000000000000000000000000000000000000000000\n      dup2\n      mstore\n      0x04\n      add\n      tag_225\n      swap1\n      tag_226\n      jump\t// in\n    tag_225:\n      mload(0x40)\n      dup1\n      swap2\n      sub\n      swap1\n      revert\n    tag_224:\n        /* \"contracts/MultiSigWallet.sol\":8774:8776  id */\n      dup4\n        /* \"contracts/MultiSigWallet.sol\":8764:8777  Execution(id) */\n      0x7e9e1cb65db4927b1815f498cbaa226a15c277816f7df407573682110522c9b1\n      mload(0x40)\n      mload(0x40)\n      dup1\n      swap2\n      sub\n      swap1\n      log2\n        /* \"contracts/MultiSigWallet.sol\":8861:8866  break */\n      pop\n      jump(tag_211)\n        /* \"contracts/MultiSigWallet.sol\":8405:8881  if (count == requiredSignatures) {... */\n    tag_218:\n        /* \"contracts/MultiSigWallet.sol\":8302:8305  i++ */\n      dup1\n      dup1\n      tag_227\n      swap1\n      tag_121\n      jump\t// in\n    tag_227:\n      swap2\n      pop\n      pop\n        /* \"contracts/MultiSigWallet.sol\":8265:8891  for (uint i = 0; i < signers.length; i++) {... */\n      jump(tag_210)\n    tag_211:\n      pop\n        /* \"contracts/MultiSigWallet.sol\":8917:8935  requiredSignatures */\n      sload(0x02)\n        /* \"contracts/MultiSigWallet.sol\":8908:8913  count */\n      dup2\n        /* \"contracts/MultiSigWallet.sol\":8908:8935  count >= requiredSignatures */\n      lt\n      iszero\n        /* \"contracts/MultiSigWallet.sol\":8900:8989  require(count >= requiredSignatures, \"Not enough signers have approved this transaction\") */\n      tag_228\n      jumpi\n      mload(0x40)\n      0x08c379a000000000000000000000000000000000000000000000000000000000\n      dup2\n      mstore\n      0x04\n      add\n      tag_229\n      swap1\n      tag_230\n      jump\t// in\n    tag_229:\n      mload(0x40)\n      dup1\n      swap2\n      sub\n      swap1\n      revert\n    tag_228:\n        /* \"contracts/MultiSigWallet.sol\":7973:8996  {... */\n      pop\n        /* \"contracts/MultiSigWallet.sol\":7915:8996  function executeTransaction(bytes32 id) public onlySigner {... */\n      pop\n      jump\t// out\n        /* \"contracts/MultiSigWallet.sol\":6370:6697  function createUniqueId(address destination, uint256 value, bytes memory data) public view returns (bytes32) {... */\n    tag_82:\n        /* \"contracts/MultiSigWallet.sol\":6470:6477  bytes32 */\n      0x00\n        /* \"contracts/MultiSigWallet.sol\":6588:6598  bytes32 id */\n      dup1\n        /* \"contracts/MultiSigWallet.sol\":6628:6639  destination */\n      dup5\n        /* \"contracts/MultiSigWallet.sol\":6641:6646  value */\n      dup5\n        /* \"contracts/MultiSigWallet.sol\":6648:6652  data */\n      dup5\n        /* \"contracts/MultiSigWallet.sol\":6654:6669  block.timestamp */\n      timestamp\n        /* \"contracts/MultiSigWallet.sol\":6611:6670  abi.encodePacked(destination, value, data, block.timestamp) */\n      add(0x20, mload(0x40))\n      tag_232\n      swap5\n      swap4\n      swap3\n      swap2\n      swap1\n      tag_233\n      jump\t// in\n    tag_232:\n      mload(0x40)\n      0x20\n      dup2\n      dup4\n      sub\n      sub\n      dup2\n      mstore\n      swap1\n      0x40\n      mstore\n        /* \"contracts/MultiSigWallet.sol\":6601:6671  keccak256(abi.encodePacked(destination, value, data, block.timestamp)) */\n      dup1\n      mload\n      swap1\n      0x20\n      add\n      keccak256\n        /* \"contracts/MultiSigWallet.sol\":6588:6671  bytes32 id = keccak256(abi.encodePacked(destination, value, data, block.timestamp)) */\n      swap1\n      pop\n        /* \"contracts/MultiSigWallet.sol\":6688:6690  id */\n      dup1\n        /* \"contracts/MultiSigWallet.sol\":6681:6690  return id */\n      swap2\n      pop\n      pop\n        /* \"contracts/MultiSigWallet.sol\":6370:6697  function createUniqueId(address destination, uint256 value, bytes memory data) public view returns (bytes32) {... */\n      swap4\n      swap3\n      pop\n      pop\n      pop\n      jump\t// out\n        /* \"contracts/MultiSigWallet.sol\":3520:3750  function addSigner(address signer) public onlyOwner {... */\n    tag_86:\n        /* \"contracts/MultiSigWallet.sol\":1929:1934  owner */\n      0x00\n      dup1\n      sload\n      swap1\n      0x0100\n      exp\n      swap1\n      div\n      0xffffffffffffffffffffffffffffffffffffffff\n      and\n        /* \"contracts/MultiSigWallet.sol\":1915:1934  msg.sender == owner */\n      0xffffffffffffffffffffffffffffffffffffffff\n      and\n        /* \"contracts/MultiSigWallet.sol\":1915:1925  msg.sender */\n      caller\n        /* \"contracts/MultiSigWallet.sol\":1915:1934  msg.sender == owner */\n      0xffffffffffffffffffffffffffffffffffffffff\n      and\n      eq\n        /* \"contracts/MultiSigWallet.sol\":1907:1977  require(msg.sender == owner, \"Only the owner can perform this action\") */\n      tag_235\n      jumpi\n      mload(0x40)\n      0x08c379a000000000000000000000000000000000000000000000000000000000\n      dup2\n      mstore\n      0x04\n      add\n      tag_236\n      swap1\n      tag_92\n      jump\t// in\n    tag_236:\n      mload(0x40)\n      dup1\n      swap2\n      sub\n      swap1\n      revert\n    tag_235:\n        /* \"contracts/MultiSigWallet.sol\":3591:3599  isSigner */\n      0x03\n        /* \"contracts/MultiSigWallet.sol\":3591:3607  isSigner[signer] */\n      0x00\n        /* \"contracts/MultiSigWallet.sol\":3600:3606  signer */\n      dup3\n        /* \"contracts/MultiSigWallet.sol\":3591:3607  isSigner[signer] */\n      0xffffffffffffffffffffffffffffffffffffffff\n      and\n      0xffffffffffffffffffffffffffffffffffffffff\n      and\n      dup2\n      mstore\n      0x20\n      add\n      swap1\n      dup2\n      mstore\n      0x20\n      add\n      0x00\n      keccak256\n      0x00\n      swap1\n      sload\n      swap1\n      0x0100\n      exp\n      swap1\n      div\n      0xff\n      and\n        /* \"contracts/MultiSigWallet.sol\":3590:3607  !isSigner[signer] */\n      iszero\n        /* \"contracts/MultiSigWallet.sol\":3582:3639  require(!isSigner[signer], \"Address is already a signer\") */\n      tag_238\n      jumpi\n      mload(0x40)\n      0x08c379a000000000000000000000000000000000000000000000000000000000\n      dup2\n      mstore\n      0x04\n      add\n      tag_239\n      swap1\n      tag_240\n      jump\t// in\n    tag_239:\n      mload(0x40)\n      dup1\n      swap2\n      sub\n      swap1\n      revert\n    tag_238:\n        /* \"contracts/MultiSigWallet.sol\":3649:3656  signers */\n      0x01\n        /* \"contracts/MultiSigWallet.sol\":3662:3668  signer */\n      dup2\n        /* \"contracts/MultiSigWallet.sol\":3649:3669  signers.push(signer) */\n      swap1\n      dup1\n      0x01\n      dup2\n      sload\n      add\n      dup1\n      dup3\n      sstore\n      dup1\n      swap2\n      pop\n      pop\n      0x01\n      swap1\n      sub\n      swap1\n      0x00\n      mstore\n      keccak256(0x00, 0x20)\n      add\n      0x00\n      swap1\n      swap2\n      swap1\n      swap2\n      swap1\n      swap2\n      0x0100\n      exp\n      dup2\n      sload\n      dup2\n      0xffffffffffffffffffffffffffffffffffffffff\n      mul\n      not\n      and\n      swap1\n      dup4\n      0xffffffffffffffffffffffffffffffffffffffff\n      and\n      mul\n      or\n      swap1\n      sstore\n      pop\n        /* \"contracts/MultiSigWallet.sol\":3698:3702  true */\n      0x01\n        /* \"contracts/MultiSigWallet.sol\":3679:3687  isSigner */\n      0x03\n        /* \"contracts/MultiSigWallet.sol\":3679:3695  isSigner[signer] */\n      0x00\n        /* \"contracts/MultiSigWallet.sol\":3688:3694  signer */\n      dup4\n        /* \"contracts/MultiSigWallet.sol\":3679:3695  isSigner[signer] */\n      0xffffffffffffffffffffffffffffffffffffffff\n      and\n      0xffffffffffffffffffffffffffffffffffffffff\n      and\n      dup2\n      mstore\n      0x20\n      add\n      swap1\n      dup2\n      mstore\n      0x20\n      add\n      0x00\n      keccak256\n      0x00\n        /* \"contracts/MultiSigWallet.sol\":3679:3702  isSigner[signer] = true */\n      0x0100\n      exp\n      dup2\n      sload\n      dup2\n      0xff\n      mul\n      not\n      and\n      swap1\n      dup4\n      iszero\n      iszero\n      mul\n      or\n      swap1\n      sstore\n      pop\n        /* \"contracts/MultiSigWallet.sol\":3738:3742  true */\n      0x01\n        /* \"contracts/MultiSigWallet.sol\":3717:3743  SignerUpdate(signer, true) */\n      iszero\n      iszero\n        /* \"contracts/MultiSigWallet.sol\":3730:3736  signer */\n      dup2\n        /* \"contracts/MultiSigWallet.sol\":3717:3743  SignerUpdate(signer, true) */\n      0xffffffffffffffffffffffffffffffffffffffff\n      and\n      0xc648f6265408cc54c0dc26d24ba51dfc9f35ce1a63baa2228f65d93aaf11cc67\n      mload(0x40)\n      mload(0x40)\n      dup1\n      swap2\n      sub\n      swap1\n      log3\n        /* \"contracts/MultiSigWallet.sol\":3520:3750  function addSigner(address signer) public onlyOwner {... */\n      pop\n      jump\t// out\n    tag_159:\n      pop\n      dup1\n      sload\n      tag_242\n      swap1\n      tag_125\n      jump\t// in\n    tag_242:\n      0x00\n      dup3\n      sstore\n      dup1\n      0x1f\n      lt\n      tag_244\n      jumpi\n      pop\n      jump(tag_243)\n    tag_244:\n      0x1f\n      add\n      0x20\n      swap1\n      div\n      swap1\n      0x00\n      mstore\n      keccak256(0x00, 0x20)\n      swap1\n      dup2\n      add\n      swap1\n      tag_245\n      swap2\n      swap1\n      tag_246\n      jump\t// in\n    tag_245:\n    tag_243:\n      pop\n      jump\t// out\n    tag_198:\n      dup3\n      dup1\n      sload\n      tag_247\n      swap1\n      tag_125\n      jump\t// in\n    tag_247:\n      swap1\n      0x00\n      mstore\n      keccak256(0x00, 0x20)\n      swap1\n      0x1f\n      add\n      0x20\n      swap1\n      div\n      dup2\n      add\n      swap3\n      dup3\n      tag_249\n      jumpi\n      0x00\n      dup6\n      sstore\n      jump(tag_248)\n    tag_249:\n      dup3\n      0x1f\n      lt\n      tag_250\n      jumpi\n      dup1\n      mload\n      not(0xff)\n      and\n      dup4\n      dup1\n      add\n      or\n      dup6\n      sstore\n      jump(tag_248)\n    tag_250:\n      dup3\n      dup1\n      add\n      0x01\n      add\n      dup6\n      sstore\n      dup3\n      iszero\n      tag_248\n      jumpi\n      swap2\n      dup3\n      add\n    tag_251:\n      dup3\n      dup2\n      gt\n      iszero\n      tag_252\n      jumpi\n      dup3\n      mload\n      dup3\n      sstore\n      swap2\n      0x20\n      add\n      swap2\n      swap1\n      0x01\n      add\n      swap1\n      jump(tag_251)\n    tag_252:\n    tag_248:\n      pop\n      swap1\n      pop\n      tag_253\n      swap2\n      swap1\n      tag_246\n      jump\t// in\n    tag_253:\n      pop\n      swap1\n      jump\t// out\n    tag_246:\n    tag_254:\n      dup1\n      dup3\n      gt\n      iszero\n      tag_255\n      jumpi\n      0x00\n      dup2\n      0x00\n      swap1\n      sstore\n      pop\n      0x01\n      add\n      jump(tag_254)\n    tag_255:\n      pop\n      swap1\n      jump\t// out\n        /* \"#utility.yul\":7:417   */\n    tag_257:\n        /* \"#utility.yul\":84:89   */\n      0x00\n        /* \"#utility.yul\":109:174   */\n      tag_259\n        /* \"#utility.yul\":125:173   */\n      tag_260\n        /* \"#utility.yul\":166:172   */\n      dup5\n        /* \"#utility.yul\":125:173   */\n      tag_261\n      jump\t// in\n    tag_260:\n        /* \"#utility.yul\":109:174   */\n      tag_262\n      jump\t// in\n    tag_259:\n        /* \"#utility.yul\":100:174   */\n      swap1\n      pop\n        /* \"#utility.yul\":197:203   */\n      dup3\n        /* \"#utility.yul\":190:195   */\n      dup2\n        /* \"#utility.yul\":183:204   */\n      mstore\n        /* \"#utility.yul\":235:239   */\n      0x20\n        /* \"#utility.yul\":228:233   */\n      dup2\n        /* \"#utility.yul\":224:240   */\n      add\n        /* \"#utility.yul\":273:276   */\n      dup5\n        /* \"#utility.yul\":264:270   */\n      dup5\n        /* \"#utility.yul\":259:262   */\n      dup5\n        /* \"#utility.yul\":255:271   */\n      add\n        /* \"#utility.yul\":252:277   */\n      gt\n        /* \"#utility.yul\":249:361   */\n      iszero\n      tag_263\n      jumpi\n        /* \"#utility.yul\":280:359   */\n      tag_264\n      tag_265\n      jump\t// in\n    tag_264:\n        /* \"#utility.yul\":249:361   */\n    tag_263:\n        /* \"#utility.yul\":370:411   */\n      tag_266\n        /* \"#utility.yul\":404:410   */\n      dup5\n        /* \"#utility.yul\":399:402   */\n      dup3\n        /* \"#utility.yul\":394:397   */\n      dup6\n        /* \"#utility.yul\":370:411   */\n      tag_267\n      jump\t// in\n    tag_266:\n        /* \"#utility.yul\":90:417   */\n      pop\n        /* \"#utility.yul\":7:417   */\n      swap4\n      swap3\n      pop\n      pop\n      pop\n      jump\t// out\n        /* \"#utility.yul\":423:562   */\n    tag_268:\n        /* \"#utility.yul\":469:474   */\n      0x00\n        /* \"#utility.yul\":507:513   */\n      dup2\n        /* \"#utility.yul\":494:514   */\n      calldataload\n        /* \"#utility.yul\":485:514   */\n      swap1\n      pop\n        /* \"#utility.yul\":523:556   */\n      tag_270\n        /* \"#utility.yul\":550:555   */\n      dup2\n        /* \"#utility.yul\":523:556   */\n      tag_271\n      jump\t// in\n    tag_270:\n        /* \"#utility.yul\":423:562   */\n      swap3\n      swap2\n      pop\n      pop\n      jump\t// out\n        /* \"#utility.yul\":568:707   */\n    tag_272:\n        /* \"#utility.yul\":614:619   */\n      0x00\n        /* \"#utility.yul\":652:658   */\n      dup2\n        /* \"#utility.yul\":639:659   */\n      calldataload\n        /* \"#utility.yul\":630:659   */\n      swap1\n      pop\n        /* \"#utility.yul\":668:701   */\n      tag_274\n        /* \"#utility.yul\":695:700   */\n      dup2\n        /* \"#utility.yul\":668:701   */\n      tag_275\n      jump\t// in\n    tag_274:\n        /* \"#utility.yul\":568:707   */\n      swap3\n      swap2\n      pop\n      pop\n      jump\t// out\n        /* \"#utility.yul\":726:1064   */\n    tag_276:\n        /* \"#utility.yul\":781:786   */\n      0x00\n        /* \"#utility.yul\":830:833   */\n      dup3\n        /* \"#utility.yul\":823:827   */\n      0x1f\n        /* \"#utility.yul\":815:821   */\n      dup4\n        /* \"#utility.yul\":811:828   */\n      add\n        /* \"#utility.yul\":807:834   */\n      slt\n        /* \"#utility.yul\":797:919   */\n      tag_278\n      jumpi\n        /* \"#utility.yul\":838:917   */\n      tag_279\n      tag_280\n      jump\t// in\n    tag_279:\n        /* \"#utility.yul\":797:919   */\n    tag_278:\n        /* \"#utility.yul\":955:961   */\n      dup2\n        /* \"#utility.yul\":942:962   */\n      calldataload\n        /* \"#utility.yul\":980:1058   */\n      tag_281\n        /* \"#utility.yul\":1054:1057   */\n      dup5\n        /* \"#utility.yul\":1046:1052   */\n      dup3\n        /* \"#utility.yul\":1039:1043   */\n      0x20\n        /* \"#utility.yul\":1031:1037   */\n      dup7\n        /* \"#utility.yul\":1027:1044   */\n      add\n        /* \"#utility.yul\":980:1058   */\n      tag_257\n      jump\t// in\n    tag_281:\n        /* \"#utility.yul\":971:1058   */\n      swap2\n      pop\n        /* \"#utility.yul\":787:1064   */\n      pop\n        /* \"#utility.yul\":726:1064   */\n      swap3\n      swap2\n      pop\n      pop\n      jump\t// out\n        /* \"#utility.yul\":1070:1209   */\n    tag_282:\n        /* \"#utility.yul\":1116:1121   */\n      0x00\n        /* \"#utility.yul\":1154:1160   */\n      dup2\n        /* \"#utility.yul\":1141:1161   */\n      calldataload\n        /* \"#utility.yul\":1132:1161   */\n      swap1\n      pop\n        /* \"#utility.yul\":1170:1203   */\n      tag_284\n        /* \"#utility.yul\":1197:1202   */\n      dup2\n        /* \"#utility.yul\":1170:1203   */\n      tag_285\n      jump\t// in\n    tag_284:\n        /* \"#utility.yul\":1070:1209   */\n      swap3\n      swap2\n      pop\n      pop\n      jump\t// out\n        /* \"#utility.yul\":1215:1544   */\n    tag_30:\n        /* \"#utility.yul\":1274:1280   */\n      0x00\n        /* \"#utility.yul\":1323:1325   */\n      0x20\n        /* \"#utility.yul\":1311:1320   */\n      dup3\n        /* \"#utility.yul\":1302:1309   */\n      dup5\n        /* \"#utility.yul\":1298:1321   */\n      sub\n        /* \"#utility.yul\":1294:1326   */\n      slt\n        /* \"#utility.yul\":1291:1410   */\n      iszero\n      tag_287\n      jumpi\n        /* \"#utility.yul\":1329:1408   */\n      tag_288\n      tag_289\n      jump\t// in\n    tag_288:\n        /* \"#utility.yul\":1291:1410   */\n    tag_287:\n        /* \"#utility.yul\":1449:1450   */\n      0x00\n        /* \"#utility.yul\":1474:1527   */\n      tag_290\n        /* \"#utility.yul\":1519:1526   */\n      dup5\n        /* \"#utility.yul\":1510:1516   */\n      dup3\n        /* \"#utility.yul\":1499:1508   */\n      dup6\n        /* \"#utility.yul\":1495:1517   */\n      add\n        /* \"#utility.yul\":1474:1527   */\n      tag_268\n      jump\t// in\n    tag_290:\n        /* \"#utility.yul\":1464:1527   */\n      swap2\n      pop\n        /* \"#utility.yul\":1420:1537   */\n      pop\n        /* \"#utility.yul\":1215:1544   */\n      swap3\n      swap2\n      pop\n      pop\n      jump\t// out\n        /* \"#utility.yul\":1550:2347   */\n    tag_74:\n        /* \"#utility.yul\":1636:1642   */\n      0x00\n        /* \"#utility.yul\":1644:1650   */\n      dup1\n        /* \"#utility.yul\":1652:1658   */\n      0x00\n        /* \"#utility.yul\":1701:1703   */\n      0x60\n        /* \"#utility.yul\":1689:1698   */\n      dup5\n        /* \"#utility.yul\":1680:1687   */\n      dup7\n        /* \"#utility.yul\":1676:1699   */\n      sub\n        /* \"#utility.yul\":1672:1704   */\n      slt\n        /* \"#utility.yul\":1669:1788   */\n      iszero\n      tag_292\n      jumpi\n        /* \"#utility.yul\":1707:1786   */\n      tag_293\n      tag_289\n      jump\t// in\n    tag_293:\n        /* \"#utility.yul\":1669:1788   */\n    tag_292:\n        /* \"#utility.yul\":1827:1828   */\n      0x00\n        /* \"#utility.yul\":1852:1905   */\n      tag_294\n        /* \"#utility.yul\":1897:1904   */\n      dup7\n        /* \"#utility.yul\":1888:1894   */\n      dup3\n        /* \"#utility.yul\":1877:1886   */\n      dup8\n        /* \"#utility.yul\":1873:1895   */\n      add\n        /* \"#utility.yul\":1852:1905   */\n      tag_268\n      jump\t// in\n    tag_294:\n        /* \"#utility.yul\":1842:1905   */\n      swap4\n      pop\n        /* \"#utility.yul\":1798:1915   */\n      pop\n        /* \"#utility.yul\":1954:1956   */\n      0x20\n        /* \"#utility.yul\":1980:2033   */\n      tag_295\n        /* \"#utility.yul\":2025:2032   */\n      dup7\n        /* \"#utility.yul\":2016:2022   */\n      dup3\n        /* \"#utility.yul\":2005:2014   */\n      dup8\n        /* \"#utility.yul\":2001:2023   */\n      add\n        /* \"#utility.yul\":1980:2033   */\n      tag_282\n      jump\t// in\n    tag_295:\n        /* \"#utility.yul\":1970:2033   */\n      swap3\n      pop\n        /* \"#utility.yul\":1925:2043   */\n      pop\n        /* \"#utility.yul\":2110:2112   */\n      0x40\n        /* \"#utility.yul\":2099:2108   */\n      dup5\n        /* \"#utility.yul\":2095:2113   */\n      add\n        /* \"#utility.yul\":2082:2114   */\n      calldataload\n        /* \"#utility.yul\":2141:2159   */\n      0xffffffffffffffff\n        /* \"#utility.yul\":2133:2139   */\n      dup2\n        /* \"#utility.yul\":2130:2160   */\n      gt\n        /* \"#utility.yul\":2127:2244   */\n      iszero\n      tag_296\n      jumpi\n        /* \"#utility.yul\":2163:2242   */\n      tag_297\n      tag_298\n      jump\t// in\n    tag_297:\n        /* \"#utility.yul\":2127:2244   */\n    tag_296:\n        /* \"#utility.yul\":2268:2330   */\n      tag_299\n        /* \"#utility.yul\":2322:2329   */\n      dup7\n        /* \"#utility.yul\":2313:2319   */\n      dup3\n        /* \"#utility.yul\":2302:2311   */\n      dup8\n        /* \"#utility.yul\":2298:2320   */\n      add\n        /* \"#utility.yul\":2268:2330   */\n      tag_276\n      jump\t// in\n    tag_299:\n        /* \"#utility.yul\":2258:2330   */\n      swap2\n      pop\n        /* \"#utility.yul\":2053:2340   */\n      pop\n        /* \"#utility.yul\":1550:2347   */\n      swap3\n      pop\n      swap3\n      pop\n      swap3\n      jump\t// out\n        /* \"#utility.yul\":2353:2682   */\n    tag_45:\n        /* \"#utility.yul\":2412:2418   */\n      0x00\n        /* \"#utility.yul\":2461:2463   */\n      0x20\n        /* \"#utility.yul\":2449:2458   */\n      dup3\n        /* \"#utility.yul\":2440:2447   */\n      dup5\n        /* \"#utility.yul\":2436:2459   */\n      sub\n        /* \"#utility.yul\":2432:2464   */\n      slt\n        /* \"#utility.yul\":2429:2548   */\n      iszero\n      tag_301\n      jumpi\n        /* \"#utility.yul\":2467:2546   */\n      tag_302\n      tag_289\n      jump\t// in\n    tag_302:\n        /* \"#utility.yul\":2429:2548   */\n    tag_301:\n        /* \"#utility.yul\":2587:2588   */\n      0x00\n        /* \"#utility.yul\":2612:2665   */\n      tag_303\n        /* \"#utility.yul\":2657:2664   */\n      dup5\n        /* \"#utility.yul\":2648:2654   */\n      dup3\n        /* \"#utility.yul\":2637:2646   */\n      dup6\n        /* \"#utility.yul\":2633:2655   */\n      add\n        /* \"#utility.yul\":2612:2665   */\n      tag_272\n      jump\t// in\n    tag_303:\n        /* \"#utility.yul\":2602:2665   */\n      swap2\n      pop\n        /* \"#utility.yul\":2558:2675   */\n      pop\n        /* \"#utility.yul\":2353:2682   */\n      swap3\n      swap2\n      pop\n      pop\n      jump\t// out\n        /* \"#utility.yul\":2688:3162   */\n    tag_39:\n        /* \"#utility.yul\":2756:2762   */\n      0x00\n        /* \"#utility.yul\":2764:2770   */\n      dup1\n        /* \"#utility.yul\":2813:2815   */\n      0x40\n        /* \"#utility.yul\":2801:2810   */\n      dup4\n        /* \"#utility.yul\":2792:2799   */\n      dup6\n        /* \"#utility.yul\":2788:2811   */\n      sub\n        /* \"#utility.yul\":2784:2816   */\n      slt\n        /* \"#utility.yul\":2781:2900   */\n      iszero\n      tag_305\n      jumpi\n        /* \"#utility.yul\":2819:2898   */\n      tag_306\n      tag_289\n      jump\t// in\n    tag_306:\n        /* \"#utility.yul\":2781:2900   */\n    tag_305:\n        /* \"#utility.yul\":2939:2940   */\n      0x00\n        /* \"#utility.yul\":2964:3017   */\n      tag_307\n        /* \"#utility.yul\":3009:3016   */\n      dup6\n        /* \"#utility.yul\":3000:3006   */\n      dup3\n        /* \"#utility.yul\":2989:2998   */\n      dup7\n        /* \"#utility.yul\":2985:3007   */\n      add\n        /* \"#utility.yul\":2964:3017   */\n      tag_272\n      jump\t// in\n    tag_307:\n        /* \"#utility.yul\":2954:3017   */\n      swap3\n      pop\n        /* \"#utility.yul\":2910:3027   */\n      pop\n        /* \"#utility.yul\":3066:3068   */\n      0x20\n        /* \"#utility.yul\":3092:3145   */\n      tag_308\n        /* \"#utility.yul\":3137:3144   */\n      dup6\n        /* \"#utility.yul\":3128:3134   */\n      dup3\n        /* \"#utility.yul\":3117:3126   */\n      dup7\n        /* \"#utility.yul\":3113:3135   */\n      add\n        /* \"#utility.yul\":3092:3145   */\n      tag_268\n      jump\t// in\n    tag_308:\n        /* \"#utility.yul\":3082:3145   */\n      swap2\n      pop\n        /* \"#utility.yul\":3037:3155   */\n      pop\n        /* \"#utility.yul\":2688:3162   */\n      swap3\n      pop\n      swap3\n      swap1\n      pop\n      jump\t// out\n        /* \"#utility.yul\":3168:3497   */\n    tag_24:\n        /* \"#utility.yul\":3227:3233   */\n      0x00\n        /* \"#utility.yul\":3276:3278   */\n      0x20\n        /* \"#utility.yul\":3264:3273   */\n      dup3\n        /* \"#utility.yul\":3255:3262   */\n      dup5\n        /* \"#utility.yul\":3251:3274   */\n      sub\n        /* \"#utility.yul\":3247:3279   */\n      slt\n        /* \"#utility.yul\":3244:3363   */\n      iszero\n      tag_310\n      jumpi\n        /* \"#utility.yul\":3282:3361   */\n      tag_311\n      tag_289\n      jump\t// in\n    tag_311:\n        /* \"#utility.yul\":3244:3363   */\n    tag_310:\n        /* \"#utility.yul\":3402:3403   */\n      0x00\n        /* \"#utility.yul\":3427:3480   */\n      tag_312\n        /* \"#utility.yul\":3472:3479   */\n      dup5\n        /* \"#utility.yul\":3463:3469   */\n      dup3\n        /* \"#utility.yul\":3452:3461   */\n      dup6\n        /* \"#utility.yul\":3448:3470   */\n      add\n        /* \"#utility.yul\":3427:3480   */\n      tag_282\n      jump\t// in\n    tag_312:\n        /* \"#utility.yul\":3417:3480   */\n      swap2\n      pop\n        /* \"#utility.yul\":3373:3490   */\n      pop\n        /* \"#utility.yul\":3168:3497   */\n      swap3\n      swap2\n      pop\n      pop\n      jump\t// out\n        /* \"#utility.yul\":3503:3621   */\n    tag_313:\n        /* \"#utility.yul\":3590:3614   */\n      tag_315\n        /* \"#utility.yul\":3608:3613   */\n      dup2\n        /* \"#utility.yul\":3590:3614   */\n      tag_316\n      jump\t// in\n    tag_315:\n        /* \"#utility.yul\":3585:3588   */\n      dup3\n        /* \"#utility.yul\":3578:3615   */\n      mstore\n        /* \"#utility.yul\":3503:3621   */\n      pop\n      pop\n      jump\t// out\n        /* \"#utility.yul\":3627:3784   */\n    tag_317:\n        /* \"#utility.yul\":3732:3777   */\n      tag_319\n        /* \"#utility.yul\":3752:3776   */\n      tag_320\n        /* \"#utility.yul\":3770:3775   */\n      dup3\n        /* \"#utility.yul\":3752:3776   */\n      tag_316\n      jump\t// in\n    tag_320:\n        /* \"#utility.yul\":3732:3777   */\n      tag_321\n      jump\t// in\n    tag_319:\n        /* \"#utility.yul\":3727:3730   */\n      dup3\n        /* \"#utility.yul\":3720:3778   */\n      mstore\n        /* \"#utility.yul\":3627:3784   */\n      pop\n      pop\n      jump\t// out\n        /* \"#utility.yul\":3790:3899   */\n    tag_322:\n        /* \"#utility.yul\":3871:3892   */\n      tag_324\n        /* \"#utility.yul\":3886:3891   */\n      dup2\n        /* \"#utility.yul\":3871:3892   */\n      tag_325\n      jump\t// in\n    tag_324:\n        /* \"#utility.yul\":3866:3869   */\n      dup3\n        /* \"#utility.yul\":3859:3893   */\n      mstore\n        /* \"#utility.yul\":3790:3899   */\n      pop\n      pop\n      jump\t// out\n        /* \"#utility.yul\":3905:4023   */\n    tag_326:\n        /* \"#utility.yul\":3992:4016   */\n      tag_328\n        /* \"#utility.yul\":4010:4015   */\n      dup2\n        /* \"#utility.yul\":3992:4016   */\n      tag_329\n      jump\t// in\n    tag_328:\n        /* \"#utility.yul\":3987:3990   */\n      dup3\n        /* \"#utility.yul\":3980:4017   */\n      mstore\n        /* \"#utility.yul\":3905:4023   */\n      pop\n      pop\n      jump\t// out\n        /* \"#utility.yul\":4029:4389   */\n    tag_330:\n        /* \"#utility.yul\":4115:4118   */\n      0x00\n        /* \"#utility.yul\":4143:4181   */\n      tag_332\n        /* \"#utility.yul\":4175:4180   */\n      dup3\n        /* \"#utility.yul\":4143:4181   */\n      tag_333\n      jump\t// in\n    tag_332:\n        /* \"#utility.yul\":4197:4267   */\n      tag_334\n        /* \"#utility.yul\":4260:4266   */\n      dup2\n        /* \"#utility.yul\":4255:4258   */\n      dup6\n        /* \"#utility.yul\":4197:4267   */\n      tag_335\n      jump\t// in\n    tag_334:\n        /* \"#utility.yul\":4190:4267   */\n      swap4\n      pop\n        /* \"#utility.yul\":4276:4328   */\n      tag_336\n        /* \"#utility.yul\":4321:4327   */\n      dup2\n        /* \"#utility.yul\":4316:4319   */\n      dup6\n        /* \"#utility.yul\":4309:4313   */\n      0x20\n        /* \"#utility.yul\":4302:4307   */\n      dup7\n        /* \"#utility.yul\":4298:4314   */\n      add\n        /* \"#utility.yul\":4276:4328   */\n      tag_337\n      jump\t// in\n    tag_336:\n        /* \"#utility.yul\":4353:4382   */\n      tag_338\n        /* \"#utility.yul\":4375:4381   */\n      dup2\n        /* \"#utility.yul\":4353:4382   */\n      tag_339\n      jump\t// in\n    tag_338:\n        /* \"#utility.yul\":4348:4351   */\n      dup5\n        /* \"#utility.yul\":4344:4383   */\n      add\n        /* \"#utility.yul\":4337:4383   */\n      swap2\n      pop\n        /* \"#utility.yul\":4119:4389   */\n      pop\n        /* \"#utility.yul\":4029:4389   */\n      swap3\n      swap2\n      pop\n      pop\n      jump\t// out\n        /* \"#utility.yul\":4395:4768   */\n    tag_340:\n        /* \"#utility.yul\":4499:4502   */\n      0x00\n        /* \"#utility.yul\":4527:4565   */\n      tag_342\n        /* \"#utility.yul\":4559:4564   */\n      dup3\n        /* \"#utility.yul\":4527:4565   */\n      tag_333\n      jump\t// in\n    tag_342:\n        /* \"#utility.yul\":4581:4669   */\n      tag_343\n        /* \"#utility.yul\":4662:4668   */\n      dup2\n        /* \"#utility.yul\":4657:4660   */\n      dup6\n        /* \"#utility.yul\":4581:4669   */\n      tag_344\n      jump\t// in\n    tag_343:\n        /* \"#utility.yul\":4574:4669   */\n      swap4\n      pop\n        /* \"#utility.yul\":4678:4730   */\n      tag_345\n        /* \"#utility.yul\":4723:4729   */\n      dup2\n        /* \"#utility.yul\":4718:4721   */\n      dup6\n        /* \"#utility.yul\":4711:4715   */\n      0x20\n        /* \"#utility.yul\":4704:4709   */\n      dup7\n        /* \"#utility.yul\":4700:4716   */\n      add\n        /* \"#utility.yul\":4678:4730   */\n      tag_337\n      jump\t// in\n    tag_345:\n        /* \"#utility.yul\":4755:4761   */\n      dup1\n        /* \"#utility.yul\":4750:4753   */\n      dup5\n        /* \"#utility.yul\":4746:4762   */\n      add\n        /* \"#utility.yul\":4739:4762   */\n      swap2\n      pop\n        /* \"#utility.yul\":4503:4768   */\n      pop\n        /* \"#utility.yul\":4395:4768   */\n      swap3\n      swap2\n      pop\n      pop\n      jump\t// out\n        /* \"#utility.yul\":4796:5637   */\n    tag_346:\n        /* \"#utility.yul\":4897:4900   */\n      0x00\n        /* \"#utility.yul\":4934:4939   */\n      dup2\n        /* \"#utility.yul\":4928:4940   */\n      sload\n        /* \"#utility.yul\":4963:4999   */\n      tag_348\n        /* \"#utility.yul\":4989:4998   */\n      dup2\n        /* \"#utility.yul\":4963:4999   */\n      tag_125\n      jump\t// in\n    tag_348:\n        /* \"#utility.yul\":5015:5103   */\n      tag_349\n        /* \"#utility.yul\":5096:5102   */\n      dup2\n        /* \"#utility.yul\":5091:5094   */\n      dup7\n        /* \"#utility.yul\":5015:5103   */\n      tag_344\n      jump\t// in\n    tag_349:\n        /* \"#utility.yul\":5008:5103   */\n      swap5\n      pop\n        /* \"#utility.yul\":5134:5135   */\n      0x01\n        /* \"#utility.yul\":5123:5132   */\n      dup3\n        /* \"#utility.yul\":5119:5136   */\n      and\n        /* \"#utility.yul\":5150:5151   */\n      0x00\n        /* \"#utility.yul\":5145:5282   */\n      dup2\n      eq\n      tag_351\n      jumpi\n        /* \"#utility.yul\":5296:5297   */\n      0x01\n        /* \"#utility.yul\":5291:5631   */\n      dup2\n      eq\n      tag_352\n      jumpi\n        /* \"#utility.yul\":5112:5631   */\n      jump(tag_350)\n        /* \"#utility.yul\":5145:5282   */\n    tag_351:\n        /* \"#utility.yul\":5229:5233   */\n      0xff\n        /* \"#utility.yul\":5225:5234   */\n      not\n        /* \"#utility.yul\":5214:5223   */\n      dup4\n        /* \"#utility.yul\":5210:5235   */\n      and\n        /* \"#utility.yul\":5205:5208   */\n      dup7\n        /* \"#utility.yul\":5198:5236   */\n      mstore\n        /* \"#utility.yul\":5265:5271   */\n      dup2\n        /* \"#utility.yul\":5260:5263   */\n      dup7\n        /* \"#utility.yul\":5256:5272   */\n      add\n        /* \"#utility.yul\":5249:5272   */\n      swap4\n      pop\n        /* \"#utility.yul\":5145:5282   */\n      jump(tag_350)\n        /* \"#utility.yul\":5291:5631   */\n    tag_352:\n        /* \"#utility.yul\":5358:5395   */\n      tag_353\n        /* \"#utility.yul\":5389:5394   */\n      dup6\n        /* \"#utility.yul\":5358:5395   */\n      tag_354\n      jump\t// in\n    tag_353:\n        /* \"#utility.yul\":5417:5418   */\n      0x00\n        /* \"#utility.yul\":5431:5585   */\n    tag_355:\n        /* \"#utility.yul\":5445:5451   */\n      dup4\n        /* \"#utility.yul\":5442:5443   */\n      dup2\n        /* \"#utility.yul\":5439:5452   */\n      lt\n        /* \"#utility.yul\":5431:5585   */\n      iszero\n      tag_357\n      jumpi\n        /* \"#utility.yul\":5519:5526   */\n      dup2\n        /* \"#utility.yul\":5513:5527   */\n      sload\n        /* \"#utility.yul\":5509:5510   */\n      dup2\n        /* \"#utility.yul\":5504:5507   */\n      dup10\n        /* \"#utility.yul\":5500:5511   */\n      add\n        /* \"#utility.yul\":5493:5528   */\n      mstore\n        /* \"#utility.yul\":5569:5570   */\n      0x01\n        /* \"#utility.yul\":5560:5567   */\n      dup3\n        /* \"#utility.yul\":5556:5571   */\n      add\n        /* \"#utility.yul\":5545:5571   */\n      swap2\n      pop\n        /* \"#utility.yul\":5467:5471   */\n      0x20\n        /* \"#utility.yul\":5464:5465   */\n      dup2\n        /* \"#utility.yul\":5460:5472   */\n      add\n        /* \"#utility.yul\":5455:5472   */\n      swap1\n      pop\n        /* \"#utility.yul\":5431:5585   */\n      jump(tag_355)\n    tag_357:\n        /* \"#utility.yul\":5614:5620   */\n      dup4\n        /* \"#utility.yul\":5609:5612   */\n      dup9\n        /* \"#utility.yul\":5605:5621   */\n      add\n        /* \"#utility.yul\":5598:5621   */\n      swap6\n      pop\n        /* \"#utility.yul\":5298:5631   */\n      pop\n      pop\n        /* \"#utility.yul\":5112:5631   */\n    tag_350:\n      pop\n        /* \"#utility.yul\":4901:5637   */\n      pop\n      pop\n        /* \"#utility.yul\":4796:5637   */\n      swap3\n      swap2\n      pop\n      pop\n      jump\t// out\n        /* \"#utility.yul\":5643:6009   */\n    tag_358:\n        /* \"#utility.yul\":5785:5788   */\n      0x00\n        /* \"#utility.yul\":5806:5873   */\n      tag_360\n        /* \"#utility.yul\":5870:5872   */\n      0x24\n        /* \"#utility.yul\":5865:5868   */\n      dup4\n        /* \"#utility.yul\":5806:5873   */\n      tag_361\n      jump\t// in\n    tag_360:\n        /* \"#utility.yul\":5799:5873   */\n      swap2\n      pop\n        /* \"#utility.yul\":5882:5975   */\n      tag_362\n        /* \"#utility.yul\":5971:5974   */\n      dup3\n        /* \"#utility.yul\":5882:5975   */\n      tag_363\n      jump\t// in\n    tag_362:\n        /* \"#utility.yul\":6000:6002   */\n      0x40\n        /* \"#utility.yul\":5995:5998   */\n      dup3\n        /* \"#utility.yul\":5991:6003   */\n      add\n        /* \"#utility.yul\":5984:6003   */\n      swap1\n      pop\n        /* \"#utility.yul\":5643:6009   */\n      swap2\n      swap1\n      pop\n      jump\t// out\n        /* \"#utility.yul\":6015:6381   */\n    tag_364:\n        /* \"#utility.yul\":6157:6160   */\n      0x00\n        /* \"#utility.yul\":6178:6245   */\n      tag_366\n        /* \"#utility.yul\":6242:6244   */\n      0x31\n        /* \"#utility.yul\":6237:6240   */\n      dup4\n        /* \"#utility.yul\":6178:6245   */\n      tag_361\n      jump\t// in\n    tag_366:\n        /* \"#utility.yul\":6171:6245   */\n      swap2\n      pop\n        /* \"#utility.yul\":6254:6347   */\n      tag_367\n        /* \"#utility.yul\":6343:6346   */\n      dup3\n        /* \"#utility.yul\":6254:6347   */\n      tag_368\n      jump\t// in\n    tag_367:\n        /* \"#utility.yul\":6372:6374   */\n      0x40\n        /* \"#utility.yul\":6367:6370   */\n      dup3\n        /* \"#utility.yul\":6363:6375   */\n      add\n        /* \"#utility.yul\":6356:6375   */\n      swap1\n      pop\n        /* \"#utility.yul\":6015:6381   */\n      swap2\n      swap1\n      pop\n      jump\t// out\n        /* \"#utility.yul\":6387:6753   */\n    tag_369:\n        /* \"#utility.yul\":6529:6532   */\n      0x00\n        /* \"#utility.yul\":6550:6617   */\n      tag_371\n        /* \"#utility.yul\":6614:6616   */\n      0x26\n        /* \"#utility.yul\":6609:6612   */\n      dup4\n        /* \"#utility.yul\":6550:6617   */\n      tag_361\n      jump\t// in\n    tag_371:\n        /* \"#utility.yul\":6543:6617   */\n      swap2\n      pop\n        /* \"#utility.yul\":6626:6719   */\n      tag_372\n        /* \"#utility.yul\":6715:6718   */\n      dup3\n        /* \"#utility.yul\":6626:6719   */\n      tag_373\n      jump\t// in\n    tag_372:\n        /* \"#utility.yul\":6744:6746   */\n      0x40\n        /* \"#utility.yul\":6739:6742   */\n      dup3\n        /* \"#utility.yul\":6735:6747   */\n      add\n        /* \"#utility.yul\":6728:6747   */\n      swap1\n      pop\n        /* \"#utility.yul\":6387:6753   */\n      swap2\n      swap1\n      pop\n      jump\t// out\n        /* \"#utility.yul\":6759:7125   */\n    tag_374:\n        /* \"#utility.yul\":6901:6904   */\n      0x00\n        /* \"#utility.yul\":6922:6989   */\n      tag_376\n        /* \"#utility.yul\":6986:6988   */\n      0x1b\n        /* \"#utility.yul\":6981:6984   */\n      dup4\n        /* \"#utility.yul\":6922:6989   */\n      tag_361\n      jump\t// in\n    tag_376:\n        /* \"#utility.yul\":6915:6989   */\n      swap2\n      pop\n        /* \"#utility.yul\":6998:7091   */\n      tag_377\n        /* \"#utility.yul\":7087:7090   */\n      dup3\n        /* \"#utility.yul\":6998:7091   */\n      tag_378\n      jump\t// in\n    tag_377:\n        /* \"#utility.yul\":7116:7118   */\n      0x20\n        /* \"#utility.yul\":7111:7114   */\n      dup3\n        /* \"#utility.yul\":7107:7119   */\n      add\n        /* \"#utility.yul\":7100:7119   */\n      swap1\n      pop\n        /* \"#utility.yul\":6759:7125   */\n      swap2\n      swap1\n      pop\n      jump\t// out\n        /* \"#utility.yul\":7131:7497   */\n    tag_379:\n        /* \"#utility.yul\":7273:7276   */\n      0x00\n        /* \"#utility.yul\":7294:7361   */\n      tag_381\n        /* \"#utility.yul\":7358:7360   */\n      0x1c\n        /* \"#utility.yul\":7353:7356   */\n      dup4\n        /* \"#utility.yul\":7294:7361   */\n      tag_361\n      jump\t// in\n    tag_381:\n        /* \"#utility.yul\":7287:7361   */\n      swap2\n      pop\n        /* \"#utility.yul\":7370:7463   */\n      tag_382\n        /* \"#utility.yul\":7459:7462   */\n      dup3\n        /* \"#utility.yul\":7370:7463   */\n      tag_383\n      jump\t// in\n    tag_382:\n        /* \"#utility.yul\":7488:7490   */\n      0x20\n        /* \"#utility.yul\":7483:7486   */\n      dup3\n        /* \"#utility.yul\":7479:7491   */\n      add\n        /* \"#utility.yul\":7472:7491   */\n      swap1\n      pop\n        /* \"#utility.yul\":7131:7497   */\n      swap2\n      swap1\n      pop\n      jump\t// out\n        /* \"#utility.yul\":7503:7869   */\n    tag_384:\n        /* \"#utility.yul\":7645:7648   */\n      0x00\n        /* \"#utility.yul\":7666:7733   */\n      tag_386\n        /* \"#utility.yul\":7730:7732   */\n      0x1b\n        /* \"#utility.yul\":7725:7728   */\n      dup4\n        /* \"#utility.yul\":7666:7733   */\n      tag_361\n      jump\t// in\n    tag_386:\n        /* \"#utility.yul\":7659:7733   */\n      swap2\n      pop\n        /* \"#utility.yul\":7742:7835   */\n      tag_387\n        /* \"#utility.yul\":7831:7834   */\n      dup3\n        /* \"#utility.yul\":7742:7835   */\n      tag_388\n      jump\t// in\n    tag_387:\n        /* \"#utility.yul\":7860:7862   */\n      0x20\n        /* \"#utility.yul\":7855:7858   */\n      dup3\n        /* \"#utility.yul\":7851:7863   */\n      add\n        /* \"#utility.yul\":7844:7863   */\n      swap1\n      pop\n        /* \"#utility.yul\":7503:7869   */\n      swap2\n      swap1\n      pop\n      jump\t// out\n        /* \"#utility.yul\":7875:8241   */\n    tag_389:\n        /* \"#utility.yul\":8017:8020   */\n      0x00\n        /* \"#utility.yul\":8038:8105   */\n      tag_391\n        /* \"#utility.yul\":8102:8104   */\n      0x30\n        /* \"#utility.yul\":8097:8100   */\n      dup4\n        /* \"#utility.yul\":8038:8105   */\n      tag_361\n      jump\t// in\n    tag_391:\n        /* \"#utility.yul\":8031:8105   */\n      swap2\n      pop\n        /* \"#utility.yul\":8114:8207   */\n      tag_392\n        /* \"#utility.yul\":8203:8206   */\n      dup3\n        /* \"#utility.yul\":8114:8207   */\n      tag_393\n      jump\t// in\n    tag_392:\n        /* \"#utility.yul\":8232:8234   */\n      0x40\n        /* \"#utility.yul\":8227:8230   */\n      dup3\n        /* \"#utility.yul\":8223:8235   */\n      add\n        /* \"#utility.yul\":8216:8235   */\n      swap1\n      pop\n        /* \"#utility.yul\":7875:8241   */\n      swap2\n      swap1\n      pop\n      jump\t// out\n        /* \"#utility.yul\":8247:8613   */\n    tag_394:\n        /* \"#utility.yul\":8389:8392   */\n      0x00\n        /* \"#utility.yul\":8410:8477   */\n      tag_396\n        /* \"#utility.yul\":8474:8476   */\n      0x1a\n        /* \"#utility.yul\":8469:8472   */\n      dup4\n        /* \"#utility.yul\":8410:8477   */\n      tag_361\n      jump\t// in\n    tag_396:\n        /* \"#utility.yul\":8403:8477   */\n      swap2\n      pop\n        /* \"#utility.yul\":8486:8579   */\n      tag_397\n        /* \"#utility.yul\":8575:8578   */\n      dup3\n        /* \"#utility.yul\":8486:8579   */\n      tag_398\n      jump\t// in\n    tag_397:\n        /* \"#utility.yul\":8604:8606   */\n      0x20\n        /* \"#utility.yul\":8599:8602   */\n      dup3\n        /* \"#utility.yul\":8595:8607   */\n      add\n        /* \"#utility.yul\":8588:8607   */\n      swap1\n      pop\n        /* \"#utility.yul\":8247:8613   */\n      swap2\n      swap1\n      pop\n      jump\t// out\n        /* \"#utility.yul\":8619:8985   */\n    tag_399:\n        /* \"#utility.yul\":8761:8764   */\n      0x00\n        /* \"#utility.yul\":8782:8849   */\n      tag_401\n        /* \"#utility.yul\":8846:8848   */\n      0x25\n        /* \"#utility.yul\":8841:8844   */\n      dup4\n        /* \"#utility.yul\":8782:8849   */\n      tag_361\n      jump\t// in\n    tag_401:\n        /* \"#utility.yul\":8775:8849   */\n      swap2\n      pop\n        /* \"#utility.yul\":8858:8951   */\n      tag_402\n        /* \"#utility.yul\":8947:8950   */\n      dup3\n        /* \"#utility.yul\":8858:8951   */\n      tag_403\n      jump\t// in\n    tag_402:\n        /* \"#utility.yul\":8976:8978   */\n      0x40\n        /* \"#utility.yul\":8971:8974   */\n      dup3\n        /* \"#utility.yul\":8967:8979   */\n      add\n        /* \"#utility.yul\":8960:8979   */\n      swap1\n      pop\n        /* \"#utility.yul\":8619:8985   */\n      swap2\n      swap1\n      pop\n      jump\t// out\n        /* \"#utility.yul\":8991:9357   */\n    tag_404:\n        /* \"#utility.yul\":9133:9136   */\n      0x00\n        /* \"#utility.yul\":9154:9221   */\n      tag_406\n        /* \"#utility.yul\":9218:9220   */\n      0x31\n        /* \"#utility.yul\":9213:9216   */\n      dup4\n        /* \"#utility.yul\":9154:9221   */\n      tag_361\n      jump\t// in\n    tag_406:\n        /* \"#utility.yul\":9147:9221   */\n      swap2\n      pop\n        /* \"#utility.yul\":9230:9323   */\n      tag_407\n        /* \"#utility.yul\":9319:9322   */\n      dup3\n        /* \"#utility.yul\":9230:9323   */\n      tag_408\n      jump\t// in\n    tag_407:\n        /* \"#utility.yul\":9348:9350   */\n      0x40\n        /* \"#utility.yul\":9343:9346   */\n      dup3\n        /* \"#utility.yul\":9339:9351   */\n      add\n        /* \"#utility.yul\":9332:9351   */\n      swap1\n      pop\n        /* \"#utility.yul\":8991:9357   */\n      swap2\n      swap1\n      pop\n      jump\t// out\n        /* \"#utility.yul\":9363:9729   */\n    tag_409:\n        /* \"#utility.yul\":9505:9508   */\n      0x00\n        /* \"#utility.yul\":9526:9593   */\n      tag_411\n        /* \"#utility.yul\":9590:9592   */\n      0x3e\n        /* \"#utility.yul\":9585:9588   */\n      dup4\n        /* \"#utility.yul\":9526:9593   */\n      tag_361\n      jump\t// in\n    tag_411:\n        /* \"#utility.yul\":9519:9593   */\n      swap2\n      pop\n        /* \"#utility.yul\":9602:9695   */\n      tag_412\n        /* \"#utility.yul\":9691:9694   */\n      dup3\n        /* \"#utility.yul\":9602:9695   */\n      tag_413\n      jump\t// in\n    tag_412:\n        /* \"#utility.yul\":9720:9722   */\n      0x40\n        /* \"#utility.yul\":9715:9718   */\n      dup3\n        /* \"#utility.yul\":9711:9723   */\n      add\n        /* \"#utility.yul\":9704:9723   */\n      swap1\n      pop\n        /* \"#utility.yul\":9363:9729   */\n      swap2\n      swap1\n      pop\n      jump\t// out\n        /* \"#utility.yul\":9735:9853   */\n    tag_414:\n        /* \"#utility.yul\":9822:9846   */\n      tag_416\n        /* \"#utility.yul\":9840:9845   */\n      dup2\n        /* \"#utility.yul\":9822:9846   */\n      tag_417\n      jump\t// in\n    tag_416:\n        /* \"#utility.yul\":9817:9820   */\n      dup3\n        /* \"#utility.yul\":9810:9847   */\n      mstore\n        /* \"#utility.yul\":9735:9853   */\n      pop\n      pop\n      jump\t// out\n        /* \"#utility.yul\":9859:10016   */\n    tag_418:\n        /* \"#utility.yul\":9964:10009   */\n      tag_420\n        /* \"#utility.yul\":9984:10008   */\n      tag_421\n        /* \"#utility.yul\":10002:10007   */\n      dup3\n        /* \"#utility.yul\":9984:10008   */\n      tag_417\n      jump\t// in\n    tag_421:\n        /* \"#utility.yul\":9964:10009   */\n      tag_422\n      jump\t// in\n    tag_420:\n        /* \"#utility.yul\":9959:9962   */\n      dup3\n        /* \"#utility.yul\":9952:10010   */\n      mstore\n        /* \"#utility.yul\":9859:10016   */\n      pop\n      pop\n      jump\t// out\n        /* \"#utility.yul\":10022:10716   */\n    tag_233:\n        /* \"#utility.yul\":10236:10239   */\n      0x00\n        /* \"#utility.yul\":10251:10326   */\n      tag_424\n        /* \"#utility.yul\":10322:10325   */\n      dup3\n        /* \"#utility.yul\":10313:10319   */\n      dup8\n        /* \"#utility.yul\":10251:10326   */\n      tag_317\n      jump\t// in\n    tag_424:\n        /* \"#utility.yul\":10351:10353   */\n      0x14\n        /* \"#utility.yul\":10346:10349   */\n      dup3\n        /* \"#utility.yul\":10342:10354   */\n      add\n        /* \"#utility.yul\":10335:10354   */\n      swap2\n      pop\n        /* \"#utility.yul\":10364:10439   */\n      tag_425\n        /* \"#utility.yul\":10435:10438   */\n      dup3\n        /* \"#utility.yul\":10426:10432   */\n      dup7\n        /* \"#utility.yul\":10364:10439   */\n      tag_418\n      jump\t// in\n    tag_425:\n        /* \"#utility.yul\":10464:10466   */\n      0x20\n        /* \"#utility.yul\":10459:10462   */\n      dup3\n        /* \"#utility.yul\":10455:10467   */\n      add\n        /* \"#utility.yul\":10448:10467   */\n      swap2\n      pop\n        /* \"#utility.yul\":10484:10577   */\n      tag_426\n        /* \"#utility.yul\":10573:10576   */\n      dup3\n        /* \"#utility.yul\":10564:10570   */\n      dup6\n        /* \"#utility.yul\":10484:10577   */\n      tag_340\n      jump\t// in\n    tag_426:\n        /* \"#utility.yul\":10477:10577   */\n      swap2\n      pop\n        /* \"#utility.yul\":10587:10662   */\n      tag_427\n        /* \"#utility.yul\":10658:10661   */\n      dup3\n        /* \"#utility.yul\":10649:10655   */\n      dup5\n        /* \"#utility.yul\":10587:10662   */\n      tag_418\n      jump\t// in\n    tag_427:\n        /* \"#utility.yul\":10687:10689   */\n      0x20\n        /* \"#utility.yul\":10682:10685   */\n      dup3\n        /* \"#utility.yul\":10678:10690   */\n      add\n        /* \"#utility.yul\":10671:10690   */\n      swap2\n      pop\n        /* \"#utility.yul\":10707:10710   */\n      dup2\n        /* \"#utility.yul\":10700:10710   */\n      swap1\n      pop\n        /* \"#utility.yul\":10022:10716   */\n      swap6\n      swap5\n      pop\n      pop\n      pop\n      pop\n      pop\n      jump\t// out\n        /* \"#utility.yul\":10722:10987   */\n    tag_220:\n        /* \"#utility.yul\":10849:10852   */\n      0x00\n        /* \"#utility.yul\":10871:10961   */\n      tag_429\n        /* \"#utility.yul\":10957:10960   */\n      dup3\n        /* \"#utility.yul\":10948:10954   */\n      dup5\n        /* \"#utility.yul\":10871:10961   */\n      tag_346\n      jump\t// in\n    tag_429:\n        /* \"#utility.yul\":10864:10961   */\n      swap2\n      pop\n        /* \"#utility.yul\":10978:10981   */\n      dup2\n        /* \"#utility.yul\":10971:10981   */\n      swap1\n      pop\n        /* \"#utility.yul\":10722:10987   */\n      swap3\n      swap2\n      pop\n      pop\n      jump\t// out\n        /* \"#utility.yul\":10993:11215   */\n    tag_36:\n        /* \"#utility.yul\":11086:11090   */\n      0x00\n        /* \"#utility.yul\":11124:11126   */\n      0x20\n        /* \"#utility.yul\":11113:11122   */\n      dup3\n        /* \"#utility.yul\":11109:11127   */\n      add\n        /* \"#utility.yul\":11101:11127   */\n      swap1\n      pop\n        /* \"#utility.yul\":11137:11208   */\n      tag_431\n        /* \"#utility.yul\":11205:11206   */\n      0x00\n        /* \"#utility.yul\":11194:11203   */\n      dup4\n        /* \"#utility.yul\":11190:11207   */\n      add\n        /* \"#utility.yul\":11181:11187   */\n      dup5\n        /* \"#utility.yul\":11137:11208   */\n      tag_313\n      jump\t// in\n    tag_431:\n        /* \"#utility.yul\":10993:11215   */\n      swap3\n      swap2\n      pop\n      pop\n      jump\t// out\n        /* \"#utility.yul\":11221:11849   */\n    tag_48:\n        /* \"#utility.yul\":11410:11414   */\n      0x00\n        /* \"#utility.yul\":11448:11451   */\n      0x80\n        /* \"#utility.yul\":11437:11446   */\n      dup3\n        /* \"#utility.yul\":11433:11452   */\n      add\n        /* \"#utility.yul\":11425:11452   */\n      swap1\n      pop\n        /* \"#utility.yul\":11462:11533   */\n      tag_433\n        /* \"#utility.yul\":11530:11531   */\n      0x00\n        /* \"#utility.yul\":11519:11528   */\n      dup4\n        /* \"#utility.yul\":11515:11532   */\n      add\n        /* \"#utility.yul\":11506:11512   */\n      dup8\n        /* \"#utility.yul\":11462:11533   */\n      tag_313\n      jump\t// in\n    tag_433:\n        /* \"#utility.yul\":11543:11615   */\n      tag_434\n        /* \"#utility.yul\":11611:11613   */\n      0x20\n        /* \"#utility.yul\":11600:11609   */\n      dup4\n        /* \"#utility.yul\":11596:11614   */\n      add\n        /* \"#utility.yul\":11587:11593   */\n      dup7\n        /* \"#utility.yul\":11543:11615   */\n      tag_414\n      jump\t// in\n    tag_434:\n        /* \"#utility.yul\":11662:11671   */\n      dup2\n        /* \"#utility.yul\":11656:11660   */\n      dup2\n        /* \"#utility.yul\":11652:11672   */\n      sub\n        /* \"#utility.yul\":11647:11649   */\n      0x40\n        /* \"#utility.yul\":11636:11645   */\n      dup4\n        /* \"#utility.yul\":11632:11650   */\n      add\n        /* \"#utility.yul\":11625:11673   */\n      mstore\n        /* \"#utility.yul\":11690:11766   */\n      tag_435\n        /* \"#utility.yul\":11761:11765   */\n      dup2\n        /* \"#utility.yul\":11752:11758   */\n      dup6\n        /* \"#utility.yul\":11690:11766   */\n      tag_330\n      jump\t// in\n    tag_435:\n        /* \"#utility.yul\":11682:11766   */\n      swap1\n      pop\n        /* \"#utility.yul\":11776:11842   */\n      tag_436\n        /* \"#utility.yul\":11838:11840   */\n      0x60\n        /* \"#utility.yul\":11827:11836   */\n      dup4\n        /* \"#utility.yul\":11823:11841   */\n      add\n        /* \"#utility.yul\":11814:11820   */\n      dup5\n        /* \"#utility.yul\":11776:11842   */\n      tag_322\n      jump\t// in\n    tag_436:\n        /* \"#utility.yul\":11221:11849   */\n      swap6\n      swap5\n      pop\n      pop\n      pop\n      pop\n      pop\n      jump\t// out\n        /* \"#utility.yul\":11855:12065   */\n    tag_42:\n        /* \"#utility.yul\":11942:11946   */\n      0x00\n        /* \"#utility.yul\":11980:11982   */\n      0x20\n        /* \"#utility.yul\":11969:11978   */\n      dup3\n        /* \"#utility.yul\":11965:11983   */\n      add\n        /* \"#utility.yul\":11957:11983   */\n      swap1\n      pop\n        /* \"#utility.yul\":11993:12058   */\n      tag_438\n        /* \"#utility.yul\":12055:12056   */\n      0x00\n        /* \"#utility.yul\":12044:12053   */\n      dup4\n        /* \"#utility.yul\":12040:12057   */\n      add\n        /* \"#utility.yul\":12031:12037   */\n      dup5\n        /* \"#utility.yul\":11993:12058   */\n      tag_322\n      jump\t// in\n    tag_438:\n        /* \"#utility.yul\":11855:12065   */\n      swap3\n      swap2\n      pop\n      pop\n      jump\t// out\n        /* \"#utility.yul\":12071:12293   */\n    tag_27:\n        /* \"#utility.yul\":12164:12168   */\n      0x00\n        /* \"#utility.yul\":12202:12204   */\n      0x20\n        /* \"#utility.yul\":12191:12200   */\n      dup3\n        /* \"#utility.yul\":12187:12205   */\n      add\n        /* \"#utility.yul\":12179:12205   */\n      swap1\n      pop\n        /* \"#utility.yul\":12215:12286   */\n      tag_440\n        /* \"#utility.yul\":12283:12284   */\n      0x00\n        /* \"#utility.yul\":12272:12281   */\n      dup4\n        /* \"#utility.yul\":12268:12285   */\n      add\n        /* \"#utility.yul\":12259:12265   */\n      dup5\n        /* \"#utility.yul\":12215:12286   */\n      tag_326\n      jump\t// in\n    tag_440:\n        /* \"#utility.yul\":12071:12293   */\n      swap3\n      swap2\n      pop\n      pop\n      jump\t// out\n        /* \"#utility.yul\":12299:12718   */\n    tag_133:\n        /* \"#utility.yul\":12465:12469   */\n      0x00\n        /* \"#utility.yul\":12503:12505   */\n      0x20\n        /* \"#utility.yul\":12492:12501   */\n      dup3\n        /* \"#utility.yul\":12488:12506   */\n      add\n        /* \"#utility.yul\":12480:12506   */\n      swap1\n      pop\n        /* \"#utility.yul\":12552:12561   */\n      dup2\n        /* \"#utility.yul\":12546:12550   */\n      dup2\n        /* \"#utility.yul\":12542:12562   */\n      sub\n        /* \"#utility.yul\":12538:12539   */\n      0x00\n        /* \"#utility.yul\":12527:12536   */\n      dup4\n        /* \"#utility.yul\":12523:12540   */\n      add\n        /* \"#utility.yul\":12516:12563   */\n      mstore\n        /* \"#utility.yul\":12580:12711   */\n      tag_442\n        /* \"#utility.yul\":12706:12710   */\n      dup2\n        /* \"#utility.yul\":12580:12711   */\n      tag_358\n      jump\t// in\n    tag_442:\n        /* \"#utility.yul\":12572:12711   */\n      swap1\n      pop\n        /* \"#utility.yul\":12299:12718   */\n      swap2\n      swap1\n      pop\n      jump\t// out\n        /* \"#utility.yul\":12724:13143   */\n    tag_191:\n        /* \"#utility.yul\":12890:12894   */\n      0x00\n        /* \"#utility.yul\":12928:12930   */\n      0x20\n        /* \"#utility.yul\":12917:12926   */\n      dup3\n        /* \"#utility.yul\":12913:12931   */\n      add\n        /* \"#utility.yul\":12905:12931   */\n      swap1\n      pop\n        /* \"#utility.yul\":12977:12986   */\n      dup2\n        /* \"#utility.yul\":12971:12975   */\n      dup2\n        /* \"#utility.yul\":12967:12987   */\n      sub\n        /* \"#utility.yul\":12963:12964   */\n      0x00\n        /* \"#utility.yul\":12952:12961   */\n      dup4\n        /* \"#utility.yul\":12948:12965   */\n      add\n        /* \"#utility.yul\":12941:12988   */\n      mstore\n        /* \"#utility.yul\":13005:13136   */\n      tag_444\n        /* \"#utility.yul\":13131:13135   */\n      dup2\n        /* \"#utility.yul\":13005:13136   */\n      tag_364\n      jump\t// in\n    tag_444:\n        /* \"#utility.yul\":12997:13136   */\n      swap1\n      pop\n        /* \"#utility.yul\":12724:13143   */\n      swap2\n      swap1\n      pop\n      jump\t// out\n        /* \"#utility.yul\":13149:13568   */\n    tag_92:\n        /* \"#utility.yul\":13315:13319   */\n      0x00\n        /* \"#utility.yul\":13353:13355   */\n      0x20\n        /* \"#utility.yul\":13342:13351   */\n      dup3\n        /* \"#utility.yul\":13338:13356   */\n      add\n        /* \"#utility.yul\":13330:13356   */\n      swap1\n      pop\n        /* \"#utility.yul\":13402:13411   */\n      dup2\n        /* \"#utility.yul\":13396:13400   */\n      dup2\n        /* \"#utility.yul\":13392:13412   */\n      sub\n        /* \"#utility.yul\":13388:13389   */\n      0x00\n        /* \"#utility.yul\":13377:13386   */\n      dup4\n        /* \"#utility.yul\":13373:13390   */\n      add\n        /* \"#utility.yul\":13366:13413   */\n      mstore\n        /* \"#utility.yul\":13430:13561   */\n      tag_446\n        /* \"#utility.yul\":13556:13560   */\n      dup2\n        /* \"#utility.yul\":13430:13561   */\n      tag_369\n      jump\t// in\n    tag_446:\n        /* \"#utility.yul\":13422:13561   */\n      swap1\n      pop\n        /* \"#utility.yul\":13149:13568   */\n      swap2\n      swap1\n      pop\n      jump\t// out\n        /* \"#utility.yul\":13574:13993   */\n    tag_240:\n        /* \"#utility.yul\":13740:13744   */\n      0x00\n        /* \"#utility.yul\":13778:13780   */\n      0x20\n        /* \"#utility.yul\":13767:13776   */\n      dup3\n        /* \"#utility.yul\":13763:13781   */\n      add\n        /* \"#utility.yul\":13755:13781   */\n      swap1\n      pop\n        /* \"#utility.yul\":13827:13836   */\n      dup2\n        /* \"#utility.yul\":13821:13825   */\n      dup2\n        /* \"#utility.yul\":13817:13837   */\n      sub\n        /* \"#utility.yul\":13813:13814   */\n      0x00\n        /* \"#utility.yul\":13802:13811   */\n      dup4\n        /* \"#utility.yul\":13798:13815   */\n      add\n        /* \"#utility.yul\":13791:13838   */\n      mstore\n        /* \"#utility.yul\":13855:13986   */\n      tag_448\n        /* \"#utility.yul\":13981:13985   */\n      dup2\n        /* \"#utility.yul\":13855:13986   */\n      tag_374\n      jump\t// in\n    tag_448:\n        /* \"#utility.yul\":13847:13986   */\n      swap1\n      pop\n        /* \"#utility.yul\":13574:13993   */\n      swap2\n      swap1\n      pop\n      jump\t// out\n        /* \"#utility.yul\":13999:14418   */\n    tag_226:\n        /* \"#utility.yul\":14165:14169   */\n      0x00\n        /* \"#utility.yul\":14203:14205   */\n      0x20\n        /* \"#utility.yul\":14192:14201   */\n      dup3\n        /* \"#utility.yul\":14188:14206   */\n      add\n        /* \"#utility.yul\":14180:14206   */\n      swap1\n      pop\n        /* \"#utility.yul\":14252:14261   */\n      dup2\n        /* \"#utility.yul\":14246:14250   */\n      dup2\n        /* \"#utility.yul\":14242:14262   */\n      sub\n        /* \"#utility.yul\":14238:14239   */\n      0x00\n        /* \"#utility.yul\":14227:14236   */\n      dup4\n        /* \"#utility.yul\":14223:14240   */\n      add\n        /* \"#utility.yul\":14216:14263   */\n      mstore\n        /* \"#utility.yul\":14280:14411   */\n      tag_450\n        /* \"#utility.yul\":14406:14410   */\n      dup2\n        /* \"#utility.yul\":14280:14411   */\n      tag_379\n      jump\t// in\n    tag_450:\n        /* \"#utility.yul\":14272:14411   */\n      swap1\n      pop\n        /* \"#utility.yul\":13999:14418   */\n      swap2\n      swap1\n      pop\n      jump\t// out\n        /* \"#utility.yul\":14424:14843   */\n    tag_96:\n        /* \"#utility.yul\":14590:14594   */\n      0x00\n        /* \"#utility.yul\":14628:14630   */\n      0x20\n        /* \"#utility.yul\":14617:14626   */\n      dup3\n        /* \"#utility.yul\":14613:14631   */\n      add\n        /* \"#utility.yul\":14605:14631   */\n      swap1\n      pop\n        /* \"#utility.yul\":14677:14686   */\n      dup2\n        /* \"#utility.yul\":14671:14675   */\n      dup2\n        /* \"#utility.yul\":14667:14687   */\n      sub\n        /* \"#utility.yul\":14663:14664   */\n      0x00\n        /* \"#utility.yul\":14652:14661   */\n      dup4\n        /* \"#utility.yul\":14648:14665   */\n      add\n        /* \"#utility.yul\":14641:14688   */\n      mstore\n        /* \"#utility.yul\":14705:14836   */\n      tag_452\n        /* \"#utility.yul\":14831:14835   */\n      dup2\n        /* \"#utility.yul\":14705:14836   */\n      tag_384\n      jump\t// in\n    tag_452:\n        /* \"#utility.yul\":14697:14836   */\n      swap1\n      pop\n        /* \"#utility.yul\":14424:14843   */\n      swap2\n      swap1\n      pop\n      jump\t// out\n        /* \"#utility.yul\":14849:15268   */\n    tag_188:\n        /* \"#utility.yul\":15015:15019   */\n      0x00\n        /* \"#utility.yul\":15053:15055   */\n      0x20\n        /* \"#utility.yul\":15042:15051   */\n      dup3\n        /* \"#utility.yul\":15038:15056   */\n      add\n        /* \"#utility.yul\":15030:15056   */\n      swap1\n      pop\n        /* \"#utility.yul\":15102:15111   */\n      dup2\n        /* \"#utility.yul\":15096:15100   */\n      dup2\n        /* \"#utility.yul\":15092:15112   */\n      sub\n        /* \"#utility.yul\":15088:15089   */\n      0x00\n        /* \"#utility.yul\":15077:15086   */\n      dup4\n        /* \"#utility.yul\":15073:15090   */\n      add\n        /* \"#utility.yul\":15066:15113   */\n      mstore\n        /* \"#utility.yul\":15130:15261   */\n      tag_454\n        /* \"#utility.yul\":15256:15260   */\n      dup2\n        /* \"#utility.yul\":15130:15261   */\n      tag_389\n      jump\t// in\n    tag_454:\n        /* \"#utility.yul\":15122:15261   */\n      swap1\n      pop\n        /* \"#utility.yul\":14849:15268   */\n      swap2\n      swap1\n      pop\n      jump\t// out\n        /* \"#utility.yul\":15274:15693   */\n    tag_137:\n        /* \"#utility.yul\":15440:15444   */\n      0x00\n        /* \"#utility.yul\":15478:15480   */\n      0x20\n        /* \"#utility.yul\":15467:15476   */\n      dup3\n        /* \"#utility.yul\":15463:15481   */\n      add\n        /* \"#utility.yul\":15455:15481   */\n      swap1\n      pop\n        /* \"#utility.yul\":15527:15536   */\n      dup2\n        /* \"#utility.yul\":15521:15525   */\n      dup2\n        /* \"#utility.yul\":15517:15537   */\n      sub\n        /* \"#utility.yul\":15513:15514   */\n      0x00\n        /* \"#utility.yul\":15502:15511   */\n      dup4\n        /* \"#utility.yul\":15498:15515   */\n      add\n        /* \"#utility.yul\":15491:15538   */\n      mstore\n        /* \"#utility.yul\":15555:15686   */\n      tag_456\n        /* \"#utility.yul\":15681:15685   */\n      dup2\n        /* \"#utility.yul\":15555:15686   */\n      tag_394\n      jump\t// in\n    tag_456:\n        /* \"#utility.yul\":15547:15686   */\n      swap1\n      pop\n        /* \"#utility.yul\":15274:15693   */\n      swap2\n      swap1\n      pop\n      jump\t// out\n        /* \"#utility.yul\":15699:16118   */\n    tag_140:\n        /* \"#utility.yul\":15865:15869   */\n      0x00\n        /* \"#utility.yul\":15903:15905   */\n      0x20\n        /* \"#utility.yul\":15892:15901   */\n      dup3\n        /* \"#utility.yul\":15888:15906   */\n      add\n        /* \"#utility.yul\":15880:15906   */\n      swap1\n      pop\n        /* \"#utility.yul\":15952:15961   */\n      dup2\n        /* \"#utility.yul\":15946:15950   */\n      dup2\n        /* \"#utility.yul\":15942:15962   */\n      sub\n        /* \"#utility.yul\":15938:15939   */\n      0x00\n        /* \"#utility.yul\":15927:15936   */\n      dup4\n        /* \"#utility.yul\":15923:15940   */\n      add\n        /* \"#utility.yul\":15916:15963   */\n      mstore\n        /* \"#utility.yul\":15980:16111   */\n      tag_458\n        /* \"#utility.yul\":16106:16110   */\n      dup2\n        /* \"#utility.yul\":15980:16111   */\n      tag_399\n      jump\t// in\n    tag_458:\n        /* \"#utility.yul\":15972:16111   */\n      swap1\n      pop\n        /* \"#utility.yul\":15699:16118   */\n      swap2\n      swap1\n      pop\n      jump\t// out\n        /* \"#utility.yul\":16124:16543   */\n    tag_230:\n        /* \"#utility.yul\":16290:16294   */\n      0x00\n        /* \"#utility.yul\":16328:16330   */\n      0x20\n        /* \"#utility.yul\":16317:16326   */\n      dup3\n        /* \"#utility.yul\":16313:16331   */\n      add\n        /* \"#utility.yul\":16305:16331   */\n      swap1\n      pop\n        /* \"#utility.yul\":16377:16386   */\n      dup2\n        /* \"#utility.yul\":16371:16375   */\n      dup2\n        /* \"#utility.yul\":16367:16387   */\n      sub\n        /* \"#utility.yul\":16363:16364   */\n      0x00\n        /* \"#utility.yul\":16352:16361   */\n      dup4\n        /* \"#utility.yul\":16348:16365   */\n      add\n        /* \"#utility.yul\":16341:16388   */\n      mstore\n        /* \"#utility.yul\":16405:16536   */\n      tag_460\n        /* \"#utility.yul\":16531:16535   */\n      dup2\n        /* \"#utility.yul\":16405:16536   */\n      tag_404\n      jump\t// in\n    tag_460:\n        /* \"#utility.yul\":16397:16536   */\n      swap1\n      pop\n        /* \"#utility.yul\":16124:16543   */\n      swap2\n      swap1\n      pop\n      jump\t// out\n        /* \"#utility.yul\":16549:16968   */\n    tag_99:\n        /* \"#utility.yul\":16715:16719   */\n      0x00\n        /* \"#utility.yul\":16753:16755   */\n      0x20\n        /* \"#utility.yul\":16742:16751   */\n      dup3\n        /* \"#utility.yul\":16738:16756   */\n      add\n        /* \"#utility.yul\":16730:16756   */\n      swap1\n      pop\n        /* \"#utility.yul\":16802:16811   */\n      dup2\n        /* \"#utility.yul\":16796:16800   */\n      dup2\n        /* \"#utility.yul\":16792:16812   */\n      sub\n        /* \"#utility.yul\":16788:16789   */\n      0x00\n        /* \"#utility.yul\":16777:16786   */\n      dup4\n        /* \"#utility.yul\":16773:16790   */\n      add\n        /* \"#utility.yul\":16766:16813   */\n      mstore\n        /* \"#utility.yul\":16830:16961   */\n      tag_462\n        /* \"#utility.yul\":16956:16960   */\n      dup2\n        /* \"#utility.yul\":16830:16961   */\n      tag_409\n      jump\t// in\n    tag_462:\n        /* \"#utility.yul\":16822:16961   */\n      swap1\n      pop\n        /* \"#utility.yul\":16549:16968   */\n      swap2\n      swap1\n      pop\n      jump\t// out\n        /* \"#utility.yul\":16974:17196   */\n    tag_62:\n        /* \"#utility.yul\":17067:17071   */\n      0x00\n        /* \"#utility.yul\":17105:17107   */\n      0x20\n        /* \"#utility.yul\":17094:17103   */\n      dup3\n        /* \"#utility.yul\":17090:17108   */\n      add\n        /* \"#utility.yul\":17082:17108   */\n      swap1\n      pop\n        /* \"#utility.yul\":17118:17189   */\n      tag_464\n        /* \"#utility.yul\":17186:17187   */\n      0x00\n        /* \"#utility.yul\":17175:17184   */\n      dup4\n        /* \"#utility.yul\":17171:17188   */\n      add\n        /* \"#utility.yul\":17162:17168   */\n      dup5\n        /* \"#utility.yul\":17118:17189   */\n      tag_414\n      jump\t// in\n    tag_464:\n        /* \"#utility.yul\":16974:17196   */\n      swap3\n      swap2\n      pop\n      pop\n      jump\t// out\n        /* \"#utility.yul\":17202:17621   */\n    tag_201:\n        /* \"#utility.yul\":17341:17345   */\n      0x00\n        /* \"#utility.yul\":17379:17381   */\n      0x40\n        /* \"#utility.yul\":17368:17377   */\n      dup3\n        /* \"#utility.yul\":17364:17382   */\n      add\n        /* \"#utility.yul\":17356:17382   */\n      swap1\n      pop\n        /* \"#utility.yul\":17392:17463   */\n      tag_466\n        /* \"#utility.yul\":17460:17461   */\n      0x00\n        /* \"#utility.yul\":17449:17458   */\n      dup4\n        /* \"#utility.yul\":17445:17462   */\n      add\n        /* \"#utility.yul\":17436:17442   */\n      dup6\n        /* \"#utility.yul\":17392:17463   */\n      tag_414\n      jump\t// in\n    tag_466:\n        /* \"#utility.yul\":17510:17519   */\n      dup2\n        /* \"#utility.yul\":17504:17508   */\n      dup2\n        /* \"#utility.yul\":17500:17520   */\n      sub\n        /* \"#utility.yul\":17495:17497   */\n      0x20\n        /* \"#utility.yul\":17484:17493   */\n      dup4\n        /* \"#utility.yul\":17480:17498   */\n      add\n        /* \"#utility.yul\":17473:17521   */\n      mstore\n        /* \"#utility.yul\":17538:17614   */\n      tag_467\n        /* \"#utility.yul\":17609:17613   */\n      dup2\n        /* \"#utility.yul\":17600:17606   */\n      dup5\n        /* \"#utility.yul\":17538:17614   */\n      tag_330\n      jump\t// in\n    tag_467:\n        /* \"#utility.yul\":17530:17614   */\n      swap1\n      pop\n        /* \"#utility.yul\":17202:17621   */\n      swap4\n      swap3\n      pop\n      pop\n      pop\n      jump\t// out\n        /* \"#utility.yul\":17627:17756   */\n    tag_262:\n        /* \"#utility.yul\":17661:17667   */\n      0x00\n        /* \"#utility.yul\":17688:17708   */\n      tag_469\n      tag_470\n      jump\t// in\n    tag_469:\n        /* \"#utility.yul\":17678:17708   */\n      swap1\n      pop\n        /* \"#utility.yul\":17717:17750   */\n      tag_471\n        /* \"#utility.yul\":17745:17749   */\n      dup3\n        /* \"#utility.yul\":17737:17743   */\n      dup3\n        /* \"#utility.yul\":17717:17750   */\n      tag_472\n      jump\t// in\n    tag_471:\n        /* \"#utility.yul\":17627:17756   */\n      swap2\n      swap1\n      pop\n      jump\t// out\n        /* \"#utility.yul\":17762:17837   */\n    tag_470:\n        /* \"#utility.yul\":17795:17801   */\n      0x00\n        /* \"#utility.yul\":17828:17830   */\n      0x40\n        /* \"#utility.yul\":17822:17831   */\n      mload\n        /* \"#utility.yul\":17812:17831   */\n      swap1\n      pop\n        /* \"#utility.yul\":17762:17837   */\n      swap1\n      jump\t// out\n        /* \"#utility.yul\":17843:18150   */\n    tag_261:\n        /* \"#utility.yul\":17904:17908   */\n      0x00\n        /* \"#utility.yul\":17994:18012   */\n      0xffffffffffffffff\n        /* \"#utility.yul\":17986:17992   */\n      dup3\n        /* \"#utility.yul\":17983:18013   */\n      gt\n        /* \"#utility.yul\":17980:18036   */\n      iszero\n      tag_475\n      jumpi\n        /* \"#utility.yul\":18016:18034   */\n      tag_476\n      tag_477\n      jump\t// in\n    tag_476:\n        /* \"#utility.yul\":17980:18036   */\n    tag_475:\n        /* \"#utility.yul\":18054:18083   */\n      tag_478\n        /* \"#utility.yul\":18076:18082   */\n      dup3\n        /* \"#utility.yul\":18054:18083   */\n      tag_339\n      jump\t// in\n    tag_478:\n        /* \"#utility.yul\":18046:18083   */\n      swap1\n      pop\n        /* \"#utility.yul\":18138:18142   */\n      0x20\n        /* \"#utility.yul\":18132:18136   */\n      dup2\n        /* \"#utility.yul\":18128:18143   */\n      add\n        /* \"#utility.yul\":18120:18143   */\n      swap1\n      pop\n        /* \"#utility.yul\":17843:18150   */\n      swap2\n      swap1\n      pop\n      jump\t// out\n        /* \"#utility.yul\":18156:18296   */\n    tag_354:\n        /* \"#utility.yul\":18204:18208   */\n      0x00\n        /* \"#utility.yul\":18227:18230   */\n      dup2\n        /* \"#utility.yul\":18219:18230   */\n      swap1\n      pop\n        /* \"#utility.yul\":18250:18253   */\n      dup2\n        /* \"#utility.yul\":18247:18248   */\n      0x00\n        /* \"#utility.yul\":18240:18254   */\n      mstore\n        /* \"#utility.yul\":18284:18288   */\n      0x20\n        /* \"#utility.yul\":18281:18282   */\n      0x00\n        /* \"#utility.yul\":18271:18289   */\n      keccak256\n        /* \"#utility.yul\":18263:18289   */\n      swap1\n      pop\n        /* \"#utility.yul\":18156:18296   */\n      swap2\n      swap1\n      pop\n      jump\t// out\n        /* \"#utility.yul\":18302:18400   */\n    tag_333:\n        /* \"#utility.yul\":18353:18359   */\n      0x00\n        /* \"#utility.yul\":18387:18392   */\n      dup2\n        /* \"#utility.yul\":18381:18393   */\n      mload\n        /* \"#utility.yul\":18371:18393   */\n      swap1\n      pop\n        /* \"#utility.yul\":18302:18400   */\n      swap2\n      swap1\n      pop\n      jump\t// out\n        /* \"#utility.yul\":18406:18574   */\n    tag_335:\n        /* \"#utility.yul\":18489:18500   */\n      0x00\n        /* \"#utility.yul\":18523:18529   */\n      dup3\n        /* \"#utility.yul\":18518:18521   */\n      dup3\n        /* \"#utility.yul\":18511:18530   */\n      mstore\n        /* \"#utility.yul\":18563:18567   */\n      0x20\n        /* \"#utility.yul\":18558:18561   */\n      dup3\n        /* \"#utility.yul\":18554:18568   */\n      add\n        /* \"#utility.yul\":18539:18568   */\n      swap1\n      pop\n        /* \"#utility.yul\":18406:18574   */\n      swap3\n      swap2\n      pop\n      pop\n      jump\t// out\n        /* \"#utility.yul\":18580:18727   */\n    tag_344:\n        /* \"#utility.yul\":18681:18692   */\n      0x00\n        /* \"#utility.yul\":18718:18721   */\n      dup2\n        /* \"#utility.yul\":18703:18721   */\n      swap1\n      pop\n        /* \"#utility.yul\":18580:18727   */\n      swap3\n      swap2\n      pop\n      pop\n      jump\t// out\n        /* \"#utility.yul\":18733:18902   */\n    tag_361:\n        /* \"#utility.yul\":18817:18828   */\n      0x00\n        /* \"#utility.yul\":18851:18857   */\n      dup3\n        /* \"#utility.yul\":18846:18849   */\n      dup3\n        /* \"#utility.yul\":18839:18858   */\n      mstore\n        /* \"#utility.yul\":18891:18895   */\n      0x20\n        /* \"#utility.yul\":18886:18889   */\n      dup3\n        /* \"#utility.yul\":18882:18896   */\n      add\n        /* \"#utility.yul\":18867:18896   */\n      swap1\n      pop\n        /* \"#utility.yul\":18733:18902   */\n      swap3\n      swap2\n      pop\n      pop\n      jump\t// out\n        /* \"#utility.yul\":18908:19099   */\n    tag_109:\n        /* \"#utility.yul\":18948:18952   */\n      0x00\n        /* \"#utility.yul\":18968:18988   */\n      tag_485\n        /* \"#utility.yul\":18986:18987   */\n      dup3\n        /* \"#utility.yul\":18968:18988   */\n      tag_417\n      jump\t// in\n    tag_485:\n        /* \"#utility.yul\":18963:18988   */\n      swap2\n      pop\n        /* \"#utility.yul\":19002:19022   */\n      tag_486\n        /* \"#utility.yul\":19020:19021   */\n      dup4\n        /* \"#utility.yul\":19002:19022   */\n      tag_417\n      jump\t// in\n    tag_486:\n        /* \"#utility.yul\":18997:19022   */\n      swap3\n      pop\n        /* \"#utility.yul\":19041:19042   */\n      dup3\n        /* \"#utility.yul\":19038:19039   */\n      dup3\n        /* \"#utility.yul\":19035:19043   */\n      lt\n        /* \"#utility.yul\":19032:19066   */\n      iszero\n      tag_487\n      jumpi\n        /* \"#utility.yul\":19046:19064   */\n      tag_488\n      tag_489\n      jump\t// in\n    tag_488:\n        /* \"#utility.yul\":19032:19066   */\n    tag_487:\n        /* \"#utility.yul\":19091:19092   */\n      dup3\n        /* \"#utility.yul\":19088:19089   */\n      dup3\n        /* \"#utility.yul\":19084:19093   */\n      sub\n        /* \"#utility.yul\":19076:19093   */\n      swap1\n      pop\n        /* \"#utility.yul\":18908:19099   */\n      swap3\n      swap2\n      pop\n      pop\n      jump\t// out\n        /* \"#utility.yul\":19105:19201   */\n    tag_316:\n        /* \"#utility.yul\":19142:19149   */\n      0x00\n        /* \"#utility.yul\":19171:19195   */\n      tag_491\n        /* \"#utility.yul\":19189:19194   */\n      dup3\n        /* \"#utility.yul\":19171:19195   */\n      tag_492\n      jump\t// in\n    tag_491:\n        /* \"#utility.yul\":19160:19195   */\n      swap1\n      pop\n        /* \"#utility.yul\":19105:19201   */\n      swap2\n      swap1\n      pop\n      jump\t// out\n        /* \"#utility.yul\":19207:19297   */\n    tag_325:\n        /* \"#utility.yul\":19241:19248   */\n      0x00\n        /* \"#utility.yul\":19284:19289   */\n      dup2\n        /* \"#utility.yul\":19277:19290   */\n      iszero\n        /* \"#utility.yul\":19270:19291   */\n      iszero\n        /* \"#utility.yul\":19259:19291   */\n      swap1\n      pop\n        /* \"#utility.yul\":19207:19297   */\n      swap2\n      swap1\n      pop\n      jump\t// out\n        /* \"#utility.yul\":19303:19380   */\n    tag_329:\n        /* \"#utility.yul\":19340:19347   */\n      0x00\n        /* \"#utility.yul\":19369:19374   */\n      dup2\n        /* \"#utility.yul\":19358:19374   */\n      swap1\n      pop\n        /* \"#utility.yul\":19303:19380   */\n      swap2\n      swap1\n      pop\n      jump\t// out\n        /* \"#utility.yul\":19386:19512   */\n    tag_492:\n        /* \"#utility.yul\":19423:19430   */\n      0x00\n        /* \"#utility.yul\":19463:19505   */\n      0xffffffffffffffffffffffffffffffffffffffff\n        /* \"#utility.yul\":19456:19461   */\n      dup3\n        /* \"#utility.yul\":19452:19506   */\n      and\n        /* \"#utility.yul\":19441:19506   */\n      swap1\n      pop\n        /* \"#utility.yul\":19386:19512   */\n      swap2\n      swap1\n      pop\n      jump\t// out\n        /* \"#utility.yul\":19518:19595   */\n    tag_417:\n        /* \"#utility.yul\":19555:19562   */\n      0x00\n        /* \"#utility.yul\":19584:19589   */\n      dup2\n        /* \"#utility.yul\":19573:19589   */\n      swap1\n      pop\n        /* \"#utility.yul\":19518:19595   */\n      swap2\n      swap1\n      pop\n      jump\t// out\n        /* \"#utility.yul\":19601:19755   */\n    tag_267:\n        /* \"#utility.yul\":19685:19691   */\n      dup3\n        /* \"#utility.yul\":19680:19683   */\n      dup2\n        /* \"#utility.yul\":19675:19678   */\n      dup4\n        /* \"#utility.yul\":19662:19692   */\n      calldatacopy\n        /* \"#utility.yul\":19747:19748   */\n      0x00\n        /* \"#utility.yul\":19738:19744   */\n      dup4\n        /* \"#utility.yul\":19733:19736   */\n      dup4\n        /* \"#utility.yul\":19729:19745   */\n      add\n        /* \"#utility.yul\":19722:19749   */\n      mstore\n        /* \"#utility.yul\":19601:19755   */\n      pop\n      pop\n      pop\n      jump\t// out\n        /* \"#utility.yul\":19761:20068   */\n    tag_337:\n        /* \"#utility.yul\":19829:19830   */\n      0x00\n        /* \"#utility.yul\":19839:19952   */\n    tag_499:\n        /* \"#utility.yul\":19853:19859   */\n      dup4\n        /* \"#utility.yul\":19850:19851   */\n      dup2\n        /* \"#utility.yul\":19847:19860   */\n      lt\n        /* \"#utility.yul\":19839:19952   */\n      iszero\n      tag_501\n      jumpi\n        /* \"#utility.yul\":19938:19939   */\n      dup1\n        /* \"#utility.yul\":19933:19936   */\n      dup3\n        /* \"#utility.yul\":19929:19940   */\n      add\n        /* \"#utility.yul\":19923:19941   */\n      mload\n        /* \"#utility.yul\":19919:19920   */\n      dup2\n        /* \"#utility.yul\":19914:19917   */\n      dup5\n        /* \"#utility.yul\":19910:19921   */\n      add\n        /* \"#utility.yul\":19903:19942   */\n      mstore\n        /* \"#utility.yul\":19875:19877   */\n      0x20\n        /* \"#utility.yul\":19872:19873   */\n      dup2\n        /* \"#utility.yul\":19868:19878   */\n      add\n        /* \"#utility.yul\":19863:19878   */\n      swap1\n      pop\n        /* \"#utility.yul\":19839:19952   */\n      jump(tag_499)\n    tag_501:\n        /* \"#utility.yul\":19970:19976   */\n      dup4\n        /* \"#utility.yul\":19967:19968   */\n      dup2\n        /* \"#utility.yul\":19964:19977   */\n      gt\n        /* \"#utility.yul\":19961:20062   */\n      iszero\n      tag_502\n      jumpi\n        /* \"#utility.yul\":20050:20051   */\n      0x00\n        /* \"#utility.yul\":20041:20047   */\n      dup5\n        /* \"#utility.yul\":20036:20039   */\n      dup5\n        /* \"#utility.yul\":20032:20048   */\n      add\n        /* \"#utility.yul\":20025:20052   */\n      mstore\n        /* \"#utility.yul\":19961:20062   */\n    tag_502:\n        /* \"#utility.yul\":19810:20068   */\n      pop\n        /* \"#utility.yul\":19761:20068   */\n      pop\n      pop\n      pop\n      jump\t// out\n        /* \"#utility.yul\":20074:20394   */\n    tag_125:\n        /* \"#utility.yul\":20118:20124   */\n      0x00\n        /* \"#utility.yul\":20155:20156   */\n      0x02\n        /* \"#utility.yul\":20149:20153   */\n      dup3\n        /* \"#utility.yul\":20145:20157   */\n      div\n        /* \"#utility.yul\":20135:20157   */\n      swap1\n      pop\n        /* \"#utility.yul\":20202:20203   */\n      0x01\n        /* \"#utility.yul\":20196:20200   */\n      dup3\n        /* \"#utility.yul\":20192:20204   */\n      and\n        /* \"#utility.yul\":20223:20241   */\n      dup1\n        /* \"#utility.yul\":20213:20294   */\n      tag_504\n      jumpi\n        /* \"#utility.yul\":20279:20283   */\n      0x7f\n        /* \"#utility.yul\":20271:20277   */\n      dup3\n        /* \"#utility.yul\":20267:20284   */\n      and\n        /* \"#utility.yul\":20257:20284   */\n      swap2\n      pop\n        /* \"#utility.yul\":20213:20294   */\n    tag_504:\n        /* \"#utility.yul\":20341:20343   */\n      0x20\n        /* \"#utility.yul\":20333:20339   */\n      dup3\n        /* \"#utility.yul\":20330:20344   */\n      lt\n        /* \"#utility.yul\":20310:20328   */\n      dup2\n        /* \"#utility.yul\":20307:20345   */\n      eq\n        /* \"#utility.yul\":20304:20388   */\n      iszero\n      tag_505\n      jumpi\n        /* \"#utility.yul\":20360:20378   */\n      tag_506\n      tag_507\n      jump\t// in\n    tag_506:\n        /* \"#utility.yul\":20304:20388   */\n    tag_505:\n        /* \"#utility.yul\":20125:20394   */\n      pop\n        /* \"#utility.yul\":20074:20394   */\n      swap2\n      swap1\n      pop\n      jump\t// out\n        /* \"#utility.yul\":20400:20681   */\n    tag_472:\n        /* \"#utility.yul\":20483:20510   */\n      tag_509\n        /* \"#utility.yul\":20505:20509   */\n      dup3\n        /* \"#utility.yul\":20483:20510   */\n      tag_339\n      jump\t// in\n    tag_509:\n        /* \"#utility.yul\":20475:20481   */\n      dup2\n        /* \"#utility.yul\":20471:20511   */\n      add\n        /* \"#utility.yul\":20613:20619   */\n      dup2\n        /* \"#utility.yul\":20601:20611   */\n      dup2\n        /* \"#utility.yul\":20598:20620   */\n      lt\n        /* \"#utility.yul\":20577:20595   */\n      0xffffffffffffffff\n        /* \"#utility.yul\":20565:20575   */\n      dup3\n        /* \"#utility.yul\":20562:20596   */\n      gt\n        /* \"#utility.yul\":20559:20621   */\n      or\n        /* \"#utility.yul\":20556:20644   */\n      iszero\n      tag_510\n      jumpi\n        /* \"#utility.yul\":20624:20642   */\n      tag_511\n      tag_477\n      jump\t// in\n    tag_511:\n        /* \"#utility.yul\":20556:20644   */\n    tag_510:\n        /* \"#utility.yul\":20664:20674   */\n      dup1\n        /* \"#utility.yul\":20660:20662   */\n      0x40\n        /* \"#utility.yul\":20653:20675   */\n      mstore\n        /* \"#utility.yul\":20443:20681   */\n      pop\n        /* \"#utility.yul\":20400:20681   */\n      pop\n      pop\n      jump\t// out\n        /* \"#utility.yul\":20687:20920   */\n    tag_121:\n        /* \"#utility.yul\":20726:20729   */\n      0x00\n        /* \"#utility.yul\":20749:20773   */\n      tag_513\n        /* \"#utility.yul\":20767:20772   */\n      dup3\n        /* \"#utility.yul\":20749:20773   */\n      tag_417\n      jump\t// in\n    tag_513:\n        /* \"#utility.yul\":20740:20773   */\n      swap2\n      pop\n        /* \"#utility.yul\":20795:20861   */\n      0xffffffffffffffffffffffffffffffffffffffffffffffffffffffffffffffff\n        /* \"#utility.yul\":20788:20793   */\n      dup3\n        /* \"#utility.yul\":20785:20862   */\n      eq\n        /* \"#utility.yul\":20782:20885   */\n      iszero\n      tag_514\n      jumpi\n        /* \"#utility.yul\":20865:20883   */\n      tag_515\n      tag_489\n      jump\t// in\n    tag_515:\n        /* \"#utility.yul\":20782:20885   */\n    tag_514:\n        /* \"#utility.yul\":20912:20913   */\n      0x01\n        /* \"#utility.yul\":20905:20910   */\n      dup3\n        /* \"#utility.yul\":20901:20914   */\n      add\n        /* \"#utility.yul\":20894:20914   */\n      swap1\n      pop\n        /* \"#utility.yul\":20687:20920   */\n      swap2\n      swap1\n      pop\n      jump\t// out\n        /* \"#utility.yul\":20926:21026   */\n    tag_321:\n        /* \"#utility.yul\":20965:20972   */\n      0x00\n        /* \"#utility.yul\":20994:21020   */\n      tag_517\n        /* \"#utility.yul\":21014:21019   */\n      dup3\n        /* \"#utility.yul\":20994:21020   */\n      tag_518\n      jump\t// in\n    tag_517:\n        /* \"#utility.yul\":20983:21020   */\n      swap1\n      pop\n        /* \"#utility.yul\":20926:21026   */\n      swap2\n      swap1\n      pop\n      jump\t// out\n        /* \"#utility.yul\":21032:21126   */\n    tag_518:\n        /* \"#utility.yul\":21071:21078   */\n      0x00\n        /* \"#utility.yul\":21100:21120   */\n      tag_520\n        /* \"#utility.yul\":21114:21119   */\n      dup3\n        /* \"#utility.yul\":21100:21120   */\n      tag_521\n      jump\t// in\n    tag_520:\n        /* \"#utility.yul\":21089:21120   */\n      swap1\n      pop\n        /* \"#utility.yul\":21032:21126   */\n      swap2\n      swap1\n      pop\n      jump\t// out\n        /* \"#utility.yul\":21132:21211   */\n    tag_422:\n        /* \"#utility.yul\":21171:21178   */\n      0x00\n        /* \"#utility.yul\":21200:21205   */\n      dup2\n        /* \"#utility.yul\":21189:21205   */\n      swap1\n      pop\n        /* \"#utility.yul\":21132:21211   */\n      swap2\n      swap1\n      pop\n      jump\t// out\n        /* \"#utility.yul\":21217:21397   */\n    tag_489:\n        /* \"#utility.yul\":21265:21342   */\n      0x4e487b7100000000000000000000000000000000000000000000000000000000\n        /* \"#utility.yul\":21262:21263   */\n      0x00\n        /* \"#utility.yul\":21255:21343   */\n      mstore\n        /* \"#utility.yul\":21362:21366   */\n      0x11\n        /* \"#utility.yul\":21359:21360   */\n      0x04\n        /* \"#utility.yul\":21352:21367   */\n      mstore\n        /* \"#utility.yul\":21386:21390   */\n      0x24\n        /* \"#utility.yul\":21383:21384   */\n      0x00\n        /* \"#utility.yul\":21376:21391   */\n      revert\n        /* \"#utility.yul\":21403:21583   */\n    tag_507:\n        /* \"#utility.yul\":21451:21528   */\n      0x4e487b7100000000000000000000000000000000000000000000000000000000\n        /* \"#utility.yul\":21448:21449   */\n      0x00\n        /* \"#utility.yul\":21441:21529   */\n      mstore\n        /* \"#utility.yul\":21548:21552   */\n      0x22\n        /* \"#utility.yul\":21545:21546   */\n      0x04\n        /* \"#utility.yul\":21538:21553   */\n      mstore\n        /* \"#utility.yul\":21572:21576   */\n      0x24\n        /* \"#utility.yul\":21569:21570   */\n      0x00\n        /* \"#utility.yul\":21562:21577   */\n      revert\n        /* \"#utility.yul\":21589:21769   */\n    tag_118:\n        /* \"#utility.yul\":21637:21714   */\n      0x4e487b7100000000000000000000000000000000000000000000000000000000\n        /* \"#utility.yul\":21634:21635   */\n      0x00\n        /* \"#utility.yul\":21627:21715   */\n      mstore\n        /* \"#utility.yul\":21734:21738   */\n      0x31\n        /* \"#utility.yul\":21731:21732   */\n      0x04\n        /* \"#utility.yul\":21724:21739   */\n      mstore\n        /* \"#utility.yul\":21758:21762   */\n      0x24\n        /* \"#utility.yul\":21755:21756   */\n      0x00\n        /* \"#utility.yul\":21748:21763   */\n      revert\n        /* \"#utility.yul\":21775:21955   */\n    tag_105:\n        /* \"#utility.yul\":21823:21900   */\n      0x4e487b7100000000000000000000000000000000000000000000000000000000\n        /* \"#utility.yul\":21820:21821   */\n      0x00\n        /* \"#utility.yul\":21813:21901   */\n      mstore\n        /* \"#utility.yul\":21920:21924   */\n      0x32\n        /* \"#utility.yul\":21917:21918   */\n      0x04\n        /* \"#utility.yul\":21910:21925   */\n      mstore\n        /* \"#utility.yul\":21944:21948   */\n      0x24\n        /* \"#utility.yul\":21941:21942   */\n      0x00\n        /* \"#utility.yul\":21934:21949   */\n      revert\n        /* \"#utility.yul\":21961:22141   */\n    tag_477:\n        /* \"#utility.yul\":22009:22086   */\n      0x4e487b7100000000000000000000000000000000000000000000000000000000\n        /* \"#utility.yul\":22006:22007   */\n      0x00\n        /* \"#utility.yul\":21999:22087   */\n      mstore\n        /* \"#utility.yul\":22106:22110   */\n      0x41\n        /* \"#utility.yul\":22103:22104   */\n      0x04\n        /* \"#utility.yul\":22096:22111   */\n      mstore\n        /* \"#utility.yul\":22130:22134   */\n      0x24\n        /* \"#utility.yul\":22127:22128   */\n      0x00\n        /* \"#utility.yul\":22120:22135   */\n      revert\n        /* \"#utility.yul\":22147:22264   */\n    tag_280:\n        /* \"#utility.yul\":22256:22257   */\n      0x00\n        /* \"#utility.yul\":22253:22254   */\n      dup1\n        /* \"#utility.yul\":22246:22258   */\n      revert\n        /* \"#utility.yul\":22270:22387   */\n    tag_265:\n        /* \"#utility.yul\":22379:22380   */\n      0x00\n        /* \"#utility.yul\":22376:22377   */\n      dup1\n        /* \"#utility.yul\":22369:22381   */\n      revert\n        /* \"#utility.yul\":22393:22510   */\n    tag_298:\n        /* \"#utility.yul\":22502:22503   */\n      0x00\n        /* \"#utility.yul\":22499:22500   */\n      dup1\n        /* \"#utility.yul\":22492:22504   */\n      revert\n        /* \"#utility.yul\":22516:22633   */\n    tag_289:\n        /* \"#utility.yul\":22625:22626   */\n      0x00\n        /* \"#utility.yul\":22622:22623   */\n      dup1\n        /* \"#utility.yul\":22615:22627   */\n      revert\n        /* \"#utility.yul\":22639:22741   */\n    tag_339:\n        /* \"#utility.yul\":22680:22686   */\n      0x00\n        /* \"#utility.yul\":22731:22733   */\n      0x1f\n        /* \"#utility.yul\":22727:22734   */\n      not\n        /* \"#utility.yul\":22722:22724   */\n      0x1f\n        /* \"#utility.yul\":22715:22720   */\n      dup4\n        /* \"#utility.yul\":22711:22725   */\n      add\n        /* \"#utility.yul\":22707:22735   */\n      and\n        /* \"#utility.yul\":22697:22735   */\n      swap1\n      pop\n        /* \"#utility.yul\":22639:22741   */\n      swap2\n      swap1\n      pop\n      jump\t// out\n        /* \"#utility.yul\":22747:22841   */\n    tag_521:\n        /* \"#utility.yul\":22780:22788   */\n      0x00\n        /* \"#utility.yul\":22828:22833   */\n      dup2\n        /* \"#utility.yul\":22824:22826   */\n      0x60\n        /* \"#utility.yul\":22820:22834   */\n      shl\n        /* \"#utility.yul\":22799:22834   */\n      swap1\n      pop\n        /* \"#utility.yul\":22747:22841   */\n      swap2\n      swap1\n      pop\n      jump\t// out\n        /* \"#utility.yul\":22847:23070   */\n    tag_363:\n        /* \"#utility.yul\":22987:23021   */\n      0x4f6e6c79207369676e6572732063616e20706572666f726d2074686973206163\n        /* \"#utility.yul\":22983:22984   */\n      0x00\n        /* \"#utility.yul\":22975:22981   */\n      dup3\n        /* \"#utility.yul\":22971:22985   */\n      add\n        /* \"#utility.yul\":22964:23022   */\n      mstore\n        /* \"#utility.yul\":23056:23062   */\n      0x74696f6e00000000000000000000000000000000000000000000000000000000\n        /* \"#utility.yul\":23051:23053   */\n      0x20\n        /* \"#utility.yul\":23043:23049   */\n      dup3\n        /* \"#utility.yul\":23039:23054   */\n      add\n        /* \"#utility.yul\":23032:23063   */\n      mstore\n        /* \"#utility.yul\":22847:23070   */\n      pop\n      jump\t// out\n        /* \"#utility.yul\":23076:23312   */\n    tag_368:\n        /* \"#utility.yul\":23216:23250   */\n      0x4e6577207265636f7665727920616464726573732073686f756c64206e6f7420\n        /* \"#utility.yul\":23212:23213   */\n      0x00\n        /* \"#utility.yul\":23204:23210   */\n      dup3\n        /* \"#utility.yul\":23200:23214   */\n      add\n        /* \"#utility.yul\":23193:23251   */\n      mstore\n        /* \"#utility.yul\":23285:23304   */\n      0x6d617463682063757272656e74206f6e65000000000000000000000000000000\n        /* \"#utility.yul\":23280:23282   */\n      0x20\n        /* \"#utility.yul\":23272:23278   */\n      dup3\n        /* \"#utility.yul\":23268:23283   */\n      add\n        /* \"#utility.yul\":23261:23305   */\n      mstore\n        /* \"#utility.yul\":23076:23312   */\n      pop\n      jump\t// out\n        /* \"#utility.yul\":23318:23543   */\n    tag_373:\n        /* \"#utility.yul\":23458:23492   */\n      0x4f6e6c7920746865206f776e65722063616e20706572666f726d207468697320\n        /* \"#utility.yul\":23454:23455   */\n      0x00\n        /* \"#utility.yul\":23446:23452   */\n      dup3\n        /* \"#utility.yul\":23442:23456   */\n      add\n        /* \"#utility.yul\":23435:23493   */\n      mstore\n        /* \"#utility.yul\":23527:23535   */\n      0x616374696f6e0000000000000000000000000000000000000000000000000000\n        /* \"#utility.yul\":23522:23524   */\n      0x20\n        /* \"#utility.yul\":23514:23520   */\n      dup3\n        /* \"#utility.yul\":23510:23525   */\n      add\n        /* \"#utility.yul\":23503:23536   */\n      mstore\n        /* \"#utility.yul\":23318:23543   */\n      pop\n      jump\t// out\n        /* \"#utility.yul\":23549:23726   */\n    tag_378:\n        /* \"#utility.yul\":23689:23718   */\n      0x4164647265737320697320616c72656164792061207369676e65720000000000\n        /* \"#utility.yul\":23685:23686   */\n      0x00\n        /* \"#utility.yul\":23677:23683   */\n      dup3\n        /* \"#utility.yul\":23673:23687   */\n      add\n        /* \"#utility.yul\":23666:23719   */\n      mstore\n        /* \"#utility.yul\":23549:23726   */\n      pop\n      jump\t// out\n        /* \"#utility.yul\":23732:23910   */\n    tag_383:\n        /* \"#utility.yul\":23872:23902   */\n      0x5472616e73616374696f6e20657865637574696f6e206661696c656400000000\n        /* \"#utility.yul\":23868:23869   */\n      0x00\n        /* \"#utility.yul\":23860:23866   */\n      dup3\n        /* \"#utility.yul\":23856:23870   */\n      add\n        /* \"#utility.yul\":23849:23903   */\n      mstore\n        /* \"#utility.yul\":23732:23910   */\n      pop\n      jump\t// out\n        /* \"#utility.yul\":23916:24093   */\n    tag_388:\n        /* \"#utility.yul\":24056:24085   */\n      0x5468652061646472657373206973206e6f742061207369676e65720000000000\n        /* \"#utility.yul\":24052:24053   */\n      0x00\n        /* \"#utility.yul\":24044:24050   */\n      dup3\n        /* \"#utility.yul\":24040:24054   */\n      add\n        /* \"#utility.yul\":24033:24086   */\n      mstore\n        /* \"#utility.yul\":23916:24093   */\n      pop\n      jump\t// out\n        /* \"#utility.yul\":24099:24334   */\n    tag_393:\n        /* \"#utility.yul\":24239:24273   */\n      0x4f6e6c7920746865207265636f7665727920616464726573732063616e206361\n        /* \"#utility.yul\":24235:24236   */\n      0x00\n        /* \"#utility.yul\":24227:24233   */\n      dup3\n        /* \"#utility.yul\":24223:24237   */\n      add\n        /* \"#utility.yul\":24216:24274   */\n      mstore\n        /* \"#utility.yul\":24308:24326   */\n      0x6c6c20746869732066756e6374696f6e00000000000000000000000000000000\n        /* \"#utility.yul\":24303:24305   */\n      0x20\n        /* \"#utility.yul\":24295:24301   */\n      dup3\n        /* \"#utility.yul\":24291:24306   */\n      add\n        /* \"#utility.yul\":24284:24327   */\n      mstore\n        /* \"#utility.yul\":24099:24334   */\n      pop\n      jump\t// out\n        /* \"#utility.yul\":24340:24516   */\n    tag_398:\n        /* \"#utility.yul\":24480:24508   */\n      0x5472616e73616374696f6e20646f6573206e6f74206578697374000000000000\n        /* \"#utility.yul\":24476:24477   */\n      0x00\n        /* \"#utility.yul\":24468:24474   */\n      dup3\n        /* \"#utility.yul\":24464:24478   */\n      add\n        /* \"#utility.yul\":24457:24509   */\n      mstore\n        /* \"#utility.yul\":24340:24516   */\n      pop\n      jump\t// out\n        /* \"#utility.yul\":24522:24746   */\n    tag_403:\n        /* \"#utility.yul\":24662:24696   */\n      0x5472616e73616374696f6e2068617320616c7265616479206265656e20657865\n        /* \"#utility.yul\":24658:24659   */\n      0x00\n        /* \"#utility.yul\":24650:24656   */\n      dup3\n        /* \"#utility.yul\":24646:24660   */\n      add\n        /* \"#utility.yul\":24639:24697   */\n      mstore\n        /* \"#utility.yul\":24731:24738   */\n      0x6375746564000000000000000000000000000000000000000000000000000000\n        /* \"#utility.yul\":24726:24728   */\n      0x20\n        /* \"#utility.yul\":24718:24724   */\n      dup3\n        /* \"#utility.yul\":24714:24729   */\n      add\n        /* \"#utility.yul\":24707:24739   */\n      mstore\n        /* \"#utility.yul\":24522:24746   */\n      pop\n      jump\t// out\n        /* \"#utility.yul\":24752:24988   */\n    tag_408:\n        /* \"#utility.yul\":24892:24926   */\n      0x4e6f7420656e6f756768207369676e657273206861766520617070726f766564\n        /* \"#utility.yul\":24888:24889   */\n      0x00\n        /* \"#utility.yul\":24880:24886   */\n      dup3\n        /* \"#utility.yul\":24876:24890   */\n      add\n        /* \"#utility.yul\":24869:24927   */\n      mstore\n        /* \"#utility.yul\":24961:24980   */\n      0x2074686973207472616e73616374696f6e000000000000000000000000000000\n        /* \"#utility.yul\":24956:24958   */\n      0x20\n        /* \"#utility.yul\":24948:24954   */\n      dup3\n        /* \"#utility.yul\":24944:24959   */\n      add\n        /* \"#utility.yul\":24937:24981   */\n      mstore\n        /* \"#utility.yul\":24752:24988   */\n      pop\n      jump\t// out\n        /* \"#utility.yul\":24994:25243   */\n    tag_413:\n        /* \"#utility.yul\":25134:25168   */\n      0x43616e6e6f742072656d6f7665207369676e65722c206d696e696d756d207265\n        /* \"#utility.yul\":25130:25131   */\n      0x00\n        /* \"#utility.yul\":25122:25128   */\n      dup3\n        /* \"#utility.yul\":25118:25132   */\n      add\n        /* \"#utility.yul\":25111:25169   */\n      mstore\n        /* \"#utility.yul\":25203:25235   */\n      0x717569726564207369676e6572732077696c6c206e6f74206265206d65740000\n        /* \"#utility.yul\":25198:25200   */\n      0x20\n        /* \"#utility.yul\":25190:25196   */\n      dup3\n        /* \"#utility.yul\":25186:25201   */\n      add\n        /* \"#utility.yul\":25179:25236   */\n      mstore\n        /* \"#utility.yul\":24994:25243   */\n      pop\n      jump\t// out\n        /* \"#utility.yul\":25249:25371   */\n    tag_271:\n        /* \"#utility.yul\":25322:25346   */\n      tag_546\n        /* \"#utility.yul\":25340:25345   */\n      dup2\n        /* \"#utility.yul\":25322:25346   */\n      tag_316\n      jump\t// in\n    tag_546:\n        /* \"#utility.yul\":25315:25320   */\n      dup2\n        /* \"#utility.yul\":25312:25347   */\n      eq\n        /* \"#utility.yul\":25302:25365   */\n      tag_547\n      jumpi\n        /* \"#utility.yul\":25361:25362   */\n      0x00\n        /* \"#utility.yul\":25358:25359   */\n      dup1\n        /* \"#utility.yul\":25351:25363   */\n      revert\n        /* \"#utility.yul\":25302:25365   */\n    tag_547:\n        /* \"#utility.yul\":25249:25371   */\n      pop\n      jump\t// out\n        /* \"#utility.yul\":25377:25499   */\n    tag_275:\n        /* \"#utility.yul\":25450:25474   */\n      tag_549\n        /* \"#utility.yul\":25468:25473   */\n      dup2\n        /* \"#utility.yul\":25450:25474   */\n      tag_329\n      jump\t// in\n    tag_549:\n        /* \"#utility.yul\":25443:25448   */\n      dup2\n        /* \"#utility.yul\":25440:25475   */\n      eq\n        /* \"#utility.yul\":25430:25493   */\n      tag_550\n      jumpi\n        /* \"#utility.yul\":25489:25490   */\n      0x00\n        /* \"#utility.yul\":25486:25487   */\n      dup1\n        /* \"#utility.yul\":25479:25491   */\n      revert\n        /* \"#utility.yul\":25430:25493   */\n    tag_550:\n        /* \"#utility.yul\":25377:25499   */\n      pop\n      jump\t// out\n        /* \"#utility.yul\":25505:25627   */\n    tag_285:\n        /* \"#utility.yul\":25578:25602   */\n      tag_552\n        /* \"#utility.yul\":25596:25601   */\n      dup2\n        /* \"#utility.yul\":25578:25602   */\n      tag_417\n      jump\t// in\n    tag_552:\n        /* \"#utility.yul\":25571:25576   */\n      dup2\n        /* \"#utility.yul\":25568:25603   */\n      eq\n        /* \"#utility.yul\":25558:25621   */\n      tag_553\n      jumpi\n        /* \"#utility.yul\":25617:25618   */\n      0x00\n        /* \"#utility.yul\":25614:25615   */\n      dup1\n        /* \"#utility.yul\":25607:25619   */\n      revert\n        /* \"#utility.yul\":25558:25621   */\n    tag_553:\n        /* \"#utility.yul\":25505:25627   */\n      pop\n      jump\t// out\n\n    auxdata: 0xa2646970667358221220df190d0471a03afad3ff2a3182a54bbdea8a63e4f4d9b941fcc893bf0d574a2364736f6c63430008070033\n}\n",
				"bytecode": {
					"linkReferences": {},
					"object": "60806040523480156200001157600080fd5b5060405162002f1b38038062002f1b83398181016040528101906200003791906200034f565b60008351118015620000495750600082115b801562000057575082518211155b62000099576040517f08c379a00000000000000000000000000000000000000000000000000000000081526004016200009090620003f1565b60405180910390fd5b336000806101000a81548173ffffffffffffffffffffffffffffffffffffffff021916908373ffffffffffffffffffffffffffffffffffffffff16021790555060005b835181101562000221576000848281518110620000fe57620000fd6200056d565b5b602002602001015190506001819080600181540180825580915050600190039060005260206000200160009091909190916101000a81548173ffffffffffffffffffffffffffffffffffffffff021916908373ffffffffffffffffffffffffffffffffffffffff1602179055506001600360008373ffffffffffffffffffffffffffffffffffffffff1673ffffffffffffffffffffffffffffffffffffffff16815260200190815260200160002060006101000a81548160ff021916908315150217905550600115158173ffffffffffffffffffffffffffffffffffffffff167fc648f6265408cc54c0dc26d24ba51dfc9f35ce1a63baa2228f65d93aaf11cc6760405160405180910390a35080806200021890620004f0565b915050620000dc565b508160028190555080600760006101000a81548173ffffffffffffffffffffffffffffffffffffffff021916908373ffffffffffffffffffffffffffffffffffffffff1602179055505050506200064d565b60006200028a62000284846200043c565b62000413565b90508083825260208201905082856020860282011115620002b057620002af620005d0565b5b60005b85811015620002e45781620002c98882620002ee565b845260208401935060208301925050600181019050620002b3565b5050509392505050565b600081519050620002ff8162000619565b92915050565b600082601f8301126200031d576200031c620005cb565b5b81516200032f84826020860162000273565b91505092915050565b600081519050620003498162000633565b92915050565b6000806000606084860312156200036b576200036a620005da565b5b600084015167ffffffffffffffff8111156200038c576200038b620005d5565b5b6200039a8682870162000305565b9350506020620003ad8682870162000338565b9250506040620003c086828701620002ee565b9150509250925092565b6000620003d9600d836200046b565b9150620003e682620005f0565b602082019050919050565b600060208201905081810360008301526200040c81620003ca565b9050919050565b60006200041f62000432565b90506200042d8282620004ba565b919050565b6000604051905090565b600067ffffffffffffffff8211156200045a57620004596200059c565b5b602082029050602081019050919050565b600082825260208201905092915050565b6000620004898262000490565b9050919050565b600073ffffffffffffffffffffffffffffffffffffffff82169050919050565b6000819050919050565b620004c582620005df565b810181811067ffffffffffffffff82111715620004e757620004e66200059c565b5b80604052505050565b6000620004fd82620004b0565b91507fffffffffffffffffffffffffffffffffffffffffffffffffffffffffffffffff8214156200053357620005326200053e565b5b600182019050919050565b7f4e487b7100000000000000000000000000000000000000000000000000000000600052601160045260246000fd5b7f4e487b7100000000000000000000000000000000000000000000000000000000600052603260045260246000fd5b7f4e487b7100000000000000000000000000000000000000000000000000000000600052604160045260246000fd5b600080fd5b600080fd5b600080fd5b600080fd5b6000601f19601f8301169050919050565b7f496e76616c696420696e70757400000000000000000000000000000000000000600082015250565b62000624816200047c565b81146200063057600080fd5b50565b6200063e81620004b0565b81146200064a57600080fd5b50565b6128be806200065d6000396000f3fe608060405234801561001057600080fd5b50600436106101005760003560e01c80638d06804311610097578063a9496e7511610066578063a9496e75146102c2578063c69ed5f2146102f2578063cc526c451461030e578063eb12d61e1461033e57610100565b80638d0680431461024e5780638da5cb5b1461026c5780638f4fde9f1461028a5780638f671849146102a657610100565b8063642f2eaf116100d3578063642f2eaf146101b157806370ba3339146101e4578063710eb26c146102005780637df73e271461021e57610100565b806304ef5b21146101055780630e316ab7146101355780632079fb9a1461015157806324f6c77614610181575b600080fd5b61011f600480360381019061011a9190611c6a565b61035a565b60405161012c919061204e565b60405180910390f35b61014f600480360381019061014a9190611b61565b61037e565b005b61016b60048036038101906101669190611c6a565b61070f565b6040516101789190611fcc565b60405180910390f35b61019b60048036038101906101969190611c2a565b61074e565b6040516101a89190612033565b60405180910390f35b6101cb60048036038101906101c69190611bfd565b61077d565b6040516101db9493929190611fe7565b60405180910390f35b6101fe60048036038101906101f99190611bfd565b610862565b005b610208610c25565b6040516102159190611fcc565b60405180910390f35b61023860048036038101906102339190611b61565b610c4b565b6040516102459190612033565b60405180910390f35b610256610c6b565b60405161026391906121c9565b60405180910390f35b610274610c71565b6040516102819190611fcc565b60405180910390f35b6102a4600480360381019061029f9190611bfd565b610c95565b005b6102c060048036038101906102bb9190611b61565b610f65565b005b6102dc60048036038101906102d79190611b8e565b611143565b6040516102e9919061204e565b60405180910390f35b61030c60048036038101906103079190611bfd565b611343565b005b61032860048036038101906103239190611b8e565b611772565b604051610335919061204e565b60405180910390f35b61035860048036038101906103539190611b61565b6117af565b005b6006818154811061036a57600080fd5b906000526020600020016000915090505481565b60008054906101000a900473ffffffffffffffffffffffffffffffffffffffff1673ffffffffffffffffffffffffffffffffffffffff163373ffffffffffffffffffffffffffffffffffffffff161461040c576040517f08c379a0000000000000000000000000000000000000000000000000000000008152600401610403906120a9565b60405180910390fd5b600360008273ffffffffffffffffffffffffffffffffffffffff1673ffffffffffffffffffffffffffffffffffffffff16815260200190815260200160002060009054906101000a900460ff16610498576040517f08c379a000000000000000000000000000000000000000000000000000000000815260040161048f90612109565b60405180910390fd5b600254600180549050116104e1576040517f08c379a00000000000000000000000000000000000000000000000000000000081526004016104d8906121a9565b60405180910390fd5b60005b60018054905081101561070b578173ffffffffffffffffffffffffffffffffffffffff166001828154811061051c5761051b6124e6565b5b9060005260206000200160009054906101000a900473ffffffffffffffffffffffffffffffffffffffff1673ffffffffffffffffffffffffffffffffffffffff1614156106f857600180808054905061057591906122b7565b81548110610586576105856124e6565b5b9060005260206000200160009054906101000a900473ffffffffffffffffffffffffffffffffffffffff16600182815481106105c5576105c46124e6565b5b9060005260206000200160006101000a81548173ffffffffffffffffffffffffffffffffffffffff021916908373ffffffffffffffffffffffffffffffffffffffff160217905550600180548061061f5761061e6124b7565b5b6001900381819060005260206000200160006101000a81549073ffffffffffffffffffffffffffffffffffffffff021916905590556000600360008473ffffffffffffffffffffffffffffffffffffffff1673ffffffffffffffffffffffffffffffffffffffff16815260200190815260200160002060006101000a81548160ff021916908315150217905550600015158273ffffffffffffffffffffffffffffffffffffffff167fc648f6265408cc54c0dc26d24ba51dfc9f35ce1a63baa2228f65d93aaf11cc6760405160405180910390a361070b565b8080610703906123e2565b9150506104e4565b5050565b6001818154811061071f57600080fd5b906000526020600020016000915054906101000a900473ffffffffffffffffffffffffffffffffffffffff1681565b60056020528160005260406000206020528060005260406000206000915091509054906101000a900460ff1681565b60046020528060005260406000206000915090508060000160009054906101000a900473ffffffffffffffffffffffffffffffffffffffff16908060010154908060020180546107cc9061237f565b80601f01602080910402602001604051908101604052809291908181526020018280546107f89061237f565b80156108455780601f1061081a57610100808354040283529160200191610845565b820191906000526020600020905b81548152906001019060200180831161082857829003601f168201915b5050505050908060030160009054906101000a900460ff16905084565b600360003373ffffffffffffffffffffffffffffffffffffffff1673ffffffffffffffffffffffffffffffffffffffff16815260200190815260200160002060009054906101000a900460ff166108ee576040517f08c379a00000000000000000000000000000000000000000000000000000000081526004016108e590612069565b60405180910390fd5b600073ffffffffffffffffffffffffffffffffffffffff166004600083815260200190815260200160002060000160009054906101000a900473ffffffffffffffffffffffffffffffffffffffff1673ffffffffffffffffffffffffffffffffffffffff161415610994576040517f08c379a000000000000000000000000000000000000000000000000000000000815260040161098b90612149565b60405180910390fd5b6004600082815260200190815260200160002060030160009054906101000a900460ff16156109f8576040517f08c379a00000000000000000000000000000000000000000000000000000000081526004016109ef90612169565b60405180910390fd5b60005b600680549050811015610b29578160068281548110610a1d57610a1c6124e6565b5b90600052602060002001541415610b165760066001600680549050610a4291906122b7565b81548110610a5357610a526124e6565b5b906000526020600020015460068281548110610a7257610a716124e6565b5b90600052602060002001819055506006805480610a9257610a916124b7565b5b6001900381819060005260206000200160009055905560046000838152602001908152602001600020600080820160006101000a81549073ffffffffffffffffffffffffffffffffffffffff02191690556001820160009055600282016000610afb91906119cf565b6003820160006101000a81549060ff02191690555050610b29565b8080610b21906123e2565b9150506109fb565b5060005b600180549050811015610bf457600060056000848152602001908152602001600020600060018481548110610b6557610b646124e6565b5b9060005260206000200160009054906101000a900473ffffffffffffffffffffffffffffffffffffffff1673ffffffffffffffffffffffffffffffffffffffff1673ffffffffffffffffffffffffffffffffffffffff16815260200190815260200160002060006101000a81548160ff0219169083151502179055508080610bec906123e2565b915050610b2d565b50807fbca2885d81f38744d778177014656fadaf8db5de172de50e21d4ca0e1b84499560405160405180910390a250565b600760009054906101000a900473ffffffffffffffffffffffffffffffffffffffff1681565b60036020528060005260406000206000915054906101000a900460ff1681565b60025481565b60008054906101000a900473ffffffffffffffffffffffffffffffffffffffff1681565b600360003373ffffffffffffffffffffffffffffffffffffffff1673ffffffffffffffffffffffffffffffffffffffff16815260200190815260200160002060009054906101000a900460ff16610d21576040517f08c379a0000000000000000000000000000000000000000000000000000000008152600401610d1890612069565b60405180910390fd5b600073ffffffffffffffffffffffffffffffffffffffff166004600083815260200190815260200160002060000160009054906101000a900473ffffffffffffffffffffffffffffffffffffffff1673ffffffffffffffffffffffffffffffffffffffff161415610dc7576040517f08c379a0000000000000000000000000000000000000000000000000000000008152600401610dbe90612149565b60405180910390fd5b60016005600083815260200190815260200160002060003373ffffffffffffffffffffffffffffffffffffffff1673ffffffffffffffffffffffffffffffffffffffff16815260200190815260200160002060006101000a81548160ff0219169083151502179055503373ffffffffffffffffffffffffffffffffffffffff16817fec6590fa5d86db2e9b3ced5caae4916c2547c5a4bef3cb4bdf11f1d1995a8ee460405160405180910390a36000805b600180549050811015610f605760056000848152602001908152602001600020600060018381548110610eae57610ead6124e6565b5b9060005260206000200160009054906101000a900473ffffffffffffffffffffffffffffffffffffffff1673ffffffffffffffffffffffffffffffffffffffff1673ffffffffffffffffffffffffffffffffffffffff16815260200190815260200160002060009054906101000a900460ff1615610f35578180610f31906123e2565b9250505b600254821415610f4d57610f4883611343565b610f60565b8080610f58906123e2565b915050610e78565b505050565b600760009054906101000a900473ffffffffffffffffffffffffffffffffffffffff1673ffffffffffffffffffffffffffffffffffffffff163373ffffffffffffffffffffffffffffffffffffffff1614610ff5576040517f08c379a0000000000000000000000000000000000000000000000000000000008152600401610fec90612129565b60405180910390fd5b600760009054906101000a900473ffffffffffffffffffffffffffffffffffffffff1673ffffffffffffffffffffffffffffffffffffffff168173ffffffffffffffffffffffffffffffffffffffff161415611086576040517f08c379a000000000000000000000000000000000000000000000000000000000815260040161107d90612089565b60405180910390fd5b8073ffffffffffffffffffffffffffffffffffffffff1660008054906101000a900473ffffffffffffffffffffffffffffffffffffffff1673ffffffffffffffffffffffffffffffffffffffff167f8be0079c531659141344cd1fd0a4f28419497f9722a3daafe3b4186f6b6457e060405160405180910390a3806000806101000a81548173ffffffffffffffffffffffffffffffffffffffff021916908373ffffffffffffffffffffffffffffffffffffffff16021790555050565b6000600360003373ffffffffffffffffffffffffffffffffffffffff1673ffffffffffffffffffffffffffffffffffffffff16815260200190815260200160002060009054906101000a900460ff166111d1576040517f08c379a00000000000000000000000000000000000000000000000000000000081526004016111c890612069565b60405180910390fd5b60006111de858585611772565b905060405180608001604052808673ffffffffffffffffffffffffffffffffffffffff168152602001858152602001848152602001600015158152506004600083815260200190815260200160002060008201518160000160006101000a81548173ffffffffffffffffffffffffffffffffffffffff021916908373ffffffffffffffffffffffffffffffffffffffff16021790555060208201518160010155604082015181600201908051906020019061129a929190611a0f565b5060608201518160030160006101000a81548160ff02191690831515021790555090505060068190806001815401808255809150506001900390600052602060002001600090919091909150558473ffffffffffffffffffffffffffffffffffffffff16817fa9ae4899c6660aed54dd2cfe0668075633cc1f864b27d69284536bf59bae230c86866040516113309291906121e4565b60405180910390a3809150509392505050565b600360003373ffffffffffffffffffffffffffffffffffffffff1673ffffffffffffffffffffffffffffffffffffffff16815260200190815260200160002060009054906101000a900460ff166113cf576040517f08c379a00000000000000000000000000000000000000000000000000000000081526004016113c690612069565b60405180910390fd5b600073ffffffffffffffffffffffffffffffffffffffff166004600083815260200190815260200160002060000160009054906101000a900473ffffffffffffffffffffffffffffffffffffffff1673ffffffffffffffffffffffffffffffffffffffff161415611475576040517f08c379a000000000000000000000000000000000000000000000000000000000815260040161146c90612149565b60405180910390fd5b6004600082815260200190815260200160002060030160009054906101000a900460ff16156114d9576040517f08c379a00000000000000000000000000000000000000000000000000000000081526004016114d090612169565b60405180910390fd5b6000805b6001805490508110156117285760056000848152602001908152602001600020600060018381548110611513576115126124e6565b5b9060005260206000200160009054906101000a900473ffffffffffffffffffffffffffffffffffffffff1673ffffffffffffffffffffffffffffffffffffffff1673ffffffffffffffffffffffffffffffffffffffff16815260200190815260200160002060009054906101000a900460ff161561159a578180611596906123e2565b9250505b6002548214156117155760016004600085815260200190815260200160002060030160006101000a81548160ff02191690831515021790555060006004600085815260200190815260200160002060000160009054906101000a900473ffffffffffffffffffffffffffffffffffffffff1673ffffffffffffffffffffffffffffffffffffffff1660046000868152602001908152602001600020600101546004600087815260200190815260200160002060020160405161165c9190611fb5565b60006040518083038185875af1925050503d8060008114611699576040519150601f19603f3d011682016040523d82523d6000602084013e61169e565b606091505b50509050806116e2576040517f08c379a00000000000000000000000000000000000000000000000000000000081526004016116d9906120e9565b60405180910390fd5b837f7e9e1cb65db4927b1815f498cbaa226a15c277816f7df407573682110522c9b160405160405180910390a250611728565b8080611720906123e2565b9150506114dd565b5060025481101561176e576040517f08c379a000000000000000000000000000000000000000000000000000000000815260040161176590612189565b60405180910390fd5b5050565b6000808484844260405160200161178c9493929190611f6b565b604051602081830303815290604052805190602001209050809150509392505050565b60008054906101000a900473ffffffffffffffffffffffffffffffffffffffff1673ffffffffffffffffffffffffffffffffffffffff163373ffffffffffffffffffffffffffffffffffffffff161461183d576040517f08c379a0000000000000000000000000000000000000000000000000000000008152600401611834906120a9565b60405180910390fd5b600360008273ffffffffffffffffffffffffffffffffffffffff1673ffffffffffffffffffffffffffffffffffffffff16815260200190815260200160002060009054906101000a900460ff16156118ca576040517f08c379a00000000000000000000000000000000000000000000000000000000081526004016118c1906120c9565b60405180910390fd5b6001819080600181540180825580915050600190039060005260206000200160009091909190916101000a81548173ffffffffffffffffffffffffffffffffffffffff021916908373ffffffffffffffffffffffffffffffffffffffff1602179055506001600360008373ffffffffffffffffffffffffffffffffffffffff1673ffffffffffffffffffffffffffffffffffffffff16815260200190815260200160002060006101000a81548160ff021916908315150217905550600115158173ffffffffffffffffffffffffffffffffffffffff167fc648f6265408cc54c0dc26d24ba51dfc9f35ce1a63baa2228f65d93aaf11cc6760405160405180910390a350565b5080546119db9061237f565b6000825580601f106119ed5750611a0c565b601f016020900490600052602060002090810190611a0b9190611a95565b5b50565b828054611a1b9061237f565b90600052602060002090601f016020900481019282611a3d5760008555611a84565b82601f10611a5657805160ff1916838001178555611a84565b82800160010185558215611a84579182015b82811115611a83578251825591602001919060010190611a68565b5b509050611a919190611a95565b5090565b5b80821115611aae576000816000905550600101611a96565b5090565b6000611ac5611ac084612239565b612214565b905082815260208101848484011115611ae157611ae0612549565b5b611aec84828561233d565b509392505050565b600081359050611b0381612843565b92915050565b600081359050611b188161285a565b92915050565b600082601f830112611b3357611b32612544565b5b8135611b43848260208601611ab2565b91505092915050565b600081359050611b5b81612871565b92915050565b600060208284031215611b7757611b76612553565b5b6000611b8584828501611af4565b91505092915050565b600080600060608486031215611ba757611ba6612553565b5b6000611bb586828701611af4565b9350506020611bc686828701611b4c565b925050604084013567ffffffffffffffff811115611be757611be661254e565b5b611bf386828701611b1e565b9150509250925092565b600060208284031215611c1357611c12612553565b5b6000611c2184828501611b09565b91505092915050565b60008060408385031215611c4157611c40612553565b5b6000611c4f85828601611b09565b9250506020611c6085828601611af4565b9150509250929050565b600060208284031215611c8057611c7f612553565b5b6000611c8e84828501611b4c565b91505092915050565b611ca0816122eb565b82525050565b611cb7611cb2826122eb565b61242b565b82525050565b611cc6816122fd565b82525050565b611cd581612309565b82525050565b6000611ce68261227f565b611cf0818561228a565b9350611d0081856020860161234c565b611d0981612558565b840191505092915050565b6000611d1f8261227f565b611d29818561229b565b9350611d3981856020860161234c565b80840191505092915050565b60008154611d528161237f565b611d5c818661229b565b94506001821660008114611d775760018114611d8857611dbb565b60ff19831686528186019350611dbb565b611d918561226a565b60005b83811015611db357815481890152600182019150602081019050611d94565b838801955050505b50505092915050565b6000611dd16024836122a6565b9150611ddc82612576565b604082019050919050565b6000611df46031836122a6565b9150611dff826125c5565b604082019050919050565b6000611e176026836122a6565b9150611e2282612614565b604082019050919050565b6000611e3a601b836122a6565b9150611e4582612663565b602082019050919050565b6000611e5d601c836122a6565b9150611e688261268c565b602082019050919050565b6000611e80601b836122a6565b9150611e8b826126b5565b602082019050919050565b6000611ea36030836122a6565b9150611eae826126de565b604082019050919050565b6000611ec6601a836122a6565b9150611ed18261272d565b602082019050919050565b6000611ee96025836122a6565b9150611ef482612756565b604082019050919050565b6000611f0c6031836122a6565b9150611f17826127a5565b604082019050919050565b6000611f2f603e836122a6565b9150611f3a826127f4565b604082019050919050565b611f4e81612333565b82525050565b611f65611f6082612333565b61244f565b82525050565b6000611f778287611ca6565b601482019150611f878286611f54565b602082019150611f978285611d14565b9150611fa38284611f54565b60208201915081905095945050505050565b6000611fc18284611d45565b915081905092915050565b6000602082019050611fe16000830184611c97565b92915050565b6000608082019050611ffc6000830187611c97565b6120096020830186611f45565b818103604083015261201b8185611cdb565b905061202a6060830184611cbd565b95945050505050565b60006020820190506120486000830184611cbd565b92915050565b60006020820190506120636000830184611ccc565b92915050565b6000602082019050818103600083015261208281611dc4565b9050919050565b600060208201905081810360008301526120a281611de7565b9050919050565b600060208201905081810360008301526120c281611e0a565b9050919050565b600060208201905081810360008301526120e281611e2d565b9050919050565b6000602082019050818103600083015261210281611e50565b9050919050565b6000602082019050818103600083015261212281611e73565b9050919050565b6000602082019050818103600083015261214281611e96565b9050919050565b6000602082019050818103600083015261216281611eb9565b9050919050565b6000602082019050818103600083015261218281611edc565b9050919050565b600060208201905081810360008301526121a281611eff565b9050919050565b600060208201905081810360008301526121c281611f22565b9050919050565b60006020820190506121de6000830184611f45565b92915050565b60006040820190506121f96000830185611f45565b818103602083015261220b8184611cdb565b90509392505050565b600061221e61222f565b905061222a82826123b1565b919050565b6000604051905090565b600067ffffffffffffffff82111561225457612253612515565b5b61225d82612558565b9050602081019050919050565b60008190508160005260206000209050919050565b600081519050919050565b600082825260208201905092915050565b600081905092915050565b600082825260208201905092915050565b60006122c282612333565b91506122cd83612333565b9250828210156122e0576122df612459565b5b828203905092915050565b60006122f682612313565b9050919050565b60008115159050919050565b6000819050919050565b600073ffffffffffffffffffffffffffffffffffffffff82169050919050565b6000819050919050565b82818337600083830152505050565b60005b8381101561236a57808201518184015260208101905061234f565b83811115612379576000848401525b50505050565b6000600282049050600182168061239757607f821691505b602082108114156123ab576123aa612488565b5b50919050565b6123ba82612558565b810181811067ffffffffffffffff821117156123d9576123d8612515565b5b80604052505050565b60006123ed82612333565b91507fffffffffffffffffffffffffffffffffffffffffffffffffffffffffffffffff8214156124205761241f612459565b5b600182019050919050565b60006124368261243d565b9050919050565b600061244882612569565b9050919050565b6000819050919050565b7f4e487b7100000000000000000000000000000000000000000000000000000000600052601160045260246000fd5b7f4e487b7100000000000000000000000000000000000000000000000000000000600052602260045260246000fd5b7f4e487b7100000000000000000000000000000000000000000000000000000000600052603160045260246000fd5b7f4e487b7100000000000000000000000000000000000000000000000000000000600052603260045260246000fd5b7f4e487b7100000000000000000000000000000000000000000000000000000000600052604160045260246000fd5b600080fd5b600080fd5b600080fd5b600080fd5b6000601f19601f8301169050919050565b60008160601b9050919050565b7f4f6e6c79207369676e6572732063616e20706572666f726d207468697320616360008201527f74696f6e00000000000000000000000000000000000000000000000000000000602082015250565b7f4e6577207265636f7665727920616464726573732073686f756c64206e6f742060008201527f6d617463682063757272656e74206f6e65000000000000000000000000000000602082015250565b7f4f6e6c7920746865206f776e65722063616e20706572666f726d20746869732060008201527f616374696f6e0000000000000000000000000000000000000000000000000000602082015250565b7f4164647265737320697320616c72656164792061207369676e65720000000000600082015250565b7f5472616e73616374696f6e20657865637574696f6e206661696c656400000000600082015250565b7f5468652061646472657373206973206e6f742061207369676e65720000000000600082015250565b7f4f6e6c7920746865207265636f7665727920616464726573732063616e20636160008201527f6c6c20746869732066756e6374696f6e00000000000000000000000000000000602082015250565b7f5472616e73616374696f6e20646f6573206e6f74206578697374000000000000600082015250565b7f5472616e73616374696f6e2068617320616c7265616479206265656e2065786560008201527f6375746564000000000000000000000000000000000000000000000000000000602082015250565b7f4e6f7420656e6f756768207369676e657273206861766520617070726f76656460008201527f2074686973207472616e73616374696f6e000000000000000000000000000000602082015250565b7f43616e6e6f742072656d6f7665207369676e65722c206d696e696d756d20726560008201527f717569726564207369676e6572732077696c6c206e6f74206265206d65740000602082015250565b61284c816122eb565b811461285757600080fd5b50565b61286381612309565b811461286e57600080fd5b50565b61287a81612333565b811461288557600080fd5b5056fea2646970667358221220df190d0471a03afad3ff2a3182a54bbdea8a63e4f4d9b941fcc893bf0d574a2364736f6c63430008070033",
					"opcodes": "PUSH1 0x80 PUSH1 0x40 MSTORE CALLVALUE DUP1 ISZERO PUSH3 0x11 JUMPI PUSH1 0x0 DUP1 REVERT JUMPDEST POP PUSH1 0x40 MLOAD PUSH3 0x2F1B CODESIZE SUB DUP1 PUSH3 0x2F1B DUP4 CODECOPY DUP2 DUP2 ADD PUSH1 0x40 MSTORE DUP2 ADD SWAP1 PUSH3 0x37 SWAP2 SWAP1 PUSH3 0x34F JUMP JUMPDEST PUSH1 0x0 DUP4 MLOAD GT DUP1 ISZERO PUSH3 0x49 JUMPI POP PUSH1 0x0 DUP3 GT JUMPDEST DUP1 ISZERO PUSH3 0x57 JUMPI POP DUP3 MLOAD DUP3 GT ISZERO JUMPDEST PUSH3 0x99 JUMPI PUSH1 0x40 MLOAD PUSH32 0x8C379A000000000000000000000000000000000000000000000000000000000 DUP2 MSTORE PUSH1 0x4 ADD PUSH3 0x90 SWAP1 PUSH3 0x3F1 JUMP JUMPDEST PUSH1 0x40 MLOAD DUP1 SWAP2 SUB SWAP1 REVERT JUMPDEST CALLER PUSH1 0x0 DUP1 PUSH2 0x100 EXP DUP2 SLOAD DUP2 PUSH20 0xFFFFFFFFFFFFFFFFFFFFFFFFFFFFFFFFFFFFFFFF MUL NOT AND SWAP1 DUP4 PUSH20 0xFFFFFFFFFFFFFFFFFFFFFFFFFFFFFFFFFFFFFFFF AND MUL OR SWAP1 SSTORE POP PUSH1 0x0 JUMPDEST DUP4 MLOAD DUP2 LT ISZERO PUSH3 0x221 JUMPI PUSH1 0x0 DUP5 DUP3 DUP2 MLOAD DUP2 LT PUSH3 0xFE JUMPI PUSH3 0xFD PUSH3 0x56D JUMP JUMPDEST JUMPDEST PUSH1 0x20 MUL PUSH1 0x20 ADD ADD MLOAD SWAP1 POP PUSH1 0x1 DUP2 SWAP1 DUP1 PUSH1 0x1 DUP2 SLOAD ADD DUP1 DUP3 SSTORE DUP1 SWAP2 POP POP PUSH1 0x1 SWAP1 SUB SWAP1 PUSH1 0x0 MSTORE PUSH1 0x20 PUSH1 0x0 KECCAK256 ADD PUSH1 0x0 SWAP1 SWAP2 SWAP1 SWAP2 SWAP1 SWAP2 PUSH2 0x100 EXP DUP2 SLOAD DUP2 PUSH20 0xFFFFFFFFFFFFFFFFFFFFFFFFFFFFFFFFFFFFFFFF MUL NOT AND SWAP1 DUP4 PUSH20 0xFFFFFFFFFFFFFFFFFFFFFFFFFFFFFFFFFFFFFFFF AND MUL OR SWAP1 SSTORE POP PUSH1 0x1 PUSH1 0x3 PUSH1 0x0 DUP4 PUSH20 0xFFFFFFFFFFFFFFFFFFFFFFFFFFFFFFFFFFFFFFFF AND PUSH20 0xFFFFFFFFFFFFFFFFFFFFFFFFFFFFFFFFFFFFFFFF AND DUP2 MSTORE PUSH1 0x20 ADD SWAP1 DUP2 MSTORE PUSH1 0x20 ADD PUSH1 0x0 KECCAK256 PUSH1 0x0 PUSH2 0x100 EXP DUP2 SLOAD DUP2 PUSH1 0xFF MUL NOT AND SWAP1 DUP4 ISZERO ISZERO MUL OR SWAP1 SSTORE POP PUSH1 0x1 ISZERO ISZERO DUP2 PUSH20 0xFFFFFFFFFFFFFFFFFFFFFFFFFFFFFFFFFFFFFFFF AND PUSH32 0xC648F6265408CC54C0DC26D24BA51DFC9F35CE1A63BAA2228F65D93AAF11CC67 PUSH1 0x40 MLOAD PUSH1 0x40 MLOAD DUP1 SWAP2 SUB SWAP1 LOG3 POP DUP1 DUP1 PUSH3 0x218 SWAP1 PUSH3 0x4F0 JUMP JUMPDEST SWAP2 POP POP PUSH3 0xDC JUMP JUMPDEST POP DUP2 PUSH1 0x2 DUP2 SWAP1 SSTORE POP DUP1 PUSH1 0x7 PUSH1 0x0 PUSH2 0x100 EXP DUP2 SLOAD DUP2 PUSH20 0xFFFFFFFFFFFFFFFFFFFFFFFFFFFFFFFFFFFFFFFF MUL NOT AND SWAP1 DUP4 PUSH20 0xFFFFFFFFFFFFFFFFFFFFFFFFFFFFFFFFFFFFFFFF AND MUL OR SWAP1 SSTORE POP POP POP POP PUSH3 0x64D JUMP JUMPDEST PUSH1 0x0 PUSH3 0x28A PUSH3 0x284 DUP5 PUSH3 0x43C JUMP JUMPDEST PUSH3 0x413 JUMP JUMPDEST SWAP1 POP DUP1 DUP4 DUP3 MSTORE PUSH1 0x20 DUP3 ADD SWAP1 POP DUP3 DUP6 PUSH1 0x20 DUP7 MUL DUP3 ADD GT ISZERO PUSH3 0x2B0 JUMPI PUSH3 0x2AF PUSH3 0x5D0 JUMP JUMPDEST JUMPDEST PUSH1 0x0 JUMPDEST DUP6 DUP2 LT ISZERO PUSH3 0x2E4 JUMPI DUP2 PUSH3 0x2C9 DUP9 DUP3 PUSH3 0x2EE JUMP JUMPDEST DUP5 MSTORE PUSH1 0x20 DUP5 ADD SWAP4 POP PUSH1 0x20 DUP4 ADD SWAP3 POP POP PUSH1 0x1 DUP2 ADD SWAP1 POP PUSH3 0x2B3 JUMP JUMPDEST POP POP POP SWAP4 SWAP3 POP POP POP JUMP JUMPDEST PUSH1 0x0 DUP2 MLOAD SWAP1 POP PUSH3 0x2FF DUP2 PUSH3 0x619 JUMP JUMPDEST SWAP3 SWAP2 POP POP JUMP JUMPDEST PUSH1 0x0 DUP3 PUSH1 0x1F DUP4 ADD SLT PUSH3 0x31D JUMPI PUSH3 0x31C PUSH3 0x5CB JUMP JUMPDEST JUMPDEST DUP2 MLOAD PUSH3 0x32F DUP5 DUP3 PUSH1 0x20 DUP7 ADD PUSH3 0x273 JUMP JUMPDEST SWAP2 POP POP SWAP3 SWAP2 POP POP JUMP JUMPDEST PUSH1 0x0 DUP2 MLOAD SWAP1 POP PUSH3 0x349 DUP2 PUSH3 0x633 JUMP JUMPDEST SWAP3 SWAP2 POP POP JUMP JUMPDEST PUSH1 0x0 DUP1 PUSH1 0x0 PUSH1 0x60 DUP5 DUP7 SUB SLT ISZERO PUSH3 0x36B JUMPI PUSH3 0x36A PUSH3 0x5DA JUMP JUMPDEST JUMPDEST PUSH1 0x0 DUP5 ADD MLOAD PUSH8 0xFFFFFFFFFFFFFFFF DUP2 GT ISZERO PUSH3 0x38C JUMPI PUSH3 0x38B PUSH3 0x5D5 JUMP JUMPDEST JUMPDEST PUSH3 0x39A DUP7 DUP3 DUP8 ADD PUSH3 0x305 JUMP JUMPDEST SWAP4 POP POP PUSH1 0x20 PUSH3 0x3AD DUP7 DUP3 DUP8 ADD PUSH3 0x338 JUMP JUMPDEST SWAP3 POP POP PUSH1 0x40 PUSH3 0x3C0 DUP7 DUP3 DUP8 ADD PUSH3 0x2EE JUMP JUMPDEST SWAP2 POP POP SWAP3 POP SWAP3 POP SWAP3 JUMP JUMPDEST PUSH1 0x0 PUSH3 0x3D9 PUSH1 0xD DUP4 PUSH3 0x46B JUMP JUMPDEST SWAP2 POP PUSH3 0x3E6 DUP3 PUSH3 0x5F0 JUMP JUMPDEST PUSH1 0x20 DUP3 ADD SWAP1 POP SWAP2 SWAP1 POP JUMP JUMPDEST PUSH1 0x0 PUSH1 0x20 DUP3 ADD SWAP1 POP DUP2 DUP2 SUB PUSH1 0x0 DUP4 ADD MSTORE PUSH3 0x40C DUP2 PUSH3 0x3CA JUMP JUMPDEST SWAP1 POP SWAP2 SWAP1 POP JUMP JUMPDEST PUSH1 0x0 PUSH3 0x41F PUSH3 0x432 JUMP JUMPDEST SWAP1 POP PUSH3 0x42D DUP3 DUP3 PUSH3 0x4BA JUMP JUMPDEST SWAP2 SWAP1 POP JUMP JUMPDEST PUSH1 0x0 PUSH1 0x40 MLOAD SWAP1 POP SWAP1 JUMP JUMPDEST PUSH1 0x0 PUSH8 0xFFFFFFFFFFFFFFFF DUP3 GT ISZERO PUSH3 0x45A JUMPI PUSH3 0x459 PUSH3 0x59C JUMP JUMPDEST JUMPDEST PUSH1 0x20 DUP3 MUL SWAP1 POP PUSH1 0x20 DUP2 ADD SWAP1 POP SWAP2 SWAP1 POP JUMP JUMPDEST PUSH1 0x0 DUP3 DUP3 MSTORE PUSH1 0x20 DUP3 ADD SWAP1 POP SWAP3 SWAP2 POP POP JUMP JUMPDEST PUSH1 0x0 PUSH3 0x489 DUP3 PUSH3 0x490 JUMP JUMPDEST SWAP1 POP SWAP2 SWAP1 POP JUMP JUMPDEST PUSH1 0x0 PUSH20 0xFFFFFFFFFFFFFFFFFFFFFFFFFFFFFFFFFFFFFFFF DUP3 AND SWAP1 POP SWAP2 SWAP1 POP JUMP JUMPDEST PUSH1 0x0 DUP2 SWAP1 POP SWAP2 SWAP1 POP JUMP JUMPDEST PUSH3 0x4C5 DUP3 PUSH3 0x5DF JUMP JUMPDEST DUP2 ADD DUP2 DUP2 LT PUSH8 0xFFFFFFFFFFFFFFFF DUP3 GT OR ISZERO PUSH3 0x4E7 JUMPI PUSH3 0x4E6 PUSH3 0x59C JUMP JUMPDEST JUMPDEST DUP1 PUSH1 0x40 MSTORE POP POP POP JUMP JUMPDEST PUSH1 0x0 PUSH3 0x4FD DUP3 PUSH3 0x4B0 JUMP JUMPDEST SWAP2 POP PUSH32 0xFFFFFFFFFFFFFFFFFFFFFFFFFFFFFFFFFFFFFFFFFFFFFFFFFFFFFFFFFFFFFFFF DUP3 EQ ISZERO PUSH3 0x533 JUMPI PUSH3 0x532 PUSH3 0x53E JUMP JUMPDEST JUMPDEST PUSH1 0x1 DUP3 ADD SWAP1 POP SWAP2 SWAP1 POP JUMP JUMPDEST PUSH32 0x4E487B7100000000000000000000000000000000000000000000000000000000 PUSH1 0x0 MSTORE PUSH1 0x11 PUSH1 0x4 MSTORE PUSH1 0x24 PUSH1 0x0 REVERT JUMPDEST PUSH32 0x4E487B7100000000000000000000000000000000000000000000000000000000 PUSH1 0x0 MSTORE PUSH1 0x32 PUSH1 0x4 MSTORE PUSH1 0x24 PUSH1 0x0 REVERT JUMPDEST PUSH32 0x4E487B7100000000000000000000000000000000000000000000000000000000 PUSH1 0x0 MSTORE PUSH1 0x41 PUSH1 0x4 MSTORE PUSH1 0x24 PUSH1 0x0 REVERT JUMPDEST PUSH1 0x0 DUP1 REVERT JUMPDEST PUSH1 0x0 DUP1 REVERT JUMPDEST PUSH1 0x0 DUP1 REVERT JUMPDEST PUSH1 0x0 DUP1 REVERT JUMPDEST PUSH1 0x0 PUSH1 0x1F NOT PUSH1 0x1F DUP4 ADD AND SWAP1 POP SWAP2 SWAP1 POP JUMP JUMPDEST PUSH32 0x496E76616C696420696E70757400000000000000000000000000000000000000 PUSH1 0x0 DUP3 ADD MSTORE POP JUMP JUMPDEST PUSH3 0x624 DUP2 PUSH3 0x47C JUMP JUMPDEST DUP2 EQ PUSH3 0x630 JUMPI PUSH1 0x0 DUP1 REVERT JUMPDEST POP JUMP JUMPDEST PUSH3 0x63E DUP2 PUSH3 0x4B0 JUMP JUMPDEST DUP2 EQ PUSH3 0x64A JUMPI PUSH1 0x0 DUP1 REVERT JUMPDEST POP JUMP JUMPDEST PUSH2 0x28BE DUP1 PUSH3 0x65D PUSH1 0x0 CODECOPY PUSH1 0x0 RETURN INVALID PUSH1 0x80 PUSH1 0x40 MSTORE CALLVALUE DUP1 ISZERO PUSH2 0x10 JUMPI PUSH1 0x0 DUP1 REVERT JUMPDEST POP PUSH1 0x4 CALLDATASIZE LT PUSH2 0x100 JUMPI PUSH1 0x0 CALLDATALOAD PUSH1 0xE0 SHR DUP1 PUSH4 0x8D068043 GT PUSH2 0x97 JUMPI DUP1 PUSH4 0xA9496E75 GT PUSH2 0x66 JUMPI DUP1 PUSH4 0xA9496E75 EQ PUSH2 0x2C2 JUMPI DUP1 PUSH4 0xC69ED5F2 EQ PUSH2 0x2F2 JUMPI DUP1 PUSH4 0xCC526C45 EQ PUSH2 0x30E JUMPI DUP1 PUSH4 0xEB12D61E EQ PUSH2 0x33E JUMPI PUSH2 0x100 JUMP JUMPDEST DUP1 PUSH4 0x8D068043 EQ PUSH2 0x24E JUMPI DUP1 PUSH4 0x8DA5CB5B EQ PUSH2 0x26C JUMPI DUP1 PUSH4 0x8F4FDE9F EQ PUSH2 0x28A JUMPI DUP1 PUSH4 0x8F671849 EQ PUSH2 0x2A6 JUMPI PUSH2 0x100 JUMP JUMPDEST DUP1 PUSH4 0x642F2EAF GT PUSH2 0xD3 JUMPI DUP1 PUSH4 0x642F2EAF EQ PUSH2 0x1B1 JUMPI DUP1 PUSH4 0x70BA3339 EQ PUSH2 0x1E4 JUMPI DUP1 PUSH4 0x710EB26C EQ PUSH2 0x200 JUMPI DUP1 PUSH4 0x7DF73E27 EQ PUSH2 0x21E JUMPI PUSH2 0x100 JUMP JUMPDEST DUP1 PUSH4 0x4EF5B21 EQ PUSH2 0x105 JUMPI DUP1 PUSH4 0xE316AB7 EQ PUSH2 0x135 JUMPI DUP1 PUSH4 0x2079FB9A EQ PUSH2 0x151 JUMPI DUP1 PUSH4 0x24F6C776 EQ PUSH2 0x181 JUMPI JUMPDEST PUSH1 0x0 DUP1 REVERT JUMPDEST PUSH2 0x11F PUSH1 0x4 DUP1 CALLDATASIZE SUB DUP2 ADD SWAP1 PUSH2 0x11A SWAP2 SWAP1 PUSH2 0x1C6A JUMP JUMPDEST PUSH2 0x35A JUMP JUMPDEST PUSH1 0x40 MLOAD PUSH2 0x12C SWAP2 SWAP1 PUSH2 0x204E JUMP JUMPDEST PUSH1 0x40 MLOAD DUP1 SWAP2 SUB SWAP1 RETURN JUMPDEST PUSH2 0x14F PUSH1 0x4 DUP1 CALLDATASIZE SUB DUP2 ADD SWAP1 PUSH2 0x14A SWAP2 SWAP1 PUSH2 0x1B61 JUMP JUMPDEST PUSH2 0x37E JUMP JUMPDEST STOP JUMPDEST PUSH2 0x16B PUSH1 0x4 DUP1 CALLDATASIZE SUB DUP2 ADD SWAP1 PUSH2 0x166 SWAP2 SWAP1 PUSH2 0x1C6A JUMP JUMPDEST PUSH2 0x70F JUMP JUMPDEST PUSH1 0x40 MLOAD PUSH2 0x178 SWAP2 SWAP1 PUSH2 0x1FCC JUMP JUMPDEST PUSH1 0x40 MLOAD DUP1 SWAP2 SUB SWAP1 RETURN JUMPDEST PUSH2 0x19B PUSH1 0x4 DUP1 CALLDATASIZE SUB DUP2 ADD SWAP1 PUSH2 0x196 SWAP2 SWAP1 PUSH2 0x1C2A JUMP JUMPDEST PUSH2 0x74E JUMP JUMPDEST PUSH1 0x40 MLOAD PUSH2 0x1A8 SWAP2 SWAP1 PUSH2 0x2033 JUMP JUMPDEST PUSH1 0x40 MLOAD DUP1 SWAP2 SUB SWAP1 RETURN JUMPDEST PUSH2 0x1CB PUSH1 0x4 DUP1 CALLDATASIZE SUB DUP2 ADD SWAP1 PUSH2 0x1C6 SWAP2 SWAP1 PUSH2 0x1BFD JUMP JUMPDEST PUSH2 0x77D JUMP JUMPDEST PUSH1 0x40 MLOAD PUSH2 0x1DB SWAP5 SWAP4 SWAP3 SWAP2 SWAP1 PUSH2 0x1FE7 JUMP JUMPDEST PUSH1 0x40 MLOAD DUP1 SWAP2 SUB SWAP1 RETURN JUMPDEST PUSH2 0x1FE PUSH1 0x4 DUP1 CALLDATASIZE SUB DUP2 ADD SWAP1 PUSH2 0x1F9 SWAP2 SWAP1 PUSH2 0x1BFD JUMP JUMPDEST PUSH2 0x862 JUMP JUMPDEST STOP JUMPDEST PUSH2 0x208 PUSH2 0xC25 JUMP JUMPDEST PUSH1 0x40 MLOAD PUSH2 0x215 SWAP2 SWAP1 PUSH2 0x1FCC JUMP JUMPDEST PUSH1 0x40 MLOAD DUP1 SWAP2 SUB SWAP1 RETURN JUMPDEST PUSH2 0x238 PUSH1 0x4 DUP1 CALLDATASIZE SUB DUP2 ADD SWAP1 PUSH2 0x233 SWAP2 SWAP1 PUSH2 0x1B61 JUMP JUMPDEST PUSH2 0xC4B JUMP JUMPDEST PUSH1 0x40 MLOAD PUSH2 0x245 SWAP2 SWAP1 PUSH2 0x2033 JUMP JUMPDEST PUSH1 0x40 MLOAD DUP1 SWAP2 SUB SWAP1 RETURN JUMPDEST PUSH2 0x256 PUSH2 0xC6B JUMP JUMPDEST PUSH1 0x40 MLOAD PUSH2 0x263 SWAP2 SWAP1 PUSH2 0x21C9 JUMP JUMPDEST PUSH1 0x40 MLOAD DUP1 SWAP2 SUB SWAP1 RETURN JUMPDEST PUSH2 0x274 PUSH2 0xC71 JUMP JUMPDEST PUSH1 0x40 MLOAD PUSH2 0x281 SWAP2 SWAP1 PUSH2 0x1FCC JUMP JUMPDEST PUSH1 0x40 MLOAD DUP1 SWAP2 SUB SWAP1 RETURN JUMPDEST PUSH2 0x2A4 PUSH1 0x4 DUP1 CALLDATASIZE SUB DUP2 ADD SWAP1 PUSH2 0x29F SWAP2 SWAP1 PUSH2 0x1BFD JUMP JUMPDEST PUSH2 0xC95 JUMP JUMPDEST STOP JUMPDEST PUSH2 0x2C0 PUSH1 0x4 DUP1 CALLDATASIZE SUB DUP2 ADD SWAP1 PUSH2 0x2BB SWAP2 SWAP1 PUSH2 0x1B61 JUMP JUMPDEST PUSH2 0xF65 JUMP JUMPDEST STOP JUMPDEST PUSH2 0x2DC PUSH1 0x4 DUP1 CALLDATASIZE SUB DUP2 ADD SWAP1 PUSH2 0x2D7 SWAP2 SWAP1 PUSH2 0x1B8E JUMP JUMPDEST PUSH2 0x1143 JUMP JUMPDEST PUSH1 0x40 MLOAD PUSH2 0x2E9 SWAP2 SWAP1 PUSH2 0x204E JUMP JUMPDEST PUSH1 0x40 MLOAD DUP1 SWAP2 SUB SWAP1 RETURN JUMPDEST PUSH2 0x30C PUSH1 0x4 DUP1 CALLDATASIZE SUB DUP2 ADD SWAP1 PUSH2 0x307 SWAP2 SWAP1 PUSH2 0x1BFD JUMP JUMPDEST PUSH2 0x1343 JUMP JUMPDEST STOP JUMPDEST PUSH2 0x328 PUSH1 0x4 DUP1 CALLDATASIZE SUB DUP2 ADD SWAP1 PUSH2 0x323 SWAP2 SWAP1 PUSH2 0x1B8E JUMP JUMPDEST PUSH2 0x1772 JUMP JUMPDEST PUSH1 0x40 MLOAD PUSH2 0x335 SWAP2 SWAP1 PUSH2 0x204E JUMP JUMPDEST PUSH1 0x40 MLOAD DUP1 SWAP2 SUB SWAP1 RETURN JUMPDEST PUSH2 0x358 PUSH1 0x4 DUP1 CALLDATASIZE SUB DUP2 ADD SWAP1 PUSH2 0x353 SWAP2 SWAP1 PUSH2 0x1B61 JUMP JUMPDEST PUSH2 0x17AF JUMP JUMPDEST STOP JUMPDEST PUSH1 0x6 DUP2 DUP2 SLOAD DUP2 LT PUSH2 0x36A JUMPI PUSH1 0x0 DUP1 REVERT JUMPDEST SWAP1 PUSH1 0x0 MSTORE PUSH1 0x20 PUSH1 0x0 KECCAK256 ADD PUSH1 0x0 SWAP2 POP SWAP1 POP SLOAD DUP2 JUMP JUMPDEST PUSH1 0x0 DUP1 SLOAD SWAP1 PUSH2 0x100 EXP SWAP1 DIV PUSH20 0xFFFFFFFFFFFFFFFFFFFFFFFFFFFFFFFFFFFFFFFF AND PUSH20 0xFFFFFFFFFFFFFFFFFFFFFFFFFFFFFFFFFFFFFFFF AND CALLER PUSH20 0xFFFFFFFFFFFFFFFFFFFFFFFFFFFFFFFFFFFFFFFF AND EQ PUSH2 0x40C JUMPI PUSH1 0x40 MLOAD PUSH32 0x8C379A000000000000000000000000000000000000000000000000000000000 DUP2 MSTORE PUSH1 0x4 ADD PUSH2 0x403 SWAP1 PUSH2 0x20A9 JUMP JUMPDEST PUSH1 0x40 MLOAD DUP1 SWAP2 SUB SWAP1 REVERT JUMPDEST PUSH1 0x3 PUSH1 0x0 DUP3 PUSH20 0xFFFFFFFFFFFFFFFFFFFFFFFFFFFFFFFFFFFFFFFF AND PUSH20 0xFFFFFFFFFFFFFFFFFFFFFFFFFFFFFFFFFFFFFFFF AND DUP2 MSTORE PUSH1 0x20 ADD SWAP1 DUP2 MSTORE PUSH1 0x20 ADD PUSH1 0x0 KECCAK256 PUSH1 0x0 SWAP1 SLOAD SWAP1 PUSH2 0x100 EXP SWAP1 DIV PUSH1 0xFF AND PUSH2 0x498 JUMPI PUSH1 0x40 MLOAD PUSH32 0x8C379A000000000000000000000000000000000000000000000000000000000 DUP2 MSTORE PUSH1 0x4 ADD PUSH2 0x48F SWAP1 PUSH2 0x2109 JUMP JUMPDEST PUSH1 0x40 MLOAD DUP1 SWAP2 SUB SWAP1 REVERT JUMPDEST PUSH1 0x2 SLOAD PUSH1 0x1 DUP1 SLOAD SWAP1 POP GT PUSH2 0x4E1 JUMPI PUSH1 0x40 MLOAD PUSH32 0x8C379A000000000000000000000000000000000000000000000000000000000 DUP2 MSTORE PUSH1 0x4 ADD PUSH2 0x4D8 SWAP1 PUSH2 0x21A9 JUMP JUMPDEST PUSH1 0x40 MLOAD DUP1 SWAP2 SUB SWAP1 REVERT JUMPDEST PUSH1 0x0 JUMPDEST PUSH1 0x1 DUP1 SLOAD SWAP1 POP DUP2 LT ISZERO PUSH2 0x70B JUMPI DUP2 PUSH20 0xFFFFFFFFFFFFFFFFFFFFFFFFFFFFFFFFFFFFFFFF AND PUSH1 0x1 DUP3 DUP2 SLOAD DUP2 LT PUSH2 0x51C JUMPI PUSH2 0x51B PUSH2 0x24E6 JUMP JUMPDEST JUMPDEST SWAP1 PUSH1 0x0 MSTORE PUSH1 0x20 PUSH1 0x0 KECCAK256 ADD PUSH1 0x0 SWAP1 SLOAD SWAP1 PUSH2 0x100 EXP SWAP1 DIV PUSH20 0xFFFFFFFFFFFFFFFFFFFFFFFFFFFFFFFFFFFFFFFF AND PUSH20 0xFFFFFFFFFFFFFFFFFFFFFFFFFFFFFFFFFFFFFFFF AND EQ ISZERO PUSH2 0x6F8 JUMPI PUSH1 0x1 DUP1 DUP1 DUP1 SLOAD SWAP1 POP PUSH2 0x575 SWAP2 SWAP1 PUSH2 0x22B7 JUMP JUMPDEST DUP2 SLOAD DUP2 LT PUSH2 0x586 JUMPI PUSH2 0x585 PUSH2 0x24E6 JUMP JUMPDEST JUMPDEST SWAP1 PUSH1 0x0 MSTORE PUSH1 0x20 PUSH1 0x0 KECCAK256 ADD PUSH1 0x0 SWAP1 SLOAD SWAP1 PUSH2 0x100 EXP SWAP1 DIV PUSH20 0xFFFFFFFFFFFFFFFFFFFFFFFFFFFFFFFFFFFFFFFF AND PUSH1 0x1 DUP3 DUP2 SLOAD DUP2 LT PUSH2 0x5C5 JUMPI PUSH2 0x5C4 PUSH2 0x24E6 JUMP JUMPDEST JUMPDEST SWAP1 PUSH1 0x0 MSTORE PUSH1 0x20 PUSH1 0x0 KECCAK256 ADD PUSH1 0x0 PUSH2 0x100 EXP DUP2 SLOAD DUP2 PUSH20 0xFFFFFFFFFFFFFFFFFFFFFFFFFFFFFFFFFFFFFFFF MUL NOT AND SWAP1 DUP4 PUSH20 0xFFFFFFFFFFFFFFFFFFFFFFFFFFFFFFFFFFFFFFFF AND MUL OR SWAP1 SSTORE POP PUSH1 0x1 DUP1 SLOAD DUP1 PUSH2 0x61F JUMPI PUSH2 0x61E PUSH2 0x24B7 JUMP JUMPDEST JUMPDEST PUSH1 0x1 SWAP1 SUB DUP2 DUP2 SWAP1 PUSH1 0x0 MSTORE PUSH1 0x20 PUSH1 0x0 KECCAK256 ADD PUSH1 0x0 PUSH2 0x100 EXP DUP2 SLOAD SWAP1 PUSH20 0xFFFFFFFFFFFFFFFFFFFFFFFFFFFFFFFFFFFFFFFF MUL NOT AND SWAP1 SSTORE SWAP1 SSTORE PUSH1 0x0 PUSH1 0x3 PUSH1 0x0 DUP5 PUSH20 0xFFFFFFFFFFFFFFFFFFFFFFFFFFFFFFFFFFFFFFFF AND PUSH20 0xFFFFFFFFFFFFFFFFFFFFFFFFFFFFFFFFFFFFFFFF AND DUP2 MSTORE PUSH1 0x20 ADD SWAP1 DUP2 MSTORE PUSH1 0x20 ADD PUSH1 0x0 KECCAK256 PUSH1 0x0 PUSH2 0x100 EXP DUP2 SLOAD DUP2 PUSH1 0xFF MUL NOT AND SWAP1 DUP4 ISZERO ISZERO MUL OR SWAP1 SSTORE POP PUSH1 0x0 ISZERO ISZERO DUP3 PUSH20 0xFFFFFFFFFFFFFFFFFFFFFFFFFFFFFFFFFFFFFFFF AND PUSH32 0xC648F6265408CC54C0DC26D24BA51DFC9F35CE1A63BAA2228F65D93AAF11CC67 PUSH1 0x40 MLOAD PUSH1 0x40 MLOAD DUP1 SWAP2 SUB SWAP1 LOG3 PUSH2 0x70B JUMP JUMPDEST DUP1 DUP1 PUSH2 0x703 SWAP1 PUSH2 0x23E2 JUMP JUMPDEST SWAP2 POP POP PUSH2 0x4E4 JUMP JUMPDEST POP POP JUMP JUMPDEST PUSH1 0x1 DUP2 DUP2 SLOAD DUP2 LT PUSH2 0x71F JUMPI PUSH1 0x0 DUP1 REVERT JUMPDEST SWAP1 PUSH1 0x0 MSTORE PUSH1 0x20 PUSH1 0x0 KECCAK256 ADD PUSH1 0x0 SWAP2 POP SLOAD SWAP1 PUSH2 0x100 EXP SWAP1 DIV PUSH20 0xFFFFFFFFFFFFFFFFFFFFFFFFFFFFFFFFFFFFFFFF AND DUP2 JUMP JUMPDEST PUSH1 0x5 PUSH1 0x20 MSTORE DUP2 PUSH1 0x0 MSTORE PUSH1 0x40 PUSH1 0x0 KECCAK256 PUSH1 0x20 MSTORE DUP1 PUSH1 0x0 MSTORE PUSH1 0x40 PUSH1 0x0 KECCAK256 PUSH1 0x0 SWAP2 POP SWAP2 POP SWAP1 SLOAD SWAP1 PUSH2 0x100 EXP SWAP1 DIV PUSH1 0xFF AND DUP2 JUMP JUMPDEST PUSH1 0x4 PUSH1 0x20 MSTORE DUP1 PUSH1 0x0 MSTORE PUSH1 0x40 PUSH1 0x0 KECCAK256 PUSH1 0x0 SWAP2 POP SWAP1 POP DUP1 PUSH1 0x0 ADD PUSH1 0x0 SWAP1 SLOAD SWAP1 PUSH2 0x100 EXP SWAP1 DIV PUSH20 0xFFFFFFFFFFFFFFFFFFFFFFFFFFFFFFFFFFFFFFFF AND SWAP1 DUP1 PUSH1 0x1 ADD SLOAD SWAP1 DUP1 PUSH1 0x2 ADD DUP1 SLOAD PUSH2 0x7CC SWAP1 PUSH2 0x237F JUMP JUMPDEST DUP1 PUSH1 0x1F ADD PUSH1 0x20 DUP1 SWAP2 DIV MUL PUSH1 0x20 ADD PUSH1 0x40 MLOAD SWAP1 DUP2 ADD PUSH1 0x40 MSTORE DUP1 SWAP3 SWAP2 SWAP1 DUP2 DUP2 MSTORE PUSH1 0x20 ADD DUP3 DUP1 SLOAD PUSH2 0x7F8 SWAP1 PUSH2 0x237F JUMP JUMPDEST DUP1 ISZERO PUSH2 0x845 JUMPI DUP1 PUSH1 0x1F LT PUSH2 0x81A JUMPI PUSH2 0x100 DUP1 DUP4 SLOAD DIV MUL DUP4 MSTORE SWAP2 PUSH1 0x20 ADD SWAP2 PUSH2 0x845 JUMP JUMPDEST DUP3 ADD SWAP2 SWAP1 PUSH1 0x0 MSTORE PUSH1 0x20 PUSH1 0x0 KECCAK256 SWAP1 JUMPDEST DUP2 SLOAD DUP2 MSTORE SWAP1 PUSH1 0x1 ADD SWAP1 PUSH1 0x20 ADD DUP1 DUP4 GT PUSH2 0x828 JUMPI DUP3 SWAP1 SUB PUSH1 0x1F AND DUP3 ADD SWAP2 JUMPDEST POP POP POP POP POP SWAP1 DUP1 PUSH1 0x3 ADD PUSH1 0x0 SWAP1 SLOAD SWAP1 PUSH2 0x100 EXP SWAP1 DIV PUSH1 0xFF AND SWAP1 POP DUP5 JUMP JUMPDEST PUSH1 0x3 PUSH1 0x0 CALLER PUSH20 0xFFFFFFFFFFFFFFFFFFFFFFFFFFFFFFFFFFFFFFFF AND PUSH20 0xFFFFFFFFFFFFFFFFFFFFFFFFFFFFFFFFFFFFFFFF AND DUP2 MSTORE PUSH1 0x20 ADD SWAP1 DUP2 MSTORE PUSH1 0x20 ADD PUSH1 0x0 KECCAK256 PUSH1 0x0 SWAP1 SLOAD SWAP1 PUSH2 0x100 EXP SWAP1 DIV PUSH1 0xFF AND PUSH2 0x8EE JUMPI PUSH1 0x40 MLOAD PUSH32 0x8C379A000000000000000000000000000000000000000000000000000000000 DUP2 MSTORE PUSH1 0x4 ADD PUSH2 0x8E5 SWAP1 PUSH2 0x2069 JUMP JUMPDEST PUSH1 0x40 MLOAD DUP1 SWAP2 SUB SWAP1 REVERT JUMPDEST PUSH1 0x0 PUSH20 0xFFFFFFFFFFFFFFFFFFFFFFFFFFFFFFFFFFFFFFFF AND PUSH1 0x4 PUSH1 0x0 DUP4 DUP2 MSTORE PUSH1 0x20 ADD SWAP1 DUP2 MSTORE PUSH1 0x20 ADD PUSH1 0x0 KECCAK256 PUSH1 0x0 ADD PUSH1 0x0 SWAP1 SLOAD SWAP1 PUSH2 0x100 EXP SWAP1 DIV PUSH20 0xFFFFFFFFFFFFFFFFFFFFFFFFFFFFFFFFFFFFFFFF AND PUSH20 0xFFFFFFFFFFFFFFFFFFFFFFFFFFFFFFFFFFFFFFFF AND EQ ISZERO PUSH2 0x994 JUMPI PUSH1 0x40 MLOAD PUSH32 0x8C379A000000000000000000000000000000000000000000000000000000000 DUP2 MSTORE PUSH1 0x4 ADD PUSH2 0x98B SWAP1 PUSH2 0x2149 JUMP JUMPDEST PUSH1 0x40 MLOAD DUP1 SWAP2 SUB SWAP1 REVERT JUMPDEST PUSH1 0x4 PUSH1 0x0 DUP3 DUP2 MSTORE PUSH1 0x20 ADD SWAP1 DUP2 MSTORE PUSH1 0x20 ADD PUSH1 0x0 KECCAK256 PUSH1 0x3 ADD PUSH1 0x0 SWAP1 SLOAD SWAP1 PUSH2 0x100 EXP SWAP1 DIV PUSH1 0xFF AND ISZERO PUSH2 0x9F8 JUMPI PUSH1 0x40 MLOAD PUSH32 0x8C379A000000000000000000000000000000000000000000000000000000000 DUP2 MSTORE PUSH1 0x4 ADD PUSH2 0x9EF SWAP1 PUSH2 0x2169 JUMP JUMPDEST PUSH1 0x40 MLOAD DUP1 SWAP2 SUB SWAP1 REVERT JUMPDEST PUSH1 0x0 JUMPDEST PUSH1 0x6 DUP1 SLOAD SWAP1 POP DUP2 LT ISZERO PUSH2 0xB29 JUMPI DUP2 PUSH1 0x6 DUP3 DUP2 SLOAD DUP2 LT PUSH2 0xA1D JUMPI PUSH2 0xA1C PUSH2 0x24E6 JUMP JUMPDEST JUMPDEST SWAP1 PUSH1 0x0 MSTORE PUSH1 0x20 PUSH1 0x0 KECCAK256 ADD SLOAD EQ ISZERO PUSH2 0xB16 JUMPI PUSH1 0x6 PUSH1 0x1 PUSH1 0x6 DUP1 SLOAD SWAP1 POP PUSH2 0xA42 SWAP2 SWAP1 PUSH2 0x22B7 JUMP JUMPDEST DUP2 SLOAD DUP2 LT PUSH2 0xA53 JUMPI PUSH2 0xA52 PUSH2 0x24E6 JUMP JUMPDEST JUMPDEST SWAP1 PUSH1 0x0 MSTORE PUSH1 0x20 PUSH1 0x0 KECCAK256 ADD SLOAD PUSH1 0x6 DUP3 DUP2 SLOAD DUP2 LT PUSH2 0xA72 JUMPI PUSH2 0xA71 PUSH2 0x24E6 JUMP JUMPDEST JUMPDEST SWAP1 PUSH1 0x0 MSTORE PUSH1 0x20 PUSH1 0x0 KECCAK256 ADD DUP2 SWAP1 SSTORE POP PUSH1 0x6 DUP1 SLOAD DUP1 PUSH2 0xA92 JUMPI PUSH2 0xA91 PUSH2 0x24B7 JUMP JUMPDEST JUMPDEST PUSH1 0x1 SWAP1 SUB DUP2 DUP2 SWAP1 PUSH1 0x0 MSTORE PUSH1 0x20 PUSH1 0x0 KECCAK256 ADD PUSH1 0x0 SWAP1 SSTORE SWAP1 SSTORE PUSH1 0x4 PUSH1 0x0 DUP4 DUP2 MSTORE PUSH1 0x20 ADD SWAP1 DUP2 MSTORE PUSH1 0x20 ADD PUSH1 0x0 KECCAK256 PUSH1 0x0 DUP1 DUP3 ADD PUSH1 0x0 PUSH2 0x100 EXP DUP2 SLOAD SWAP1 PUSH20 0xFFFFFFFFFFFFFFFFFFFFFFFFFFFFFFFFFFFFFFFF MUL NOT AND SWAP1 SSTORE PUSH1 0x1 DUP3 ADD PUSH1 0x0 SWAP1 SSTORE PUSH1 0x2 DUP3 ADD PUSH1 0x0 PUSH2 0xAFB SWAP2 SWAP1 PUSH2 0x19CF JUMP JUMPDEST PUSH1 0x3 DUP3 ADD PUSH1 0x0 PUSH2 0x100 EXP DUP2 SLOAD SWAP1 PUSH1 0xFF MUL NOT AND SWAP1 SSTORE POP POP PUSH2 0xB29 JUMP JUMPDEST DUP1 DUP1 PUSH2 0xB21 SWAP1 PUSH2 0x23E2 JUMP JUMPDEST SWAP2 POP POP PUSH2 0x9FB JUMP JUMPDEST POP PUSH1 0x0 JUMPDEST PUSH1 0x1 DUP1 SLOAD SWAP1 POP DUP2 LT ISZERO PUSH2 0xBF4 JUMPI PUSH1 0x0 PUSH1 0x5 PUSH1 0x0 DUP5 DUP2 MSTORE PUSH1 0x20 ADD SWAP1 DUP2 MSTORE PUSH1 0x20 ADD PUSH1 0x0 KECCAK256 PUSH1 0x0 PUSH1 0x1 DUP5 DUP2 SLOAD DUP2 LT PUSH2 0xB65 JUMPI PUSH2 0xB64 PUSH2 0x24E6 JUMP JUMPDEST JUMPDEST SWAP1 PUSH1 0x0 MSTORE PUSH1 0x20 PUSH1 0x0 KECCAK256 ADD PUSH1 0x0 SWAP1 SLOAD SWAP1 PUSH2 0x100 EXP SWAP1 DIV PUSH20 0xFFFFFFFFFFFFFFFFFFFFFFFFFFFFFFFFFFFFFFFF AND PUSH20 0xFFFFFFFFFFFFFFFFFFFFFFFFFFFFFFFFFFFFFFFF AND PUSH20 0xFFFFFFFFFFFFFFFFFFFFFFFFFFFFFFFFFFFFFFFF AND DUP2 MSTORE PUSH1 0x20 ADD SWAP1 DUP2 MSTORE PUSH1 0x20 ADD PUSH1 0x0 KECCAK256 PUSH1 0x0 PUSH2 0x100 EXP DUP2 SLOAD DUP2 PUSH1 0xFF MUL NOT AND SWAP1 DUP4 ISZERO ISZERO MUL OR SWAP1 SSTORE POP DUP1 DUP1 PUSH2 0xBEC SWAP1 PUSH2 0x23E2 JUMP JUMPDEST SWAP2 POP POP PUSH2 0xB2D JUMP JUMPDEST POP DUP1 PUSH32 0xBCA2885D81F38744D778177014656FADAF8DB5DE172DE50E21D4CA0E1B844995 PUSH1 0x40 MLOAD PUSH1 0x40 MLOAD DUP1 SWAP2 SUB SWAP1 LOG2 POP JUMP JUMPDEST PUSH1 0x7 PUSH1 0x0 SWAP1 SLOAD SWAP1 PUSH2 0x100 EXP SWAP1 DIV PUSH20 0xFFFFFFFFFFFFFFFFFFFFFFFFFFFFFFFFFFFFFFFF AND DUP2 JUMP JUMPDEST PUSH1 0x3 PUSH1 0x20 MSTORE DUP1 PUSH1 0x0 MSTORE PUSH1 0x40 PUSH1 0x0 KECCAK256 PUSH1 0x0 SWAP2 POP SLOAD SWAP1 PUSH2 0x100 EXP SWAP1 DIV PUSH1 0xFF AND DUP2 JUMP JUMPDEST PUSH1 0x2 SLOAD DUP2 JUMP JUMPDEST PUSH1 0x0 DUP1 SLOAD SWAP1 PUSH2 0x100 EXP SWAP1 DIV PUSH20 0xFFFFFFFFFFFFFFFFFFFFFFFFFFFFFFFFFFFFFFFF AND DUP2 JUMP JUMPDEST PUSH1 0x3 PUSH1 0x0 CALLER PUSH20 0xFFFFFFFFFFFFFFFFFFFFFFFFFFFFFFFFFFFFFFFF AND PUSH20 0xFFFFFFFFFFFFFFFFFFFFFFFFFFFFFFFFFFFFFFFF AND DUP2 MSTORE PUSH1 0x20 ADD SWAP1 DUP2 MSTORE PUSH1 0x20 ADD PUSH1 0x0 KECCAK256 PUSH1 0x0 SWAP1 SLOAD SWAP1 PUSH2 0x100 EXP SWAP1 DIV PUSH1 0xFF AND PUSH2 0xD21 JUMPI PUSH1 0x40 MLOAD PUSH32 0x8C379A000000000000000000000000000000000000000000000000000000000 DUP2 MSTORE PUSH1 0x4 ADD PUSH2 0xD18 SWAP1 PUSH2 0x2069 JUMP JUMPDEST PUSH1 0x40 MLOAD DUP1 SWAP2 SUB SWAP1 REVERT JUMPDEST PUSH1 0x0 PUSH20 0xFFFFFFFFFFFFFFFFFFFFFFFFFFFFFFFFFFFFFFFF AND PUSH1 0x4 PUSH1 0x0 DUP4 DUP2 MSTORE PUSH1 0x20 ADD SWAP1 DUP2 MSTORE PUSH1 0x20 ADD PUSH1 0x0 KECCAK256 PUSH1 0x0 ADD PUSH1 0x0 SWAP1 SLOAD SWAP1 PUSH2 0x100 EXP SWAP1 DIV PUSH20 0xFFFFFFFFFFFFFFFFFFFFFFFFFFFFFFFFFFFFFFFF AND PUSH20 0xFFFFFFFFFFFFFFFFFFFFFFFFFFFFFFFFFFFFFFFF AND EQ ISZERO PUSH2 0xDC7 JUMPI PUSH1 0x40 MLOAD PUSH32 0x8C379A000000000000000000000000000000000000000000000000000000000 DUP2 MSTORE PUSH1 0x4 ADD PUSH2 0xDBE SWAP1 PUSH2 0x2149 JUMP JUMPDEST PUSH1 0x40 MLOAD DUP1 SWAP2 SUB SWAP1 REVERT JUMPDEST PUSH1 0x1 PUSH1 0x5 PUSH1 0x0 DUP4 DUP2 MSTORE PUSH1 0x20 ADD SWAP1 DUP2 MSTORE PUSH1 0x20 ADD PUSH1 0x0 KECCAK256 PUSH1 0x0 CALLER PUSH20 0xFFFFFFFFFFFFFFFFFFFFFFFFFFFFFFFFFFFFFFFF AND PUSH20 0xFFFFFFFFFFFFFFFFFFFFFFFFFFFFFFFFFFFFFFFF AND DUP2 MSTORE PUSH1 0x20 ADD SWAP1 DUP2 MSTORE PUSH1 0x20 ADD PUSH1 0x0 KECCAK256 PUSH1 0x0 PUSH2 0x100 EXP DUP2 SLOAD DUP2 PUSH1 0xFF MUL NOT AND SWAP1 DUP4 ISZERO ISZERO MUL OR SWAP1 SSTORE POP CALLER PUSH20 0xFFFFFFFFFFFFFFFFFFFFFFFFFFFFFFFFFFFFFFFF AND DUP2 PUSH32 0xEC6590FA5D86DB2E9B3CED5CAAE4916C2547C5A4BEF3CB4BDF11F1D1995A8EE4 PUSH1 0x40 MLOAD PUSH1 0x40 MLOAD DUP1 SWAP2 SUB SWAP1 LOG3 PUSH1 0x0 DUP1 JUMPDEST PUSH1 0x1 DUP1 SLOAD SWAP1 POP DUP2 LT ISZERO PUSH2 0xF60 JUMPI PUSH1 0x5 PUSH1 0x0 DUP5 DUP2 MSTORE PUSH1 0x20 ADD SWAP1 DUP2 MSTORE PUSH1 0x20 ADD PUSH1 0x0 KECCAK256 PUSH1 0x0 PUSH1 0x1 DUP4 DUP2 SLOAD DUP2 LT PUSH2 0xEAE JUMPI PUSH2 0xEAD PUSH2 0x24E6 JUMP JUMPDEST JUMPDEST SWAP1 PUSH1 0x0 MSTORE PUSH1 0x20 PUSH1 0x0 KECCAK256 ADD PUSH1 0x0 SWAP1 SLOAD SWAP1 PUSH2 0x100 EXP SWAP1 DIV PUSH20 0xFFFFFFFFFFFFFFFFFFFFFFFFFFFFFFFFFFFFFFFF AND PUSH20 0xFFFFFFFFFFFFFFFFFFFFFFFFFFFFFFFFFFFFFFFF AND PUSH20 0xFFFFFFFFFFFFFFFFFFFFFFFFFFFFFFFFFFFFFFFF AND DUP2 MSTORE PUSH1 0x20 ADD SWAP1 DUP2 MSTORE PUSH1 0x20 ADD PUSH1 0x0 KECCAK256 PUSH1 0x0 SWAP1 SLOAD SWAP1 PUSH2 0x100 EXP SWAP1 DIV PUSH1 0xFF AND ISZERO PUSH2 0xF35 JUMPI DUP2 DUP1 PUSH2 0xF31 SWAP1 PUSH2 0x23E2 JUMP JUMPDEST SWAP3 POP POP JUMPDEST PUSH1 0x2 SLOAD DUP3 EQ ISZERO PUSH2 0xF4D JUMPI PUSH2 0xF48 DUP4 PUSH2 0x1343 JUMP JUMPDEST PUSH2 0xF60 JUMP JUMPDEST DUP1 DUP1 PUSH2 0xF58 SWAP1 PUSH2 0x23E2 JUMP JUMPDEST SWAP2 POP POP PUSH2 0xE78 JUMP JUMPDEST POP POP POP JUMP JUMPDEST PUSH1 0x7 PUSH1 0x0 SWAP1 SLOAD SWAP1 PUSH2 0x100 EXP SWAP1 DIV PUSH20 0xFFFFFFFFFFFFFFFFFFFFFFFFFFFFFFFFFFFFFFFF AND PUSH20 0xFFFFFFFFFFFFFFFFFFFFFFFFFFFFFFFFFFFFFFFF AND CALLER PUSH20 0xFFFFFFFFFFFFFFFFFFFFFFFFFFFFFFFFFFFFFFFF AND EQ PUSH2 0xFF5 JUMPI PUSH1 0x40 MLOAD PUSH32 0x8C379A000000000000000000000000000000000000000000000000000000000 DUP2 MSTORE PUSH1 0x4 ADD PUSH2 0xFEC SWAP1 PUSH2 0x2129 JUMP JUMPDEST PUSH1 0x40 MLOAD DUP1 SWAP2 SUB SWAP1 REVERT JUMPDEST PUSH1 0x7 PUSH1 0x0 SWAP1 SLOAD SWAP1 PUSH2 0x100 EXP SWAP1 DIV PUSH20 0xFFFFFFFFFFFFFFFFFFFFFFFFFFFFFFFFFFFFFFFF AND PUSH20 0xFFFFFFFFFFFFFFFFFFFFFFFFFFFFFFFFFFFFFFFF AND DUP2 PUSH20 0xFFFFFFFFFFFFFFFFFFFFFFFFFFFFFFFFFFFFFFFF AND EQ ISZERO PUSH2 0x1086 JUMPI PUSH1 0x40 MLOAD PUSH32 0x8C379A000000000000000000000000000000000000000000000000000000000 DUP2 MSTORE PUSH1 0x4 ADD PUSH2 0x107D SWAP1 PUSH2 0x2089 JUMP JUMPDEST PUSH1 0x40 MLOAD DUP1 SWAP2 SUB SWAP1 REVERT JUMPDEST DUP1 PUSH20 0xFFFFFFFFFFFFFFFFFFFFFFFFFFFFFFFFFFFFFFFF AND PUSH1 0x0 DUP1 SLOAD SWAP1 PUSH2 0x100 EXP SWAP1 DIV PUSH20 0xFFFFFFFFFFFFFFFFFFFFFFFFFFFFFFFFFFFFFFFF AND PUSH20 0xFFFFFFFFFFFFFFFFFFFFFFFFFFFFFFFFFFFFFFFF AND PUSH32 0x8BE0079C531659141344CD1FD0A4F28419497F9722A3DAAFE3B4186F6B6457E0 PUSH1 0x40 MLOAD PUSH1 0x40 MLOAD DUP1 SWAP2 SUB SWAP1 LOG3 DUP1 PUSH1 0x0 DUP1 PUSH2 0x100 EXP DUP2 SLOAD DUP2 PUSH20 0xFFFFFFFFFFFFFFFFFFFFFFFFFFFFFFFFFFFFFFFF MUL NOT AND SWAP1 DUP4 PUSH20 0xFFFFFFFFFFFFFFFFFFFFFFFFFFFFFFFFFFFFFFFF AND MUL OR SWAP1 SSTORE POP POP JUMP JUMPDEST PUSH1 0x0 PUSH1 0x3 PUSH1 0x0 CALLER PUSH20 0xFFFFFFFFFFFFFFFFFFFFFFFFFFFFFFFFFFFFFFFF AND PUSH20 0xFFFFFFFFFFFFFFFFFFFFFFFFFFFFFFFFFFFFFFFF AND DUP2 MSTORE PUSH1 0x20 ADD SWAP1 DUP2 MSTORE PUSH1 0x20 ADD PUSH1 0x0 KECCAK256 PUSH1 0x0 SWAP1 SLOAD SWAP1 PUSH2 0x100 EXP SWAP1 DIV PUSH1 0xFF AND PUSH2 0x11D1 JUMPI PUSH1 0x40 MLOAD PUSH32 0x8C379A000000000000000000000000000000000000000000000000000000000 DUP2 MSTORE PUSH1 0x4 ADD PUSH2 0x11C8 SWAP1 PUSH2 0x2069 JUMP JUMPDEST PUSH1 0x40 MLOAD DUP1 SWAP2 SUB SWAP1 REVERT JUMPDEST PUSH1 0x0 PUSH2 0x11DE DUP6 DUP6 DUP6 PUSH2 0x1772 JUMP JUMPDEST SWAP1 POP PUSH1 0x40 MLOAD DUP1 PUSH1 0x80 ADD PUSH1 0x40 MSTORE DUP1 DUP7 PUSH20 0xFFFFFFFFFFFFFFFFFFFFFFFFFFFFFFFFFFFFFFFF AND DUP2 MSTORE PUSH1 0x20 ADD DUP6 DUP2 MSTORE PUSH1 0x20 ADD DUP5 DUP2 MSTORE PUSH1 0x20 ADD PUSH1 0x0 ISZERO ISZERO DUP2 MSTORE POP PUSH1 0x4 PUSH1 0x0 DUP4 DUP2 MSTORE PUSH1 0x20 ADD SWAP1 DUP2 MSTORE PUSH1 0x20 ADD PUSH1 0x0 KECCAK256 PUSH1 0x0 DUP3 ADD MLOAD DUP2 PUSH1 0x0 ADD PUSH1 0x0 PUSH2 0x100 EXP DUP2 SLOAD DUP2 PUSH20 0xFFFFFFFFFFFFFFFFFFFFFFFFFFFFFFFFFFFFFFFF MUL NOT AND SWAP1 DUP4 PUSH20 0xFFFFFFFFFFFFFFFFFFFFFFFFFFFFFFFFFFFFFFFF AND MUL OR SWAP1 SSTORE POP PUSH1 0x20 DUP3 ADD MLOAD DUP2 PUSH1 0x1 ADD SSTORE PUSH1 0x40 DUP3 ADD MLOAD DUP2 PUSH1 0x2 ADD SWAP1 DUP1 MLOAD SWAP1 PUSH1 0x20 ADD SWAP1 PUSH2 0x129A SWAP3 SWAP2 SWAP1 PUSH2 0x1A0F JUMP JUMPDEST POP PUSH1 0x60 DUP3 ADD MLOAD DUP2 PUSH1 0x3 ADD PUSH1 0x0 PUSH2 0x100 EXP DUP2 SLOAD DUP2 PUSH1 0xFF MUL NOT AND SWAP1 DUP4 ISZERO ISZERO MUL OR SWAP1 SSTORE POP SWAP1 POP POP PUSH1 0x6 DUP2 SWAP1 DUP1 PUSH1 0x1 DUP2 SLOAD ADD DUP1 DUP3 SSTORE DUP1 SWAP2 POP POP PUSH1 0x1 SWAP1 SUB SWAP1 PUSH1 0x0 MSTORE PUSH1 0x20 PUSH1 0x0 KECCAK256 ADD PUSH1 0x0 SWAP1 SWAP2 SWAP1 SWAP2 SWAP1 SWAP2 POP SSTORE DUP5 PUSH20 0xFFFFFFFFFFFFFFFFFFFFFFFFFFFFFFFFFFFFFFFF AND DUP2 PUSH32 0xA9AE4899C6660AED54DD2CFE0668075633CC1F864B27D69284536BF59BAE230C DUP7 DUP7 PUSH1 0x40 MLOAD PUSH2 0x1330 SWAP3 SWAP2 SWAP1 PUSH2 0x21E4 JUMP JUMPDEST PUSH1 0x40 MLOAD DUP1 SWAP2 SUB SWAP1 LOG3 DUP1 SWAP2 POP POP SWAP4 SWAP3 POP POP POP JUMP JUMPDEST PUSH1 0x3 PUSH1 0x0 CALLER PUSH20 0xFFFFFFFFFFFFFFFFFFFFFFFFFFFFFFFFFFFFFFFF AND PUSH20 0xFFFFFFFFFFFFFFFFFFFFFFFFFFFFFFFFFFFFFFFF AND DUP2 MSTORE PUSH1 0x20 ADD SWAP1 DUP2 MSTORE PUSH1 0x20 ADD PUSH1 0x0 KECCAK256 PUSH1 0x0 SWAP1 SLOAD SWAP1 PUSH2 0x100 EXP SWAP1 DIV PUSH1 0xFF AND PUSH2 0x13CF JUMPI PUSH1 0x40 MLOAD PUSH32 0x8C379A000000000000000000000000000000000000000000000000000000000 DUP2 MSTORE PUSH1 0x4 ADD PUSH2 0x13C6 SWAP1 PUSH2 0x2069 JUMP JUMPDEST PUSH1 0x40 MLOAD DUP1 SWAP2 SUB SWAP1 REVERT JUMPDEST PUSH1 0x0 PUSH20 0xFFFFFFFFFFFFFFFFFFFFFFFFFFFFFFFFFFFFFFFF AND PUSH1 0x4 PUSH1 0x0 DUP4 DUP2 MSTORE PUSH1 0x20 ADD SWAP1 DUP2 MSTORE PUSH1 0x20 ADD PUSH1 0x0 KECCAK256 PUSH1 0x0 ADD PUSH1 0x0 SWAP1 SLOAD SWAP1 PUSH2 0x100 EXP SWAP1 DIV PUSH20 0xFFFFFFFFFFFFFFFFFFFFFFFFFFFFFFFFFFFFFFFF AND PUSH20 0xFFFFFFFFFFFFFFFFFFFFFFFFFFFFFFFFFFFFFFFF AND EQ ISZERO PUSH2 0x1475 JUMPI PUSH1 0x40 MLOAD PUSH32 0x8C379A000000000000000000000000000000000000000000000000000000000 DUP2 MSTORE PUSH1 0x4 ADD PUSH2 0x146C SWAP1 PUSH2 0x2149 JUMP JUMPDEST PUSH1 0x40 MLOAD DUP1 SWAP2 SUB SWAP1 REVERT JUMPDEST PUSH1 0x4 PUSH1 0x0 DUP3 DUP2 MSTORE PUSH1 0x20 ADD SWAP1 DUP2 MSTORE PUSH1 0x20 ADD PUSH1 0x0 KECCAK256 PUSH1 0x3 ADD PUSH1 0x0 SWAP1 SLOAD SWAP1 PUSH2 0x100 EXP SWAP1 DIV PUSH1 0xFF AND ISZERO PUSH2 0x14D9 JUMPI PUSH1 0x40 MLOAD PUSH32 0x8C379A000000000000000000000000000000000000000000000000000000000 DUP2 MSTORE PUSH1 0x4 ADD PUSH2 0x14D0 SWAP1 PUSH2 0x2169 JUMP JUMPDEST PUSH1 0x40 MLOAD DUP1 SWAP2 SUB SWAP1 REVERT JUMPDEST PUSH1 0x0 DUP1 JUMPDEST PUSH1 0x1 DUP1 SLOAD SWAP1 POP DUP2 LT ISZERO PUSH2 0x1728 JUMPI PUSH1 0x5 PUSH1 0x0 DUP5 DUP2 MSTORE PUSH1 0x20 ADD SWAP1 DUP2 MSTORE PUSH1 0x20 ADD PUSH1 0x0 KECCAK256 PUSH1 0x0 PUSH1 0x1 DUP4 DUP2 SLOAD DUP2 LT PUSH2 0x1513 JUMPI PUSH2 0x1512 PUSH2 0x24E6 JUMP JUMPDEST JUMPDEST SWAP1 PUSH1 0x0 MSTORE PUSH1 0x20 PUSH1 0x0 KECCAK256 ADD PUSH1 0x0 SWAP1 SLOAD SWAP1 PUSH2 0x100 EXP SWAP1 DIV PUSH20 0xFFFFFFFFFFFFFFFFFFFFFFFFFFFFFFFFFFFFFFFF AND PUSH20 0xFFFFFFFFFFFFFFFFFFFFFFFFFFFFFFFFFFFFFFFF AND PUSH20 0xFFFFFFFFFFFFFFFFFFFFFFFFFFFFFFFFFFFFFFFF AND DUP2 MSTORE PUSH1 0x20 ADD SWAP1 DUP2 MSTORE PUSH1 0x20 ADD PUSH1 0x0 KECCAK256 PUSH1 0x0 SWAP1 SLOAD SWAP1 PUSH2 0x100 EXP SWAP1 DIV PUSH1 0xFF AND ISZERO PUSH2 0x159A JUMPI DUP2 DUP1 PUSH2 0x1596 SWAP1 PUSH2 0x23E2 JUMP JUMPDEST SWAP3 POP POP JUMPDEST PUSH1 0x2 SLOAD DUP3 EQ ISZERO PUSH2 0x1715 JUMPI PUSH1 0x1 PUSH1 0x4 PUSH1 0x0 DUP6 DUP2 MSTORE PUSH1 0x20 ADD SWAP1 DUP2 MSTORE PUSH1 0x20 ADD PUSH1 0x0 KECCAK256 PUSH1 0x3 ADD PUSH1 0x0 PUSH2 0x100 EXP DUP2 SLOAD DUP2 PUSH1 0xFF MUL NOT AND SWAP1 DUP4 ISZERO ISZERO MUL OR SWAP1 SSTORE POP PUSH1 0x0 PUSH1 0x4 PUSH1 0x0 DUP6 DUP2 MSTORE PUSH1 0x20 ADD SWAP1 DUP2 MSTORE PUSH1 0x20 ADD PUSH1 0x0 KECCAK256 PUSH1 0x0 ADD PUSH1 0x0 SWAP1 SLOAD SWAP1 PUSH2 0x100 EXP SWAP1 DIV PUSH20 0xFFFFFFFFFFFFFFFFFFFFFFFFFFFFFFFFFFFFFFFF AND PUSH20 0xFFFFFFFFFFFFFFFFFFFFFFFFFFFFFFFFFFFFFFFF AND PUSH1 0x4 PUSH1 0x0 DUP7 DUP2 MSTORE PUSH1 0x20 ADD SWAP1 DUP2 MSTORE PUSH1 0x20 ADD PUSH1 0x0 KECCAK256 PUSH1 0x1 ADD SLOAD PUSH1 0x4 PUSH1 0x0 DUP8 DUP2 MSTORE PUSH1 0x20 ADD SWAP1 DUP2 MSTORE PUSH1 0x20 ADD PUSH1 0x0 KECCAK256 PUSH1 0x2 ADD PUSH1 0x40 MLOAD PUSH2 0x165C SWAP2 SWAP1 PUSH2 0x1FB5 JUMP JUMPDEST PUSH1 0x0 PUSH1 0x40 MLOAD DUP1 DUP4 SUB DUP2 DUP6 DUP8 GAS CALL SWAP3 POP POP POP RETURNDATASIZE DUP1 PUSH1 0x0 DUP2 EQ PUSH2 0x1699 JUMPI PUSH1 0x40 MLOAD SWAP2 POP PUSH1 0x1F NOT PUSH1 0x3F RETURNDATASIZE ADD AND DUP3 ADD PUSH1 0x40 MSTORE RETURNDATASIZE DUP3 MSTORE RETURNDATASIZE PUSH1 0x0 PUSH1 0x20 DUP5 ADD RETURNDATACOPY PUSH2 0x169E JUMP JUMPDEST PUSH1 0x60 SWAP2 POP JUMPDEST POP POP SWAP1 POP DUP1 PUSH2 0x16E2 JUMPI PUSH1 0x40 MLOAD PUSH32 0x8C379A000000000000000000000000000000000000000000000000000000000 DUP2 MSTORE PUSH1 0x4 ADD PUSH2 0x16D9 SWAP1 PUSH2 0x20E9 JUMP JUMPDEST PUSH1 0x40 MLOAD DUP1 SWAP2 SUB SWAP1 REVERT JUMPDEST DUP4 PUSH32 0x7E9E1CB65DB4927B1815F498CBAA226A15C277816F7DF407573682110522C9B1 PUSH1 0x40 MLOAD PUSH1 0x40 MLOAD DUP1 SWAP2 SUB SWAP1 LOG2 POP PUSH2 0x1728 JUMP JUMPDEST DUP1 DUP1 PUSH2 0x1720 SWAP1 PUSH2 0x23E2 JUMP JUMPDEST SWAP2 POP POP PUSH2 0x14DD JUMP JUMPDEST POP PUSH1 0x2 SLOAD DUP2 LT ISZERO PUSH2 0x176E JUMPI PUSH1 0x40 MLOAD PUSH32 0x8C379A000000000000000000000000000000000000000000000000000000000 DUP2 MSTORE PUSH1 0x4 ADD PUSH2 0x1765 SWAP1 PUSH2 0x2189 JUMP JUMPDEST PUSH1 0x40 MLOAD DUP1 SWAP2 SUB SWAP1 REVERT JUMPDEST POP POP JUMP JUMPDEST PUSH1 0x0 DUP1 DUP5 DUP5 DUP5 TIMESTAMP PUSH1 0x40 MLOAD PUSH1 0x20 ADD PUSH2 0x178C SWAP5 SWAP4 SWAP3 SWAP2 SWAP1 PUSH2 0x1F6B JUMP JUMPDEST PUSH1 0x40 MLOAD PUSH1 0x20 DUP2 DUP4 SUB SUB DUP2 MSTORE SWAP1 PUSH1 0x40 MSTORE DUP1 MLOAD SWAP1 PUSH1 0x20 ADD KECCAK256 SWAP1 POP DUP1 SWAP2 POP POP SWAP4 SWAP3 POP POP POP JUMP JUMPDEST PUSH1 0x0 DUP1 SLOAD SWAP1 PUSH2 0x100 EXP SWAP1 DIV PUSH20 0xFFFFFFFFFFFFFFFFFFFFFFFFFFFFFFFFFFFFFFFF AND PUSH20 0xFFFFFFFFFFFFFFFFFFFFFFFFFFFFFFFFFFFFFFFF AND CALLER PUSH20 0xFFFFFFFFFFFFFFFFFFFFFFFFFFFFFFFFFFFFFFFF AND EQ PUSH2 0x183D JUMPI PUSH1 0x40 MLOAD PUSH32 0x8C379A000000000000000000000000000000000000000000000000000000000 DUP2 MSTORE PUSH1 0x4 ADD PUSH2 0x1834 SWAP1 PUSH2 0x20A9 JUMP JUMPDEST PUSH1 0x40 MLOAD DUP1 SWAP2 SUB SWAP1 REVERT JUMPDEST PUSH1 0x3 PUSH1 0x0 DUP3 PUSH20 0xFFFFFFFFFFFFFFFFFFFFFFFFFFFFFFFFFFFFFFFF AND PUSH20 0xFFFFFFFFFFFFFFFFFFFFFFFFFFFFFFFFFFFFFFFF AND DUP2 MSTORE PUSH1 0x20 ADD SWAP1 DUP2 MSTORE PUSH1 0x20 ADD PUSH1 0x0 KECCAK256 PUSH1 0x0 SWAP1 SLOAD SWAP1 PUSH2 0x100 EXP SWAP1 DIV PUSH1 0xFF AND ISZERO PUSH2 0x18CA JUMPI PUSH1 0x40 MLOAD PUSH32 0x8C379A000000000000000000000000000000000000000000000000000000000 DUP2 MSTORE PUSH1 0x4 ADD PUSH2 0x18C1 SWAP1 PUSH2 0x20C9 JUMP JUMPDEST PUSH1 0x40 MLOAD DUP1 SWAP2 SUB SWAP1 REVERT JUMPDEST PUSH1 0x1 DUP2 SWAP1 DUP1 PUSH1 0x1 DUP2 SLOAD ADD DUP1 DUP3 SSTORE DUP1 SWAP2 POP POP PUSH1 0x1 SWAP1 SUB SWAP1 PUSH1 0x0 MSTORE PUSH1 0x20 PUSH1 0x0 KECCAK256 ADD PUSH1 0x0 SWAP1 SWAP2 SWAP1 SWAP2 SWAP1 SWAP2 PUSH2 0x100 EXP DUP2 SLOAD DUP2 PUSH20 0xFFFFFFFFFFFFFFFFFFFFFFFFFFFFFFFFFFFFFFFF MUL NOT AND SWAP1 DUP4 PUSH20 0xFFFFFFFFFFFFFFFFFFFFFFFFFFFFFFFFFFFFFFFF AND MUL OR SWAP1 SSTORE POP PUSH1 0x1 PUSH1 0x3 PUSH1 0x0 DUP4 PUSH20 0xFFFFFFFFFFFFFFFFFFFFFFFFFFFFFFFFFFFFFFFF AND PUSH20 0xFFFFFFFFFFFFFFFFFFFFFFFFFFFFFFFFFFFFFFFF AND DUP2 MSTORE PUSH1 0x20 ADD SWAP1 DUP2 MSTORE PUSH1 0x20 ADD PUSH1 0x0 KECCAK256 PUSH1 0x0 PUSH2 0x100 EXP DUP2 SLOAD DUP2 PUSH1 0xFF MUL NOT AND SWAP1 DUP4 ISZERO ISZERO MUL OR SWAP1 SSTORE POP PUSH1 0x1 ISZERO ISZERO DUP2 PUSH20 0xFFFFFFFFFFFFFFFFFFFFFFFFFFFFFFFFFFFFFFFF AND PUSH32 0xC648F6265408CC54C0DC26D24BA51DFC9F35CE1A63BAA2228F65D93AAF11CC67 PUSH1 0x40 MLOAD PUSH1 0x40 MLOAD DUP1 SWAP2 SUB SWAP1 LOG3 POP JUMP JUMPDEST POP DUP1 SLOAD PUSH2 0x19DB SWAP1 PUSH2 0x237F JUMP JUMPDEST PUSH1 0x0 DUP3 SSTORE DUP1 PUSH1 0x1F LT PUSH2 0x19ED JUMPI POP PUSH2 0x1A0C JUMP JUMPDEST PUSH1 0x1F ADD PUSH1 0x20 SWAP1 DIV SWAP1 PUSH1 0x0 MSTORE PUSH1 0x20 PUSH1 0x0 KECCAK256 SWAP1 DUP2 ADD SWAP1 PUSH2 0x1A0B SWAP2 SWAP1 PUSH2 0x1A95 JUMP JUMPDEST JUMPDEST POP JUMP JUMPDEST DUP3 DUP1 SLOAD PUSH2 0x1A1B SWAP1 PUSH2 0x237F JUMP JUMPDEST SWAP1 PUSH1 0x0 MSTORE PUSH1 0x20 PUSH1 0x0 KECCAK256 SWAP1 PUSH1 0x1F ADD PUSH1 0x20 SWAP1 DIV DUP2 ADD SWAP3 DUP3 PUSH2 0x1A3D JUMPI PUSH1 0x0 DUP6 SSTORE PUSH2 0x1A84 JUMP JUMPDEST DUP3 PUSH1 0x1F LT PUSH2 0x1A56 JUMPI DUP1 MLOAD PUSH1 0xFF NOT AND DUP4 DUP1 ADD OR DUP6 SSTORE PUSH2 0x1A84 JUMP JUMPDEST DUP3 DUP1 ADD PUSH1 0x1 ADD DUP6 SSTORE DUP3 ISZERO PUSH2 0x1A84 JUMPI SWAP2 DUP3 ADD JUMPDEST DUP3 DUP2 GT ISZERO PUSH2 0x1A83 JUMPI DUP3 MLOAD DUP3 SSTORE SWAP2 PUSH1 0x20 ADD SWAP2 SWAP1 PUSH1 0x1 ADD SWAP1 PUSH2 0x1A68 JUMP JUMPDEST JUMPDEST POP SWAP1 POP PUSH2 0x1A91 SWAP2 SWAP1 PUSH2 0x1A95 JUMP JUMPDEST POP SWAP1 JUMP JUMPDEST JUMPDEST DUP1 DUP3 GT ISZERO PUSH2 0x1AAE JUMPI PUSH1 0x0 DUP2 PUSH1 0x0 SWAP1 SSTORE POP PUSH1 0x1 ADD PUSH2 0x1A96 JUMP JUMPDEST POP SWAP1 JUMP JUMPDEST PUSH1 0x0 PUSH2 0x1AC5 PUSH2 0x1AC0 DUP5 PUSH2 0x2239 JUMP JUMPDEST PUSH2 0x2214 JUMP JUMPDEST SWAP1 POP DUP3 DUP2 MSTORE PUSH1 0x20 DUP2 ADD DUP5 DUP5 DUP5 ADD GT ISZERO PUSH2 0x1AE1 JUMPI PUSH2 0x1AE0 PUSH2 0x2549 JUMP JUMPDEST JUMPDEST PUSH2 0x1AEC DUP5 DUP3 DUP6 PUSH2 0x233D JUMP JUMPDEST POP SWAP4 SWAP3 POP POP POP JUMP JUMPDEST PUSH1 0x0 DUP2 CALLDATALOAD SWAP1 POP PUSH2 0x1B03 DUP2 PUSH2 0x2843 JUMP JUMPDEST SWAP3 SWAP2 POP POP JUMP JUMPDEST PUSH1 0x0 DUP2 CALLDATALOAD SWAP1 POP PUSH2 0x1B18 DUP2 PUSH2 0x285A JUMP JUMPDEST SWAP3 SWAP2 POP POP JUMP JUMPDEST PUSH1 0x0 DUP3 PUSH1 0x1F DUP4 ADD SLT PUSH2 0x1B33 JUMPI PUSH2 0x1B32 PUSH2 0x2544 JUMP JUMPDEST JUMPDEST DUP2 CALLDATALOAD PUSH2 0x1B43 DUP5 DUP3 PUSH1 0x20 DUP7 ADD PUSH2 0x1AB2 JUMP JUMPDEST SWAP2 POP POP SWAP3 SWAP2 POP POP JUMP JUMPDEST PUSH1 0x0 DUP2 CALLDATALOAD SWAP1 POP PUSH2 0x1B5B DUP2 PUSH2 0x2871 JUMP JUMPDEST SWAP3 SWAP2 POP POP JUMP JUMPDEST PUSH1 0x0 PUSH1 0x20 DUP3 DUP5 SUB SLT ISZERO PUSH2 0x1B77 JUMPI PUSH2 0x1B76 PUSH2 0x2553 JUMP JUMPDEST JUMPDEST PUSH1 0x0 PUSH2 0x1B85 DUP5 DUP3 DUP6 ADD PUSH2 0x1AF4 JUMP JUMPDEST SWAP2 POP POP SWAP3 SWAP2 POP POP JUMP JUMPDEST PUSH1 0x0 DUP1 PUSH1 0x0 PUSH1 0x60 DUP5 DUP7 SUB SLT ISZERO PUSH2 0x1BA7 JUMPI PUSH2 0x1BA6 PUSH2 0x2553 JUMP JUMPDEST JUMPDEST PUSH1 0x0 PUSH2 0x1BB5 DUP7 DUP3 DUP8 ADD PUSH2 0x1AF4 JUMP JUMPDEST SWAP4 POP POP PUSH1 0x20 PUSH2 0x1BC6 DUP7 DUP3 DUP8 ADD PUSH2 0x1B4C JUMP JUMPDEST SWAP3 POP POP PUSH1 0x40 DUP5 ADD CALLDATALOAD PUSH8 0xFFFFFFFFFFFFFFFF DUP2 GT ISZERO PUSH2 0x1BE7 JUMPI PUSH2 0x1BE6 PUSH2 0x254E JUMP JUMPDEST JUMPDEST PUSH2 0x1BF3 DUP7 DUP3 DUP8 ADD PUSH2 0x1B1E JUMP JUMPDEST SWAP2 POP POP SWAP3 POP SWAP3 POP SWAP3 JUMP JUMPDEST PUSH1 0x0 PUSH1 0x20 DUP3 DUP5 SUB SLT ISZERO PUSH2 0x1C13 JUMPI PUSH2 0x1C12 PUSH2 0x2553 JUMP JUMPDEST JUMPDEST PUSH1 0x0 PUSH2 0x1C21 DUP5 DUP3 DUP6 ADD PUSH2 0x1B09 JUMP JUMPDEST SWAP2 POP POP SWAP3 SWAP2 POP POP JUMP JUMPDEST PUSH1 0x0 DUP1 PUSH1 0x40 DUP4 DUP6 SUB SLT ISZERO PUSH2 0x1C41 JUMPI PUSH2 0x1C40 PUSH2 0x2553 JUMP JUMPDEST JUMPDEST PUSH1 0x0 PUSH2 0x1C4F DUP6 DUP3 DUP7 ADD PUSH2 0x1B09 JUMP JUMPDEST SWAP3 POP POP PUSH1 0x20 PUSH2 0x1C60 DUP6 DUP3 DUP7 ADD PUSH2 0x1AF4 JUMP JUMPDEST SWAP2 POP POP SWAP3 POP SWAP3 SWAP1 POP JUMP JUMPDEST PUSH1 0x0 PUSH1 0x20 DUP3 DUP5 SUB SLT ISZERO PUSH2 0x1C80 JUMPI PUSH2 0x1C7F PUSH2 0x2553 JUMP JUMPDEST JUMPDEST PUSH1 0x0 PUSH2 0x1C8E DUP5 DUP3 DUP6 ADD PUSH2 0x1B4C JUMP JUMPDEST SWAP2 POP POP SWAP3 SWAP2 POP POP JUMP JUMPDEST PUSH2 0x1CA0 DUP2 PUSH2 0x22EB JUMP JUMPDEST DUP3 MSTORE POP POP JUMP JUMPDEST PUSH2 0x1CB7 PUSH2 0x1CB2 DUP3 PUSH2 0x22EB JUMP JUMPDEST PUSH2 0x242B JUMP JUMPDEST DUP3 MSTORE POP POP JUMP JUMPDEST PUSH2 0x1CC6 DUP2 PUSH2 0x22FD JUMP JUMPDEST DUP3 MSTORE POP POP JUMP JUMPDEST PUSH2 0x1CD5 DUP2 PUSH2 0x2309 JUMP JUMPDEST DUP3 MSTORE POP POP JUMP JUMPDEST PUSH1 0x0 PUSH2 0x1CE6 DUP3 PUSH2 0x227F JUMP JUMPDEST PUSH2 0x1CF0 DUP2 DUP6 PUSH2 0x228A JUMP JUMPDEST SWAP4 POP PUSH2 0x1D00 DUP2 DUP6 PUSH1 0x20 DUP7 ADD PUSH2 0x234C JUMP JUMPDEST PUSH2 0x1D09 DUP2 PUSH2 0x2558 JUMP JUMPDEST DUP5 ADD SWAP2 POP POP SWAP3 SWAP2 POP POP JUMP JUMPDEST PUSH1 0x0 PUSH2 0x1D1F DUP3 PUSH2 0x227F JUMP JUMPDEST PUSH2 0x1D29 DUP2 DUP6 PUSH2 0x229B JUMP JUMPDEST SWAP4 POP PUSH2 0x1D39 DUP2 DUP6 PUSH1 0x20 DUP7 ADD PUSH2 0x234C JUMP JUMPDEST DUP1 DUP5 ADD SWAP2 POP POP SWAP3 SWAP2 POP POP JUMP JUMPDEST PUSH1 0x0 DUP2 SLOAD PUSH2 0x1D52 DUP2 PUSH2 0x237F JUMP JUMPDEST PUSH2 0x1D5C DUP2 DUP7 PUSH2 0x229B JUMP JUMPDEST SWAP5 POP PUSH1 0x1 DUP3 AND PUSH1 0x0 DUP2 EQ PUSH2 0x1D77 JUMPI PUSH1 0x1 DUP2 EQ PUSH2 0x1D88 JUMPI PUSH2 0x1DBB JUMP JUMPDEST PUSH1 0xFF NOT DUP4 AND DUP7 MSTORE DUP2 DUP7 ADD SWAP4 POP PUSH2 0x1DBB JUMP JUMPDEST PUSH2 0x1D91 DUP6 PUSH2 0x226A JUMP JUMPDEST PUSH1 0x0 JUMPDEST DUP4 DUP2 LT ISZERO PUSH2 0x1DB3 JUMPI DUP2 SLOAD DUP2 DUP10 ADD MSTORE PUSH1 0x1 DUP3 ADD SWAP2 POP PUSH1 0x20 DUP2 ADD SWAP1 POP PUSH2 0x1D94 JUMP JUMPDEST DUP4 DUP9 ADD SWAP6 POP POP POP JUMPDEST POP POP POP SWAP3 SWAP2 POP POP JUMP JUMPDEST PUSH1 0x0 PUSH2 0x1DD1 PUSH1 0x24 DUP4 PUSH2 0x22A6 JUMP JUMPDEST SWAP2 POP PUSH2 0x1DDC DUP3 PUSH2 0x2576 JUMP JUMPDEST PUSH1 0x40 DUP3 ADD SWAP1 POP SWAP2 SWAP1 POP JUMP JUMPDEST PUSH1 0x0 PUSH2 0x1DF4 PUSH1 0x31 DUP4 PUSH2 0x22A6 JUMP JUMPDEST SWAP2 POP PUSH2 0x1DFF DUP3 PUSH2 0x25C5 JUMP JUMPDEST PUSH1 0x40 DUP3 ADD SWAP1 POP SWAP2 SWAP1 POP JUMP JUMPDEST PUSH1 0x0 PUSH2 0x1E17 PUSH1 0x26 DUP4 PUSH2 0x22A6 JUMP JUMPDEST SWAP2 POP PUSH2 0x1E22 DUP3 PUSH2 0x2614 JUMP JUMPDEST PUSH1 0x40 DUP3 ADD SWAP1 POP SWAP2 SWAP1 POP JUMP JUMPDEST PUSH1 0x0 PUSH2 0x1E3A PUSH1 0x1B DUP4 PUSH2 0x22A6 JUMP JUMPDEST SWAP2 POP PUSH2 0x1E45 DUP3 PUSH2 0x2663 JUMP JUMPDEST PUSH1 0x20 DUP3 ADD SWAP1 POP SWAP2 SWAP1 POP JUMP JUMPDEST PUSH1 0x0 PUSH2 0x1E5D PUSH1 0x1C DUP4 PUSH2 0x22A6 JUMP JUMPDEST SWAP2 POP PUSH2 0x1E68 DUP3 PUSH2 0x268C JUMP JUMPDEST PUSH1 0x20 DUP3 ADD SWAP1 POP SWAP2 SWAP1 POP JUMP JUMPDEST PUSH1 0x0 PUSH2 0x1E80 PUSH1 0x1B DUP4 PUSH2 0x22A6 JUMP JUMPDEST SWAP2 POP PUSH2 0x1E8B DUP3 PUSH2 0x26B5 JUMP JUMPDEST PUSH1 0x20 DUP3 ADD SWAP1 POP SWAP2 SWAP1 POP JUMP JUMPDEST PUSH1 0x0 PUSH2 0x1EA3 PUSH1 0x30 DUP4 PUSH2 0x22A6 JUMP JUMPDEST SWAP2 POP PUSH2 0x1EAE DUP3 PUSH2 0x26DE JUMP JUMPDEST PUSH1 0x40 DUP3 ADD SWAP1 POP SWAP2 SWAP1 POP JUMP JUMPDEST PUSH1 0x0 PUSH2 0x1EC6 PUSH1 0x1A DUP4 PUSH2 0x22A6 JUMP JUMPDEST SWAP2 POP PUSH2 0x1ED1 DUP3 PUSH2 0x272D JUMP JUMPDEST PUSH1 0x20 DUP3 ADD SWAP1 POP SWAP2 SWAP1 POP JUMP JUMPDEST PUSH1 0x0 PUSH2 0x1EE9 PUSH1 0x25 DUP4 PUSH2 0x22A6 JUMP JUMPDEST SWAP2 POP PUSH2 0x1EF4 DUP3 PUSH2 0x2756 JUMP JUMPDEST PUSH1 0x40 DUP3 ADD SWAP1 POP SWAP2 SWAP1 POP JUMP JUMPDEST PUSH1 0x0 PUSH2 0x1F0C PUSH1 0x31 DUP4 PUSH2 0x22A6 JUMP JUMPDEST SWAP2 POP PUSH2 0x1F17 DUP3 PUSH2 0x27A5 JUMP JUMPDEST PUSH1 0x40 DUP3 ADD SWAP1 POP SWAP2 SWAP1 POP JUMP JUMPDEST PUSH1 0x0 PUSH2 0x1F2F PUSH1 0x3E DUP4 PUSH2 0x22A6 JUMP JUMPDEST SWAP2 POP PUSH2 0x1F3A DUP3 PUSH2 0x27F4 JUMP JUMPDEST PUSH1 0x40 DUP3 ADD SWAP1 POP SWAP2 SWAP1 POP JUMP JUMPDEST PUSH2 0x1F4E DUP2 PUSH2 0x2333 JUMP JUMPDEST DUP3 MSTORE POP POP JUMP JUMPDEST PUSH2 0x1F65 PUSH2 0x1F60 DUP3 PUSH2 0x2333 JUMP JUMPDEST PUSH2 0x244F JUMP JUMPDEST DUP3 MSTORE POP POP JUMP JUMPDEST PUSH1 0x0 PUSH2 0x1F77 DUP3 DUP8 PUSH2 0x1CA6 JUMP JUMPDEST PUSH1 0x14 DUP3 ADD SWAP2 POP PUSH2 0x1F87 DUP3 DUP7 PUSH2 0x1F54 JUMP JUMPDEST PUSH1 0x20 DUP3 ADD SWAP2 POP PUSH2 0x1F97 DUP3 DUP6 PUSH2 0x1D14 JUMP JUMPDEST SWAP2 POP PUSH2 0x1FA3 DUP3 DUP5 PUSH2 0x1F54 JUMP JUMPDEST PUSH1 0x20 DUP3 ADD SWAP2 POP DUP2 SWAP1 POP SWAP6 SWAP5 POP POP POP POP POP JUMP JUMPDEST PUSH1 0x0 PUSH2 0x1FC1 DUP3 DUP5 PUSH2 0x1D45 JUMP JUMPDEST SWAP2 POP DUP2 SWAP1 POP SWAP3 SWAP2 POP POP JUMP JUMPDEST PUSH1 0x0 PUSH1 0x20 DUP3 ADD SWAP1 POP PUSH2 0x1FE1 PUSH1 0x0 DUP4 ADD DUP5 PUSH2 0x1C97 JUMP JUMPDEST SWAP3 SWAP2 POP POP JUMP JUMPDEST PUSH1 0x0 PUSH1 0x80 DUP3 ADD SWAP1 POP PUSH2 0x1FFC PUSH1 0x0 DUP4 ADD DUP8 PUSH2 0x1C97 JUMP JUMPDEST PUSH2 0x2009 PUSH1 0x20 DUP4 ADD DUP7 PUSH2 0x1F45 JUMP JUMPDEST DUP2 DUP2 SUB PUSH1 0x40 DUP4 ADD MSTORE PUSH2 0x201B DUP2 DUP6 PUSH2 0x1CDB JUMP JUMPDEST SWAP1 POP PUSH2 0x202A PUSH1 0x60 DUP4 ADD DUP5 PUSH2 0x1CBD JUMP JUMPDEST SWAP6 SWAP5 POP POP POP POP POP JUMP JUMPDEST PUSH1 0x0 PUSH1 0x20 DUP3 ADD SWAP1 POP PUSH2 0x2048 PUSH1 0x0 DUP4 ADD DUP5 PUSH2 0x1CBD JUMP JUMPDEST SWAP3 SWAP2 POP POP JUMP JUMPDEST PUSH1 0x0 PUSH1 0x20 DUP3 ADD SWAP1 POP PUSH2 0x2063 PUSH1 0x0 DUP4 ADD DUP5 PUSH2 0x1CCC JUMP JUMPDEST SWAP3 SWAP2 POP POP JUMP JUMPDEST PUSH1 0x0 PUSH1 0x20 DUP3 ADD SWAP1 POP DUP2 DUP2 SUB PUSH1 0x0 DUP4 ADD MSTORE PUSH2 0x2082 DUP2 PUSH2 0x1DC4 JUMP JUMPDEST SWAP1 POP SWAP2 SWAP1 POP JUMP JUMPDEST PUSH1 0x0 PUSH1 0x20 DUP3 ADD SWAP1 POP DUP2 DUP2 SUB PUSH1 0x0 DUP4 ADD MSTORE PUSH2 0x20A2 DUP2 PUSH2 0x1DE7 JUMP JUMPDEST SWAP1 POP SWAP2 SWAP1 POP JUMP JUMPDEST PUSH1 0x0 PUSH1 0x20 DUP3 ADD SWAP1 POP DUP2 DUP2 SUB PUSH1 0x0 DUP4 ADD MSTORE PUSH2 0x20C2 DUP2 PUSH2 0x1E0A JUMP JUMPDEST SWAP1 POP SWAP2 SWAP1 POP JUMP JUMPDEST PUSH1 0x0 PUSH1 0x20 DUP3 ADD SWAP1 POP DUP2 DUP2 SUB PUSH1 0x0 DUP4 ADD MSTORE PUSH2 0x20E2 DUP2 PUSH2 0x1E2D JUMP JUMPDEST SWAP1 POP SWAP2 SWAP1 POP JUMP JUMPDEST PUSH1 0x0 PUSH1 0x20 DUP3 ADD SWAP1 POP DUP2 DUP2 SUB PUSH1 0x0 DUP4 ADD MSTORE PUSH2 0x2102 DUP2 PUSH2 0x1E50 JUMP JUMPDEST SWAP1 POP SWAP2 SWAP1 POP JUMP JUMPDEST PUSH1 0x0 PUSH1 0x20 DUP3 ADD SWAP1 POP DUP2 DUP2 SUB PUSH1 0x0 DUP4 ADD MSTORE PUSH2 0x2122 DUP2 PUSH2 0x1E73 JUMP JUMPDEST SWAP1 POP SWAP2 SWAP1 POP JUMP JUMPDEST PUSH1 0x0 PUSH1 0x20 DUP3 ADD SWAP1 POP DUP2 DUP2 SUB PUSH1 0x0 DUP4 ADD MSTORE PUSH2 0x2142 DUP2 PUSH2 0x1E96 JUMP JUMPDEST SWAP1 POP SWAP2 SWAP1 POP JUMP JUMPDEST PUSH1 0x0 PUSH1 0x20 DUP3 ADD SWAP1 POP DUP2 DUP2 SUB PUSH1 0x0 DUP4 ADD MSTORE PUSH2 0x2162 DUP2 PUSH2 0x1EB9 JUMP JUMPDEST SWAP1 POP SWAP2 SWAP1 POP JUMP JUMPDEST PUSH1 0x0 PUSH1 0x20 DUP3 ADD SWAP1 POP DUP2 DUP2 SUB PUSH1 0x0 DUP4 ADD MSTORE PUSH2 0x2182 DUP2 PUSH2 0x1EDC JUMP JUMPDEST SWAP1 POP SWAP2 SWAP1 POP JUMP JUMPDEST PUSH1 0x0 PUSH1 0x20 DUP3 ADD SWAP1 POP DUP2 DUP2 SUB PUSH1 0x0 DUP4 ADD MSTORE PUSH2 0x21A2 DUP2 PUSH2 0x1EFF JUMP JUMPDEST SWAP1 POP SWAP2 SWAP1 POP JUMP JUMPDEST PUSH1 0x0 PUSH1 0x20 DUP3 ADD SWAP1 POP DUP2 DUP2 SUB PUSH1 0x0 DUP4 ADD MSTORE PUSH2 0x21C2 DUP2 PUSH2 0x1F22 JUMP JUMPDEST SWAP1 POP SWAP2 SWAP1 POP JUMP JUMPDEST PUSH1 0x0 PUSH1 0x20 DUP3 ADD SWAP1 POP PUSH2 0x21DE PUSH1 0x0 DUP4 ADD DUP5 PUSH2 0x1F45 JUMP JUMPDEST SWAP3 SWAP2 POP POP JUMP JUMPDEST PUSH1 0x0 PUSH1 0x40 DUP3 ADD SWAP1 POP PUSH2 0x21F9 PUSH1 0x0 DUP4 ADD DUP6 PUSH2 0x1F45 JUMP JUMPDEST DUP2 DUP2 SUB PUSH1 0x20 DUP4 ADD MSTORE PUSH2 0x220B DUP2 DUP5 PUSH2 0x1CDB JUMP JUMPDEST SWAP1 POP SWAP4 SWAP3 POP POP POP JUMP JUMPDEST PUSH1 0x0 PUSH2 0x221E PUSH2 0x222F JUMP JUMPDEST SWAP1 POP PUSH2 0x222A DUP3 DUP3 PUSH2 0x23B1 JUMP JUMPDEST SWAP2 SWAP1 POP JUMP JUMPDEST PUSH1 0x0 PUSH1 0x40 MLOAD SWAP1 POP SWAP1 JUMP JUMPDEST PUSH1 0x0 PUSH8 0xFFFFFFFFFFFFFFFF DUP3 GT ISZERO PUSH2 0x2254 JUMPI PUSH2 0x2253 PUSH2 0x2515 JUMP JUMPDEST JUMPDEST PUSH2 0x225D DUP3 PUSH2 0x2558 JUMP JUMPDEST SWAP1 POP PUSH1 0x20 DUP2 ADD SWAP1 POP SWAP2 SWAP1 POP JUMP JUMPDEST PUSH1 0x0 DUP2 SWAP1 POP DUP2 PUSH1 0x0 MSTORE PUSH1 0x20 PUSH1 0x0 KECCAK256 SWAP1 POP SWAP2 SWAP1 POP JUMP JUMPDEST PUSH1 0x0 DUP2 MLOAD SWAP1 POP SWAP2 SWAP1 POP JUMP JUMPDEST PUSH1 0x0 DUP3 DUP3 MSTORE PUSH1 0x20 DUP3 ADD SWAP1 POP SWAP3 SWAP2 POP POP JUMP JUMPDEST PUSH1 0x0 DUP2 SWAP1 POP SWAP3 SWAP2 POP POP JUMP JUMPDEST PUSH1 0x0 DUP3 DUP3 MSTORE PUSH1 0x20 DUP3 ADD SWAP1 POP SWAP3 SWAP2 POP POP JUMP JUMPDEST PUSH1 0x0 PUSH2 0x22C2 DUP3 PUSH2 0x2333 JUMP JUMPDEST SWAP2 POP PUSH2 0x22CD DUP4 PUSH2 0x2333 JUMP JUMPDEST SWAP3 POP DUP3 DUP3 LT ISZERO PUSH2 0x22E0 JUMPI PUSH2 0x22DF PUSH2 0x2459 JUMP JUMPDEST JUMPDEST DUP3 DUP3 SUB SWAP1 POP SWAP3 SWAP2 POP POP JUMP JUMPDEST PUSH1 0x0 PUSH2 0x22F6 DUP3 PUSH2 0x2313 JUMP JUMPDEST SWAP1 POP SWAP2 SWAP1 POP JUMP JUMPDEST PUSH1 0x0 DUP2 ISZERO ISZERO SWAP1 POP SWAP2 SWAP1 POP JUMP JUMPDEST PUSH1 0x0 DUP2 SWAP1 POP SWAP2 SWAP1 POP JUMP JUMPDEST PUSH1 0x0 PUSH20 0xFFFFFFFFFFFFFFFFFFFFFFFFFFFFFFFFFFFFFFFF DUP3 AND SWAP1 POP SWAP2 SWAP1 POP JUMP JUMPDEST PUSH1 0x0 DUP2 SWAP1 POP SWAP2 SWAP1 POP JUMP JUMPDEST DUP3 DUP2 DUP4 CALLDATACOPY PUSH1 0x0 DUP4 DUP4 ADD MSTORE POP POP POP JUMP JUMPDEST PUSH1 0x0 JUMPDEST DUP4 DUP2 LT ISZERO PUSH2 0x236A JUMPI DUP1 DUP3 ADD MLOAD DUP2 DUP5 ADD MSTORE PUSH1 0x20 DUP2 ADD SWAP1 POP PUSH2 0x234F JUMP JUMPDEST DUP4 DUP2 GT ISZERO PUSH2 0x2379 JUMPI PUSH1 0x0 DUP5 DUP5 ADD MSTORE JUMPDEST POP POP POP POP JUMP JUMPDEST PUSH1 0x0 PUSH1 0x2 DUP3 DIV SWAP1 POP PUSH1 0x1 DUP3 AND DUP1 PUSH2 0x2397 JUMPI PUSH1 0x7F DUP3 AND SWAP2 POP JUMPDEST PUSH1 0x20 DUP3 LT DUP2 EQ ISZERO PUSH2 0x23AB JUMPI PUSH2 0x23AA PUSH2 0x2488 JUMP JUMPDEST JUMPDEST POP SWAP2 SWAP1 POP JUMP JUMPDEST PUSH2 0x23BA DUP3 PUSH2 0x2558 JUMP JUMPDEST DUP2 ADD DUP2 DUP2 LT PUSH8 0xFFFFFFFFFFFFFFFF DUP3 GT OR ISZERO PUSH2 0x23D9 JUMPI PUSH2 0x23D8 PUSH2 0x2515 JUMP JUMPDEST JUMPDEST DUP1 PUSH1 0x40 MSTORE POP POP POP JUMP JUMPDEST PUSH1 0x0 PUSH2 0x23ED DUP3 PUSH2 0x2333 JUMP JUMPDEST SWAP2 POP PUSH32 0xFFFFFFFFFFFFFFFFFFFFFFFFFFFFFFFFFFFFFFFFFFFFFFFFFFFFFFFFFFFFFFFF DUP3 EQ ISZERO PUSH2 0x2420 JUMPI PUSH2 0x241F PUSH2 0x2459 JUMP JUMPDEST JUMPDEST PUSH1 0x1 DUP3 ADD SWAP1 POP SWAP2 SWAP1 POP JUMP JUMPDEST PUSH1 0x0 PUSH2 0x2436 DUP3 PUSH2 0x243D JUMP JUMPDEST SWAP1 POP SWAP2 SWAP1 POP JUMP JUMPDEST PUSH1 0x0 PUSH2 0x2448 DUP3 PUSH2 0x2569 JUMP JUMPDEST SWAP1 POP SWAP2 SWAP1 POP JUMP JUMPDEST PUSH1 0x0 DUP2 SWAP1 POP SWAP2 SWAP1 POP JUMP JUMPDEST PUSH32 0x4E487B7100000000000000000000000000000000000000000000000000000000 PUSH1 0x0 MSTORE PUSH1 0x11 PUSH1 0x4 MSTORE PUSH1 0x24 PUSH1 0x0 REVERT JUMPDEST PUSH32 0x4E487B7100000000000000000000000000000000000000000000000000000000 PUSH1 0x0 MSTORE PUSH1 0x22 PUSH1 0x4 MSTORE PUSH1 0x24 PUSH1 0x0 REVERT JUMPDEST PUSH32 0x4E487B7100000000000000000000000000000000000000000000000000000000 PUSH1 0x0 MSTORE PUSH1 0x31 PUSH1 0x4 MSTORE PUSH1 0x24 PUSH1 0x0 REVERT JUMPDEST PUSH32 0x4E487B7100000000000000000000000000000000000000000000000000000000 PUSH1 0x0 MSTORE PUSH1 0x32 PUSH1 0x4 MSTORE PUSH1 0x24 PUSH1 0x0 REVERT JUMPDEST PUSH32 0x4E487B7100000000000000000000000000000000000000000000000000000000 PUSH1 0x0 MSTORE PUSH1 0x41 PUSH1 0x4 MSTORE PUSH1 0x24 PUSH1 0x0 REVERT JUMPDEST PUSH1 0x0 DUP1 REVERT JUMPDEST PUSH1 0x0 DUP1 REVERT JUMPDEST PUSH1 0x0 DUP1 REVERT JUMPDEST PUSH1 0x0 DUP1 REVERT JUMPDEST PUSH1 0x0 PUSH1 0x1F NOT PUSH1 0x1F DUP4 ADD AND SWAP1 POP SWAP2 SWAP1 POP JUMP JUMPDEST PUSH1 0x0 DUP2 PUSH1 0x60 SHL SWAP1 POP SWAP2 SWAP1 POP JUMP JUMPDEST PUSH32 0x4F6E6C79207369676E6572732063616E20706572666F726D2074686973206163 PUSH1 0x0 DUP3 ADD MSTORE PUSH32 0x74696F6E00000000000000000000000000000000000000000000000000000000 PUSH1 0x20 DUP3 ADD MSTORE POP JUMP JUMPDEST PUSH32 0x4E6577207265636F7665727920616464726573732073686F756C64206E6F7420 PUSH1 0x0 DUP3 ADD MSTORE PUSH32 0x6D617463682063757272656E74206F6E65000000000000000000000000000000 PUSH1 0x20 DUP3 ADD MSTORE POP JUMP JUMPDEST PUSH32 0x4F6E6C7920746865206F776E65722063616E20706572666F726D207468697320 PUSH1 0x0 DUP3 ADD MSTORE PUSH32 0x616374696F6E0000000000000000000000000000000000000000000000000000 PUSH1 0x20 DUP3 ADD MSTORE POP JUMP JUMPDEST PUSH32 0x4164647265737320697320616C72656164792061207369676E65720000000000 PUSH1 0x0 DUP3 ADD MSTORE POP JUMP JUMPDEST PUSH32 0x5472616E73616374696F6E20657865637574696F6E206661696C656400000000 PUSH1 0x0 DUP3 ADD MSTORE POP JUMP JUMPDEST PUSH32 0x5468652061646472657373206973206E6F742061207369676E65720000000000 PUSH1 0x0 DUP3 ADD MSTORE POP JUMP JUMPDEST PUSH32 0x4F6E6C7920746865207265636F7665727920616464726573732063616E206361 PUSH1 0x0 DUP3 ADD MSTORE PUSH32 0x6C6C20746869732066756E6374696F6E00000000000000000000000000000000 PUSH1 0x20 DUP3 ADD MSTORE POP JUMP JUMPDEST PUSH32 0x5472616E73616374696F6E20646F6573206E6F74206578697374000000000000 PUSH1 0x0 DUP3 ADD MSTORE POP JUMP JUMPDEST PUSH32 0x5472616E73616374696F6E2068617320616C7265616479206265656E20657865 PUSH1 0x0 DUP3 ADD MSTORE PUSH32 0x6375746564000000000000000000000000000000000000000000000000000000 PUSH1 0x20 DUP3 ADD MSTORE POP JUMP JUMPDEST PUSH32 0x4E6F7420656E6F756768207369676E657273206861766520617070726F766564 PUSH1 0x0 DUP3 ADD MSTORE PUSH32 0x2074686973207472616E73616374696F6E000000000000000000000000000000 PUSH1 0x20 DUP3 ADD MSTORE POP JUMP JUMPDEST PUSH32 0x43616E6E6F742072656D6F7665207369676E65722C206D696E696D756D207265 PUSH1 0x0 DUP3 ADD MSTORE PUSH32 0x717569726564207369676E6572732077696C6C206E6F74206265206D65740000 PUSH1 0x20 DUP3 ADD MSTORE POP JUMP JUMPDEST PUSH2 0x284C DUP2 PUSH2 0x22EB JUMP JUMPDEST DUP2 EQ PUSH2 0x2857 JUMPI PUSH1 0x0 DUP1 REVERT JUMPDEST POP JUMP JUMPDEST PUSH2 0x2863 DUP2 PUSH2 0x2309 JUMP JUMPDEST DUP2 EQ PUSH2 0x286E JUMPI PUSH1 0x0 DUP1 REVERT JUMPDEST POP JUMP JUMPDEST PUSH2 0x287A DUP2 PUSH2 0x2333 JUMP JUMPDEST DUP2 EQ PUSH2 0x2885 JUMPI PUSH1 0x0 DUP1 REVERT JUMPDEST POP JUMP INVALID LOG2 PUSH5 0x6970667358 0x22 SLT KECCAK256 0xDF NOT 0xD DIV PUSH18 0xA03AFAD3FF2A3182A54BBDEA8A63E4F4D9B9 COINBASE 0xFC 0xC8 SWAP4 0xBF 0xD JUMPI 0x4A 0x23 PUSH5 0x736F6C6343 STOP ADDMOD SMOD STOP CALLER "
				},
				"gasEstimates": {
					"creation": {
						"codeDepositCost": "2086000",
						"executionCost": "infinite",
						"totalCost": "infinite"
					},
					"external": {
						"addSigner(address)": "79437",
						"approvals(bytes32,address)": "3177",
						"approveTransaction(bytes32)": "infinite",
						"cancelTransaction(bytes32)": "infinite",
						"createTransaction(address,uint256,bytes)": "infinite",
						"createUniqueId(address,uint256,bytes)": "infinite",
						"executeTransaction(bytes32)": "infinite",
						"isSigner(address)": "2934",
						"owner()": "2556",
						"recoverWallet(address)": "32833",
						"recoveryAddress()": "2581",
						"removeSigner(address)": "infinite",
						"requiredSignatures()": "2452",
						"signers(uint256)": "5024",
						"transactionList(uint256)": "4906",
						"transactions(bytes32)": "infinite"
					}
				},
				"methodIdentifiers": {
					"addSigner(address)": "eb12d61e",
					"approvals(bytes32,address)": "24f6c776",
					"approveTransaction(bytes32)": "8f4fde9f",
					"cancelTransaction(bytes32)": "70ba3339",
					"createTransaction(address,uint256,bytes)": "a9496e75",
					"createUniqueId(address,uint256,bytes)": "cc526c45",
					"executeTransaction(bytes32)": "c69ed5f2",
					"isSigner(address)": "7df73e27",
					"owner()": "8da5cb5b",
					"recoverWallet(address)": "8f671849",
					"recoveryAddress()": "710eb26c",
					"removeSigner(address)": "0e316ab7",
					"requiredSignatures()": "8d068043",
					"signers(uint256)": "2079fb9a",
					"transactionList(uint256)": "04ef5b21",
					"transactions(bytes32)": "642f2eaf"
				}
			},
			"storageLayout": {
				"storage": [
					{
						"astId": 3,
						"contract": "contracts/MultiSigWallet.sol:MultiSigWallet",
						"label": "owner",
						"offset": 0,
						"slot": "0",
						"type": "t_address"
					},
					{
						"astId": 6,
						"contract": "contracts/MultiSigWallet.sol:MultiSigWallet",
						"label": "signers",
						"offset": 0,
						"slot": "1",
						"type": "t_array(t_address)dyn_storage"
					},
					{
						"astId": 8,
						"contract": "contracts/MultiSigWallet.sol:MultiSigWallet",
						"label": "requiredSignatures",
						"offset": 0,
						"slot": "2",
						"type": "t_uint256"
					},
					{
						"astId": 12,
						"contract": "contracts/MultiSigWallet.sol:MultiSigWallet",
						"label": "isSigner",
						"offset": 0,
						"slot": "3",
						"type": "t_mapping(t_address,t_bool)"
					},
					{
						"astId": 17,
						"contract": "contracts/MultiSigWallet.sol:MultiSigWallet",
						"label": "transactions",
						"offset": 0,
						"slot": "4",
						"type": "t_mapping(t_bytes32,t_struct(Transaction)73_storage)"
					},
					{
						"astId": 23,
						"contract": "contracts/MultiSigWallet.sol:MultiSigWallet",
						"label": "approvals",
						"offset": 0,
						"slot": "5",
						"type": "t_mapping(t_bytes32,t_mapping(t_address,t_bool))"
					},
					{
						"astId": 26,
						"contract": "contracts/MultiSigWallet.sol:MultiSigWallet",
						"label": "transactionList",
						"offset": 0,
						"slot": "6",
						"type": "t_array(t_bytes32)dyn_storage"
					},
					{
						"astId": 28,
						"contract": "contracts/MultiSigWallet.sol:MultiSigWallet",
						"label": "recoveryAddress",
						"offset": 0,
						"slot": "7",
						"type": "t_address"
					}
				],
				"types": {
					"t_address": {
						"encoding": "inplace",
						"label": "address",
						"numberOfBytes": "20"
					},
					"t_array(t_address)dyn_storage": {
						"base": "t_address",
						"encoding": "dynamic_array",
						"label": "address[]",
						"numberOfBytes": "32"
					},
					"t_array(t_bytes32)dyn_storage": {
						"base": "t_bytes32",
						"encoding": "dynamic_array",
						"label": "bytes32[]",
						"numberOfBytes": "32"
					},
					"t_bool": {
						"encoding": "inplace",
						"label": "bool",
						"numberOfBytes": "1"
					},
					"t_bytes32": {
						"encoding": "inplace",
						"label": "bytes32",
						"numberOfBytes": "32"
					},
					"t_bytes_storage": {
						"encoding": "bytes",
						"label": "bytes",
						"numberOfBytes": "32"
					},
					"t_mapping(t_address,t_bool)": {
						"encoding": "mapping",
						"key": "t_address",
						"label": "mapping(address => bool)",
						"numberOfBytes": "32",
						"value": "t_bool"
					},
					"t_mapping(t_bytes32,t_mapping(t_address,t_bool))": {
						"encoding": "mapping",
						"key": "t_bytes32",
						"label": "mapping(bytes32 => mapping(address => bool))",
						"numberOfBytes": "32",
						"value": "t_mapping(t_address,t_bool)"
					},
					"t_mapping(t_bytes32,t_struct(Transaction)73_storage)": {
						"encoding": "mapping",
						"key": "t_bytes32",
						"label": "mapping(bytes32 => struct MultiSigWallet.Transaction)",
						"numberOfBytes": "32",
						"value": "t_struct(Transaction)73_storage"
					},
					"t_struct(Transaction)73_storage": {
						"encoding": "inplace",
						"label": "struct MultiSigWallet.Transaction",
						"members": [
							{
								"astId": 66,
								"contract": "contracts/MultiSigWallet.sol:MultiSigWallet",
								"label": "destination",
								"offset": 0,
								"slot": "0",
								"type": "t_address"
							},
							{
								"astId": 68,
								"contract": "contracts/MultiSigWallet.sol:MultiSigWallet",
								"label": "value",
								"offset": 0,
								"slot": "1",
								"type": "t_uint256"
							},
							{
								"astId": 70,
								"contract": "contracts/MultiSigWallet.sol:MultiSigWallet",
								"label": "data",
								"offset": 0,
								"slot": "2",
								"type": "t_bytes_storage"
							},
							{
								"astId": 72,
								"contract": "contracts/MultiSigWallet.sol:MultiSigWallet",
								"label": "executed",
								"offset": 0,
								"slot": "3",
								"type": "t_bool"
							}
						],
						"numberOfBytes": "128"
					},
					"t_uint256": {
						"encoding": "inplace",
						"label": "uint256",
						"numberOfBytes": "32"
					}
				}
			},
			"userdoc": {
				"kind": "user",
				"methods": {
					"addSigner(address)": {
						"notice": "This function adds a new signer to the list of signers"
					},
					"approveTransaction(bytes32)": {
						"notice": "This function approves a transaction identified by its id."
					},
					"cancelTransaction(bytes32)": {
						"notice": "Allows a signer to cancel a transaction."
					},
					"constructor": {
						"notice": "A constructor to initialize the contract and set the signers, required signatures and recovery address."
					},
					"createTransaction(address,uint256,bytes)": {
						"notice": "Creates a new transaction with the provided destination address, value, and data."
					},
					"createUniqueId(address,uint256,bytes)": {
						"notice": "Generates a unique ID for a transaction."
					},
					"executeTransaction(bytes32)": {
						"notice": "Approves a transaction identified by the given ID."
					},
					"recoverWallet(address)": {
						"notice": "Recovers a wallet by transferring ownership to a new address."
					},
					"removeSigner(address)": {
						"notice": "Removes a signer from the list of signers."
					}
				},
				"version": 1
			}
		}
	}
}